:101000008028012035F60200C73A040021F60200CC
:1010100021F6020021F6020021F602000000000085
:10102000000000000000000000000000D1F70200F6
:1010300021F60200000000003DF7020021F6020048
:10104000A5FA0200AD580300A5FA0200A5FA0200B5
:10105000A5FA0200A5FA0200A5FA0200A5FA02000C
:10106000A5FA0200A5FA0200F19C0300A5FA02000D
:10107000A5FA0200A5FA0200A5FA0200A5FA0200EC
:10108000A5FA0200A5FA0200A5FA0200A5FA0200DC
:1010900011590300A5FA0200A5FA0200A5FA020000
:1010A000A5FA0200A5FA0200A5FA0200A5FA0200BC
:1010B000A5FA0200A5FA0200A5FA0200A5FA0200AC
:1010C000A5FA0200A5FA0200A5FA0200A5FA02009C
:1010D000A5FA0200A5FA0200A5FA0200A5FA02008C
:1010E000A5FA0200A5FA0200A5FA0200A5FA02007C
:1010F000A5FA0200A5FA0200A5FA0200A5FA02006C
:1011000001F0FF01102A2BDB10F0070F08D010F8B8
:10111000013B013A8B422DD010F0070F42B3F6D1BC
:10112000F0B441EA012141EA014122F007047FF0D5
:1011300000070023F0E80256083C85EA010586EA2C
:10114000010685FA47F5A3FA87F586FA47F6A5FA68
:1011500087F68EB9EED1F0BC01F0FF0102F0070274
:1011600032B110F8013B013A83EA010313B1F8D11F
:101170000020704701387047002D06BF3546033800
:10118000073815F0010F07D1013015F4807F02BF39
:10119000013015F4C03F0130F0BC0138704700BF8A
:1011A000014B1B685B68184700050020014B1B685A
:1011B0009B68184700050020014B1B681B691847F6
:1011C00000050020014B1B685B69184700050020E3
:1011D000014B1B689B69184700050020014B1B68E9
:1011E000DB69184700050020014B1B681B6A184784
:1011F00000050020014B1B689B6A18470005002072
:1012000030B4044C9DF8085024680295E468A44664
:1012100030BC60470005002030B50246114890F907
:101220001C3093421ADD90F92430934218DAD31A15
:10123000856A0D4CE85C235693420ED00E3400298B
:101240000CBF0346431CA542D8B206D129B1013ACE
:10125000D2B2012A01D80130C0B230BD0D20FCE766
:101260000020FAE7A01000205C5D040008B5054BE3
:1012700093F91C30984203DAFFF7CEFF024B1B565E
:10128000184608BDA01000205C5D040010B51C4C81
:1012900094F82C3073B9012384F82C3000F09EF8B8
:1012A00048B1184BA362D823236284F82430082362
:1012B000A361237710BD00F0A7F80028F1D100F05A
:1012C000ADF80028EDD100F06BF838B10E4BA362F9
:1012D000D823236284F824300423E9E700F06AF875
:1012E0000028F3D100F070F80028EFD100F080F86A
:1012F0000028EBD140F2BF11742000F019F800BFB4
:10130000A0100020975D04006A5D0400BFF34F8FBA
:101310000549064BCA6802F4E0621343CB60BFF391
:101320004F8F00BFFDE700BF00ED00E00400FA05AD
:101330001FB572B6134B5D688DB9FFF7E7FFB2FBBF
:10134000F6F2DCB20133002AF9D104F110036B4448
:1013500003F80C2C0A2234B901A8A847EDE702468D
:1013600000230A26EDE7631E04AEDCB256FA83F3CF
:10137000B0FBF2F602FB1600303003F80C0C3046DE
:10138000E9E700BF401500204FF08052034BD2F830
:1013900030111960D2F834215A6070477C15002052
:1013A000034B1868A0F10F0358425841704700BF23
:1013B0007C150020034B1868A0F10A0358425841DD
:1013C000704700BF7C150020034B1868A0F10E0386
:1013D00058425841704700BF7C150020034B1868E5
:1013E000A0F1100358425841704700BF7C150020FF
:1013F000044B1868062803D0431C584258417047D4
:10140000012070477C150020034B1868A0F10D03E4
:1014100058425841704700BF7C150020034B1868A4
:10142000A0F1080358425841704700BF7C150020C6
:1014300081F0004102E000BF83F0004330B54FEA85
:1014400041044FEA430594EA050F08BF90EA020FF2
:101450001FBF54EA000C55EA020C7FEA645C7FEA85
:10146000655C00F0E2804FEA5454D4EB5555B8BFA8
:101470006D420CDD2C4480EA020281EA030382EA19
:10148000000083EA010180EA020281EA0303362DAB
:1014900088BF30BD11F0004F4FEA01314FF4801C7E
:1014A0004CEA113102D0404261EB410113F0004F90
:1014B0004FEA03334CEA133302D0524263EB430347
:1014C00094EA050F00F0A780A4F10104D5F1200EE5
:1014D0000DDB02FA0EFC22FA05F2801841F1000140
:1014E00003FA0EF2801843FA05F359410EE0A5F114
:1014F00020050EF1200E012A03FA0EFC28BF4CF045
:10150000020C43FA05F3C01851EBE37101F00045FA
:1015100007D54FF0000EDCF1000C7EEB00006EEB07
:101520000101B1F5801F1BD3B1F5001F0CD3490891
:101530005FEA30004FEA3C0C04F101044FEA4452E8
:1015400012F5800F80F09A80BCF1004F08BF5FEA6F
:10155000500C50F1000041EB045141EA050130BD4F
:101560005FEA4C0C404141EB0101013C28BFB1F561
:10157000801FE9D291F0000F04BF01460020B1FAAC
:1015800081F308BF2033A3F10B03B3F120020CDA7F
:101590000C3208DD02F1140CC2F10C0201FA0CF05D
:1015A00021FA02F10CE002F11402D8BFC2F1200CC2
:1015B00001FA02F120FA0CFCDCBF41EA0C01904078
:1015C000E41AA2BF01EB0451294330BD6FEA0404C1
:1015D0001F3C1CDA0C340EDC04F11404C4F12002AC
:1015E00020FA04F001FA02F340EA030021FA04F3BE
:1015F00045EA030130BDC4F10C04C4F1200220FA15
:1016000002F001FA04F340EA0300294630BD21FA52
:1016100004F0294630BD94F0000F83F4801306BF18
:1016200081F480110134013D4EE77FEA645C18BF0C
:101630007FEA655C29D094EA050F08BF90EA020FA3
:1016400005D054EA000C04BF1946104630BD91EA9B
:10165000030F1EBF0021002030BD5FEA545C05D19E
:101660004000494128BF41F0004130BD14F58004DD
:101670003CBF01F5801130BD01F0004545F0FE4151
:1016800041F470014FF0000030BD7FEA645C1ABF86
:10169000194610467FEA655C1CBF0B46024650EABD
:1016A000013406BF52EA033591EA030F41F40021E9
:1016B00030BD00BF90F0000F04BF0021704730B56F
:1016C0004FF4806404F132044FF000054FF0000144
:1016D00050E700BF90F0000F04BF0021704730B505
:1016E0004FF4806404F1320410F0004548BF4042DA
:1016F0004FF000013EE700BF42004FEAE2014FEA2F
:1017000031014FEA02701FBF12F07F4393F07F4F09
:1017100081F06051704732F07F4208BF704793F00C
:101720007F4F04BF41F40021704730B54FF460741F
:1017300001F0004521F000411CE700BF50EA010222
:1017400008BF704730B54FF000050AE050EA0102CB
:1017500008BF704730B511F0004502D5404261EB3B
:1017600041014FF4806404F132045FEA915C3FF47C
:10177000D8AE4FF003025FEADC0C18BF03325FEA19
:10178000DC0C18BF033202EBDC02C2F1200300FACA
:1017900003FC20FA02F001FA03FE40EA0E0021FAEF
:1017A00002F11444BDE600BF70B54FF0FF0C4CF4DD
:1017B000E06C1CEA11541DBF1CEA135594EA0C0F8F
:1017C00095EA0C0F00F0DEF82C4481EA030621EACA
:1017D0004C5123EA4C5350EA013518BF52EA033505
:1017E00041F4801143F4801338D0A0FB02CE4FF0B7
:1017F0000005E1FB02E506F00042E0FB03E54FF0E7
:101800000006E1FB03569CF0000F18BF4EF0010EDE
:10181000A4F1FF04B6F5007F64F5407404D25FEADA
:101820004E0E6D4146EB060642EAC62141EA55518D
:101830004FEAC52040EA5E504FEACE2EB4F1FD0CCF
:1018400088BFBCF5E06F1ED8BEF1004F08BF5FEA4D
:10185000500E50F1000041EB045170BD06F00046FF
:1018600046EA010140EA020081EA0301B4EB5C04AC
:10187000C2BFD4EB0C0541EA045170BD41F48011A4
:101880004FF0000E013C00F3AB8014F1360FDEBFC9
:10189000002001F0004170BDC4F10004203C35DAA5
:1018A0000C341BDC04F11404C4F1200500FA05F328
:1018B00020FA04F001FA05F240EA020001F00042C9
:1018C00021F0004110EBD37021FA04F642EB06013F
:1018D0005EEA430E08BF20EAD37070BDC4F10C0469
:1018E000C4F1200500FA04F320FA05F001FA04F22D
:1018F00040EA020001F0004110EBD37041F1000119
:101900005EEA430E08BF20EAD37070BDC4F1200523
:1019100000FA05F24EEA020E20FA04F301FA05F28B
:1019200043EA020321FA04F001F0004121FA04F233
:1019300020EA020000EBD3705EEA430E08BF20EA03
:10194000D37070BD94F0000F0FD101F0004640003D
:1019500041EB010111F4801F08BF013CF7D041EABF
:10196000060195F0000F18BF704703F000465200C3
:1019700043EB030313F4801F08BF013DF7D043EA94
:101980000603704794EA0C0F0CEA135518BF95EA4A
:101990000C0F0CD050EA410618BF52EA4306D1D1D1
:1019A00081EA030101F000414FF0000070BD50EAF0
:1019B000410606BF1046194652EA430619D094EA7A
:1019C0000C0F02D150EA013613D195EA0C0F05D164
:1019D00052EA03361CBF104619460AD181EA0301B8
:1019E00001F0004141F0FE4141F470014FF0000070
:1019F00070BD41F0FE4141F4780170BD70B54FF00B
:101A0000FF0C4CF4E06C1CEA11541DBF1CEA13558A
:101A100094EA0C0F95EA0C0F00F0A7F8A4EB05046C
:101A200081EA030E52EA03354FEA013100F0888063
:101A30004FEA03334FF0805545EA131343EA12632C
:101A40004FEA022245EA111545EA10654FEA0026E1
:101A50000EF000419D4208BF964244F1FD0404F59A
:101A6000407402D25B084FEA3202B61A65EB0305F6
:101A70005B084FEA32024FF480104FF4002CB6EBB3
:101A8000020E75EB030E22BFB61A754640EA0C0033
:101A90005B084FEA3202B6EB020E75EB030E22BF73
:101AA000B61A754640EA5C005B084FEA3202B6EBB4
:101AB000020E75EB030E22BFB61A754640EA9C0073
:101AC0005B084FEA3202B6EB020E75EB030E22BF43
:101AD000B61A754640EADC0055EA060E18D04FEA01
:101AE000051545EA16754FEA06164FEAC30343EAA1
:101AF00052734FEAC2025FEA1C1CC0D111F4801F6E
:101B00000BD141EA00014FF000004FF0004CB6E766
:101B100011F4801F04BF01430020B4F1FD0C88BF05
:101B2000BCF5E06F3FF6AFAEB5EB030C04BFB6EB10
:101B3000020C5FEA500C50F1000041EB045170BD03
:101B40000EF0004E4EEA113114EB5C04C2BFD4EB30
:101B50000C0541EA045170BD41F480114FF0000EB4
:101B6000013C90E645EA060E8DE60CEA135594EA30
:101B70000C0F08BF95EA0C0F3FF43BAF94EA0C0F33
:101B80000AD150EA01347FF434AF95EA0C0F7FF4A8
:101B900025AF104619462CE795EA0C0F06D152EAFC
:101BA00003353FF4FDAE1046194622E750EA4106E0
:101BB00018BF52EA43067FF4C5AE50EA41047FF4F1
:101BC0000DAF52EA43057FF4EBAE12E74FF0FF3C56
:101BD00006E000BF4FF0010C02E000BF4FF0010C27
:101BE0004DF804CD4FEA410C7FEA6C5C4FEA430CA0
:101BF00018BF7FEA6C5C1BD001B050EA410C0CBFEF
:101C000052EA430C91EA030F02BF90EA020F002050
:101C1000704710F1000F91EA030F58BF994208BFB7
:101C200090422CBFD8176FEAE37040F00100704774
:101C30004FEA410C7FEA6C5C02D150EA013C07D1CB
:101C40004FEA430C7FEA6C5CD6D152EA033CD3D016
:101C50005DF8040B704700BF8446104662468C4610
:101C60001946634600E000BF01B5FFF7B7FF002843
:101C700048BF10F1000F01BD4DF808EDFFF7F4FF6C
:101C80000CBF012000205DF808FB00BF4DF808EDF7
:101C9000FFF7EAFF34BF012000205DF808FB00BF1A
:101CA0004DF808EDFFF7E0FF94BF012000205DF83C
:101CB00008FB00BF4DF808EDFFF7CEFF94BF0120F1
:101CC00000205DF808FB00BF4DF808EDFFF7C4FFEA
:101CD00034BF012000205DF808FB00BF4FEA410C33
:101CE0007FEA6C5C02D150EA013C0AD14FEA430C16
:101CF0007FEA6C5C02D152EA033C02D14FF0000053
:101D000070474FF0010070474FEA410212F5001290
:101D100015D211D56FF47873B3EB625212D94FEA32
:101D2000C12343F0004343EA505311F0004F23FA1C
:101D300002F018BF404270474FF00000704750EA71
:101D4000013005D111F0004008BF6FF0004070472E
:101D50004FF00000704700BF4A0011D212F5001288
:101D600011D20DD56FF47873B3EB62520ED44FEAF3
:101D7000C12343F0004343EA505323FA02F0704773
:101D80004FF00000704750EA013002D14FF0FF30B1
:101D900070474FF0000070474FEA4102B2F1E04354
:101DA00024BFB3F5001CDCF1FE5C0DD901F0004C42
:101DB0004FEAC0024CEA5070B2F1004F40EB830092
:101DC00008BF20F00100704711F0804F21D113F1BE
:101DD0003872BCBF01F00040704741F480114FEAF7
:101DE0005252C2F11802C2F1200C10FA0CF320FA80
:101DF00002F018BF40F001004FEAC1234FEAD3239D
:101E000003FA0CFC40EA0C0023FA02F34FEA430306
:101E1000CCE77FEA625307D150EA01331EBF4FF08F
:101E2000FE4040F44000704701F0004040F0FE40AA
:101E300040F40000704700BF80F0004002E000BFA7
:101E400081F0004142001FBF5FEA410392EA030FA5
:101E50007FEA226C7FEA236C6AD04FEA1262D2EBEF
:101E60001363C1BFD218414048404140B8BF5B42F4
:101E7000192B88BF704710F0004F40F4000020F08D
:101E80007F4018BF404211F0004F41F4000121F0A3
:101E90007F4118BF494292EA030F3FD0A2F10102ED
:101EA00041FA03FC10EB0C00C3F1200301FA03F12B
:101EB00000F0004302D5494260EB4000B0F5000F4E
:101EC00013D3B0F1807F06D340084FEA310102F10D
:101ED0000102FE2A51D2B1F1004F40EBC25008BFBF
:101EE00020F0010040EA03007047490040EB000089
:101EF000013A28BFB0F5000FEDD2B0FA80FCACF18A
:101F0000080CB2EB0C0200FA0CF0AABF00EBC250B6
:101F100052421843BCBFD0401843704792F0000FA4
:101F200081F4000106BF80F400000132013BB5E7F7
:101F30004FEA41037FEA226C18BF7FEA236C21D06D
:101F400092EA030F04D092F0000F08BF08467047D2
:101F500090EA010F1CBF0020704712F07F4F04D1A0
:101F6000400028BF40F00040704712F100723CBFB3
:101F700000F50000704700F0004343F0FE4040F4DD
:101F8000000070477FEA226216BF08467FEA23639B
:101F90000146420206BF5FEA412390EA010F40F486
:101FA000800070474FF0000304E000BF10F00043D2
:101FB00048BF40425FEA000C08BF704743F09643B9
:101FC00001464FF000001CE050EA010208BF7047D4
:101FD0004FF000030AE000BF50EA010208BF70475B
:101FE00011F0004302D5404261EB41015FEA010C70
:101FF00002BF84460146002043F0B64308BFA3F168
:102000008053A3F50003BCFA8CF2083AA3EBC25349
:1020100010DB01FA02FC634400FA02FCC2F1200268
:10202000BCF1004F20FA02F243EB020008BF20F09F
:102030000100704702F1200201FA02FCC2F1200205
:1020400050EA4C0021FA02F243EB020008BF20EAFA
:10205000DC7070477BB972B90029BEBF00204FF019
:10206000004106E008BF00281CBF6FF000414FF0A0
:10207000FF3000F095B8ADF1080C6DE904CE0029F1
:1020800009DB002B1ADB00F005F9DDF804E0DDE9DF
:10209000022304B07047404261EB4101002B1BDB7F
:1020A00000F0F8F8DDF804E0DDE9022304B0404276
:1020B00061EB4101524263EB43037047524263EBD1
:1020C000430300F0E7F8DDF804E0DDE9022304B0A3
:1020D000404261EB41017047524263EB430300F021
:1020E000D9F8DDF804E0DDE9022304B0524263EBE5
:1020F0004303704753B94AB9002908BF00281CBFE1
:102100004FF0FF314FF0FF3000F04AB8ADF1080C4E
:102110006DE904CE00F0BEF8DDF804E0DDE902234D
:1021200004B07047D0B5FFF7E7FA0C4B0022064623
:102130000F46FFF739FBFFF70FFE0446FFF7BAFA29
:10214000074B0022FFF730FB02460B46304639466C
:10215000FFF772F9FFF700FE2146D0BD0000F03D09
:102160000000F041D0B50C4B002206460F46FFF7A9
:102170001BFBFFF7F1FD0446FFF79CFA074B00221B
:10218000FFF712FB02460B4630463946FFF754F97B
:10219000FFF7E2FD2146D0BD0000F03D0000F04118
:1021A000704700BF08B5FFF7EFF8BDE80840FFF73C
:1021B0006DB870B5841A04F307040E4660B259B2C4
:1021C0001546FFF753F8002330702844737040B26F
:1021D00070BD0023036070477047002070474FF0C8
:1021E000FF3070474FF0FF30704770474FF0FF30BF
:1021F000704700207047002070470023037070472D
:102200009DF800300022FFF7D4BF002070474FF048
:10221000FF3070474FF0FF3070474FF0FF3070478E
:10222000704700280CBF6FF0150000207047002099
:10223000704707230370002070470020704700207C
:10224000704710F8012B11F8013B012A28BF9A4270
:10225000F7D0D01A7047034613F8012B002AFBD1A0
:10226000181A0138704738B50022002304460D467D
:10227000FFF70CFD28B920462946BDE83840FFF796
:1022800071BF204605F10041FFF76CFF404261EB52
:10229000410138BD2DE9F04786468C460846089E28
:1022A000154674461946002B40F0C2808542B2FAAA
:1022B00082F245D94AB1C2F1200300FA02FC2EFA9B
:1022C00003F3954043EA0C0C94404FEA154EA8B234
:1022D000BCFBFEF8230C0EFB18CC08FB00F943EA0C
:1022E0000C43994528D9EB1808F1FF3704D29945DA
:1022F00002D9A8F102072B44A3EB0903A4B2B3FB54
:10230000FEFC0EFB1C330CFB00F044EA0344A0422D
:1023100014D92C190CF1FF3304D2A04202D9ACF12C
:1023200002032C44241A43EA07401EB1D440002380
:1023300034607360BDE8F0874746DDE76346F1E748
:1023400092BB431B01214FEA154EAFB2B3FBFEFC1B
:10235000200C0EFB1C330CFB07F840EA03439845A6
:1023600062D9EB180CF1FF3004D2984502D9ACF1D8
:1023700002002B44A3EB0803A4B2B3FBFEFC0EFB4C
:102380001C330CFB07F744EA0344A7424ED92C192F
:102390000CF1FF3304D2A74202D9ACF102032C4462
:1023A000E41B43EA0040C0E7C2F1200320FA03F136
:1023B000954090402EFA03F303434FEA154EAFB217
:1023C000B1FBFEFC0EFB1C10190C0CFB07F841EADC
:1023D0000041884504FA02F422D969180CF1FF3053
:1023E00004D2884502D9ACF102002944A1EB0801CE
:1023F0009BB2B1FBFEFC0EFB1C110CFB07F743EA82
:1024000001439F420ED9EB180CF1FF3104D29F42D9
:1024100002D9ACF102012B44DB1B41EA004192E7F7
:102420006046E3E76146F7E76046A3E76346B7E740
:10243000834206D916B9002108467BE7C6E900E0C9
:10244000F9E7B3FA83F78FB9834201D3724508D80D
:10245000BEEB020460EB030301209C461EB9002181
:1024600068E73846FAE7C6E9004CF8E7C7F1200C00
:10247000BB4022FA0CF41C432EFA0CF120FA0CF3A8
:10248000B84001434FEA14490EFA07F5B3FBF9F8D7
:102490001FFA84FE09FB18300B0C08FB0EFA43EA06
:1024A00000439A4502FA07F240D9E31808F1FF30D9
:1024B00004D29A4502D9A8F102002344A3EB0A03EF
:1024C00089B2B3FBF9F809FB183308FB0EFE41EAA9
:1024D00003418E452CD9611808F1FF3304D28E4593
:1024E00002D9A8F10203214443EA0040A0FB02986C
:1024F000A1EB0E014145CE46434602D306D14D45E0
:1025000004D2B9EB020E68EB04030138002EA6D00A
:10251000B5EB0E0261EB030101FA0CFC22FA07F3A2
:102520004CEA0303F940C6E9003198E74046C5E7A5
:102530004346D9E7000000002DE9F04F2DED048B54
:1025400087B00678012E00AF1AD0022E00F0AE80C0
:1025500086B9A84A136801331360A74B1E60A74BC6
:102560001B783BB10BF060FF20B933F03DFE08B1A2
:102570000CF0EAFE1C37BD46BDEC048BBDE8F08FC5
:102580009F4C2368013323603EF037FF24686422A8
:10259000B4FBF2F302FB13439A4A2BB1136841F2E6
:1025A0008831C31A8B421FD9924B10601E68A5193F
:1025B00018BF64234FF00A001CBF6343B3FBF5F55B
:1025C00029F09EFE50B1904BC0E90745C0E90536A1
:1025D00005230374002343748374C3748B4900235D
:1025E0004FF4235241F02AF8DFF86082884D98F8C2
:1025F0000030B3B13EF001FF864AD2E90064861B89
:1026000061EB04040BF0A2FB64380023B04273EBCF
:10261000040406DA804A88F8003013602B6801331E
:102620002B602E68BEB30A23B6FBF3F403FB1464DD
:10263000ACB97A4B1B78F02B11D1082029F060FE41
:1026400038B1774B4474C0E90536032303748474AE
:10265000C4746E4900234FF4C45240F0EFFF2C685D
:10266000B4F5967F17D13EF0C8FE6E4BC3E900016A
:10267000082029F045FE40B16B4BC0E90534032327
:102680000374002343748374C374604900234FF4BC
:10269000C45240F0D3FF594B1B78002B3FF46AAF74
:1026A0000BF0C2FE00287FF465AF61E75F4D28465E
:1026B00033F04CFE10F13D0F04463FF45BAFA8B180
:1026C000082029F01DFE50B1594B4361594BC0E918
:1026D000063404230374002343748374C3740023F7
:1026E0004FF40152494940F0A9FF43E752492B7882
:1026F0000A78002A43D1082B7FF43CAF4F4C237853
:10270000002B3FF437AF4E4B68795B79984201D08C
:1027100022702FE74FF000084FF00009C7E9048945
:10272000B5F80B30BB82D5F80700BE8A38614FF090
:1027300080537E61D3F8A4C0D3F8A8309BB29E42E8
:1027400008BF604514D1062029F0DAFD38B13D4BB1
:10275000436102230374002343748374C37400230E
:102760002A494FF4845240F069FF0023237001E7A7
:10277000D5F805300B60D5F809304B60C8E70D2B54
:1027800068D0112B3FF4F6AE032B40F2EF836B7948
:10279000AA2B40F0EB830BF047FE002800F0E68305
:1027A0002B78AA792148284CDFF8A4C0023B03EB20
:1027B000D373C3F34703934228BF13460026F2B2F4
:1027C00093427FF6D7AEC279057A45EA0225002208
:1027D00094F800E0D1B27145C0F0BD8322780F2A91
:1027E00000F2C1832278D1B20132D2B222702CF829
:1027F0001150B8E3685A0020705A0020D0BC002065
:10280000645A0020605A0020F1780400A45B0400A0
:10281000FC5A002018180020005B0020F817002048
:102820001A790400001900203A790400DABC00206B
:102830007F790400CB860400D2BC002027BD002095
:10284000FD0C0020A579040016830020CFBC0020D9
:102850007A8000206B79F12B7FF48CAE0C22691DFD
:10286000072027F089FA6B7C83420DD0062029F0DF
:1028700047FD28B1A24B4361067444748474C47448
:1028800000234FF484522DE79E4B95F806901E7856
:10289000DFF8C0824E452CD0082029F031FD48B128
:1028A000994BC661C0E905390423037400234374BE
:1028B0008374C374954900234FF4025240F0BEFE66
:1028C000934B002402201C70C8F8004024F0E4F868
:1028D00001287FF44FAE2146022024F02DF88D4BC5
:1028E00000200021C3E900018B4B1C708B4B1C6046
:1028F00040E6DFF864B295F807909BF80060844BDF
:10290000B6EB09064FF0000A4FF0020048BF06F58B
:102910008076C8F800A083F800A024F0BDF8012854
:10292000DFF8F88111D1D8F800300133C8F8003051
:102930006BB15146022023F0FFFF9FED6F7B754B7B
:1029400083ED007B744B83F800A0C8F800A0052E2F
:1029500016DD0A209BF8008029F0D2FC50B1704BA4
:10296000C0E90786C0E905390523037400234374D1
:102970008374C374654900234FF4225240F05EFE15
:10298000AA68298995F808A0B5F809606B89654897
:1029900090F800C0CC4504D1D0F80480B8F1000F05
:1029A00006D101340A2C00F10800F1D14FF00008E3
:1029B0002C7B0C2C6DD1C9BA07EE901A9FED5A7A78
:1029C000F8EEE77ADBBA87EE878A204607EE903A80
:1029D000B5F80D30F8EEE77ADBBA87EE879A07EEA6
:1029E000903AF8EEE77AC7EE878A29F089FC064626
:1029F000C8B14E4B436118EE100AFEF77DFEC6E9E2
:102A0000060119EE100AFEF777FEC6E9080118EE76
:102A1000900AFEF771FE0823C6E90A013374002309
:102A20007374B374F37430463849002344F2C0021F
:102A300040F004FE0026B2463D4B1978002940F0D4
:102A40009F811C703EF0D9FC3A4B0A2CC3E900016F
:102A500040F0A081D5F80D30374A1BBA6D468CB0D6
:102A600013606A463549136240F2DC535161536288
:102A700033494FF400731385324BC2E9061442F810
:102A8000103F00234FF45351204829F019FEAD4662
:102A900070E5242C62D1C6B9082029F031FC38B188
:102AA000294B4674C0E9053A032303748674C6743F
:102AB00000234FF4C652154940F0C0FD9FED238A14
:102AC000B0EE489AF0EE488AB6E776BA0820B6B279
:102AD00029F016FC48B11E4BC661C0E9053A042333
:102AE0000374002343748374C37400234FF40352AC
:102AF000E1E700BFAFF3008000000000000000002D
:102B0000E179040035B80020F3790400A45B0400E7
:102B1000CFBC00200019002028BD0020005B002051
:102B2000217A0400AC5A00200000C8424D7A04000B
:102B3000CCBC002010180020A85A00201E7B0400E6
:102B4000647B040006000001767A040000000000A7
:102B5000AC7A0400FC5A0020CEBC0020B8F1000F73
:102B600048D0994BDFF8B8E21868984BDEF800605F
:102B7000DFF8B092A0EB080CACFB0313C90B41EAE1
:102B80004341BCF1000F3BD0B44539D8CEF800C06A
:102B90000023C9F80030DEF800308C4E9B00A3FB08
:102BA0000636DB0B43EA4643B3F57A7F38BF4FF472
:102BB0007A7399421ED2864B16BAC3F80080361A31
:102BC0003EF01BFC834B844AC3E900018349844BDC
:102BD000087810BB1E60834BDFF810C21860012319
:102BE000CCF80060C2F800800B707F4B01221A7095
:102BF00041F052FF002C00F09E800026B2465DE7B7
:102C0000D9F800300133772BC9F80030C3D9132E1F
:102C1000C1D80136CEF80060BAE71268DFF8089232
:102C20001B68BB60A8EB020BD9F80020FA604FEAE2
:102C3000E27CA2FB0B010BFB0C1161A3D3E9002387
:102C4000FFF708FABB68694A034412687A60F31A0E
:102C500083EAE372A2EBE372B2F5FA4F4FF0000A97
:102C600024DD0A20FB6029F04BFB70B1FB68836117
:102C70007B685F4A4261C0E907360523037480F828
:102C800011A080F812A080F813A0002359494FF436
:102C9000225240F0D3FC554B1E60514B1E604E4BF0
:102CA000C3F800800023C9F800309EE7BBF5004F51
:102CB00011D3BB685048F11A5A46534681FB0001B4
:102CC000FFF7C8F9FB68C01AFB6848BF033003EB85
:102CD000A000C9F80000434BD9F800001A6802F1BF
:102CE000010AC3F800A03A4B1B68A8EB030CC117FC
:102CF000ACFB000E32A3D3E900230CFB01E1FFF78C
:102D0000A9F97B6803449946BAF1050FA6EB0303C2
:102D100098BF03EB43039A1C48BF5A1D334BBBF5C6
:102D2000F01F09EBA2021A6081BF2D4B1E602A4BD7
:102D3000C3F8008059E76C7BAE7B95F80F802D7C43
:102D4000FF2C0DD066B1B8F1000F09D00EF01EFABD
:102D5000854205D02B464246314620460EF096F974
:102D6000264B1A78002A3FF405AC254900221A7038
:102D7000244B0A7000200021C3E90001FFF7FABBD1
:102D80001E4A12788A427FF4F5AB94427FF459AE22
:102D9000FFF7F0BB0C2C08D11B4B83ED008A83EDB1
:102DA000019AC3ED028A194907E0242C3ED1184B41
:102DB000184983F800A0184B1E80184B59E000BF3B
:102DC00000CA9A3B00000000C87D002040420F006E
:102DD000945A002008180020885A002036B8002095
:102DE0008C5A0020805A002037B80020985A0020C2
:102DF000DD7A0400A45B040000CA9A3BCBBC00202F
:102E0000CCBC0020101800209C5A00204C810400EB
:102E1000CABC0020E77804009C820020BB78040034
:102E2000CC060020845A0020905A0020631E322BCA
:102E300000F28980DFE803F0898C2E313437434675
:102E40004987874F5154575A665D6063696C6F3A82
:102E50003D407275787B87874C8787878787878710
:102E6000878787878787871A7E8184005E49302419
:102E70005E4B6D468AB06A465D48C2E907435D4BCA
:102E800053625D4BC2E9050142F8103F00234FF445
:102E90004351F9E5594903248FE7594904248CE744
:102EA0005849052489E75849062486E757491824D4
:102EB00083E75749192480E756491A247DE7564984
:102EC00007247AE75549082477E75549092474E728
:102ED0005449212471E70C2465E753490D246CE71C
:102EE00052490E2469E752490F2466E751491024DC
:102EF00063E75149122460E7504913245DE75049C4
:102F000014245AE74F49112457E74F49152454E731
:102F10004E49162451E74E4917244EE74D491B24CC
:102F20004BE74D491C2448E74C491D2445E74C49D3
:102F30001E2442E74B4931249AE74B49322497E754
:102F40004A49332494E74A4937E74A49012434E798
:102F50004949022431E73CF8111089B28D4202F14F
:102F600001027FF435AC0136023028E42E78012EC0
:102F700028D96B79203B052B24D8DFF810813F4BF3
:102F800098F800401B78013404F00F049C423FF491
:102F9000F1AA98F800003A4D3A4900EBC00300EB63
:102FA000C3003246284441F0DBFD98F80030492246
:102FB00002FB035585F84860BFF35F8F88F8004037
:102FC000FFF7D8BA082029F09BF940B12E4BC0E991
:102FD000053603230374002343748374C3740023EE
:102FE0004FF4C452FFF77EBB99830400A578040018
:102FF000707B04000002020405000002957D0400BD
:10300000BC7D0400E27D0400017E0400257E0400F6
:10301000477E0400687E0400637F0400057E040090
:1030200085AE040095AE04006F810400CF810400DA
:10303000F3810400178204003B82040060820400D4
:1030400087820400AF820400CE820400F58204006F
:103050001C8304008A7E0400AC7E0400CF7E040042
:10306000F17E0400C2830400D27804009678040044
:10307000DF7804004E7D0400717D040038B8002024
:103080003AB80020DFBC0020987B040039B800204B
:1030900070B5234E33781BB33EF0AFF9214AD2E925
:1030A000004543F69923041B61EB05059C4275F12D
:1030B000000318DB082029F023F948B11A4BC56139
:1030C000C0E9053404230374002343748374C37478
:1030D000002316494FF4025240F0B0FA0023337037
:1030E0000020002170BD41F0D7FC114B1D68114B31
:1030F000451B04461868C617A5FB000106A3D3E9C3
:10310000002305FB0611FEF7A5FF0B4B1B681C44B3
:103110002044E6E7AFF3008000CA9A3B00000000BD
:1031200037B8002008180020A8840400A45B04001D
:10313000945A0020905A0020985A00200000000065
:10314000F0B514461A4AA0FB020302FB0131C00B82
:1031500085B040EA414014A3D3E90023C90BFEF730
:10316000C9FF0546194610460023124AFEF7C2FF62
:1031700006461946104600230D4AFEF7BBFF0746D8
:103180001946104600234FF47A72FEF7B3FF0097FA
:10319000CDE90102334608482A4621463FF036FD74
:1031A00005B0F0BDAFF3008000A493D6000000008E
:1031B00040420F00008793030B93040000000000BF
:1031C0002DE9F04F2DED068BCBB024F0D3F850B1A4
:1031D0004FF0804357220120C3F81C250DF0DCFF7F
:1031E000002022F025FE2BF083FC29F09FF80446F6
:1031F000002840F0F580914841F049FB78B18F4DAF
:103200004594AE683224B36C002B40F0ED8064200E
:103210003EF003F9013CF6D164203EF0FEF8884808
:10322000884D3FF0F3FC0C241223CDE901340B232D
:10323000854800930722042340F2EA713FF0E6FC40
:10324000824B834A834984483FF0E0FC0DF0B6FF8F
:10325000824B18681B798DF84430814B10909A8806
:10326000ADF8B4207F4A186851689B792C9010689B
:103270008DF8B63038AB03C3127A1A707A4B9A883D
:10328000ADF8BC20794A186851689B792E90106877
:103290008DF8BE3034AB03C3754B764A186851685D
:1032A0001B79129010688DF84C303BAB03C3128928
:1032B0001A80714B18681B798DF854306F4B14903D
:1032C00018689B88ADF894306D4B249018689B88E3
:1032D000ADF89C306B4B26909A8818689B798DF8D6
:1032E000C630694B3090CDE90653684BADF8C42029
:1032F00018681B798DF85C30654B664A1690186823
:103300009B882890ADF8A4301068516836AB03C391
:10331000614B41AA03F1080618685968144603C4B2
:103320000833B3422246F7D118681B7923715B4BEF
:10333000206008935A4B5B4A18681B798DF86430FB
:10334000594B189018681B7951681A908DF86C3099
:103350001068564B09933EAB03C312891A80544A36
:10336000544B1068544E1C9018681E9030682A9078
:10337000B088ADF8AC005148147919798DF87440D3
:103380008DF87C100A90A0F54020A0F61970CDE9C8
:103390000B05106820901868494B0D93494B2290FB
:1033A0009A8818689B798DF8CE30474B8DF8844009
:1033B0008DF88C103290ADF8CC200E932BF080FB62
:1033C00006460246414800251178C9B9052214A9CC
:1033D000304641F0B5FB00287AD10DF0EFFEEDE765
:1033E000012039F0F3FD00E745AA0421284698475B
:1033F00000287FF40CAF459B002B3FF408AF0BE790
:10340000445C537804F00304012C04D12031117082
:1034100011464A1CD8E72029FAD1002DF8D11570A1
:10342000C15C01F00301012908BF2033DBB2511C4C
:103430005370002B18BF0D46EBE700BF0856040081
:10344000309704006D6167005B970400B997040032
:10345000E8840400C2970400F697040025440500A0
:1034600022AD04002507050072AE0400724205007B
:10347000E71E0500BAA6040029AD04002EAD040025
:1034800034AD04003AAD04007365740041AD04002E
:10349000C29F0400987C050046AD04006466750078
:1034A0000C23050053AD04004E8704006E767300B4
:1034B0005DAD040062AD04000D7D04007A726F0002
:1034C0006261740077250500616C6C00FB9B050050
:1034D000052210A9304641F033FB8346002840F016
:1034E0001383CC48DFF8B4A33FF090FB12230C20E9
:1034F000CDE901300B23C84800930722042340F292
:10350000EA713FF083FBC54BC54AC649C6483FF048
:103510007DFBC6483FF07AFBC5483FF077FBC548C6
:103520003FF074FBC4483FF071FBDAF80030B3F8A9
:10353000923403F07F037F2B00F0B1821EF060FF16
:103540000146BE483FF062FBDAF8003093F896344B
:10355000FF2B08D013F0800FB94BBA49BA4818BFF7
:1035600019463FF053FBDAF80030B84893F8962438
:10357000B3F892143FF04AFBDAF80030B3F8943411
:1035800003F07F037F2B00F08C821EF04FFF044678
:103590001FF082FCAE4BAF4A2146002818BF1A46E6
:1035A000AD483FF033FBDAF8003093F89724FF2A58
:1035B0000FD0B3F89414090640F1758293F996245C
:1035C000A649A74B31EA220128BF19469E483FF081
:1035D0001DFBDAF800309D4893F89724B3F8941453
:1035E000DFF898823FF012FB9E483FF00FFB00256A
:1035F000DAF8004004EB85040135D4F84401FEF705
:103600007BF80646D4F868010F46FEF775F8CDE959
:103610000401D4F85C01FEF76FF8CDE90201D4F89B
:103620005001FEF769F83246CDE900013B464046BD
:103630003FF0ECFA032DDBD18B483FF0E7FADAF8E4
:103640000060D6F84401FEF757F80446D6F84C015E
:103650000D46FEF751F8CDE90201D6F84801FEF714
:103660004BF822462B46CDE9000180483FF0CEFAC8
:10367000DAF80060D6F85001FEF73EF80446D6F8B6
:1036800070010D46FEF738F8CDE90201D6F8600169
:10369000FEF732F822462B46CDE9000174483FF090
:1036A000B5FADAF80060D6F8FC00FEF725F8044613
:1036B000D6F804010D46FEF71FF8CDE90201D6F851
:1036C0000001FEF719F822462B46CDE900016948B2
:1036D0003FF09CFA45A811F075F94598FEF70CF8F3
:1036E000044646980D46FEF707F8064647980F46EB
:1036F000FEF702F8804689461FF068FE10EE100AB9
:10370000FDF7FAFFCDE90067CDE9040122465A48EA
:103710005A4F2B46CDE902893FF078FA58483FF0DE
:1037200075FADAF8006006EB8B060BF1010BD6F8A0
:103730001401FDF7E1FF0446D6F838010D46FDF708
:10374000DBFFCDE90401D6F82C01FDF7D5FFCDE96B
:103750000201D6F82001FDF7CFFF2246CDE9000196
:103760002B4638463FF052FABBF1030FD9D1DAF8B5
:103770000030D3ED457AF5EE407AF1EE10FA4FF0D5
:10378000000240F09781D3ED467AF5EE407AF1EEF3
:1037900010FA40F08F81D3ED477AF5EE407AF1EEE2
:1037A00010FA40F087810FA80F923DF04BFF0446BE
:1037B00010F03AFB334D10EE100AFDF79DFF064660
:1037C0000F980F46FDF798FF32463B46CDE90201C0
:1037D000009429462C483FF019FA1EF037FE0146A6
:1037E0002A483FF013FA14483FF010FADAF8003094
:1037F000274893F8661093F86560264B002E08BFA3
:1038000018463FF003FA4FF080522348D2F8A83010
:1038100046E000BF1A9804005B970400B9970400C3
:10382000E8840400C2970400F69704003D98040061
:103830005398040062980400B29305008598040030
:103840007D2C0500421905008E9804009D98040007
:10385000AC6C0500D5B10400B2980400A696040033
:1038600093960400CA980400F79804000C99040089
:103870002A9904004799040067990400E29804001B
:10388000A29904001A2D0500B8990400F8990400C3
:10389000BF960400CF960400059A0400D0060020CD
:1038A000D2F8A4209BB23FF0B1F9DAF80020B24878
:1038B000D2F86930B2F8672042EA03421B0C3FF0AD
:1038C000A5F9DAF80030002B00F0FF8093ED5DAA37
:1038D000DFEDAA8AD3ED5F9A93ED5E9AB7EE008A88
:1038E000C8EE0A7A78EE677A67EEA87A17EE900A41
:1038F000FDF702FFC8EE297A04460D4678EE677A96
:1039000067EEA87A17EE900AFDF7F6FEC8EE097A80
:10391000CDE9020138EE678A68EE287A17EE900A40
:10392000FDF7EAFE22462B46CDE900019448052129
:103930003FF06CF91AEE100AFDF7DEFE044619EEB0
:10394000900A0D46FDF7D8FECDE9020119EE100AE6
:10395000FDF7D2FE2246CDE900012B4689483FF013
:1039600055F9DAF800208449D2F869308648B2F86F
:103970006720002E18BF084642EA03421B0C3FF0A6
:1039800045F9DAF8003093F89814642992BF7F481B
:103990007F4854213FF03AF97E483FF037F920F054
:1039A00041F8834620F04CF81FF0ACFF824620F02F
:1039B0004DF807460E4620F049F90546894620F0A5
:1039C0004BF8BBF1000F0446884640F38E8041F06F
:1039D00067F8714AC01B61EB0603A0FB020102FB02
:1039E0000311C00B40EA414061A3D3E90023C90B96
:1039F000FEF780FB1946064600231046674AFEF78D
:103A000079FB0746504616B9FBB2002B61D0FDF793
:103A100061FE634B0022FDF7F1FFCDE9006702462E
:103A20000B4660483FF0F2F855EA090364D05A4B60
:103A3000A5FB030103FB0911C00B40EA41404CA365
:103A4000D3E90023C90BFEF755FB0546194610467E
:103A50000023524AFEF74EFB2946024652483FF0E9
:103A6000D5F854EA08034BD04B4BA4FB030103FBEE
:103A70000811C00B40EA41403DA3D3E90023C90B24
:103A8000FEF738FB0446194610460023434AFEF76A
:103A900031FB2146024645483FF0B8F88EE44449E0
:103AA0004FE5434C74E5434B434912F0800F18BF78
:103AB00019468BE50FA80F923DF0C4FD044610F0A7
:103AC000B3F93E4D10EE100A77E63D483FF09EF800
:103AD00047E7FDF7FFFD324B0022FDF78FFF02465F
:103AE0000B4638483FF092F89EE73E430CBF3648FD
:103AF00036483FF08BF897E735483FF087F8B0E756
:103B000034483FF083F859E407222CA9304641F0AD
:103B100017F8B0B940F0C4FF2F4A0D460446FFF72E
:103B20000FFB2E4B1B68D3E90401D3E90223801A53
:103B300061EB030100192A4A41EB0501FFF700FB85
:103B40003CE4092238A9304640F0FAFF10B90DF0E4
:103B50009DFD33E407222EA9304640F0F1FF0028F6
:103B600040D102200DF018FB002022F061F925E47D
:103B700000A493D600000000E29604000000E14497
:103B80001E9A0400609A0400FD960400C09A040086
:103B9000D99A0400B293050040420F0000879303B6
:103BA00000005940F39A04004E9B04008E9B0400D1
:103BB000859604007D2C050042190500B896040086
:103BC0008D9A0400199B04002A9B04001C9C04008D
:103BD0006C9B0400B09B0400D69B0400D006002020
:103BE000DD9B0400082234A9304640F0A9FF0028DC
:103BF00040F011811FF010FF0146C0483FF006F869
:103C00001FF010FF80461FF01BFF81461FF07AFE59
:103C100006461FF01BFFB8F1000F04460D4640F3A7
:103C2000DA803046FDF756FDB54B0022FDF7E6FE83
:103C3000064648460F46CDF80880FDF74BFDB04BD1
:103C40000022FDF7DBFE3246CDE900013B46AD48E0
:103C50003EF0DCFF54EA050300F0C18040F020FF95
:103C6000001BA94A61EB0501FFF76AFA1FF0F4FE99
:103C7000814688461FF046FF07460E461FF094FF18
:103C800005460C461FF0E2FF50EA010300F0AB804E
:103C90009E4AFFF755FA59EA080300F0A8809C4AAB
:103CA00048464146FFF74CFA57EA060300F0A38066
:103CB000984A38463146FFF743FA55EA040300F0C4
:103CC0009E80954A28462146FFF73AFA3EF059FA77
:103CD00005463EF068FA044628461FF013FE824669
:103CE00020461FF00FFE80463EF06FFA45EA0403BF
:103CF0001A0407460E4600F1868050EA010300F0E0
:103D000082804046FDF7E6FC7D4B0022FDF776FE03
:103D1000804628468946FDF7DDFC794B0022FDF7F9
:103D20006DFECDE904012046FDF7D4FC744B002262
:103D3000FDF764FECDE902015046FDF7CBFC704B68
:103D40000022FDF75BFE4246CDE900014B46734879
:103D50003EF05CFF724A38463146FFF7F1F91FF03A
:103D6000DFFF064620F002F8044620F017F844EA88
:103D700000031B0407464AD42046FDF7ABFC604B0A
:103D80000022FDF73BFE06EB86060446F0B20D4628
:103D9000FDF790FCCDE902013846FDF79BFC584B3E
:103DA0000022FDF72BFE2246CDE900012B465D489F
:103DB0003EF02CFF1FF090FFFDF77CFC5A4B0022D9
:103DC000FDF71CFE02460B4658483EF01FFF20F050
:103DD00061F8FFF7F3BA56483EF018FF3AE7554846
:103DE0003EF014FF42E754483EF010FF53E75348BB
:103DF0003EF00CFF58E752483EF008FF5DE751489F
:103E00003EF004FF62E750483EF000FFA7E74F484E
:103E10003EF0FCFECEE7052212A9304640F090FEAF
:103E200020B901201FF08CF8FFF7C8BA0A223BA97D
:103E3000304640F085FE18B93DF0FEFBFFF7BEBAF4
:103E400005221CA9304640F07BFE0446002840F0C5
:103E50008F800DB93E4854E63E490422284640F082
:103E600095FEF0B92E7916F0DF061AD13A492846A8
:103E70003BF030FE384930463BF02CFE36490446D4
:103E800030463BF027FE3449054630463BF022FEE3
:103E900008B1324835E6294620460DF0A1FBFFF770
:103EA0008DBA2F492846FEF7CCF918B90DF034FB2E
:103EB000FFF784BA28462B492A4E3BF00BFE45AD4E
:103EC0000746002F00F07786032C04D126483EF0E9
:103ED0009DFE264815E60FA938463BF0A1FD0F9B35
:103EE000A5EC010ABB42F1D018780028EED131468A
:103EF0003BF0F0FD01340746E3E700BFE99B040017
:103F000000005940F59B04002B9C04004D9C0400CC
:103F1000609C0400769C0400A69C0400D69C0400CF
:103F2000169D0400459D0400000034408A9D040055
:103F30001B9C0400389C04006C9B0400B09B040094
:103F4000869C0400B69C0400299D0400769D040014
:103F50009E9D0400FD9D04008F570500029E0400F5
:103F60000D7D0400469E0400489E0400A59E0400AA
:103F700005221EA9304640F0E3FD002840F01682DD
:103F80000DB99448BDE5284693493BF0A3FD05468D
:103F90000028F6D09149FEF754F920B9012011F01C
:103FA0007BFC8F48ADE58F492846FEF74AF918B9E2
:103FB00011F072FC8C48A4E58C492846FEF741F9C3
:103FC000B8B911F007FD11F0AFFC894D894C0028FC
:103FD0000CBF2946214688483EF018FE10F070FAC2
:103FE00000280CBF2946214684483EF00FFEFFF70B
:103FF000E5B983492846FEF724F918B910F0BCF852
:10400000FFF7DCB97F492846FEF71BF9F0B9724982
:104010003BF060FD044608B97B4872E56F49FEF746
:1040200010F938B9012010F01DFA78483EF0EEFD85
:10403000774866E56B492046FEF703F918B910F09A
:1040400011FA74485DE574482146CEE77349284665
:10405000FEF7F7F8044600285AD1714F3B68B3F8D1
:10406000481909B96F484CE56F483EF0CFFD6F48DD
:104070003EF0CCFD6E483EF0C9FD6C483EF0C6FDFA
:1040800000254FF00A0AD7F800B00BEB041606F231
:10409000AC42D2ED007AF5EE407AF1EE10FA24D07F
:1040A00017EE900AFDF728FB04F14B020BEB02130D
:1040B000804698688946FDF71FFBCDE9040106F2AA
:1040C000B44306F596661868FDF716FBCDE90201C4
:1040D0003068FDF711FB4246CDE900014B465548DB
:1040E00021463EF093FD0135ADB2B5FBFAF30AFB74
:1040F00013539BB21BB915B114203DF08EF9013456
:10410000462CC0D149483EF081FD4B4829466CE71A
:104110004A492846FEF795F810BB2F493BF0DAFCD8
:10412000044608B94648ECE400230A2245A9459311
:104130003BF082FD459B6BB1A3420BD04149459BAF
:104140001A78002A00F044858A5C150705D43E4899
:1041500021464AE73D48214647E701334593EEE7CC
:104160003B492846FEF76DF8064600BB1A493BF06E
:10417000B1FC044640B91FF029F9B4EE400AF1EE53
:1041800010FA10D73348BCE445A945963BF048FCEB
:10419000459BA34201D01B782BB12F4821463EF00E
:1041A00035FD2E48ADE411F073FDFFF707B92C493A
:1041B0002846FEF746F8002840F087801FF006F9F1
:1041C000B4EE400AF1EE10FAB0EE408A4CD7254822
:1041D00097E400BFC39E04008F570500201605001A
:1041E0003E9F04005A9F04005E9F04007214050065
:1041F000D5B10400AC6C0500949F0400AC9F040092
:10420000C29F0400FD9D0400C89F0400FA9F0400A3
:1042100044A0040089A00400ABA00400E2A00400B4
:10422000D0060020E7A004001FA1040055A104004F
:1042300089A10400BEA10400E9A1040010A20400A9
:1042400017A20400FB9B0500F5AC040047A2040084
:104250007CA2040081A20400D7A204000FA30400E2
:104260000A3B050028A3040045A90FA810F0B2F8E6
:10427000064618EE100AFDF73FFA02460B46AF4815
:104280003EF0C4FCDDED0F7AF4EE677AF1EE10FA41
:1042900019D617EE900AFDF72FFA044645980D46F9
:1042A000FDF72AFA2246CDE900012B46A4483EF04C
:1042B000ADFCA44BA44800223EF0A8FC0EB1A348DC
:1042C0001FE4A3481DE4A3481BE4A3492846FDF7C7
:1042D000B8FF002867D1A1493BF0FCFB0446002849
:1042E0004AD19F4C9F48A04EA04D3EF08FFC2368C2
:1042F0009F4893F84C1900290CBF314629463EF0DF
:1043000085FC23689B4893F84D1900290CBF314662
:1043100029463EF07BFC2368974893F84E193EF0FF
:1043200075FC2368954893F85C1900290CBF314649
:1043300029463EF06BFC266896F85C39CBB106F551
:1043400015631868FDF7D8F906F65813044618687F
:104350000D46FDF7D1F9CDE9020106F65416306895
:10436000FDF7CAF92246CDE900012B4684483EF00C
:104370004DFC8448FFF7C5BB8349FDF762FF28B9B0
:10438000012011F05FFA8148FFF7BBBB804920464E
:10439000FDF757FF20B911F055FA7E48FFF7B1BB82
:1043A0007D48214621E67D4829461EE6072230A9A0
:1043B000304640F0C5FB18B93DF041F9FEF7FEBFAD
:1043C000042206A9304640F0BBFB0446002840F01A
:1043D0000B81002D75D11EF05FFD714A7149DFF828
:1043E0008081DFF80092002808BF11466E483EF039
:1043F0000DFC1EF01BF801466C483EF007FC6C48B3
:104400003EF004FCD8F8005005EB84050134D5F8E3
:104410001401FDF771F90646D5F838010F46FDF78E
:104420006BF9CDE90401D5F82C01FDF765F9CDE96B
:104430000201D5F82001FDF75FF93246CDE9000110
:104440003B4648463EF0E2FB032CDBD1002345A867
:1044500045933DF0F7F8D8F80030D3ED457AF5EE06
:10446000407AF1EE10FA044625D1D3ED467AF5EE06
:10447000407AF1EE10FA1ED1D3ED477AF5EE407A8C
:10448000F1EE10FA17D10FF0CFFC4A4D10EE100AE2
:10449000FDF732F902460B46474829463EF0B6FB87
:1044A0004598FDF729F902460B46444821463EF05F
:1044B000ADFBFEF783BF0FF0B7FC414D10EE100AC5
:1044C000E6E7264928463BF005FB2F490446FDF761
:1044D000B8FE38B93B483EF099FB01201EF06CFC59
:1044E000FEF76CBF2A492046FDF7ABFE054620B912
:1044F00035483EF08BFB2846F0E734492046FDF76F
:10450000A0FE28B901210FF0D9FA3148FFF7F9BA16
:1045100030492046FDF795FE20B12F492046FDF792
:1045200090FE40B9002001210FF0C8FA0FF0E0FB27
:104530002A48FFF7E6BA2A48FFF7E3BA51A3040076
:104540006DA304000000E03FA1A30400C6A3040083
:104550000DA4040048A40400038104008F57050043
:10456000D006002087A404001997040015970400C2
:10457000A1A40400B0A40400C1A40400D1A40400B8
:10458000E7A404000BA504002016050027A50400DD
:104590005A9F04005FA504007BA50400B2A5040097
:1045A000D5B10400AC6C050029A604003BA60400AC
:1045B000A29904001A2D050049A60400D59904000B
:1045C000B896040069A6040080A60400C29F0400F7
:1045D00098A6040063AD0400BAA60400C4A60400B3
:1045E000E6A60400E298040007A90422304640F041
:1045F000A7FA0146F0B9102228463BF0C1FBAD4AAC
:10460000CDE9000106460C4645A811213EF00BFB02
:1046100056EA04030BD01122294645A840F090FA2F
:1046200028B9304621460BF005FAFEF7C7BEA2486E
:10463000FFF767BA052216A9304640F081FA18B98B
:104640000BF0EAF9FEF7BABE062228A9304640F080
:1046500077FA18B90BF04AFAFEF7B0BE082236A96D
:10466000304640F06DFA00283AD12DB993483EF01B
:10467000CDFA9348FFF745BA0A2245A928463BF0F0
:10468000DBFA459B1B78044613B9431E632B02D902
:104690008C48FFF736BA8C4D01468C483EF0B6FA8E
:1046A0002B6883F898440DF071FA2A6802F593623A
:1046B000114601231F2022F0BBFB2B68844893F88E
:1046C00098143EF0A3FA0AF047FF0A203CF0A5FE3A
:1046D00001200AF071FE2B687E4893F8981484E458
:1046E0000D2241A9304640F02BFAF8B9764C7A48B1
:1046F0003EF08CFA2368FF2283F898240DF046FAE6
:10470000226802F59362012311461F2022F090FBDC
:1047100072483EF07BFA0AF01FFF0A203CF07DFE53
:1047200001200AF049FE6E48FFF7EBB9042208A900
:10473000304640F005FA10BBBDB16A4928463BF04F
:10474000C9F9044688B16849FDF77BFDA0B96748FF
:104750003EF05CFA4FF08043A8226420C3F81C2589
:104760003CF05BFE0320FFF7FDB961483EF04EFAD6
:104770004FF080435722F0E75E48214635E405229A
:1047800018A9304640F0DCF918B90CF073FFFEF7B9
:1047900015BE042209A9304640F0D2F918B922F01A
:1047A00049FDFEF70BBE0A223EA9304640F0C8F98B
:1047B000002840F00881444C4F483EF027FA236817
:1047C0004E4AD3F88019914205D04D483EF01EFA6A
:1047D0004C48FFF796B9D3F87459002D40F0B680D5
:1047E00049483EF013FA2368484893F878193EF098
:1047F0000DFA23684648D3F87C193EF007FA23687F
:10480000444AD3F8A019914238D1D3F88459424888
:10481000042D96BF414B424E53F825603EF0F6F909
:104820002946404832463EF0F1F92368D3F888190A
:1048300041B13D483EF0EAF923683C48D3F88C1971
:104840003EF0E4F92368D3F8901939B1CBB2009364
:104850003748C1F307230A0C3EF0D8F92368D3F890
:10486000941911B133483EF0D1F92368D3F898294F
:1048700022B1D3F89C1930483EF0C8F92F483EF0D9
:10488000C5F923682E4893F864193EF0BFF92368F0
:104890002C48D3F86C193EF0B9F9236893F86549B0
:1048A000204623F0DDFC2146024627483EF0AEF9C3
:1048B0008EE700BF05A704000DA704001EA7040093
:1048C00036A7040062A70400D006002098A70400C1
:1048D000B2A70400CFA70400F2A7040021A8040097
:1048E00054A804008F570500E03D05007CA8040093
:1048F00097A80400ACA80400DAA804005453524C52
:10490000FBA80400274D050037A90400B6AA04003F
:10491000D3AA04004C544146F0AA0400CC5F040022
:104920001C9704000BAB04001EAB040030AB04006A
:1049300042AB040075AB040087AB040098AB0400E5
:10494000A3AB0400C1AB0400DFAB04002946A248BE
:104950003EF05CF9E90702D5A0483EF057F9AA07F6
:1049600002D59F483EF052F96B0709D5236893F8AA
:104970007929B3F87A399F071BD59A483EF046F952
:104980002E0702D598483EF041F9E80602D597482F
:104990003EF03CF9E90302D595483EF037F96A0349
:1049A00002D594483EF032F92B037FF51CAF9248B4
:1049B00017E7122A96BF914B914953F8221091485C
:1049C0003EF024F9DCE705221AA9304640F0B8F899
:1049D00020BB40F065F84FF4C3620023FDF73AFBBB
:1049E000104619464E220023FDF734FB04461946B3
:1049F000104600230D22FDF72DFB834B8349D2B2D5
:104A0000C0B253F82230824AE4B252F8202051F862
:104A1000241080483EF0FAF8FEF7D0BC062224A904
:104A2000304640F08DF8A8B97DB10A2245A9284644
:104A30003BF002F9459BAB4204D01B7813B9431EEF
:104A40003B2B03D974483EF0E1F801201EF0F6FC40
:104A5000FEF7B4BC062226A9304640F071F810B922
:104A60006E48FFF74EB806222AA9304640F068F893
:104A7000002851D1002D4CD004220AA9284640F02C
:104A80005FF818B93CF0D9FCFEF798BC04220BA9DA
:104A9000284640F055F818B93CF0D9FCFEF78EBC1A
:104AA00004220CA9284640F04BF820B901210FF050
:104AB00005F8FEF783BC052220A9284640F040F8FF
:104AC00000283FF4F3A9052222A9284640F038F82F
:104AD00000283FF493AA04220DA9284640F030F89C
:104AE00018B91FF071F9FEF769BC072232A92846F0
:104AF00040F026F818B90CF0ADFDFEF75FBC0422BB
:104B00000EA9284640F01CF818B922F043FBFEF726
:104B100055BC4348FEF7F5BF42490422304640F0F9
:104B20000FF8F8B9A5B140492846FDF78AFB28B926
:104B300001200CF077FA3D48FEF7E3BF3C492846D8
:104B4000FDF77FFB20B90CF06DFA3A48FEF7D9BFAC
:104B50000CF096FA384A3949002808BF11463848FF
:104B6000FFF743BA3749042230463FF0E9FFF8B96E
:104B7000A5B12D492846FDF764FB28B9012022F094
:104B80008BFE3148FEF7BDBF29492846FDF759FB8A
:104B900020B922F081FE2D48FEF7B3BF22F076FE49
:104BA000254A2649002808BF11462948FFF71DBAA3
:104BB0002848FEF7A6BF032C7FF488A99DED471A6D
:104BC000DDED460A9DED450A0CF02AFCFEF7F6BB2A
:104BD0000FF06EFBFEF7F2BB56A9040069A90400B2
:104BE00088A90400A3A9040018AA040035AA040097
:104BF0005BAA04007DAA040099AA0400E05F0400F7
:104C000014590500E4A904002C6004007860040035
:104C10006060040002AC04000AAC04003EAC040076
:104C200075AC0400418904002016050087AC04001F
:104C30005A9F040095AC0400D5B10400AC6C05008B
:104C4000A4AC04007CA20400AEAC0400C1AC04001F
:104C5000D5AC0400E4AC04002DE9F04F2DED028B3F
:104C6000A84B1A68B2F84889DFB0B0EE408A044613
:104C7000B8F1000F16D1082027F042FB58B1A24B23
:104C80004361A24B83610323037480F8118080F891
:104C9000128080F813809E4900234FF4C2523EF0E8
:104CA000CDFC72E09B4FD7F8A03043450BD00023DA
:104CB0003B7787F83C3087F85C3087F87C3087F8A2
:104CC0009C30C7F8A08093490023F6EE006A087F65
:104CD00010B3D1ED007A37EEC87AB0EEC77AB4EEF1
:104CE000E67AF1EE10FA17D507EB431378EE677A00
:104CF000043304F10C02B3EC017AD3ED026A07EE3F
:104D0000A67AA4EC017AA242F5D1002528465FB02C
:104D1000BDEC028BBDE8F08F0133052B01F12001C2
:104D2000D5D1B8F1010F33D102F2AC410023D1ED5E
:104D3000007AF5EE407AF1EE10FA21D04B331901EA
:104D400002EB031350585968254603C5986828603C
:104D5000B0EE480A0CF038FF07EB401383ED000A71
:104D6000450194E807002E1D3E44103586E80700F3
:104D7000002279197A51C1E9012201221A77C4E788
:104D80000133462B01F11001D1D14FF0FF35BDE7C2
:104D9000DFED617A9FED614A002502F5966602F526
:104DA000116E2B46B0EE676AF1EE094AB7EE005A73
:104DB0004FF0140C56ED016AF5EE406AF1EE10FA70
:104DC0003DD036EEC87A27EE077AC7EE245A75EE44
:104DD000855A85EE257AB4EEC47AF1EE10FA2ED417
:104DE000092D62DC0CFB05F909F5BC71694441ED44
:104DF000326A01ED2E7A09F104092CA93068894440
:104E00007168A9E803000135B068C9F800000A2DEF
:104E100015D1DDED307A2CA90023012591ED097A19
:104E2000B4EEE77AF1EE10FA48BF2B4605F1010522
:104E300048BFF0EE477A0A2D01F11401EED1103689
:104E40007645B7D1002D40F0E08102F2AC4EDFEDA7
:104E5000377A02F60C11734693ED007AB5EE407A7C
:104E6000F1EE10FA06D0B4EE677AF1EE10FA48BF10
:104E7000F0EE477A10338B42EED19FED297AF4EEB3
:104E8000C77AF1EE10FA53DD082027F039FA00282E
:104E90003FF401AF1C4B43611C4B8361032303743C
:104EA000002343748374C374F5E6B4EEE77AF1EE3D
:104EB00010FAC4DD0CFB03F303F5BC71694401ED8A
:104EC0002E7A41ED326A04332CA930680B447168A4
:104ED00003C3B0681860DDED307A2CA800230121EF
:104EE00090ED097AB4EEE77AF1EE10FA48BF0B467E
:104EF00001F1010148BFF0EE477A0A2900F11400E0
:104F0000EED19CE7D006002046B104007DE104000C
:104F1000645B0400405B0020000000008FC2F53C91
:104F200000C079440AD7233C00007AC400007A44C8
:104F3000B4EEE78A0026F1EE10FA5FED065AB146AC
:104F400053D45FED076A704600214FF0FF3390EDB8
:104F5000007AB5EE407AF1EE10FA0FD00DF1700A3A
:104F60004FF0000CB44540F09280B4EEE67AF1EEDA
:104F700010FAC8BF0B46C8BFF0EE476A0131462998
:104F800000F11000E3D1591C16D01CA901EB06104A
:104F900002EB031101F2AC414B33096801601901C6
:104FA00002EB031300F1040C50585968ACE80300FD
:104FB0009868CCF80000013609F10109B9F1040F35
:104FC00054D0C145BDDB51E0D346DBED007A77EE2E
:104FD000C77A0AF1100AF0EEE77AF4EEE57AF1EE1C
:104FE00010FA1ED40CF1010C10E05FED306A70462F
:104FF00000214FF0FF3390ED007AB5EE407AF1EEEC
:1050000010FA0ED00DF1700A4FF0000CB445DBD150
:10501000B4EEE67AF1EE10FA48BF0B4648BFF0EE68
:10502000476A0131462900F11000E4D1581C16D01E
:105030001CA901EB061002EB031101F2AC414B334A
:1050400009680160190102EB031300F1040C5058C8
:105050005968ACE803009868CCF80000013609F103
:105060000109B9F1040F01D0C145BEDB0EBB082018
:1050700027F046F900283FF40EAE734B4361734BA3
:1050800083610323037446748674C67403E6D346AF
:10509000DBED007A77EEC77A0AF1100AF0EEE77AD4
:1050A000F4EEE57AF1EE10FA3FF568AF0CF1010C81
:1050B00058E7012E20D11DAB93E80700B0EE480A57
:1050C00084E807000CF080FD07EB401383ED008AB5
:1050D0004FEA401C94E807000CF1040EBE440CF1AA
:1050E000100C8EE80700002207EB0C0147F80C209B
:1050F000C1E901221E7709E61CABDFED557A19469E
:105100000022084690ED007A0132B24277EE877AAB
:1051100001F11001F5D107EE106AF8EEC74A194601
:10512000C7EEA45A0022DFED4A7A084690ED007AD5
:10513000013237EE657AB24247EE077A01F110018B
:10514000F3D10DF158089FED434ADFED413A88ED68
:10515000006AC44604F10C0E224688ED016A88ED0F
:10516000026ADFED3B6A1846002190ED017A0131B9
:10517000B14276EE876A00F11000F6D186EEA47A8D
:1051800019460020A4EB020A9FED316AD1ED016AB5
:1051900001EB0A0999ED005A76EEC76A35EE655AB9
:1051A0000130B04205EE266A01F11001EED1F4EEB5
:1051B000C47AF1EE10FAC8BFC6EE276A03F1040301
:1051C00038EE656AD8BFF0EE636A06EE267AECEC3C
:1051D000016AA2EC017A9645C3D1B0EE480A0CF000
:1051E000F3FC07EB4016430186ED008A1A1D1744B5
:1051F00094E8070087E80700174A134498E8070077
:1052000083E807000123337780E5012D2DAE25D1FA
:1052100096E80700B0EE480A84E807000CF0D4FCDA
:1052200007EB401383ED008A460194E8070006F17E
:10523000040CBC4410368CE807000022B919BA519E
:10524000C1E901221D7760E573B104007DE104002E
:10525000000000006F12833A505B00200023002200
:1052600043EC172B8DED047B8DED027BCDE91623EE
:10527000CDE91823CDE91A23CDE91C23CDE91E235E
:10528000CDE92023CDE9002300230893F068FCF743
:1052900033FA56ED017A77EEC87ACDE90A0117EEB6
:1052A000900AFCF729FADDE90A2380468946DDE900
:1052B0000001FCF7C3F8DDE90A23CDE9000140460F
:1052C0004946FCF771FA02460B46CDE90601DDE9D5
:1052D0000201FCF7B3F84246CDE902014B46DDE995
:1052E0000601FCF761FA0B460246DDE90401FCF712
:1052F000A5F816AB0D93CDE904011CABDDF834B075
:105300000E939A460F9600270F9B53F8040B0F93AA
:10531000FCF7F2F9DBE9008902460B46CDE91023E0
:10532000DDE90A23FCF740FA42464B46FCF786F8D3
:10533000DAE90089DDE91023EBE80201DDE9060185
:10534000FCF732FA42464B46FCF778F80137032F58
:10535000EAE80201D8D1089B0133AB42089306F179
:10536000140693D1DDE90023DDE90401FCF71CFA02
:10537000DDE9022306460F4610461946FCF714FAEB
:1053800002460B4630463946FCF756F847A3D3E9A8
:1053900000238B4621F000418246FCF777FC00B3E6
:1053A000DDE90023DDE91601FCF728FBFCF7F4FC3E
:1053B000DDE900232060DDE91801FCF71FFBFCF7A5
:1053C000EBFCDDE900236060DDE91A01FCF716FB68
:1053D000FCF7E2FCB0EE480AA0600CF0F5FB324F9F
:1053E000BAE425460DF14C0804F10C090D9BB3EC11
:1053F000027B0D930E9BF3E8026751EC170B0E93A3
:10540000DDE904238DED067BFCF7CEF9DDE902230F
:10541000CDE9080130463946FCF7C6F902460B468D
:10542000DDE90801FCF708F852465B46FCF7E6FAAE
:10543000FCF7B2FCDDE9002345F8040B39463046A1
:10544000FCF7B2F9DDE9022306460F46DDE9060165
:10545000FCF7AAF902460B4630463946FBF7ECFF4B
:1054600052465B46FCF7CAFAFCF796FC4D4548F8F5
:10547000040BBBD1B0EE480A0CF0A6FB0A4E06EBBB
:10548000401585ED008A430194E807001F1D37444D
:1054900087E8070013AA07CA1036334483E80700D9
:1054A00001232B7731E400BF405B0020BBBDD7D97F
:1054B000DF7CDB3D000000002DE9F04F2DED068B79
:1054C000A3B016ACCDE90D1209900C934FF4004235
:1054D000002320460CF000FF68B994E8070019ABE0
:1054E0001CAC83E807004FF40042002320460CF078
:1054F00051FF834638B16FF0010B584623B0BDEC25
:10550000068BBDE8F08F94E8070022AB03E90700A3
:105510001DF05CFFB4EE400AF1EE10FAB0EE408AE6
:1055200080F1CA80FBEE047AB4EEE70AF1EE10FADD
:1055300040F3C280DFEDBE7AB4EEE70AF1EE10FA76
:1055400040F1BA80B0EE409A3BF0C9FFCDE91001BE
:105550001DF060FFF0EE409A1DF048FFC9EE807A22
:10556000B6EE007A77EE877A19EE900AFDEEE77ACA
:10557000F0EE408A17EE903A012BB8BF0123089352
:10558000FCF7BAF8CDE90A010C2026F0B9FE054671
:1055900098B19DED0A7BA74B436180ED067B18EE29
:1055A000900AFCF7A9F8089BAB62C5E9080107233C
:1055B0002B7400236B74AB74EB74002328469E4954
:1055C0009FED9EAADFED9AAA4FF463523EF036F8A3
:1055D0009FED957B0C9B8DED047B8DED027B8DED1E
:1055E000007B8DED067B0025DB172E462F46AA4655
:1055F0002C460F933BF073FF109BB0EB0308119BFD
:1056000061EB03090C9B98450F9B79EB030358DB77
:10561000082026F075FE50B1894BC0F81C90C0E9F7
:10562000053804230374002343748374C374002374
:105630004FF4035280493EF001F8082026F060FE46
:1056400040B1804BC0E90537032303740023437442
:105650008374C374784900234FF4C6523DF0EEFFC3
:10566000DDED327A9FED787AF8EEE76AC6EE877A5A
:1056700027EEA90AFDEEC07A17EE904AA74280F203
:1056800054810C2026F03CFE78B1704BC4619DED36
:105690000A7BC0E90537329B836280ED087B0723D4
:1056A0000374002343748374C374634900234FF469
:1056B00062523DF0C3FF1EE79FED659A9FED658A3C
:1056C00042E7FDEEE97A013517EE903A9D4203DBA1
:1056D000072022F0C5FC0025329B329ADB1790454B
:1056E00079EB030313DB94B10A2026F009FE50B1D5
:1056F000594BC0E90797C0E9053805230374002317
:1057000043748374C37400234FF4235292E7089BBD
:10571000B3424FDC40F6CD42002313A80CF0DCFD71
:10572000064600287FF4E7AE13AB16AA19A98046F7
:10573000B3EC017AF2EC017AB4EEE77AD1ED007ABB
:10574000F1EE10FAB4EE677A48BF02ED017AF1EE9D
:1057500010FAC8BFF0EE477A12ED017AE1EC017A57
:1057600077EEC78AF4EECA8AF1EE10FA1DDD0A2040
:1057700026F0C6FD044670B1384BC4E9053818EE72
:10578000900AFBF7B9FF0623C4E90801237400233C
:105790006374A374E374284900234FF443522046F2
:1057A0003DF04CFF4FF0FF3BA7E608F10108B8F1D0
:1057B000030FBDD140F6CD42002313A80CF0EAFD43
:1057C0000136804600287FF496AE13AB1CAA1FA9B1
:1057D000F7EE086AB3EC017AF2EC017AB4EEE77AFC
:1057E000D1ED007AF1EE10FAB4EE677A48BF02ED1F
:1057F000017AF1EE10FAC8BFF0EE477A12ED017AA5
:10580000E1EC017A77EEC78AF4EEE68AF1EE10FA5F
:1058100028DD0A2026F074FD04460028BBD0104B7A
:10582000ABE700BFAFF30080000000000000000005
:105830000000704237B30400645B04008FC2753D02
:1058400087B304003AB4040000007A4450B4040062
:10585000000080FF0000807FABB30400E7B30400CA
:1058600011B4040008F10108B8F1030FB2D1139884
:10587000FBF742FF02460B46DDE90001FBF7DEFDC8
:10588000CDE900011498FBF737FF02460B46DDE92E
:105890000201FBF7D3FDCDE902011598FBF72CFFC0
:1058A00002460B46DDE90401FBF7C8FDCDE9040122
:1058B0001DF08CFDB4EE400AF1EE10FAF0EE408AD5
:1058C00031D6FBEE047AB4EEE70AF1EE10FA2ADDE7
:1058D000B4EEEA0AF1EE10FA25D510EE100AFBF745
:1058E0000BFF02460B46DDE90601FBF7A7FDF4EED0
:1058F000488AF1EE10FAF4EE498A48BFB0EE688AA1
:10590000F1EE10FAC8BFB0EE689A39EE487AF7EEB9
:10591000007AB4EE677ACDE90601F1EE10FA0AF1E9
:10592000010AA8BF0124013764E6BAF1000F28D0AC
:105930005046FBF7CFFE02460B46DDE90601FCF7B9
:105940005DF8FCF729FA0D9B054618600A2026F041
:10595000D7FC044670B1324B43612846FBF7CCFEBE
:105960000523C4E9060123740023C4F820A063744E
:10597000A374E3742B4900234FF4235220463DF0D7
:105980005DFE0E9B79EE488A0C20C3ED008A26F05E
:10599000B7FC0446C8B1244B436118EE900AFBF7EC
:1059A000ABFEC4E9060118EE100AFBF7A5FEC4E938
:1059B000080119EE100AFBF79FFE0823C4E90A014B
:1059C000237400236374A374E374002344F2C002BD
:1059D000204614493DF032FE3846FBF77BFE024676
:1059E0000B4604460D46DDE90001FCF707F8FCF71D
:1059F000D3F9099B224618602B46DDE90201FBF72B
:105A0000FDFFFCF7C9F9099B224658602B46DDE9EA
:105A10000401FBF7F3FFFCF7BFF9099B98606CE505
:105A20009FB40400645B0400CEB4040000000000D6
:105A30002DE9F04F2DED068BADF2244D0CF088FBD7
:105A400006463BF04CFD3F2E04460D4645DDBC4B63
:105A5000BC48D3E90076D0E900239E4208BF9742B4
:105A60003BD0B949D1E90023012A73F1000C07DBCF
:105A7000A21A65EB0303B2F5706F73F100032CDB20
:105A8000C0E900760023C1E90045B048089306A9A3
:105A9000CDE9063322F04CFCB5EE400AF1EE10FAE7
:105AA000AB4EF0EE408A1ED00EF0BEF9DFEDA97AC3
:105AB000B4EEE70AF1EE10FAD6E90023B0EE408A20
:105AC00013D552EA030108D0A21A40F6B83165EBAB
:105AD00003038A4273F1000307DA0DF2244DBDEC93
:105AE000068BBDE8F08FB7EE008AD6E90023012AC5
:105AF00073F1000108DBA21A40F6B93165EB03032C
:105B00008A4273F1000378DAF5EE408AF1EE10FA7A
:105B100073D0DFED917AB4EEE78AF1EE10FA6CD52E
:105B20008E4B1E68022E68DDDFED8D7AB4EEE78ABB
:105B3000F1EE10FA1BD50A2026F0E2FB044670B104
:105B4000884B436118EE100AFBF7D6FD0523C4E924
:105B500006012374002326626374A374E374002394
:105B60004FF42352804920463DF068FDB5E70DF023
:105B700079F8DFED7E7AB4EEE70AF1EE10FA10EE76
:105B8000107A21D50E2026F0BBFB0446C0B1784B1D
:105B9000436118EE100AFBF7AFFD67A3D3E90023BA
:105BA000C4E90601C4E908233846FBF7A5FD09232B
:105BB000C4E90A012374002326636374A374E374A5
:105BC000002344F6C002CDE7082026F099FB0646E4
:105BD00060B1684B43613846FBF78EFD0423C6E98C
:105BE0000601337400237374B374F3745E490023A5
:105BF0004FF4035230463DF021FD4FF4487200212E
:105C000040A83EF0BBFF4FF0000A4FF0000B4FF0F2
:105C1000000834A8CDE904ABCDE90988CDF82C8083
:105C20000CF0D2FA34A857EC106B0CF0A5FACDE9C1
:105C300018ABDFF850A18DED010A50460CF070FA58
:105C4000002875D108F10108B8F1080F0AF1D00A4F
:105C5000F3D1494B002230463946FCF717F880460D
:105C600000287FF43AAF9DED017AF6EE007AB4EEAB
:105C7000E77AF1EE10FA40F187800C2026F040FB25
:105C80000446B8B13D4B43610198FBF735FD3C4BF1
:105C90000022C4E90601C4E9082330463946FCF76E
:105CA00033F80723A062237484F8118084F81280EB
:105CB00084F8138000234FF4635253E759F8040C1F
:105CC000FBF71AFD41EC1A0B59F8080CFBF714FD11
:105CD00041EC190B59F80C0CFBF70EFDB0EE4A2AFB
:105CE000F0EE6A2AB0EE491AF0EE691A41EC100B98
:105CF00018AA04A940A81AF0B1FE59F80C3C1C934C
:105D000059F8083C1D9328AA59F8043C1E931CA975
:105D100034A83BF077FC28A909A83BF0BCFB0BF1A9
:105D2000010B9AF8C1309B4509F10C09C6DB89E7E4
:105D3000D1464FF0000BF4E7000000A09999A93F6D
:105D4000A81B0020A01B0020981B00201061002031
:105D5000781B00200AD7233DCDCC4C3D7C60002031
:105D6000295C0F3D7EBB0400645B0400CDCCCC3DC0
:105D7000AEBB0400F3BB0400000050402FBC040085
:105D80000000E03FB01B002032463B46DDE9040145
:105D9000FBF734FEFCF700F8F5EE408AF1EE10FA5E
:105DA00009EE900A4DD0DFF88093D9F80030002B2F
:105DB00047DDDFF8788398ED00AAB5EEC0AAF1EED2
:105DC00010FA3EDD89EE8A9AF7EE047AB4EEE79A8D
:105DD000F1EE10FA06DCDFEDC87AB4EEE79AF1EEE8
:105DE00010FA2ED50C2026F08BFA0446C8B1C34B0E
:105DF00043611AEE100AFBF77FFCC4E9060119EEB5
:105E0000900AFBF779FCC4E9080119EE100AFBF7C8
:105E100073FC0823C4E90A01237400236374A37488
:105E2000E3740023B6494FF4814220463DF006FC5E
:105E30000CF080FF0023C9F800300023C8F80030C0
:105E40004BE600224FF0804330463946FBF71EFFF9
:105E5000B7EE009A002864D139463046FBF79CFF24
:105E600007EE900A89EE277ADDED0A7ADDED096A00
:105E70009DED0B6A67EE277A67EE266A27EEA70A82
:105E800006EEA60A27EE067A07EE070A38F0A4FB0C
:105E900010EE100AFBF730FC804689463046394642
:105EA000FBF732FF82460C2026F02AFA8346A0B187
:105EB000944B43610198FBF71FFC0723CBE90601D4
:105EC000CBE908898BF810300023CBF828A08BF899
:105ED00011308BF812308BF81330894900234FF4BE
:105EE000635258463DF0AAFB47EC116B9DED040B45
:105EF0001CA940A80CF080F80646A8B90A2026F094
:105F0000FFF948B1804B4674C0E90889C0E9053AF9
:105F1000062303748674C67400234FF443527849F1
:105F200022E619EE100AB5E7F5EE408AF1EE10FA16
:105F3000764E00F04B82D6E90023012A73F100016E
:105F400009DBA21A41F2707165EB03038A4273F117
:105F50000003FFF6C2AD1CA80CF07CF9DFED6C7AF3
:105F6000B4EEE70AF1EE10FA2DDA9FED737ADFED69
:105F7000697AB4EEC70AF1EE10FA09D930EE470A91
:105F80009FED657AC0EE076A9FED647A46EE877AE8
:105F9000634B39EE679A00221CA98F1834A9881820
:105FA00003F10C01B7EC017AF3EC016A27EE877A72
:105FB00009EE267A9942A0EC017AF3D10C32302A0C
:105FC00004D00B46E8E7DFED577AE1E70023CDE99F
:105FD0000C330E93379B0F933B9B10930FA83F9B63
:105FE00011933CF06FFADDED0F7ADDED108A8DED47
:105FF000120AF0EEE77AF0EEE88AF4EE687AF1EE53
:1060000010FAC8BFF0EE678ADDED117A8DED130A44
:10601000F0EEE77AF4EEE87AF1EE10FAB0EE409A9C
:106020008DED140A0CA9B7EE000A34A858BFF0EEA3
:10603000678A22F099F9002840F080801F9B159311
:10604000239B169315A8279B17933CF03BFADDED95
:10605000157ADDED168A8DED180AF0EEE77AF0EE8E
:10606000E88AF4EE687AF1EE10FAC8BFF0EE678ABB
:10607000DDED177A8DED190AF0EEE77AF4EEE87AA5
:10608000F1EE10FAB0EE409A8DED1A0A0CA9B7EEB7
:10609000000A1CA858BFF0EE678A22F065F90028B4
:1060A00000F05A81DFED227A9FED220A29EE279A2D
:1060B00018A9B4EEC09AF1EE10FAC8BFB0EE490AC2
:1060C00015A822F051F9002800F04681F2EE007A7E
:1060D000F4EEE78AF1EE10FA00F23E810DF1700C59
:1060E000BCE80F0028AF0FC7BCE80F000FC79CE843
:1060F0000F0087E80F004AE0CDCC4C3F7DBC040088
:10610000645B0400D8BC040015BD0400881B00209B
:10611000EC51783F3333333F90C2F53DE17A14BF01
:10612000106100208FC2F53D7C6000207860002067
:10613000CDCC4C3ECDCCCC3D9A99593F5FED047A05
:106140001FED040A29EE279A12A9B4EEC09AF1EEC7
:1061500010FAC8BFB0EE490A0FA822F005F90028CE
:106160003FF46CAFF2EE007AF4EEE78AF1EE10FA4B
:106170003FF664AF34AF0FCF0DF1A00CACE80F00C9
:106180000FCFACE80F0097E80F008CE80F001CA8B9
:106190000CF060F85FED187AA14F8DED010AB4EEB6
:1061A000E70AF1EE10FAD7F800B022D510EE100A87
:1061B000FBF7A2FABBF1020FCDE9020100F3DC808C
:1061C0000A2026F09DF870B19DED027B954B43614E
:1061D0000BF10103036280ED067B052303740023AA
:1061E00043748374C374904900234FF423523DF0E9
:1061F00025FA3B6802930E2026F082F88346E0B130
:10620000029B8A4A42610133C0E9063AC0E9088923
:1062100018EE100AFBF770FACBE90A010198FBF7B8
:106220006BFA0A23CBE90C018BF8103000238BF8B2
:1062300011308BF812308BF813307B49002345F274
:10624000C00258463DF0FAF90DF1A00CBCE80F0071
:10625000DFF8F0E1AEE80F00BCE80F00AEE80F0099
:106260009CE80F000DF1A0088EE80F00B8E80F00C1
:106270000DF1700EAEE80F00B8E80F00AEE80F00A9
:106280009CE80F008EE80F000CF054FD3B68C6E957
:10629000004501333B60664BC3ED009A10F00CF9EA
:1062A0001CF020FE634B644A00241C600023136032
:1062B000624A1360624B634A19680520302301F576
:1062C0008A7120F0B5FD1CF0F3FD062026F018F8C9
:1062D00030B15D4B43610223037444748474C4740D
:1062E000514900234FF486523DF0A8F91CAC032617
:1062F000002754F804BB0E20D4F808A0D4F814905A
:10630000D4F8208025F0FCFF0546D0B14F4B436107
:106310005846FBF7F1F9C5E906015046FBF7ECF9E1
:10632000C5E908014846FBF7E7F9C5E90A01404617
:10633000FBF7E2F9C5E90C010A232B746F74AF7403
:10634000EF743949002345F2C00228463DF076F942
:10635000013ECED1FFF7C1BB062025F0D1FF38B1F9
:106360003B4B436102230374002343748374C3745F
:1063700000234FF48452D2E518EE100AFBF7BCF963
:10638000DFED347AB4EEE78AF1EE10FA04460D46FA
:106390004FF00A0014D525F0B3FF68B12E4B4361CE
:1063A0009DED027B062380ED067BC0E90845037462
:1063B000002343748374C37400234FF44252AEE548
:1063C00025F09EFF0028F7D0244BE8E70A2025F0AF
:1063D00097FF50B1224BC0E90889C0E9053A06236E
:1063E0000374002343748374C3740F49154F00234F
:1063F0004FF443523DF022F90DF1700CBCE80F0050
:106400000FC7BCE80F000FC79CE80F0087E80F001C
:106410000CF090FC024B0122C6E900451A603AE7F5
:106420007C6000208EBD0400645B040095BE040007
:106430007860002080600020886000208460002058
:10644000D0060020106100202ABF040066BA0400B4
:1064500055BD0400CDCC4C3DCABD040031BE040086
:10646000E5BE0400000000002DE9F04F2DED048B87
:106470000021BDB0072021F077FD0CF079FD1BF065
:10648000CFFF04463BF02BF805460E465CB942F2BE
:106490001077072021F0E4FD0A203BF0A3F81BF061
:1064A000BFFF0446B0B1B44D2B68B3F84849032C84
:1064B00039D80021012208460CF070FE012100208D
:1064C0000CF000FF1CF0EEFCF0B1012100200DF0FB
:1064D00033FB19E03BF003F8401B61EB0601B842C7
:1064E00071F10001D5DB062025F00AFF30B1A34B86
:1064F00043610223037444748474C474A049002368
:106500004FF486523DF09AF800200CF06BF8431ED1
:106510000D90042B01F25E80DFE813F0600077003D
:10652000B2006902AC03462C1DD90A2025F0E8FE12
:1065300060B1944B4361944BC0E906344623036237
:1065400005230374002343748374C37400234FF43E
:1065500021528B493DF072F82B680022A3F848299C
:1065600083F84A29A5E71CF031FFB4EE400AF1EEAA
:1065700010FAB0EE408A1ED6082025F0C1FE04466F
:1065800068B1824B436118EE100AFBF7B5F804239B
:10659000C4E90601237400236374A374E374784987
:1065A00000234FF4035220463DF048F8B0EE480A6D
:1065B0000BF0B4FB7DE7062025F0A2FE38B1744B4A
:1065C000436102230374002343748374C3746C49CE
:1065D00000234FF484523DF031F86AE70121202076
:1065E00020F0AAF90EF09CFA4FF0FF300BF0FAFF02
:1065F0000021202020F0A0F9664B93F87534022B7F
:1066000041F0568401230D9313E00121202020F056
:1066100093F90CF0C3FE4FF0FF300BF0E3FF0021C5
:10662000202020F089F95B4B93F87534022B41F060
:106630003F84514B574C1B68D4F87024B3F8483949
:106640009A424FF0000501F01584A4F87454082014
:10665000D4F8844425F054FE50B14F4BC0E90534C2
:106660004723C36104230374002343748374C374F6
:10667000434900234FF403523CF0E0FF01F0E6BB36
:106680002020012120F058F9062025F039FE38B1EC
:10669000424B436102230374002343748374C37425
:1066A000374900234FF486523CF0C8FF1CF08EFEA1
:1066B000B4EE400AF1EE10FAB0EE408A0DD6FBEED1
:1066C000047AB4EEE70AF1EE10FA06D4DFED347A7C
:1066D000B4EEE70AF1EE10FA14DD082025F010FE02
:1066E00048B1304B4361304B836103230374002373
:1066F00043748374C374224900234FF4C2523CF0A4
:106700009DFF88E70BF0A4FE1B4C0546002851D1E5
:10671000062025F0F5FD30B1244B436102230374BC
:1067200045748574C57400234FF4845214493CF0B9
:1067300085FF226892F84E390133DBB2012B82F8D3
:106740004E397FF668AF082025F0DAFD48B1184BC6
:10675000436102238361032303740023437483741E
:10676000C37400234FF4C45205493CF067FF23680B
:10677000012283F84D294EE7D00600205FC70400B0
:10678000645B04009FC7040094E10400D5C70400C3
:106790001EC80400E45B002097D7040052C8040020
:1067A0000000704276C8040022E1040098C804008A
:1067B000B8C804004FF4FA703AF014FF062025F030
:1067C0009FFD38B1AE4B4361022303740023437431
:1067D0008374C374AB4900234FF486523CF02EFF00
:1067E000A94B309340F6B833009330AA41F2883376
:1067F0002AA92DA8FEF760FE834600287BD0B0F1C1
:10680000FF3F50D1062025F07BFD38B19F4B4361FF
:1068100002230374002343748374C37400234FF46E
:10682000865298493CF00AFF226892F84E390133AB
:10683000DBB2012B82F84E397FF6EDAE082025F051
:106840005FFD48B1924B43610223836103230374CC
:10685000002343748374C3748A4900234FF4C452E1
:106860003CF0ECFE30A8B0EE480A0EF0B5F8054654
:1068700000287FF47CAF062025F042FD30B1854B27
:1068800043610223037445748574C5747D490023F4
:106890004FF486523CF0D2FE2368012283F84D2942
:1068A0003AF0CAFEB7E610F1020F11D1082025F028
:1068B00027FD48B1784B4361784B83610323037410
:1068C000002343748374C37400234FF4C252A8E7B7
:1068D00010F1030FA8D1062025F012FD38B1704B3E
:1068E000436102230374002343748374C37400233D
:1068F0004FF4845295E79DED2A8ADDF8B4A0DDF8C7
:10690000B890DDF8BC8018EE100AFAF7F5FE0646DE
:106910001020309D0F4625F0F3FC0446F8B1614B82
:1069200043615046FAF7E8FEC4E906014846FAF723
:10693000E3FEC4E908014046FAF7DEFEC4E90C674D
:10694000C4E90A012846FAF7D7FEC4E90E010C2370
:10695000237484F811B084F812B084F813B0204680
:106960004849514C002346F2C0023CF067FEB0EEAD
:10697000480A2DA80EF00CFD054688B1082025F028
:10698000BFFC48B1494B4361494B83610323037406
:10699000002343748374C37400234FF4C252E3E6AC
:1069A0002368012283F84D29424B83ED008A3AF097
:1069B00096FD414B8046C3E900010A200C4625F0B4
:1069C0009FFC50B13D4B4361C0E90667C0E90884B4
:1069D0000623037445748574C57400234FF4435231
:1069E00028493CF02BFE00201CF06CFA13E6202016
:1069F00001211FF0A1FF062025F082FC38B1304BA9
:106A0000436102230374002343748374C3741D49D8
:106A100000234FF486523CF011FE1CF0D7FCB4EE7C
:106A2000400AF1EE10FA0DD6FBEE047AB4EEE70A56
:106A3000F1EE10FA06D4DFED237AB4EEE70AF1EEB8
:106A400010FA47DD082025F05BFC48B11E4B43617E
:106A50001E4B836103230374002343748374C37444
:106A600000234FF4C25207493CF0E8FD3AF037FDED
:106A7000174A114B801861F10001C3E90001CAE512
:106A8000EBC80400645B04000000C07F1FC9040061
:106A9000EDC9040015CA04004BC9040009E1040053
:106AA00073C90400A4C90400D00600205ECA040013
:106AB00022E10400D8060020701B002089CA0400CF
:106AC000C5CA04000000704204CB0400C8E0040002
:106AD000D08AFFFF082025F013FC40B1A44B43618E
