:101000008059012099FE0200AB46040085FE0200D3
:1010100085FE020085FE020085FE02000000000041
:101020000000000000000000000000003500030088
:1010300085FE020000000000A1FF020085FE020004
:101040000903030075660300090303000903030095
:101050000903030009030300090303000903030054
:101060000903030009030300B1A8030009030300F7
:101070000903030009030300090303000903030034
:101080000903030009030300090303000903030024
:10109000D9660300090303000903030009030300E1
:1010A0000903030009030300090303000903030004
:1010B00009030300090303000903030009030300F4
:1010C00009030300090303000903030009030300E4
:1010D00009030300090303000903030009030300D4
:1010E00009030300090303000903030009030300C4
:1010F00009030300090303000903030009030300B4
:1011000001F0FF01102A2BDB10F0070F08D010F8B8
:10111000013B013A8B422DD010F0070F42B3F6D1BC
:10112000F0B441EA012141EA014122F007047FF0D5
:1011300000070023F0E80256083C85EA010586EA2C
:10114000010685FA47F5A3FA87F586FA47F6A5FA68
:1011500087F68EB9EED1F0BC01F0FF0102F0070274
:1011600032B110F8013B013A83EA010313B1F8D11F
:101170000020704701387047002D06BF3546033800
:10118000073815F0010F07D1013015F4807F02BF39
:10119000013015F4C03F0130F0BC0138704700BF8A
:1011A000014B1B685B68184700050020014B1B685A
:1011B0009B68184700050020014B1B681B691847F6
:1011C00000050020014B1B685B69184700050020E3
:1011D000014B1B689B69184700050020014B1B68E9
:1011E000DB69184700050020014B1B681B6A184784
:1011F00000050020014B1B689B6A18470005002072
:1012000030B4044C9DF8085024680295E468A44664
:1012100030BC60470005002030B50246114890F907
:101220001C3093421ADD90F92430934218DAD31A15
:10123000856A0D4CE85C235693420ED00E3400298B
:101240000CBF0346431CA542D8B206D129B1013ACE
:10125000D2B2012A01D80130C0B230BD0D20FCE766
:101260000020FAE7C8100020CC68040008B5054B40
:1012700093F91C30984203DAFFF7CEFF024B1B565E
:10128000184608BDC8100020CC68040010B51C4CDE
:1012900094F82C3073B9012384F82C3000F09EF8B8
:1012A00048B1184BA362D823236284F82430082362
:1012B000A361237710BD00F0A7F80028F1D100F05A
:1012C000ADF80028EDD100F06BF838B10E4BA362F9
:1012D000D823236284F824300423E9E700F06AF875
:1012E0000028F3D100F070F80028EFD100F080F86A
:1012F0000028EBD140F2BF11742000F019F800BFB4
:10130000C810002007690400DA680400BFF34F8F9B
:101310000549064BCA6802F4E0621343CB60BFF391
:101320004F8F00BFFDE700BF00ED00E00400FA05AD
:101330001FB572B6134B5D688DB9FFF7E7FFB2FBBF
:10134000F6F2DCB20133002AF9D104F110036B4448
:1013500003F80C2C0A2234B901A8A847EDE702468D
:1013600000230A26EDE7631E04AEDCB256FA83F3CF
:10137000B0FBF2F602FB1600303003F80C0C3046DE
:10138000E9E700BF681500204FF08052034BD2F808
:1013900030111960D2F834215A607047A41500202A
:1013A000034B1868A0F10F0358425841704700BF23
:1013B000A4150020034B1868A0F10A0358425841B5
:1013C000704700BFA4150020034B1868A0F10E035E
:1013D00058425841704700BFA4150020034B1868BD
:1013E000A0F1100358425841704700BFA4150020D7
:1013F000044B1868062803D0431C584258417047D4
:1014000001207047A4150020034B1868A0F10D03BC
:1014100058425841704700BFA4150020034B18687C
:10142000A0F1080358425841704700BFA41500209E
:1014300081F0004102E000BF83F0004330B54FEA85
:1014400041044FEA430594EA050F08BF90EA020FF2
:101450001FBF54EA000C55EA020C7FEA645C7FEA85
:10146000655C00F0E2804FEA5454D4EB5555B8BFA8
:101470006D420CDD2C4480EA020281EA030382EA19
:10148000000083EA010180EA020281EA0303362DAB
:1014900088BF30BD11F0004F4FEA01314FF4801C7E
:1014A0004CEA113102D0404261EB410113F0004F90
:1014B0004FEA03334CEA133302D0524263EB430347
:1014C00094EA050F00F0A780A4F10104D5F1200EE5
:1014D0000DDB02FA0EFC22FA05F2801841F1000140
:1014E00003FA0EF2801843FA05F359410EE0A5F114
:1014F00020050EF1200E012A03FA0EFC28BF4CF045
:10150000020C43FA05F3C01851EBE37101F00045FA
:1015100007D54FF0000EDCF1000C7EEB00006EEB07
:101520000101B1F5801F1BD3B1F5001F0CD3490891
:101530005FEA30004FEA3C0C04F101044FEA4452E8
:1015400012F5800F80F09A80BCF1004F08BF5FEA6F
:10155000500C50F1000041EB045141EA050130BD4F
:101560005FEA4C0C404141EB0101013C28BFB1F561
:10157000801FE9D291F0000F04BF01460020B1FAAC
:1015800081F308BF2033A3F10B03B3F120020CDA7F
:101590000C3208DD02F1140CC2F10C0201FA0CF05D
:1015A00021FA02F10CE002F11402D8BFC2F1200CC2
:1015B00001FA02F120FA0CFCDCBF41EA0C01904078
:1015C000E41AA2BF01EB0451294330BD6FEA0404C1
:1015D0001F3C1CDA0C340EDC04F11404C4F12002AC
:1015E00020FA04F001FA02F340EA030021FA04F3BE
:1015F00045EA030130BDC4F10C04C4F1200220FA15
:1016000002F001FA04F340EA0300294630BD21FA52
:1016100004F0294630BD94F0000F83F4801306BF18
:1016200081F480110134013D4EE77FEA645C18BF0C
:101630007FEA655C29D094EA050F08BF90EA020FA3
:1016400005D054EA000C04BF1946104630BD91EA9B
:10165000030F1EBF0021002030BD5FEA545C05D19E
:101660004000494128BF41F0004130BD14F58004DD
:101670003CBF01F5801130BD01F0004545F0FE4151
:1016800041F470014FF0000030BD7FEA645C1ABF86
:10169000194610467FEA655C1CBF0B46024650EABD
:1016A000013406BF52EA033591EA030F41F40021E9
:1016B00030BD00BF90F0000F04BF0021704730B56F
:1016C0004FF4806404F132044FF000054FF0000144
:1016D00050E700BF90F0000F04BF0021704730B505
:1016E0004FF4806404F1320410F0004548BF4042DA
:1016F0004FF000013EE700BF42004FEAE2014FEA2F
:1017000031014FEA02701FBF12F07F4393F07F4F09
:1017100081F06051704732F07F4208BF704793F00C
:101720007F4F04BF41F40021704730B54FF460741F
:1017300001F0004521F000411CE700BF50EA010222
:1017400008BF704730B54FF000050AE050EA0102CB
:1017500008BF704730B511F0004502D5404261EB3B
:1017600041014FF4806404F132045FEA915C3FF47C
:10177000D8AE4FF003025FEADC0C18BF03325FEA19
:10178000DC0C18BF033202EBDC02C2F1200300FACA
:1017900003FC20FA02F001FA03FE40EA0E0021FAEF
:1017A00002F11444BDE600BF70B54FF0FF0C4CF4DD
:1017B000E06C1CEA11541DBF1CEA135594EA0C0F8F
:1017C00095EA0C0F00F0DEF82C4481EA030621EACA
:1017D0004C5123EA4C5350EA013518BF52EA033505
:1017E00041F4801143F4801338D0A0FB02CE4FF0B7
:1017F0000005E1FB02E506F00042E0FB03E54FF0E7
:101800000006E1FB03569CF0000F18BF4EF0010EDE
:10181000A4F1FF04B6F5007F64F5407404D25FEADA
:101820004E0E6D4146EB060642EAC62141EA55518D
:101830004FEAC52040EA5E504FEACE2EB4F1FD0CCF
:1018400088BFBCF5E06F1ED8BEF1004F08BF5FEA4D
:10185000500E50F1000041EB045170BD06F00046FF
:1018600046EA010140EA020081EA0301B4EB5C04AC
:10187000C2BFD4EB0C0541EA045170BD41F48011A4
:101880004FF0000E013C00F3AB8014F1360FDEBFC9
:10189000002001F0004170BDC4F10004203C35DAA5
:1018A0000C341BDC04F11404C4F1200500FA05F328
:1018B00020FA04F001FA05F240EA020001F00042C9
:1018C00021F0004110EBD37021FA04F642EB06013F
:1018D0005EEA430E08BF20EAD37070BDC4F10C0469
:1018E000C4F1200500FA04F320FA05F001FA04F22D
:1018F00040EA020001F0004110EBD37041F1000119
:101900005EEA430E08BF20EAD37070BDC4F1200523
:1019100000FA05F24EEA020E20FA04F301FA05F28B
:1019200043EA020321FA04F001F0004121FA04F233
:1019300020EA020000EBD3705EEA430E08BF20EA03
:10194000D37070BD94F0000F0FD101F0004640003D
:1019500041EB010111F4801F08BF013CF7D041EABF
:10196000060195F0000F18BF704703F000465200C3
:1019700043EB030313F4801F08BF013DF7D043EA94
:101980000603704794EA0C0F0CEA135518BF95EA4A
:101990000C0F0CD050EA410618BF52EA4306D1D1D1
:1019A00081EA030101F000414FF0000070BD50EAF0
:1019B000410606BF1046194652EA430619D094EA7A
:1019C0000C0F02D150EA013613D195EA0C0F05D164
:1019D00052EA03361CBF104619460AD181EA0301B8
:1019E00001F0004141F0FE4141F470014FF0000070
:1019F00070BD41F0FE4141F4780170BD70B54FF00B
:101A0000FF0C4CF4E06C1CEA11541DBF1CEA13558A
:101A100094EA0C0F95EA0C0F00F0A7F8A4EB05046C
:101A200081EA030E52EA03354FEA013100F0888063
:101A30004FEA03334FF0805545EA131343EA12632C
:101A40004FEA022245EA111545EA10654FEA0026E1
:101A50000EF000419D4208BF964244F1FD0404F59A
:101A6000407402D25B084FEA3202B61A65EB0305F6
:101A70005B084FEA32024FF480104FF4002CB6EBB3
:101A8000020E75EB030E22BFB61A754640EA0C0033
:101A90005B084FEA3202B6EB020E75EB030E22BF73
:101AA000B61A754640EA5C005B084FEA3202B6EBB4
:101AB000020E75EB030E22BFB61A754640EA9C0073
:101AC0005B084FEA3202B6EB020E75EB030E22BF43
:101AD000B61A754640EADC0055EA060E18D04FEA01
:101AE000051545EA16754FEA06164FEAC30343EAA1
:101AF00052734FEAC2025FEA1C1CC0D111F4801F6E
:101B00000BD141EA00014FF000004FF0004CB6E766
:101B100011F4801F04BF01430020B4F1FD0C88BF05
:101B2000BCF5E06F3FF6AFAEB5EB030C04BFB6EB10
:101B3000020C5FEA500C50F1000041EB045170BD03
:101B40000EF0004E4EEA113114EB5C04C2BFD4EB30
:101B50000C0541EA045170BD41F480114FF0000EB4
:101B6000013C90E645EA060E8DE60CEA135594EA30
:101B70000C0F08BF95EA0C0F3FF43BAF94EA0C0F33
:101B80000AD150EA01347FF434AF95EA0C0F7FF4A8
:101B900025AF104619462CE795EA0C0F06D152EAFC
:101BA00003353FF4FDAE1046194622E750EA4106E0
:101BB00018BF52EA43067FF4C5AE50EA41047FF4F1
:101BC0000DAF52EA43057FF4EBAE12E74FF0FF3C56
:101BD00006E000BF4FF0010C02E000BF4FF0010C27
:101BE0004DF804CD4FEA410C7FEA6C5C4FEA430CA0
:101BF00018BF7FEA6C5C1BD001B050EA410C0CBFEF
:101C000052EA430C91EA030F02BF90EA020F002050
:101C1000704710F1000F91EA030F58BF994208BFB7
:101C200090422CBFD8176FEAE37040F00100704774
:101C30004FEA410C7FEA6C5C02D150EA013C07D1CB
:101C40004FEA430C7FEA6C5CD6D152EA033CD3D016
:101C50005DF8040B704700BF8446104662468C4610
:101C60001946634600E000BF01B5FFF7B7FF002843
:101C700048BF10F1000F01BD4DF808EDFFF7F4FF6C
:101C80000CBF012000205DF808FB00BF4DF808EDF7
:101C9000FFF7EAFF34BF012000205DF808FB00BF1A
:101CA0004DF808EDFFF7E0FF94BF012000205DF83C
:101CB00008FB00BF4DF808EDFFF7CEFF94BF0120F1
:101CC00000205DF808FB00BF4DF808EDFFF7C4FFEA
:101CD00034BF012000205DF808FB00BF4FEA410C33
:101CE0007FEA6C5C02D150EA013C0AD14FEA430C16
:101CF0007FEA6C5C02D152EA033C02D14FF0000053
:101D000070474FF0010070474FEA410212F5001290
:101D100015D211D56FF47873B3EB625212D94FEA32
:101D2000C12343F0004343EA505311F0004F23FA1C
:101D300002F018BF404270474FF00000704750EA71
:101D4000013005D111F0004008BF6FF0004070472E
:101D50004FF00000704700BF4A0011D212F5001288
:101D600011D20DD56FF47873B3EB62520ED44FEAF3
:101D7000C12343F0004343EA505323FA02F0704773
:101D80004FF00000704750EA013002D14FF0FF30B1
:101D900070474FF0000070474FEA4102B2F1E04354
:101DA00024BFB3F5001CDCF1FE5C0DD901F0004C42
:101DB0004FEAC0024CEA5070B2F1004F40EB830092
:101DC00008BF20F00100704711F0804F21D113F1BE
:101DD0003872BCBF01F00040704741F480114FEAF7
:101DE0005252C2F11802C2F1200C10FA0CF320FA80
:101DF00002F018BF40F001004FEAC1234FEAD3239D
:101E000003FA0CFC40EA0C0023FA02F34FEA430306
:101E1000CCE77FEA625307D150EA01331EBF4FF08F
:101E2000FE4040F44000704701F0004040F0FE40AA
:101E300040F40000704700BF80F0004002E000BFA7
:101E400081F0004142001FBF5FEA410392EA030FA5
:101E50007FEA226C7FEA236C6AD04FEA1262D2EBEF
:101E60001363C1BFD218414048404140B8BF5B42F4
:101E7000192B88BF704710F0004F40F4000020F08D
:101E80007F4018BF404211F0004F41F4000121F0A3
:101E90007F4118BF494292EA030F3FD0A2F10102ED
:101EA00041FA03FC10EB0C00C3F1200301FA03F12B
:101EB00000F0004302D5494260EB4000B0F5000F4E
:101EC00013D3B0F1807F06D340084FEA310102F10D
:101ED0000102FE2A51D2B1F1004F40EBC25008BFBF
:101EE00020F0010040EA03007047490040EB000089
:101EF000013A28BFB0F5000FEDD2B0FA80FCACF18A
:101F0000080CB2EB0C0200FA0CF0AABF00EBC250B6
:101F100052421843BCBFD0401843704792F0000FA4
:101F200081F4000106BF80F400000132013BB5E7F7
:101F30004FEA41037FEA226C18BF7FEA236C21D06D
:101F400092EA030F04D092F0000F08BF08467047D2
:101F500090EA010F1CBF0020704712F07F4F04D1A0
:101F6000400028BF40F00040704712F100723CBFB3
:101F700000F50000704700F0004343F0FE4040F4DD
:101F8000000070477FEA226216BF08467FEA23639B
:101F90000146420206BF5FEA412390EA010F40F486
:101FA000800070474FF0000304E000BF10F00043D2
:101FB00048BF40425FEA000C08BF704743F09643B9
:101FC00001464FF000001CE050EA010208BF7047D4
:101FD0004FF000030AE000BF50EA010208BF70475B
:101FE00011F0004302D5404261EB41015FEA010C70
:101FF00002BF84460146002043F0B64308BFA3F168
:102000008053A3F50003BCFA8CF2083AA3EBC25349
:1020100010DB01FA02FC634400FA02FCC2F1200268
:10202000BCF1004F20FA02F243EB020008BF20F09F
:102030000100704702F1200201FA02FCC2F1200205
:1020400050EA4C0021FA02F243EB020008BF20EAFA
:10205000DC7070477BB972B90029BEBF00204FF019
:10206000004106E008BF00281CBF6FF000414FF0A0
:10207000FF3000F095B8ADF1080C6DE904CE0029F1
:1020800009DB002B1ADB00F005F9DDF804E0DDE9DF
:10209000022304B07047404261EB4101002B1BDB7F
:1020A00000F0F8F8DDF804E0DDE9022304B0404276
:1020B00061EB4101524263EB43037047524263EBD1
:1020C000430300F0E7F8DDF804E0DDE9022304B0A3
:1020D000404261EB41017047524263EB430300F021
:1020E000D9F8DDF804E0DDE9022304B0524263EBE5
:1020F0004303704753B94AB9002908BF00281CBFE1
:102100004FF0FF314FF0FF3000F04AB8ADF1080C4E
:102110006DE904CE00F0BEF8DDF804E0DDE902234D
:1021200004B07047D0B5FFF7E7FA0C4B0022064623
:102130000F46FFF739FBFFF70FFE0446FFF7BAFA29
:10214000074B0022FFF730FB02460B46304639466C
:10215000FFF772F9FFF700FE2146D0BD0000F03D09
:102160000000F041D0B50C4B002206460F46FFF7A9
:102170001BFBFFF7F1FD0446FFF79CFA074B00221B
:10218000FFF712FB02460B4630463946FFF754F97B
:10219000FFF7E2FD2146D0BD0000F03D0000F04118
:1021A000704700BF08B5FFF7EFF8BDE80840FFF73C
:1021B0006DB870B5841A04F307040E4660B259B2C4
:1021C0001546FFF753F8002330702844737040B26F
:1021D00070BD0023036070477047002070474FF0C8
:1021E000FF3070474FF0FF30704770474FF0FF30BF
:1021F000704700207047002070470023037070472D
:102200009DF800300022FFF7D4BF002070474FF048
:10221000FF3070474FF0FF3070474FF0FF3070478E
:10222000704700280CBF6FF0150000207047002099
:10223000704707230370002070470020704700207C
:10224000704710F8012B11F8013B012A28BF9A4270
:10225000F7D0D01A7047034613F8012B002AFBD1A0
:10226000181A0138704738B50022002304460D467D
:10227000FFF70CFD28B920462946BDE83840FFF796
:1022800071BF204605F10041FFF76CFF404261EB52
:10229000410138BD2DE9F04786468C460846089E28
:1022A000154674461946002B40F0C2808542B2FAAA
:1022B00082F245D94AB1C2F1200300FA02FC2EFA9B
:1022C00003F3954043EA0C0C94404FEA154EA8B234
:1022D000BCFBFEF8230C0EFB18CC08FB00F943EA0C
:1022E0000C43994528D9EB1808F1FF3704D29945DA
:1022F00002D9A8F102072B44A3EB0903A4B2B3FB54
:10230000FEFC0EFB1C330CFB00F044EA0344A0422D
:1023100014D92C190CF1FF3304D2A04202D9ACF12C
:1023200002032C44241A43EA07401EB1D440002380
:1023300034607360BDE8F0874746DDE76346F1E748
:1023400092BB431B01214FEA154EAFB2B3FBFEFC1B
:10235000200C0EFB1C330CFB07F840EA03439845A6
:1023600062D9EB180CF1FF3004D2984502D9ACF1D8
:1023700002002B44A3EB0803A4B2B3FBFEFC0EFB4C
:102380001C330CFB07F744EA0344A7424ED92C192F
:102390000CF1FF3304D2A74202D9ACF102032C4462
:1023A000E41B43EA0040C0E7C2F1200320FA03F136
:1023B000954090402EFA03F303434FEA154EAFB217
:1023C000B1FBFEFC0EFB1C10190C0CFB07F841EADC
:1023D0000041884504FA02F422D969180CF1FF3053
:1023E00004D2884502D9ACF102002944A1EB0801CE
:1023F0009BB2B1FBFEFC0EFB1C110CFB07F743EA82
:1024000001439F420ED9EB180CF1FF3104D29F42D9
:1024100002D9ACF102012B44DB1B41EA004192E7F7
:102420006046E3E76146F7E76046A3E76346B7E740
:10243000834206D916B9002108467BE7C6E900E0C9
:10244000F9E7B3FA83F78FB9834201D3724508D80D
:10245000BEEB020460EB030301209C461EB9002181
:1024600068E73846FAE7C6E9004CF8E7C7F1200C00
:10247000BB4022FA0CF41C432EFA0CF120FA0CF3A8
:10248000B84001434FEA14490EFA07F5B3FBF9F8D7
:102490001FFA84FE09FB18300B0C08FB0EFA43EA06
:1024A00000439A4502FA07F240D9E31808F1FF30D9
:1024B00004D29A4502D9A8F102002344A3EB0A03EF
:1024C00089B2B3FBF9F809FB183308FB0EFE41EAA9
:1024D00003418E452CD9611808F1FF3304D28E4593
:1024E00002D9A8F10203214443EA0040A0FB02986C
:1024F000A1EB0E014145CE46434602D306D14D45E0
:1025000004D2B9EB020E68EB04030138002EA6D00A
:10251000B5EB0E0261EB030101FA0CFC22FA07F3A2
:102520004CEA0303F940C6E9003198E74046C5E7A5
:102530004346D9E7000000002DE9F04F2DED048B54
:1025400087B00678012E00AF17D0022E00F0A880C9
:102550006EB9A54A136801331360A44B1E60A44BE7
:102560001B7823B10BF0A0FE08B934F0ABFC1C378C
:10257000BD46BDEC048BBDE8F08F9E4C2368013353
:1025800023603FF020FD24686422B4FBF2F302FBD9
:102590001343994A2BB1136841F28831C31A8B4215
:1025A0001FD9914B10601E68A51918BF64234FF006
:1025B0000A001CBF6343B3FBF5F52AF0D3FA50B110
:1025C0008E4BC0E90745C0E9053605230374002397
:1025D00043748374C3748A4900234FF4235241F037
:1025E0001FFEDFF85C82874D98F80030B3B13FF0F2
:1025F000EAFC854AD2E90064861B61EB04040BF017
:10260000E5FA64380023B04273EB040406DA7F4A2B
:1026100088F8003013602B6801332B602E68BEB33E
:102620000A23B6FBF3F403FB1464ACB9784B1B78B4
:10263000F02B11D108202AF095FA38B1754B44746B
:10264000C0E90536032303748474C4746C49002301
:102650004FF4C45241F0E4FD2C68B4F5967F17D1D5
:102660003FF0B1FC6C4BC3E9000108202AF07AFA74
:1026700040B16A4BC0E9053403230374002343745B
:102680008374C3745E4900234FF4C45241F0C8FD03
:10269000574B1B78002B3FF46AAF0BF005FE66E743
:1026A0005F4D284634F0C0FC10F13D0F04463FF466
:1026B0005EAFA8B108202AF055FA50B1594B4361DA
:1026C000594BC0E906340423037400234374837414
:1026D000C37400234FF40152494941F0A1FD46E77C
:1026E00052492B780A78002A43D1082B7FF43FAF58
:1026F0004F4C2378002B3FF43AAF4E4B68795B790F
:10270000984201D0227032E74FF000084FF00009E4
:10271000C7E90489B5F80B30BB82D5F80700BE8A3B
:1027200038614FF080537E61D3F8A4C0D3F8A8304D
:102730009BB29E4208BF604514D106202AF012FACF
:1027400038B13D4B43610223037400234374837407
:10275000C37400232A494FF4845241F061FD0023E1
:10276000237004E7D5F805300B60D5F809304B60CD
:10277000C8E70D2B68D0112B3FF4F9AE032B40F2C4
:10278000ED836B79AA2B40F0E9830BF08DFD0028D7
:1027900000F0E4832B78AA792148284CDFF8A4C004
:1027A000023B03EBD373C3F34703934228BF1346A3
:1027B0000026F2B293427FF6DAAEC279057A45EA94
:1027C0000225002294F800E0D1B27145C0F0BB832D
:1027D00022780F2A00F2BF832278D1B20132D2B21E
:1027E00022702CF81150B6E3B85A0020C05A0020CD
:1027F0008EED0020B45A0020B05A0020F883040067
:10280000106704004C5B002040180020505B002043
:10281000201800202184040028190020418404008D
:1028200098ED0020868404006B92040090ED002057
:10283000E5ED00200D0D0020AC840400D4B3002091
:102840008DED00203EB100206B79F12B7FF48FAE2F
:102850000C22691D072027F0C1FE6B7C83420DD03E
:1028600006202AF07FF928B1A14B43610674447415
:102870008474C47400234FF484522DE79D4B95F863
:1028800006901E78DFF8BC824E452CD008202AF036
:1028900069F948B1984BC661C0E90539042303744E
:1028A000002343748374C374944900234FF4025289
:1028B00041F0B6FC924B002402201C70C8F8004086
:1028C00024F0B6FC01287FF452AE2146022024F009
:1028D000FFFB8C4B00200021C3E900018A4B1C70D8
:1028E0008A4B1C6043E6DFF860B295F807909BF8CE
:1028F0000060834BB6EB09064FF0000A4FF0020070
:1029000048BF06F58076C8F800A083F800A024F040
:102910008FFC0128DFF8F48111D1D8F800300133A1
:10292000C8F800306BB15146022024F0D1FB9FED76
:102930006E7B744B83ED007B734B83F800A0C8F86B
:1029400000A0052E16DD0A209BF800802AF00AF967
:1029500050B16F4BC0E90786C0E905390523037400
:10296000002343748374C374644900234FF42252D8
:1029700041F056FCAA68298995F808A0B5F80960C5
:102980006B89644890F800C0CC4504D1D0F804802D
:10299000B8F1000F06D101340A2C00F10800F1D182
:1029A0004FF000082C7B0C2C6DD1C9BA07EE901AA1
:1029B0009FED597AF8EEE77ADBBA87EE878A2046F0
:1029C00007EE903AB5F80D30F8EEE77ADBBA87EE0D
:1029D000879A07EE903AF8EEE77AC7EE878A2AF0F0
:1029E000C1F80646C8B14D4B436118EE100AFEF718
:1029F00083FEC6E9060119EE100AFEF77DFEC6E960
:102A0000080118EE900AFEF777FE0823C6E90A01CE
:102A1000337400237374B374F3743046374900235E
:102A200044F2C00241F0FCFB0026B2463C4B197850
:102A3000002940F09D811C703FF0C5FA394B0A2CEB
:102A4000C3E9000140F09E81D5F80D30364A1BBA2B
:102A50006D468CB013606A463449136240F2DC5311
:102A60005161536232494FF400731385314BC2E90F
:102A7000061442F8103F00234FF453511F482AF028
:102A800051FAAD4673E5242C60D1C6B908202AF06E
:102A900069F838B1284B4674C0E9053A032303743A
:102AA0008674C67400234FF4C652144941F0B8FB33
:102AB0009FED228AB0EE489AF0EE488AB6E776BAE1
:102AC0000820B6B22AF04EF848B11D4BC661C0E9E5
:102AD000053A04230374002343748374C3740023EE
:102AE0004FF40352E1E700BF0000000000000000C7
:102AF000E8840400F3E80020FA840400106704006E
:102B00008DED002028190020E6ED0020505B00200C
:102B100028850400FC5A00200000C84254850400A7
:102B20008AED002038180020F85A0020258604007D
:102B30006B860400060000017D8504000000000093
:102B4000B38504004C5B00208CED0020B8F1000F31
:102B500048D0994BDFF8B8E21868984BDEF800606F
:102B6000DFF8B092A0EB080CACFB0313C90B41EAF1
:102B70004341BCF1000F3BD0B44539D8CEF800C07A
:102B80000023C9F80030DEF800308C4E9B00A3FB18
:102B90000636DB0B43EA4643B3F57A7F38BF4FF482
:102BA0007A738B421ED9864B16BAC3F80080361A48
:102BB0003FF009FA834B844AC3E900018349844BFF
:102BC000087810BB1E60834BDFF810C21860012329
:102BD000CCF80060C2F800800B707F4B01221A70A5
:102BE00042F00AFD002C00F09E800026B2465FE70E
:102BF000D9F800300133772BC9F80030C3D9132E30
:102C0000C1D80136CEF80060BAE71268DFF8089242
:102C10001B68BB60A8EB020BD9F80020FA604FEAF2
:102C2000E27CA2FB0B010BFB0C1161A3D3E9002397
:102C3000FFF710FABB68694A034412687A60F31A16
:102C400083EAE372A2EBE372B2F5FA4F4FF0000AA7
:102C500024DD0A20FB6029F085FF70B1FB688361E9
:102C60007B685F4A4261C0E907360523037480F838
:102C700011A080F812A080F813A0002359494FF446
:102C8000225241F0CDFA554B1E60514B1E604E4B07
:102C9000C3F800800023C9F800309EE7BBF5004F61
:102CA00011D3BB685048F11A5A46534681FB0001C4
:102CB000FFF7D0F9FB68C01AFB6848BF033003EB8D
:102CC000A000C9F80000434BD9F800001A6802F1CF
:102CD000010AC3F800A03A4B1B68A8EB030CC1170C
:102CE000ACFB000E32A3D3E900230CFB01E1FFF79C
:102CF000B1F97B6803449946BAF1050FA6EB0303CB
:102D000098BF03EB43039A1C48BF5A1D334BBBF5D6
:102D1000F01F09EBA2021A6081BF2D4B1E602A4BE7
:102D2000C3F8008059E76C7BAE7B95F80F802D7C53
:102D3000FF2C0DD066B1B8F1000F09D00EF056F996
:102D4000854205D02B464246314620460EF0CEF84D
:102D5000264B1A78002A3FF40AAC254900221A7043
:102D6000244B0A7000200021C3E90001FFF7FFBBDC
:102D70001E4A12788A427FF4FAAB94427FF45BAE2B
:102D8000FFF7F5BB0C2C08D11B4B83ED008A83EDBC
:102D9000019AC3ED028A194907E0242C3ED1184B51
:102DA000184983F800A0184B1E80184B59E000BF4B
:102DB00000CA9A3B00000000B0AE002040420F0065
:102DC000E45A002030180020D85A0020F4E80020EF
:102DD000DC5A0020D05A0020F5E80020E85A0020F4
:102DE000E48504001067040000CA9A3B89ED0020C6
:102DF0008AED002038180020EC5A0020EC8C0400EA
:102E000088ED0020EE83040060B30020C28304003C
:102E1000CC060020D45A0020E05A0020631E322B3A
:102E200000F28980DFE803F0898C2E313437434685
:102E30004987874F5154575A665D6063696C6F3A92
:102E40003D407275787B87874C8787878787878720
:102E5000878787878787871A7E8184005E49302429
:102E60005E4B6D468AB06A465D48C2E907435D4BDA
:102E700053625D4BC2E9050142F8103F00234FF455
:102E80004351FBE5594903248FE7594904248CE752
:102E90005849052489E75849062486E757491824E4
:102EA00083E75749192480E756491A247DE7564994
:102EB00007247AE75549082477E75549092474E738
:102EC0005449212471E70C2465E753490D246CE72C
:102ED00052490E2469E752490F2466E751491024EC
:102EE00063E75149122460E7504913245DE75049D4
:102EF00014245AE74F49112457E74F49152454E742
:102F00004E49162451E74E4917244EE74D491B24DC
:102F10004BE74D491C2448E74C491D2445E74C49E3
:102F20001E2442E74B4931249AE74B49322497E764
:102F30004A49332494E74A4937E74A49012434E7A8
:102F40004949022431E73CF8111089B28D4202F15F
:102F500001027FF437AC013602302AE42E78012ECC
:102F600028D96B79203B052B24D8DFF810813F4B03
:102F700098F800401B78013404F00F049C423FF4A1
:102F8000F6AA98F800003A4D3A4900EBC00300EB6E
:102F9000C3003246284442F093FB98F8003049229F
:102FA00002FB035585F84860BFF35F8F88F8004047
:102FB000FFF7DDBA082029F0D5FD40B12E4BC0E95E
:102FC000053603230374002343748374C3740023FE
:102FD0004FF4C452FFF780BB398F0400AC83040068
:102FE000778604000002020405000002358904000F
:102FF0005C89040082890400A1890400C589040059
:10300000E7890400088A0400038B0400A5890400F2
:10301000F9B9040009BA04000F8D04006F8D040093
:10302000938D0400B78D0400DB8D0400008E040036
:10303000278E04004F8E04006E8E0400958E0400CF
:10304000BC8E04002A8A04004C8A04006F8A0400A3
:10305000918A0400628F0400D98304009D830400D8
:10306000E6830400EE88040011890400F6E80020DD
:10307000F8E800209DED00209F860400F7E800207E
:1030800070B5234E33781BB33EF09DFF214AD2E941
:10309000004543F69923041B61EB05059C4275F13D
:1030A000000318DB082029F05DFD48B11A4BC5610B
:1030B000C0E9053404230374002343748374C37488
:1030C000002316494FF4025241F0AAF8002333704E
:1030D0000020002170BD42F08FFA114B1D68114B8A
:1030E000451B04461868C617A5FB000106A3D3E9D3
:1030F000002305FB0611FEF7ADFF0B4B1B681C44BC
:103100002044E6E7AFF3008000CA9A3B00000000CD
:10311000F5E80020301800204890040010670400F3
:10312000E45A0020E05A0020E85A00200000000085
:10313000F0B514461A4AA0FB020302FB0131C00B92
:1031400085B040EA414014A3D3E90023C90BFEF740
:10315000D1FF0546194610460023124AFEF7CAFF62
:1031600006461946104600230D4AFEF7C3FF0746E0
:103170001946104600234FF47A72FEF7BBFF009702
:10318000CDE90102334608482A46214640F030FB8B
:1031900005B0F0BDAFF3008000A493D6000000009E
:1031A00040420F0000879303AB9E04000000000024
:1031B0002DE9F04F2DED068BCBB024F0C1FC50B1C2
:1031C0004FF0804357220120C3F81C250DF014FF57
:1031D000002023F053FA2CF0BDF829F0D9FC044666
:1031E000002840F0F580914842F001F978B18F4D08
:1031F0004594AE683224B36C002B40F0ED8064201F
:103200003EF0F1FE013CF6D164203EF0ECFE884831
:10321000884D40F0EDFA11241223CDE901340B233F
:10322000854800930722042340F2EA7140F0E0FA57
:10323000824B834A8349844840F0DAFA0DF0EEFE6F
:10324000824B18681B798DF84430814B10909A8816
:10325000ADF8B4207F4A186851689B792C901068AB
:103260008DF8B63038AB03C3127A1A707A4B9A884D
:10327000ADF8BC20794A186851689B792E90106887
:103280008DF8BE3034AB03C3754B764A186851686D
:103290001B79129010688DF84C303BAB03C3128938
:1032A0001A80714B18681B798DF854306F4B14904D
:1032B00018689B88ADF894306D4B249018689B88F3
:1032C000ADF89C306B4B26909A8818689B798DF8E6
:1032D000C630694B3090CDE90653684BADF8C42039
:1032E00018681B798DF85C30654B664A1690186833
:1032F0009B882890ADF8A4301068516836AB03C3A2
:10330000614B41AA03F1080618685968144603C4C2
:103310000833B3422246F7D118681B7923715B4BFF
:10332000206008935A4B5B4A18681B798DF864300B
:10333000594B189018681B7951681A908DF86C30A9
:103340001068564B09933EAB03C312891A80544A46
:10335000544B1068544E1C9018681E9030682A9088
:10336000B088ADF8AC005148147919798DF87440E3
:103370008DF87C100A90A0F54020A0F61970CDE9D8
:103380000B05106820901868494B0D93494B22900B
:103390009A8818689B798DF8CE30474B8DF8844019
:1033A0008DF88C103290ADF8CC200E932BF0BAFF34
:1033B00006460246414800251178C9B9052214A9DC
:1033C000304642F06DF900287AD10DF027FEEDE786
:1033D00001203AF0E1FB00E745AA0421284698477E
:1033E00000287FF40CAF459B002B3FF408AF0BE7A0
:1033F000445C537804F00304012C04D12031117093
:1034000011464A1CD8E72029FAD1002DF8D11570B1
:10341000C15C01F00301012908BF2033DBB2511C5C
:103420005370002B18BF0D46EBE700BF606104002E
:10343000D0A204006D616700EAA2040048A3040062
:103440008890040051A3040085A30400504F050098
:1034500096B80400F8100500E6B904009D4D05007B
:10346000BA2805002EB204009DB80400A2B80400DA
:10347000A8B80400AEB8040073657400B5B80400C1
:1034800036AB040076890500BAB80400646675009E
:10349000DF2C0500C7B80400EE9204006E767300BE
:1034A000D1B80400D6B80400AD8804007A726F0069
:1034B00062617400E82F0500616C6C00CDA8050006
:1034C000052210A9304642F0EBF88346002840F070
:1034D0001383CC48DFF8B4A340F08AF912231120FB
:1034E000CDE901300B23C84800930722042340F2A2
:1034F000EA7140F07DF9C54BC54AC649C64840F05F
:1035000077F9C64840F074F9C54840F071F9C548EC
:1035100040F06EF9C44840F06BF9DAF80030B3F8C7
:10352000923403F07F037F2B00F0B1821EF084FD04
:103530000146BE4840F05CF9DAF8003093F8963462
:10354000FF2B08D013F0800FB94BBA49BA4818BF07
:10355000194640F04DF9DAF80030B84893F896244F
:10356000B3F8921440F044F9DAF80030B3F8943428
:1035700003F07F037F2B00F08C821EF073FD044666
:103580001FF0A6FAAE4BAF4A2146002818BF1A46D4
:10359000AD4840F02DF9DAF8003093F89724FF2A6F
:1035A0000FD0B3F89414090640F1758293F996246C
:1035B000A649A74B31EA220128BF19469E4840F090
:1035C00017F9DAF800309D4893F89724B3F894146B
:1035D000DFF8988240F00CF99E4840F009F9002588
:1035E000DAF8004004EB85040135D4F84401FEF715
:1035F00083F80646D4F868010F46FEF77DF8CDE95A
:103600000401D4F85C01FEF777F8CDE90201D4F8A3
:103610005001FEF771F83246CDE900013B464046C5
:1036200040F0E6F8032DDBD18B4840F0E1F8DAF802
:103630000060D6F84401FEF75FF80446D6F84C0166
:103640000D46FEF759F8CDE90201D6F84801FEF71C
:1036500053F822462B46CDE90001804840F0C8F8D7
:10366000DAF80060D6F85001FEF746F80446D6F8BE
:1036700070010D46FEF740F8CDE90201D6F8600171
:10368000FEF73AF822462B46CDE90001744840F097
:10369000AFF8DAF80060D6F8FC00FEF72DF8044623
:1036A000D6F804010D46FEF727F8CDE90201D6F859
:1036B0000001FEF721F822462B46CDE900016948BA
:1036C00040F096F845A811F00BF84598FEF714F86D
:1036D000044646980D46FEF70FF8064647980F46F3
:1036E000FEF70AF8804689461FF08CFC10EE100A9F
:1036F000FEF702F8CDE90067CDE9040122465A48F9
:103700005A4F2B46CDE9028940F072F8584840F0F4
:103710006FF8DAF8006006EB8B060BF1010BD6F8B8
:103720001401FDF7E9FF0446D6F838010D46FDF710
:10373000E3FFCDE90401D6F82C01FDF7DDFFCDE96B
:103740000201D6F82001FDF7D7FF2246CDE900019E
:103750002B46384640F04CF8BBF1030FD9D1DAF8CC
:103760000030D3ED457AF5EE407AF1EE10FA4FF0E5
:10377000000240F09781D3ED467AF5EE407AF1EE03
:1037800010FA40F08F81D3ED477AF5EE407AF1EEF2
:1037900010FA40F087810FA80F923EF039FD0446E1
:1037A00010F0D0F9334D10EE100AFDF7A5FF0646D4
:1037B0000F980F46FDF7A0FF32463B46CDE90201C8
:1037C000009429462C4840F013F81EF05BFC01469B
:1037D0002A4840F00DF8144840F00AF8DAF80030B2
:1037E000274893F8661093F86560264B002E08BFB3
:1037F00018463FF0FDFF4FF080522348D2F8A83022
:1038000046E000BFA9A30400EAA2040048A3040004
:103810008890040051A3040085A30400BBA3040006
:10382000CEA30400DDA3040084A00500F9A30400D6
:10383000EE3605001523050002A4040011A40400BF
:10384000FC770500833E050026A4040046A2040080
:1038500033A204003EA404006BA4040080A404006E
:103860009EA40400BBA40400DBA4040056A404002E
:1038700016A504008B3705002CA504006CA50400D8
:103880005FA204006FA2040079A50400D006002006
:10389000D2F8A4209BB23FF0ABFFDAF80020B24888
:1038A000D2F86930B2F8672042EA03421B0C3FF0BD
:1038B0009FFFDAF80030002B00F0FF8093ED5DAA47
:1038C000DFEDAA8AD3ED5F9A93ED5E9AB7EE008A98
:1038D000C8EE0A7A78EE677A67EEA87A17EE900A51
:1038E000FDF70AFFC8EE297A04460D4678EE677A9E
:1038F00067EEA87A17EE900AFDF7FEFEC8EE097A89
:10390000CDE9020138EE678A68EE287A17EE900A50
:10391000FDF7F2FE22462B46CDE900019448052131
:103920003FF066FF1AEE100AFDF7E6FE044619EEB8
:10393000900A0D46FDF7E0FECDE9020119EE100AEE
:10394000FDF7DAFE2246CDE900012B4689483FF01B
:103950004FFFDAF800208449D2F869308648B2F87F
:103960006720002E18BF084642EA03421B0C3FF0B6
:103970003FFFDAF8003093F89814642992BF7F482B
:103980007F4854213FF034FF7E483FF031FF1FF065
:103990006DFE83461FF078FE1FF0D8FD82461FF0B3
:1039A00079FE07460E461FF075FF054689461FF053
:1039B00077FEBBF1000F0446884640F38E8041F04D
:1039C0001FFE714AC01B61EB0603A0FB020102FB54
:1039D0000311C00B40EA414061A3D3E90023C90BA6
:1039E000FEF788FB1946064600231046674AFEF795
:1039F00081FB0746504616B9FBB2002B61D0FDF79C
:103A000069FE634B0022FDF7F9FFCDE9006702462E
:103A10000B4660483FF0ECFE55EA090364D05A4B70
:103A2000A5FB030103FB0911C00B40EA41404CA375
:103A3000D3E90023C90BFEF75DFB05461946104686
:103A40000023524AFEF756FB2946024652483FF0F1
:103A5000CFFE54EA08034BD04B4BA4FB030103FBFE
:103A60000811C00B40EA41403DA3D3E90023C90B34
:103A7000FEF740FB0446194610460023434AFEF772
:103A800039FB2146024645483FF0B2FE8EE44449E8
:103A90004FE5434C74E5434B434912F0800F18BF88
:103AA00019468BE50FA80F923EF0B2FB044610F0CA
:103AB00049F83E4D10EE100A77E63D483FF098FE7B
:103AC00047E7FDF707FE324B0022FDF797FF02465E
:103AD0000B4638483FF08CFE9EE73E430CBF36480D
:103AE00036483FF085FE97E735483FF081FEB0E766
:103AF00034483FF07DFE59E407222CA9304641F0BE
:103B0000CFFDB0B941F07CFD2F4A0D460446FFF7CA
:103B10000FFB2E4B1B68D3E90401D3E90223801A63
:103B200061EB030100192A4A41EB0501FFF700FB95
:103B30003CE4092238A9304641F0B2FD10B90DF03D
:103B4000D5FC33E407222EA9304641F0A9FD002818
:103B500040D102200DF050FA002022F08FFD25E424
:103B600000A493D60000000082A204000000E144FB
:103B700092A50400D4A504009DA2040034A604006C
:103B80004DA6040084A0050040420F000087930367
:103B90000000594067A60400C2A6040002A7040062
:103BA00025A20400EE3605001523050058A20400E6
:103BB00001A604008DA604009EA6040090A70400A0
:103BC000E0A6040024A704004AA70400D0060020B1
:103BD00051A70400082234A9304641F061FD0028B5
:103BE00040F011811FF03CFD0146C0483FF000FE4F
:103BF0001FF03CFD80461FF047FD81461FF0A6FCEC
:103C000006461FF047FDB8F1000F04460D4640F38D
:103C1000DA803046FDF75EFDB54B0022FDF7EEFE83
:103C2000064648460F46CDF80880FDF753FDB04BD9
:103C30000022FDF7E3FE3246CDE900013B46AD48E8
:103C40003FF0D6FD54EA050300F0C18041F0D8FCF6
:103C5000001BA94A61EB0501FFF76AFA1FF020FD7E
:103C6000814688461FF072FD07460E461FF0C0FDD4
:103C700005460C461FF00EFE50EA010300F0AB8033
:103C80009E4AFFF755FA59EA080300F0A8809C4ABB
:103C900048464146FFF74CFA57EA060300F0A38076
:103CA000984A38463146FFF743FA55EA040300F0D4
:103CB0009E80954A28462146FFF73AFA3FF047F89A
:103CC00005463FF056F8044628461FF03FFC824662
:103CD00020461FF03BFC80463FF05DF845EA0403B8
:103CE0001A0407460E4600F1868050EA010300F0F0
:103CF00082804046FDF7EEFC7D4B0022FDF77EFE04
:103D0000804628468946FDF7E5FC794B0022FDF701
:103D100075FECDE904012046FDF7DCFC744B002262
:103D2000FDF76CFECDE902015046FDF7D3FC704B68
:103D30000022FDF763FE4246CDE900014B46734881
:103D40003FF056FD724A38463146FFF7F1F91FF051
:103D50000BFE06461FF02EFE04461FF043FE44EA0B
:103D600000031B0407464AD42046FDF7B3FC604B12
:103D70000022FDF743FE06EB86060446F0B20D4630
:103D8000FDF798FCCDE902013846FDF7A3FC584B3E
:103D90000022FDF733FE2246CDE900012B465D48A7
:103DA0003FF026FD1FF0BCFDFDF784FC5A4B0022BE
:103DB000FDF724FE02460B4658483FF019FD1FF060
:103DC0008DFEFFF7F3BA56483FF012FD3AE755482B
:103DD0003FF00EFD42E754483FF00AFD53E75348D9
:103DE0003FF006FD58E752483FF002FD5DE75148BD
:103DF0003FF0FEFC62E750483FF0FAFCA7E74F486F
:103E00003FF0F6FCCEE7052212A9304641F048FC0F
:103E100020B901201EF0B0FEFFF7C8BA0A223BA964
:103E2000304641F03DFC18B93EF0ECF9FFF7BEBA60
:103E300005221CA9304641F033FC0446002840F01E
:103E40008F800DB93E4854E63E490422284641F091
:103E50004DFCF0B92E7916F0DF061AD13A49284602
:103E60003CF01EFC384930463CF01AFC364904460A
:103E700030463CF015FC3449054630463CF010FC19
:103E800008B1324835E6294620460DF0D9FAFFF749
:103E90008DBA2F492846FEF7D4F918B90DF06CFAFF
:103EA000FFF784BA28462B492A4E3CF0F9FB45AD72
:103EB0000746002F00F07786032C04D126483FF0F8
:103EC00097FC264815E60FA938463CF08FFB0F9B60
:103ED000A5EC010ABB42F1D018780028EED131469A
:103EE0003CF0DEFB01340746E3E700BF5DA70400BA
:103EF0000000594069A704009FA70400C1A704005F
:103F0000D4A70400EAA704001AA804004AA80400E1
:103F10008AA80400B9A8040000003440FEA80400E8
:103F20008FA70400ACA70400E0A6040024A70400A7
:103F3000FAA704002AA804009DA80400EAA8040027
:103F400012A9040071A90400E562050076A9040025
:103F5000AD880400BAA90400BCA9040019AA040091
:103F600005221EA9304641F09BFB002840F0168236
:103F70000DB99448BDE5284693493CF091FB0546B0
:103F80000028F6D09149FEF75CF920B9012011F024
:103F900011FB8F48ADE58F492846FEF752F918B955
:103FA00011F008FB8C48A4E58C492846FEF749F936
:103FB000B8B911F09DFB11F045FB894D894C0028E3
:103FC0000CBF2946214688483FF012FC10F006F944
:103FD00000280CBF2946214684483FF009FCFFF722
:103FE000E5B983492846FEF72CF918B90FF052FFBE
:103FF000FFF7DCB97F492846FEF723F9F0B972498B
:104000003CF04EFB044608B97B4872E56F49FEF769
:1040100018F938B9012010F0B3F878483FF0E8FB00
:10402000774866E56B492046FEF70BF918B910F0A2
:10403000A7F874485DE574482146CEE773492846E1
:10404000FEF7FFF8044600285AD1714F3B68B3F8D9
:10405000481909B96F484CE56F483FF0C9FB6F48F4
:104060003FF0C6FB6E483FF0C3FB6C483FF0C0FB1F
:1040700000254FF00A0AD7F800B00BEB041606F241
:10408000AC42D2ED007AF5EE407AF1EE10FA24D08F
:1040900017EE900AFDF730FB04F14B020BEB021315
:1040A000804698688946FDF727FBCDE9040106F2B2
:1040B000B44306F596661868FDF71EFBCDE90201CC
:1040C0003068FDF719FB4246CDE900014B465548E3
:1040D00021463FF08DFB0135ADB2B5FBFAF30AFB8B
:1040E00013539BB21BB915B114203DF07CFF013472
:1040F000462CC0D149483FF07BFB4B4829466CE732
:104100004A492846FEF79DF810BB2F493CF0C8FAF3
:10411000044608B94648ECE400230A2245A9459321
:104120003CF070FB459B6BB1A3420BD04149459BD2
:104130001A78002A00F044858A5C150705D43E48A9
:1041400021464AE73D48214647E701334593EEE7DC
:104150003B492846FEF775F8064600BB1A493CF075
:104160009FFA044640B91EF04DFFB4EE400AF1EE4E
:1041700010FA10D73348BCE445A945963CF036FA0E
:10418000459BA34201D01B782BB12F4821463FF01D
:104190002FFB2E48ADE411F009FCFFF707B92C49BD
:1041A0002846FEF74EF8002840F087801EF02AFFD0
:1041B000B4EE400AF1EE10FAB0EE408A4CD7254832
:1041C00097E400BF37AA0400E5620500D18205002C
:1041D000B2AA0400CEAA0400D2AA0400451E05001B
:1041E000833E0500FC77050008AB040020AB04000B
:1041F00036AB040071A904003CAB04006EAB0400B4
:10420000B8AB0400FDAB04001FAC040056AC0400C6
:10421000D00600205BAC040093AC0400C9AC0400E1
:10422000FDAC040032AD04005DAD040084AD0400BB
:104230008BAD0400CDA8050069B80400BBAD040037
:10424000F0AD0400F5AD04004BAE040083AE0400F5
:10425000DE4505009CAE040045A90FA80FF048FFFD
:10426000064618EE100AFDF747FA02460B46AF481D
:104270003FF0BEFADDED0F7AF4EE677AF1EE10FA58
:1042800019D617EE900AFDF737FA044645980D4601
:10429000FDF732FA2246CDE900012B46A4483FF053
:1042A000A7FAA44BA44800223FF0A2FA0EB1A348FB
:1042B0001FE4A3481DE4A3481BE4A3492846FDF7D7
:1042C000C0FF002867D1A1493CF0EAF90446002864
:1042D0004AD19F4C9F48A04EA04D3FF089FA2368D9
:1042E0009F4893F84C1900290CBF314629463FF0EE
:1042F0007FFA23689B4893F84D1900290CBF31467B
:1043000029463FF075FA2368974893F84E193FF015
:104310006FFA2368954893F85C1900290CBF314661
:1043200029463FF065FA266896F85C39CBB106F568
:1043300015631868FDF7E0F906F658130446186887
:104340000D46FDF7D9F9CDE9020106F6541630689D
:10435000FDF7D2F92246CDE900012B4684483FF013
:1043600047FA8448FFF7C5BB8349FDF76AFF28B9C0
:10437000012011F0F5F88148FFF7BBBB80492046CA
:10438000FDF75FFF20B911F0EBF87E48FFF7B1BBF6
:104390007D48214621E67D4829461EE6072230A9B0
:1043A000304641F07DF918B93DF02FFFFEF7FEBF12
:1043B000042206A9304641F073F90446002840F073
:1043C0000B81002D75D11EF083FB714A7149DFF816
:1043D0008081DFF80092002808BF11466E483FF048
:1043E00007FA1DF03FFE01466C483FF001FA6C48A9
:1043F0003FF0FEF9D8F8005005EB84050134D5F8FC
:104400001401FDF779F90646D5F838010F46FDF796
:1044100073F9CDE90401D5F82C01FDF76DF9CDE96B
:104420000201D5F82001FDF767F93246CDE9000118
:104430003B4648463FF0DCF9032CDBD1002345A87E
:1044400045933DF0E5FED8F80030D3ED457AF5EE22
:10445000407AF1EE10FA044625D1D3ED467AF5EE16
:10446000407AF1EE10FA1ED1D3ED477AF5EE407A9C
:10447000F1EE10FA17D10FF065FB4A4D10EE100A5D
:10448000FDF73AF902460B46474829463FF0B0F996
:104490004598FDF731F902460B46444821463FF066
:1044A000A7F9FEF783BF0FF04DFB414D10EE100A48
:1044B000E6E7264928463CF0F3F82F490446FDF785
:1044C000C0FE38B93B483FF093F901201EF090FA46
:1044D000FEF76CBF2A492046FDF7B3FE054620B91A
:1044E00035483FF085F92846F0E734492046FDF786
:1044F000A8FE28B901210FF06FF93148FFF7F9BA8A
:1045000030492046FDF79DFE20B12F492046FDF79A
:1045100098FE40B9002001210FF05EF90FF076FA05
:104520002A48FFF7E6BA2A48FFF7E3BAC5AE040007
:10453000E1AE04000000E03F15AF04003AAF040014
:1045400081AF0400BCAF0400A38C0400E562050049
:10455000D0060020FBAF0400B9A20400B5A20400FD
:1045600015B0040024B0040035B0040045B00400C8
:104570005BB004007FB00400D18205009BB0040052
:10458000CEAA0400D3B00400EFB0040026B10400AA
:10459000833E0500FC7705009DB10400AFB1040027
:1045A00016A504008B370500BDB1040049A5040021
:1045B00058A20400DDB10400F4B1040036AB0400DD
:1045C0000CB20400D7B804002EB2040038B20400C4
:1045D0005AB2040056A4040007A90422304641F050
:1045E0005FF80146F0B9102228463CF0AFF9AD4A19
:1045F000CDE9000106460C4645A811213FF005F91A
:1046000056EA04030BD01122294645A841F048F888
:1046100028B9304621460BF03DF9FEF7C7BEA24847
:10462000FFF767BA052216A9304641F039F818B9E4
:104630000BF022F9FEF7BABE062228A9304641F057
:104640002FF818B90BF082F9FEF7B0BE082236A990
:10465000304641F025F800283AD12DB993483FF073
:10466000C7F89348FFF745BA0A2245A928463CF007
:10467000C9F8459B1B78044613B9431E632B02D926
:104680008C48FFF736BA8C4D01468C483FF0B0F8A5
:104690002B6883F898440DF007F92A6802F59362B5
:1046A000114601231F2022F0A9FF2B68844893F8AC
:1046B00098143FF09DF80AF081FE0A203DF093FC2B
:1046C00001200AF0ABFD2B687E4893F8981484E42F
:1046D0000D2241A9304640F0E3FFF8B9764C7A4804
:1046E0003FF086F82368FF2283F898240DF0DCF869
:1046F000226802F59362012311461F2022F07EFFFB
:1047000072483FF075F80AF059FE0A203DF06BFC44
:1047100001200AF083FD6E48FFF7EBB9042208A9D7
:10472000304640F0BDFF10BBBDB16A4928463BF0A2
:10473000B7FF044688B16849FDF783FDA0B9674813
:104740003FF056F84FF08043A8226420C3F81C25A0
:104750003DF049FC0320FFF7FDB961483FF048F800
:104760004FF080435722F0E75E48214635E40522AA
:1047700018A9304640F094FF18B90CF0ABFEFEF7D4
:1047800015BE042209A9304640F08AFF18B923F06B
:1047900037F9FEF70BBE0A223EA9304640F080FFF3
:1047A000002840F00881444C4F483FF021F823682E
:1047B0004E4AD3F88019914205D04D483FF018F881
:1047C0004C48FFF796B9D3F87459002D40F0B680E5
:1047D00049483FF00DF82368484893F878193FF0AE
:1047E00007F823684648D3F87C193FF001F823689E
:1047F000444AD3F8A019914238D1D3F88459424899
:10480000042D96BF414B424E53F825603EF0F0FF19
:104810002946404832463EF0EBFF2368D3F888191A
:1048200041B13D483EF0E4FF23683C48D3F88C1981
:104830003EF0DEFF2368D3F8901939B1CBB2009374
:104840003748C1F307230A0C3EF0D2FF2368D3F8A0
:10485000941911B133483EF0CBFF2368D3F898295F
:1048600022B1D3F89C1930483EF0C2FF2F483EF0E9
:10487000BFFF23682E4893F864193EF0B9FF236800
:104880002C48D3F86C193EF0B3FF236893F86549C0
:10489000204624F017F92146024627483EF0A8FF9B
:1048A0008EE700BF79B2040081B2040092B2040026
:1048B000AAB20400D6B20400D00600200CB3040053
:1048C00026B3040043B3040066B3040095B30400A8
:1048D000C8B30400E5620500B4480500F0B3040065
:1048E0000BB4040020B404004EB404005453524CE2
:1048F0006FB404007D580500ABB404002AB6040070
:1049000047B604004C54414664B604003C6B0400B6
:10491000BCA204007FB6040092B60400A4B6040052
:10492000B6B60400E9B60400FBB604000CB70400F8
:1049300017B7040035B7040053B704002946A2484E
:104940003EF056FFE90702D5A0483EF051FFAA0706
:1049500002D59F483EF04CFF6B0709D5236893F8BA
:104960007929B3F87A399F071BD59A483EF040FF62
:104970002E0702D598483EF03BFFE80602D597483F
:104980003EF036FFE90302D595483EF031FF6A0359
:1049900002D594483EF02CFF2B037FF51CAF9248C4
:1049A00017E7122A96BF914B914953F8221091486C
:1049B0003EF01EFFDCE705221AA9304640F070FEEB
:1049C00020BB40F01DFE4FF4C3620023FDF742FB05
:1049D000104619464E220023FDF73CFB04461946BB
:1049E000104600230D22FDF735FB834B8349D2B2DD
:1049F000C0B253F82230824AE4B252F8202051F873
:104A0000241080483EF0F4FEFEF7D0BC062224A914
:104A1000304640F045FEA8B97DB10A2245A9284696
:104A20003BF0F0FE459BAB4204D01B7813B9431E0C
:104A30003B2B03D974483EF0DBFE01201EF01AFB2D
:104A4000FEF7B4BC062226A9304640F029FE10B974
:104A50006E48FFF74EB806222AA9304640F020FEE5
:104A6000002851D1002D4CD004220AA9284640F03C
:104A700017FE18B93DF0C7FAFEF798BC04220BA93F
:104A8000284640F00DFE18B93DF0C7FAFEF78EBC7F
:104A900004220CA9284640F003FE20B901210EF0A3
:104AA0009BFEFEF783BC052220A9284640F0F8FDB6
:104AB00000283FF4F3A9052222A9284640F0F0FD82
:104AC00000283FF493AA04220DA9284640F0E8FDEF
:104AD00018B91EF09DFFFEF769BC072232A92846CF
:104AE00040F0DEFD18B90CF0E5FCFEF75FBC0422D7
:104AF0000EA9284640F0D4FD18B922F031FFFEF788
:104B000055BC4348FEF7F5BF42490422304640F009
:104B1000C7FDF8B9A5B140492846FDF792FB28B971
:104B200001200CF0AFF93D48FEF7E3BF3C492846B1
:104B3000FDF787FB20B90CF0A5F93A48FEF7D9BF7D
:104B40000CF0CEF9384A3949002808BF11463848D8
:104B5000FFF743BA37490422304640F0A1FDF8B9C7
:104B6000A5B12D492846FDF76CFB28B9012023F09B
:104B7000C5FA3148FEF7BDBF29492846FDF761FB5C
:104B800020B923F0BBFA2D48FEF7B3BF23F0B0FAEB
:104B9000254A2649002808BF11462948FFF71DBAB3
:104BA0002848FEF7A6BF032C7FF488A99DED471A7D
:104BB000DDED460A9DED450A0CF062FBFEF7F6BB03
:104BC0000FF004FAFEF7F2BBCAB40400DDB404002F
:104BD000FCB4040017B504008CB50400A9B50400AA
:104BE000CFB50400F1B504000DB60400506B04000D
:104BF0006A64050058B504009C6B0400E86B04006F
:104C0000D06B040076B704007EB70400B2B704008E
:104C1000E9B70400E1940400D1820500FBB7040069
:104C2000CEAA040009B80400833E0500FC77050005
:104C300018B80400F0AD040022B8040035B8040030
:104C400049B8040058B804002DE9F04F2DED028B4F
:104C5000A84B1A68B2F84889DFB0B0EE408A044623
:104C6000B8F1000F16D1082027F07CFF58B1A24BF5
:104C70004361A24B83610323037480F8118080F8A1
:104C8000128080F813809E4900234FF4C2523FF0F7
:104C9000C7FA72E09B4FD7F8A03043450BD00023F2
:104CA0003B7787F83C3087F85C3087F87C3087F8B2
:104CB0009C30C7F8A08093490023F6EE006A087F75
:104CC00010B3D1ED007A37EEC87AB0EEC77AB4EE01
:104CD000E67AF1EE10FA17D507EB431378EE677A10
:104CE000043304F10C02B3EC017AD3ED026A07EE4F
:104CF000A67AA4EC017AA242F5D1002528465FB03D
:104D0000BDEC028BBDE8F08F0133052B01F12001D2
:104D1000D5D1B8F1010F33D102F2AC410023D1ED6E
:104D2000007AF5EE407AF1EE10FA21D04B331901FA
:104D300002EB031350585968254603C5986828604C
:104D4000B0EE480A0CF0CEFD07EB401383ED000AED
:104D5000450194E807002E1D3E44103586E8070003
:104D6000002279197A51C1E9012201221A77C4E798
:104D70000133462B01F11001D1D14FF0FF35BDE7D2
:104D8000DFED617A9FED614A002502F5966602F536
:104D9000116E2B46B0EE676AF1EE094AB7EE005A83
:104DA0004FF0140C56ED016AF5EE406AF1EE10FA80
:104DB0003DD036EEC87A27EE077AC7EE245A75EE54
:104DC000855A85EE257AB4EEC47AF1EE10FA2ED427
:104DD000092D62DC0CFB05F909F5BC71694441ED54
:104DE000326A01ED2E7A09F104092CA93068894450
:104DF0007168A9E803000135B068C9F800000A2D00
:104E000015D1DDED307A2CA90023012591ED097A29
:104E1000B4EEE77AF1EE10FA48BF2B4605F1010532
:104E200048BFF0EE477A0A2D01F11401EED1103699
:104E30007645B7D1002D40F0E08102F2AC4EDFEDB7
:104E4000377A02F60C11734693ED007AB5EE407A8C
:104E5000F1EE10FA06D0B4EE677AF1EE10FA48BF20
:104E6000F0EE477A10338B42EED19FED297AF4EEC3
:104E7000C77AF1EE10FA53DD082027F073FE002800
:104E80003FF401AF1C4B43611C4B8361032303744C
:104E9000002343748374C374F5E6B4EEE77AF1EE4D
:104EA00010FAC4DD0CFB03F303F5BC71694401ED9A
:104EB0002E7A41ED326A04332CA930680B447168B4
:104EC00003C3B0681860DDED307A2CA800230121FF
:104ED00090ED097AB4EEE77AF1EE10FA48BF0B468E
:104EE00001F1010148BFF0EE477A0A2900F11400F0
:104EF000EED19CE7D006002073BB0400AAEB0400AF
:104F0000D8660400905B0020000000008FC2F53CD2
:104F100000C079440AD7233C00007AC400007A44D8
:104F2000B4EEE78A0026F1EE10FA5FED065AB146BC
:104F300053D45FED076A704600214FF0FF3390EDC8
:104F4000007AB5EE407AF1EE10FA0FD00DF1700A4A
:104F50004FF0000CB44540F09280B4EEE67AF1EEEA
:104F600010FAC8BF0B46C8BFF0EE476A01314629A8
:104F700000F11000E3D1591C16D01CA901EB06105A
:104F800002EB031101F2AC414B33096801601901D6
:104F900002EB031300F1040C50585968ACE803000D
:104FA0009868CCF80000013609F10109B9F1040F45
:104FB00054D0C145BDDB51E0D346DBED007A77EE3E
:104FC000C77A0AF1100AF0EEE77AF4EEE57AF1EE2C
:104FD00010FA1ED40CF1010C10E05FED306A70463F
:104FE00000214FF0FF3390ED007AB5EE407AF1EEFC
:104FF00010FA0ED00DF1700A4FF0000CB445DBD161
:10500000B4EEE67AF1EE10FA48BF0B4648BFF0EE78
:10501000476A0131462900F11000E4D1581C16D02E
:105020001CA901EB061002EB031101F2AC414B335A
:1050300009680160190102EB031300F1040C5058D8
:105040005968ACE803009868CCF80000013609F113
:105050000109B9F1040F01D0C145BEDB0EBB082028
:1050600027F080FD00283FF40EAE734B4361734B75
:1050700083610323037446748674C67403E6D346BF
:10508000DBED007A77EEC77A0AF1100AF0EEE77AE4
:10509000F4EEE57AF1EE10FA3FF568AF0CF1010C91
:1050A00058E7012E20D11DAB93E80700B0EE480A67
:1050B00084E807000CF016FC07EB401383ED008A30
:1050C0004FEA401C94E807000CF1040EBE440CF1BA
:1050D000100C8EE80700002207EB0C0147F80C20AB
:1050E000C1E901221E7709E61CABDFED557A1946AE
:1050F0000022084690ED007A0132B24277EE877ABC
:1051000001F11001F5D107EE106AF8EEC74A194611
:10511000C7EEA45A0022DFED4A7A084690ED007AE5
:10512000013237EE657AB24247EE077A01F110019B
:10513000F3D10DF158089FED434ADFED413A88ED78
:10514000006AC44604F10C0E224688ED016A88ED1F
:10515000026ADFED3B6A1846002190ED017A0131C9
:10516000B14276EE876A00F11000F6D186EEA47A9D
:1051700019460020A4EB020A9FED316AD1ED016AC5
:1051800001EB0A0999ED005A76EEC76A35EE655AC9
:105190000130B04205EE266A01F11001EED1F4EEC5
:1051A000C47AF1EE10FAC8BFC6EE276A03F1040311
:1051B00038EE656AD8BFF0EE636A06EE267AECEC4C
:1051C000016AA2EC017A9645C3D1B0EE480A0CF010
:1051D00089FB07EB4016430186ED008A1A1D174430
:1051E00094E8070087E80700174A134498E8070087
:1051F00083E807000123337780E5012D2DAE25D10B
:1052000096E80700B0EE480A84E807000CF06AFB55
:1052100007EB401383ED008A460194E8070006F18E
:10522000040CBC4410368CE807000022B919BA51AE
:10523000C1E901221D7760E5A0BB0400AAEB0400D0
:10524000000000006F12833AA05B002000230022C0
:1052500043EC172B8DED047B8DED027BCDE91623FE
:10526000CDE91823CDE91A23CDE91C23CDE91E236E
:10527000CDE92023CDE9002300230893F068FCF753
:105280003BFA56ED017A77EEC87ACDE90A0117EEBE
:10529000900AFCF731FADDE90A2380468946DDE908
:1052A0000001FCF7CBF8DDE90A23CDE90001404617
:1052B0004946FCF779FA02460B46CDE90601DDE9DD
:1052C0000201FCF7BBF84246CDE902014B46DDE99D
:1052D0000601FCF769FA0B460246DDE90401FCF71A
:1052E000ADF816AB0D93CDE904011CABDDF834B07D
:1052F0000E939A460F9600270F9B53F8040B0F93BB
:10530000FCF7FAF9DBE9008902460B46CDE91023E8
:10531000DDE90A23FCF748FA42464B46FCF78EF8D3
:10532000DAE90089DDE91023EBE80201DDE9060195
:10533000FCF73AFA42464B46FCF780F80137032F58
:10534000EAE80201D8D1089B0133AB42089306F189
:10535000140693D1DDE90023DDE90401FCF724FA0A
:10536000DDE9022306460F4610461946FCF71CFAF3
:1053700002460B4630463946FCF75EF847A3D3E9B0
:1053800000238B4621F000418246FCF77FFC00B3EE
:10539000DDE90023DDE91601FCF730FBFCF7FCFC3E
:1053A000DDE900232060DDE91801FCF727FBFCF7AD
:1053B000F3FCDDE900236060DDE91A01FCF71EFB68
:1053C000FCF7EAFCB0EE480AA0600CF08BFA324F12
:1053D000BAE425460DF14C0804F10C090D9BB3EC21
:1053E000027B0D930E9BF3E8026751EC170B0E93B3
:1053F000DDE904238DED067BFCF7D6F9DDE9022318
:10540000CDE9080130463946FCF7CEF902460B4695
:10541000DDE90801FCF710F852465B46FCF7EEFAAE
:10542000FCF7BAFCDDE9002345F8040B39463046A9
:10543000FCF7BAF9DDE9022306460F46DDE906016D
:10544000FCF7B2F902460B4630463946FBF7F4FF4B
:1054500052465B46FCF7D2FAFCF79EFC4D4548F8F5
:10546000040BBBD1B0EE480A0CF03CFA0A4E06EB36
:10547000401585ED008A430194E807001F1D37445D
:1054800087E8070013AA07CA1036334483E80700E9
:1054900001232B7731E400BF905B0020BBBDD7D93F
:1054A000DF7CDB3D000000002DE9F04F2DED068B89
:1054B000A3B016ACCDE90D1209900C934FF4004245
:1054C000002320460CF096FD68B994E8070019AB5C
:1054D0001CAC83E807004FF40042002320460CF088
:1054E000E7FD834638B16FF0010B584623B0BDECA1
:1054F000068BBDE8F08F94E8070022AB03E90700B4
:105500001DF080FDB4EE400AF1EE10FAB0EE408AD4
:1055100080F1CA80FBEE047AB4EEE70AF1EE10FAED
:1055200040F3C280DFEDBE7AB4EEE70AF1EE10FA86
:1055300040F1BA80B0EE409A3CF0B7FDCDE91001E1
:105540001DF084FDF0EE409A1DF06CFDC9EE807AEE
:10555000B6EE007A77EE877A19EE900AFDEEE77ADA
:10556000F0EE408A17EE903A012BB8BF0123089362
:10557000FCF7C2F8CDE90A010C2027F0F3FA054642
:1055800098B19DED0A7BA74B436180ED067B18EE39
:10559000900AFCF7B1F8089BAB62C5E90801072344
:1055A0002B7400236B74AB74EB74002328469E4964
:1055B0009FED9EAADFED9AAA4FF463523EF030FEB3
:1055C0009FED957B0C9B8DED047B8DED027B8DED2E
:1055D000007B8DED067B0025DB172E462F46AA4665
:1055E0002C460F933CF061FD109BB0EB0308119B20
:1055F00061EB03090C9B98450F9B79EB030358DB88
:10560000082027F0AFFA50B1894BC0F81C90C0E9D0
:10561000053804230374002343748374C374002384
:105620004FF4035280493EF0FBFD082027F09AFA20
:1056300040B1804BC0E90537032303740023437452
:105640008374C374784900234FF4C6523EF0E8FDDA
:10565000DDED327A9FED787AF8EEE76AC6EE877A6A
:1056600027EEA90AFDEEC07A17EE904AA74280F213
:1056700054810C2027F076FA78B1704BC4619DED0F
:105680000A7BC0E90537329B836280ED087B0723E4
:105690000374002343748374C374634900234FF479
:1056A00062523EF0BDFD1EE79FED659A9FED658A53
:1056B00042E7FDEEE97A013517EE903A9D4203DBB1
:1056C000072023F0FFF80025329B329ADB17904524
:1056D00079EB030313DB94B10A2027F043FA50B1AE
:1056E000594BC0E90797C0E9053805230374002327
:1056F00043748374C37400234FF4235292E7089BCE
:10570000B3424FDC40F6CD42002313A80CF072FCEC
:10571000064600287FF4E7AE13AB16AA19A9804607
:10572000B3EC017AF2EC017AB4EEE77AD1ED007ACB
:10573000F1EE10FAB4EE677A48BF02ED017AF1EEAD
:1057400010FAC8BFF0EE477A12ED017AE1EC017A67
:1057500077EEC78AF4EECA8AF1EE10FA1DDD0A2050
:1057600027F000FA044670B1384BC4E9053818EE4A
:10577000900AFBF7C1FF0623C4E908012374002344
:105780006374A374E374284900234FF44352204602
:105790003EF046FD4FF0FF3BA7E608F10108B8F1E7
:1057A000030FBDD140F6CD42002313A80CF080FCBE
:1057B0000136804600287FF496AE13AB1CAA1FA9C1
:1057C000F7EE086AB3EC017AF2EC017AB4EEE77A0C
:1057D000D1ED007AF1EE10FAB4EE677A48BF02ED2F
:1057E000017AF1EE10FAC8BFF0EE477A12ED017AB5
:1057F000E1EC017A77EEC78AF4EEE68AF1EE10FA70
:1058000028DD0A2027F0AEF904460028BBD0104B53
:10581000ABE700BFAFF30080000000000000000015
:105820000000704264BD0400D86604008FC2753D5C
:10583000B4BD040067BE040000007A447DBE0400CD
:10584000000080FF0000807FD8BD040014BE04006B
:105850003EBE040008F10108B8F1030FB2D113985D
:10586000FBF74AFF02460B46DDE90001FBF7E6FDC8
:10587000CDE900011498FBF73FFF02460B46DDE936
:105880000201FBF7DBFDCDE902011598FBF734FFC0
:1058900002460B46DDE90401FBF7D0FDCDE904012A
:1058A0001DF0B0FBB4EE400AF1EE10FAF0EE408AC3
:1058B00031D6FBEE047AB4EEE70AF1EE10FA2ADDF7
:1058C000B4EEEA0AF1EE10FA25D510EE100AFBF755
:1058D00013FF02460B46DDE90601FBF7AFFDF4EED0
:1058E000488AF1EE10FAF4EE498A48BFB0EE688AB1
:1058F000F1EE10FAC8BFB0EE689A39EE487AF7EECA
:10590000007AB4EE677ACDE90601F1EE10FA0AF1F9
:10591000010AA8BF0124013764E6BAF1000F28D0BC
:105920005046FBF7D7FE02460B46DDE90601FCF7C1
:1059300065F8FCF731FA0D9B054618600A2027F040
:1059400011F9044670B1324B43612846FBF7D4FE8F
:105950000523C4E9060123740023C4F820A063745E
:10596000A374E3742B4900234FF4235220463EF0E6
:1059700057FC0E9B79EE488A0C20C3ED008A27F075
:10598000F1F80446C8B1244B436118EE900AFBF7C6
:10599000B3FEC4E9060118EE100AFBF7ADFEC4E938
:1059A000080119EE100AFBF7A7FE0823C4E90A0153
:1059B000237400236374A374E374002344F2C002CD
:1059C000204614493EF02CFC3846FBF783FE024685
:1059D0000B4604460D46DDE90001FCF70FF8FCF725
:1059E000DBF9099B224618602B46DDE90201FCF732
:1059F00005F8FCF7D1F9099B224658602B46DDE9F2
:105A00000401FBF7FBFFFCF7C7F9099B98606CE505
:105A1000CCBE0400D8660400FBBE040000000000F9
:105A20002DE9F04F2DED068BADF2244D0CF01EFA52
:105A300006463CF03AFB3F2E04460D4645DDBC4B86
:105A4000BC48D3E90076D0E900239E4208BF9742C4
:105A50003BD0B949D1E90023012A73F1000C07DBDF
:105A6000A21A65EB0303B2F5706F73F100032CDB30
:105A7000C0E900760023C1E90045B048089306A9B3
:105A8000CDE9063323F086F8B5EE400AF1EE10FAC0
:105A9000AB4EF0EE408A1ED00EF054F8DFEDA97A3E
:105AA000B4EEE70AF1EE10FAD6E90023B0EE408A30
:105AB00013D552EA030108D0A21A40F6B83165EBBB
:105AC00003038A4273F1000307DA0DF2244DBDECA3
:105AD000068BBDE8F08FB7EE008AD6E90023012AD5
:105AE00073F1000108DBA21A40F6B93165EB03033C
:105AF0008A4273F1000378DAF5EE408AF1EE10FA8B
:105B000073D0DFED917AB4EEE78AF1EE10FA6CD53E
:105B10008E4B1E68022E68DDDFED8D7AB4EEE78ACB
:105B2000F1EE10FA1BD50A2027F01CF8044670B1DC
:105B3000884B436118EE100AFBF7DEFD0523C4E92C
:105B400006012374002326626374A374E3740023A4
:105B50004FF42352804920463EF062FBB5E70CF03B
:105B60000FFFDFED7E7AB4EEE70AF1EE10FA10EEE9
:105B7000107A21D50E2026F0F5FF0446C0B1784BEF
:105B8000436118EE100AFBF7B7FD67A3D3E90023C2
:105B9000C4E90601C4E908233846FBF7ADFD092333
:105BA000C4E90A012374002326636374A374E374B5
:105BB000002344F6C002CDE7082026F0D3FF0646B6
:105BC00060B1684B43613846FBF796FD0423C6E994
:105BD0000601337400237374B374F3745E490023B5
:105BE0004FF4035230463EF01BFB4FF44872002145
:105BF00040A83FF073FD4FF0000A4FF0000B4FF04C
:105C0000000834A8CDE904ABCDE90988CDF82C8093
:105C10000CF068F934A857EC106B0CF03BF9CDE9A7
:105C200018ABDFF850A18DED010A50460CF006F9D3
:105C3000002875D108F10108B8F1080F0AF1D00A5F
:105C4000F3D1494B002230463946FCF71FF8804615
:105C500000287FF43AAF9DED017AF6EE007AB4EEBB
:105C6000E77AF1EE10FA40F187800C2026F07AFFF7
:105C70000446B8B13D4B43610198FBF73DFD3C4BF9
:105C80000022C4E90601C4E9082330463946FCF77E
:105C90003BF80723A062237484F8118084F81280F3
:105CA00084F8138000234FF4635253E759F8040C2F
:105CB000FBF722FD41EC1A0B59F8080CFBF71CFD11
:105CC00041EC190B59F80C0CFBF716FDB0EE4A2A03
:105CD000F0EE6A2AB0EE491AF0EE691A41EC100BA8
:105CE00018AA04A940A81AF0D5FC59F80C3C1C933A
:105CF00059F8083C1D9328AA59F8043C1E931CA986
:105D000034A83CF065FA28A909A83CF0AAF90BF1DF
:105D1000010B9AF8C1309B4509F10C09C6DB89E7F4
:105D2000D1464FF0000BF4E7000000A09999A93F7D
:105D3000D01B0020C81B0020C01B00206061002079
:105D4000A01B00200AD7233DCDCC4C3DCC600020C9
:105D5000295C0F3DABC50400D8660400CDCCCC3D1A
:105D6000DBC5040020C60400000050405CC60400EF
:105D70000000E03FD81B002032463B46DDE904012D
:105D8000FBF73CFEFCF708F8F5EE408AF1EE10FA5E
:105D900009EE900A4DD0DFF88093D9F80030002B3F
:105DA00047DDDFF8788398ED00AAB5EEC0AAF1EEE2
:105DB00010FA3EDD89EE8A9AF7EE047AB4EEE79A9D
:105DC000F1EE10FA06DCDFEDC87AB4EEE79AF1EEF8
:105DD00010FA2ED50C2026F0C5FE0446C8B1C34BE0
:105DE00043611AEE100AFBF787FCC4E9060119EEBD
:105DF000900AFBF781FCC4E9080119EE100AFBF7D1
:105E00007BFC0823C4E90A01237400236374A37490
:105E1000E3740023B6494FF4814220463EF000FA75
:105E20000CF016FE0023C9F800300023C8F800303B
:105E30004BE600224FF0804330463946FBF726FF01
:105E4000B7EE009A002864D139463046FBF7A4FF2C
:105E500007EE900A89EE277ADDED0A7ADDED096A10
:105E60009DED0B6A67EE277A67EE266A27EEA70A92
:105E700006EEA60A27EE067A07EE070A39F092F92F
:105E800010EE100AFBF738FC80468946304639464A
:105E9000FBF73AFF82460C2026F064FE8346A0B151
:105EA000944B43610198FBF727FC0723CBE90601DC
:105EB000CBE908898BF810300023CBF828A08BF8A9
:105EC00011308BF812308BF81330894900234FF4CE
:105ED000635258463EF0A4F947EC116B9DED040B5C
:105EE0001CA940A80BF016FF0646A8B90A2026F008
:105EF00039FE48B1804B4674C0E90889C0E9053ACB
:105F0000062303748674C67400234FF44352784901
:105F100022E619EE100AB5E7F5EE408AF1EE10FA26
:105F2000764E00F04B82D6E90023012A73F100017E
:105F300009DBA21A41F2707165EB03038A4273F127
:105F40000003FFF6C2AD1CA80CF012F8DFED6C7A6E
:105F5000B4EEE70AF1EE10FA2DDA9FED737ADFED79
:105F6000697AB4EEC70AF1EE10FA09D930EE470AA1
:105F70009FED657AC0EE076A9FED647A46EE877AF8
:105F8000634B39EE679A00221CA98F1834A9881830
:105F900003F10C01B7EC017AF3EC016A27EE877A82
:105FA00009EE267A9942A0EC017AF3D10C32302A1C
:105FB00004D00B46E8E7DFED577AE1E70023CDE9AF
:105FC0000C330E93379B0F933B9B10930FA83F9B73
:105FD00011933DF069F8DDED0F7ADDED108A8DED5E
:105FE000120AF0EEE77AF0EEE88AF4EE687AF1EE63
:105FF00010FAC8BFF0EE678ADDED117A8DED130A55
:10600000F0EEE77AF4EEE87AF1EE10FAB0EE409AAC
:106010008DED140A0CA9B7EE000A34A858BFF0EEB3
:10602000678A22F0D3FD002840F080801F9B1593E3
:10603000239B169315A8279B17933DF035F8DDEDAC
:10604000157ADDED168A8DED180AF0EEE77AF0EE9E
:10605000E88AF4EE687AF1EE10FAC8BFF0EE678ACB
:10606000DDED177A8DED190AF0EEE77AF4EEE87AB5
:10607000F1EE10FAB0EE409A8DED1A0A0CA9B7EEC7
:10608000000A1CA858BFF0EE678A22F09FFD002886
:1060900000F05A81DFED227A9FED220A29EE279A3D
:1060A00018A9B4EEC09AF1EE10FAC8BFB0EE490AD2
:1060B00015A822F08BFD002800F04681F2EE007A50
:1060C000F4EEE78AF1EE10FA00F23E810DF1700C69
:1060D000BCE80F0028AF0FC7BCE80F000FC79CE853
:1060E0000F0087E80F004AE0CDCC4C3FAAC6040061
:1060F000D866040005C7040042C70400B01B002096
:10610000EC51783F3333333F90C2F53DE17A14BF11
:10611000606100208FC2F53DCC600020C860002087
:10612000CDCC4C3ECDCCCC3D9A99593F5FED047A15
:106130001FED040A29EE279A12A9B4EEC09AF1EED7
:1061400010FAC8BFB0EE490A0FA822F03FFD0028A0
:106150003FF46CAFF2EE007AF4EEE78AF1EE10FA5B
:106160003FF664AF34AF0FCF0DF1A00CACE80F00D9
:106170000FCFACE80F0097E80F008CE80F001CA8C9
:106180000BF0F6FE5FED187AA14F8DED010AB4EE2B
:10619000E70AF1EE10FAD7F800B022D510EE100A97
:1061A000FBF7AAFABBF1020FCDE9020100F3DC8094
:1061B0000A2026F0D7FC70B19DED027B954B436120
:1061C0000BF10103036280ED067B052303740023BA
:1061D00043748374C374904900234FF423523EF0F8
:1061E0001FF83B6802930E2026F0BCFC8346E0B10A
:1061F000029B8A4A42610133C0E9063AC0E9088934
:1062000018EE100AFBF778FACBE90A010198FBF7C0
:1062100073FA0A23CBE90C018BF8103000238BF8BA
:1062200011308BF812308BF813307B49002345F284
:10623000C00258463DF0F4FF0DF1A00CBCE80F0081
:10624000DFF8F0E1AEE80F00BCE80F00AEE80F00A9
:106250009CE80F000DF1A0088EE80F00B8E80F00D1
:106260000DF1700EAEE80F00B8E80F00AEE80F00B9
:106270009CE80F008EE80F000CF0EAFB3B68C6E9D3
:10628000004501333B60664BC3ED009A0FF0A2FF5F
:106290001CF044FC634B644A00241C600023136020
:1062A000624A1360624B634A19680520302301F586
:1062B0008A7121F0A3F91CF017FC062026F052FC8D
:1062C00030B15D4B43610223037444748474C4741D
:1062D000514900234FF486523DF0A2FF1CAC032627
:1062E000002754F804BB0E20D4F808A0D4F814906A
:1062F000D4F8208026F036FC0546D0B14F4B4361E0
:106300005846FBF7F9F9C5E906015046FBF7F4F9E1
:10631000C5E908014846FBF7EFF9C5E90A0140461F
:10632000FBF7EAF9C5E90C010A232B746F74AF740B
:10633000EF743949002345F2C00228463DF070FF52
:10634000013ECED1FFF7C1BB062026F00BFC38B1D1
:106350003B4B436102230374002343748374C3746F
:1063600000234FF48452D2E518EE100AFBF7C4F96B
:10637000DFED347AB4EEE78AF1EE10FA04460D460A
:106380004FF00A0014D526F0EDFB68B12E4B4361A7
:106390009DED027B062380ED067BC0E90845037472
:1063A000002343748374C37400234FF44252AEE558
:1063B00026F0D8FB0028F7D0244BE8E70A2026F087
:1063C000D1FB50B1224BC0E90889C0E9053A062348
:1063D0000374002343748374C3740F49154F00235F
:1063E0004FF443523DF01CFF0DF1700CBCE80F0060
:1063F0000FC7BCE80F000FC79CE80F0087E80F002D
:106400000CF026FB024B0122C6E900451A603AE770
:10641000CC600020BBC70400D8660400C2C80400DA
:10642000C8600020D0600020D8600020D460002028
:10643000D00600206061002057C9040093C4040006
:1064400082C70400CDCC4C3DF7C704005EC80400F1
:1064500012C90400000000002DE9F04F2DED048B5F
:106460000021BDB0072022F0B1F90CF00FFC1BF0A9
:10647000F3FD04463BF019FE05460E465CB942F2B8
:106480001077072022F01EFA0A203BF091FE1BF045
:10649000E3FD0446B0B1B44D2B68B3F84849032C72
:1064A00039D80021012208460CF006FD0121002008
:1064B0000CF096FD1CF012FBF0B1012100200DF054
:1064C000C9F919E03BF0F1FD401B61EB0601B84250
:1064D00071F10001D5DB062026F044FB30B1A34B5F
:1064E00043610223037444748474C474A049002378
:1064F0004FF486523DF094FE00200BF001FF431E46
:106500000D90042B01F25E80DFE813F0600077004D
:10651000B2006902AC03462C1DD90A2026F022FBEA
:1065200060B1944B4361944BC0E906344623036247
:1065300005230374002343748374C37400234FF44E
:1065400021528B493DF06CFE2B680022A3F84829AC
:1065500083F84A29A5E71CF055FDB4EE400AF1EE98
:1065600010FAB0EE408A1ED6082026F0FBFA044648
:1065700068B1824B436118EE100AFBF7BDF80423A3
:10658000C4E90601237400236374A374E374784997
:1065900000234FF4035220463DF042FEB0EE480A7D
:1065A0000BF04AFA7DE7062026F0DCFA38B1744B8E
:1065B000436102230374002343748374C3746C49DE
:1065C00000234FF484523DF02BFE6AE70121202086
:1065D00020F07EFD0EF032F94FF0FF300BF090FE10
:1065E0000021202020F074FD664B93F87534022BB7
:1065F00041F0568401230D9313E00121202020F067
:1066000067FD0CF059FD4FF0FF300BF079FE0021D3
:10661000202020F05DFD5B4B93F87534022B41F098
:106620003F84514B574C1B68D4F87024B3F8483959
:106630009A424FF0000501F01584A4F87454082024
:10664000D4F8844426F08EFA50B14F4BC0E905349B
:106650004723C36104230374002343748374C37406
:10666000434900234FF403523DF0DAFD01F0E6BB4D
:106670002020012120F02CFD062026F073FA38B1ED
:10668000424B436102230374002343748374C37435
:10669000374900234FF486523DF0C2FD1CF0B2FC96
:1066A000B4EE400AF1EE10FAB0EE408A0DD6FBEEE1
:1066B000047AB4EEE70AF1EE10FA06D4DFED347A8C
:1066C000B4EEE70AF1EE10FA14DD082026F04AFADB
:1066D00048B1304B4361304B836103230374002383
:1066E00043748374C374224900234FF4C2523DF0B3
:1066F00097FD88E70BF03AFD1B4C0546002851D169
:10670000062026F02FFA30B1244B43610223037494
:1067100045748574C57400234FF4845214493DF0C8
:106720007FFD226892F84E390133DBB2012B82F8EB
:106730004E397FF668AF082026F014FA48B1184B9E
:10674000436102238361032303740023437483742E
:10675000C37400234FF4C45205493DF061FD236822
:10676000012283F84D294EE7D00600208CD1040089
:10677000D8660400CCD10400C1EB040002D20400AE
:106780004BD20400345C0020C4E104007FD204003A
:1067900000007042A3D204004FEB0400C5D20400F5
:1067A000E5D204004FF4FA703BF002FD062026F01B
:1067B000D9F938B1AE4B436102230374002343740B
:1067C0008374C374AB4900234FF486523DF028FD17
:1067D000A94B309340F6B833009330AA41F2883386
:1067E0002AA92DA8FEF760FE834600287BD0B0F1D1
:1067F000FF3F50D1062026F0B5F938B19F4B4361D9
:1068000002230374002343748374C37400234FF47E
:10681000865298493DF004FD226892F84E390133C2
:10682000DBB2012B82F84E397FF6EDAE082026F060
:1068300099F948B1924B43610223836103230374A6
:10684000002343748374C3748A4900234FF4C452F1
:106850003DF0E6FC30A8B0EE480A0DF04BFF0546CF
:1068600000287FF47CAF062026F07CF930B1854B00
:1068700043610223037445748574C5747D49002304
:106880004FF486523DF0CCFC2368012283F84D2959
:106890003BF0B8FCB7E610F1020F11D1082026F04A
:1068A00061F948B1784B4361784B836103230374EA
:1068B000002343748374C37400234FF4C252A8E7C7
:1068C00010F1030FA8D1062026F04CF938B1704B17
:1068D000436102230374002343748374C37400234D
:1068E0004FF4845295E79DED2A8ADDF8B4A0DDF8D7
:1068F000B890DDF8BC8018EE100AFAF7FDFE0646E7
:106900001020309D0F4626F02DF90446F8B1614B5A
:1069100043615046FAF7F0FEC4E906014846FAF72B
:10692000EBFEC4E908014046FAF7E6FEC4E90C674D
:10693000C4E90A012846FAF7DFFEC4E90E010C2378
:10694000237484F811B084F812B084F813B0204690
:106950004849514C002346F2C0023DF061FCB0EEC4
:10696000480A2DA80EF0A2FB054688B1082026F0A3
:10697000F9F848B1494B4361494B836103230374E0
:10698000002343748374C37400234FF4C252E3E6BC
:106990002368012283F84D29424B83ED008A3BF0A6
:1069A00084FB414B8046C3E900010A200C4626F0D7
:1069B000D9F850B13D4B4361C0E90667C0E908848E
:1069C0000623037445748574C57400234FF4435241
:1069D00028493DF025FC00201CF090F813E620200B
:1069E000012120F075FB062026F0BCF838B1304BB1
:1069F000436102230374002343748374C3741D49E9
:106A000000234FF486523DF00BFC1CF0FBFAB4EE71
:106A1000400AF1EE10FA0DD6FBEE047AB4EEE70A66
:106A2000F1EE10FA06D4DFED237AB4EEE70AF1EEC8
:106A300010FA47DD082026F095F848B11E4B436157
:106A40001E4B836103230374002343748374C37454
:106A500000234FF4C25207493DF0E2FB3BF025FB17
:106A6000174A114B801861F10001C3E90001CAE522
:106A700018D30400D86604000000C07F4CD3040083
:106A80001AD4040042D4040078D3040036EB040086
:106A9000A0D30400D1D30400D00600208BD404007E
:106AA0004FEB0400D8060020981B0020B6D4040049
:106AB000F2D404000000704231D50400F5EA04006D
:106AC000D08AFFFF082026F04DF840B1A44B436167
:106AD000032383610374002343748374C374A14943
