:10100000002C0120DDEF0200412E0400C9EF020098
:10101000C9EF0200C9EF0200C9EF020000000000A2
:1010200000000000000000000000000079F1020054
:10103000C9EF020000000000E5F00200C9EF020065
:101040004DF40200194C03004DF402004DF402006F
:101050004DF402004DF402004DF402004DF4020084
:101060004DF402004DF40200598703004DF40200D4
:101070004DF402004DF402004DF402004DF4020064
:101080004DF402004DF402004DF402004DF4020054
:101090007D4C03004DF402004DF402004DF40200BB
:1010A0004DF402004DF402004DF402004DF4020034
:1010B0004DF402004DF402004DF402004DF4020024
:1010C0004DF402004DF402004DF402004DF4020014
:1010D0004DF402004DF402004DF402004DF4020004
:1010E0004DF402004DF402004DF402004DF40200F4
:1010F0004DF402004DF402004DF402004DF40200E4
:1011000001F0FF01102A2BDB10F0070F08D010F8B8
:10111000013B013A8B422DD010F0070F42B3F6D1BC
:10112000F0B441EA012141EA014122F007047FF0D5
:1011300000070023F0E80256083C85EA010586EA2C
:10114000010685FA47F5A3FA87F586FA47F6A5FA68
:1011500087F68EB9EED1F0BC01F0FF0102F0070274
:1011600032B110F8013B013A83EA010313B1F8D11F
:101170000020704701387047002D06BF3546033800
:10118000073815F0010F07D1013015F4807F02BF39
:10119000013015F4C03F0130F0BC0138704700BF8A
:1011A000014B1B685B68184700050020014B1B685A
:1011B0009B68184700050020014B1B681B691847F6
:1011C00000050020014B1B685B69184700050020E3
:1011D000014B1B689B69184700050020014B1B68E9
:1011E000DB69184700050020014B1B681B6A184784
:1011F00000050020014B1B689B6A18470005002072
:1012000030B4044C9DF8085024680295E468A44664
:1012100030BC60470005002030B50246114890F907
:101220001C3093421ADD90F92430934218DAD31A15
:10123000856A0D4CE85C235693420ED00E3400298B
:101240000CBF0346431CA542D8B206D129B1013ACE
:10125000D2B2012A01D80130C0B230BD0D20FCE766
:101260000020FAE7301000204C50040008B5054B70
:1012700093F91C30984203DAFFF7CEFF024B1B565E
:10128000184608BD301000204C50040010B51C4C0E
:1012900094F82C3073B9012384F82C3000F09EF8B8
:1012A00048B1184BA362D823236284F82430082362
:1012B000A361237710BD00F0A7F80028F1D100F05A
:1012C000ADF80028EDD100F06BF838B10E4BA362F9
:1012D000D823236284F824300423E9E700F06AF875
:1012E0000028F3D100F070F80028EFD100F080F86A
:1012F0000028EBD140F2BF11742000F019F800BFB4
:1013000030100020875004005A500400BFF34F8F64
:101310000549064BCA6802F4E0621343CB60BFF391
:101320004F8F00BFFDE700BF00ED00E00400FA05AD
:101330001FB572B6134B5D688DB9FFF7E7FFB2FBBF
:10134000F6F2DCB20133002AF9D104F110036B4448
:1013500003F80C2C0A2234B901A8A847EDE702468D
:1013600000230A26EDE7631E04AEDCB256FA83F3CF
:10137000B0FBF2F602FB1600303003F80C0C3046DE
:10138000E9E700BFD01400204FF08052034BD2F8A1
:1013900030111960D2F834215A6070470C150020C2
:1013A000034B1868A0F10F0358425841704700BF23
:1013B0000C150020034B1868A0F10A03584258414D
:1013C000704700BF0C150020034B1868A0F10E03F6
:1013D00058425841704700BF0C150020034B186855
:1013E000A0F1100358425841704700BF0C1500206F
:1013F000044B1868062803D0431C584258417047D4
:10140000012070470C150020034B1868A0F10D0354
:1014100058425841704700BF0C150020034B186814
:10142000A0F1080358425841704700BF0C15002036
:1014300081F0004102E000BF83F0004330B54FEA85
:1014400041044FEA430594EA050F08BF90EA020FF2
:101450001FBF54EA000C55EA020C7FEA645C7FEA85
:10146000655C00F0E2804FEA5454D4EB5555B8BFA8
:101470006D420CDD2C4480EA020281EA030382EA19
:10148000000083EA010180EA020281EA0303362DAB
:1014900088BF30BD11F0004F4FEA01314FF4801C7E
:1014A0004CEA113102D0404261EB410113F0004F90
:1014B0004FEA03334CEA133302D0524263EB430347
:1014C00094EA050F00F0A780A4F10104D5F1200EE5
:1014D0000DDB02FA0EFC22FA05F2801841F1000140
:1014E00003FA0EF2801843FA05F359410EE0A5F114
:1014F00020050EF1200E012A03FA0EFC28BF4CF045
:10150000020C43FA05F3C01851EBE37101F00045FA
:1015100007D54FF0000EDCF1000C7EEB00006EEB07
:101520000101B1F5801F1BD3B1F5001F0CD3490891
:101530005FEA30004FEA3C0C04F101044FEA4452E8
:1015400012F5800F80F09A80BCF1004F08BF5FEA6F
:10155000500C50F1000041EB045141EA050130BD4F
:101560005FEA4C0C404141EB0101013C28BFB1F561
:10157000801FE9D291F0000F04BF01460020B1FAAC
:1015800081F308BF2033A3F10B03B3F120020CDA7F
:101590000C3208DD02F1140CC2F10C0201FA0CF05D
:1015A00021FA02F10CE002F11402D8BFC2F1200CC2
:1015B00001FA02F120FA0CFCDCBF41EA0C01904078
:1015C000E41AA2BF01EB0451294330BD6FEA0404C1
:1015D0001F3C1CDA0C340EDC04F11404C4F12002AC
:1015E00020FA04F001FA02F340EA030021FA04F3BE
:1015F00045EA030130BDC4F10C04C4F1200220FA15
:1016000002F001FA04F340EA0300294630BD21FA52
:1016100004F0294630BD94F0000F83F4801306BF18
:1016200081F480110134013D4EE77FEA645C18BF0C
:101630007FEA655C29D094EA050F08BF90EA020FA3
:1016400005D054EA000C04BF1946104630BD91EA9B
:10165000030F1EBF0021002030BD5FEA545C05D19E
:101660004000494128BF41F0004130BD14F58004DD
:101670003CBF01F5801130BD01F0004545F0FE4151
:1016800041F470014FF0000030BD7FEA645C1ABF86
:10169000194610467FEA655C1CBF0B46024650EABD
:1016A000013406BF52EA033591EA030F41F40021E9
:1016B00030BD00BF90F0000F04BF0021704730B56F
:1016C0004FF4806404F132044FF000054FF0000144
:1016D00050E700BF90F0000F04BF0021704730B505
:1016E0004FF4806404F1320410F0004548BF4042DA
:1016F0004FF000013EE700BF42004FEAE2014FEA2F
:1017000031014FEA02701FBF12F07F4393F07F4F09
:1017100081F06051704732F07F4208BF704793F00C
:101720007F4F04BF41F40021704730B54FF460741F
:1017300001F0004521F000411CE700BF50EA010222
:1017400008BF704730B54FF000050AE050EA0102CB
:1017500008BF704730B511F0004502D5404261EB3B
:1017600041014FF4806404F132045FEA915C3FF47C
:10177000D8AE4FF003025FEADC0C18BF03325FEA19
:10178000DC0C18BF033202EBDC02C2F1200300FACA
:1017900003FC20FA02F001FA03FE40EA0E0021FAEF
:1017A00002F11444BDE600BF70B54FF0FF0C4CF4DD
:1017B000E06C1CEA11541DBF1CEA135594EA0C0F8F
:1017C00095EA0C0F00F0DEF82C4481EA030621EACA
:1017D0004C5123EA4C5350EA013518BF52EA033505
:1017E00041F4801143F4801338D0A0FB02CE4FF0B7
:1017F0000005E1FB02E506F00042E0FB03E54FF0E7
:101800000006E1FB03569CF0000F18BF4EF0010EDE
:10181000A4F1FF04B6F5007F64F5407404D25FEADA
:101820004E0E6D4146EB060642EAC62141EA55518D
:101830004FEAC52040EA5E504FEACE2EB4F1FD0CCF
:1018400088BFBCF5E06F1ED8BEF1004F08BF5FEA4D
:10185000500E50F1000041EB045170BD06F00046FF
:1018600046EA010140EA020081EA0301B4EB5C04AC
:10187000C2BFD4EB0C0541EA045170BD41F48011A4
:101880004FF0000E013C00F3AB8014F1360FDEBFC9
:10189000002001F0004170BDC4F10004203C35DAA5
:1018A0000C341BDC04F11404C4F1200500FA05F328
:1018B00020FA04F001FA05F240EA020001F00042C9
:1018C00021F0004110EBD37021FA04F642EB06013F
:1018D0005EEA430E08BF20EAD37070BDC4F10C0469
:1018E000C4F1200500FA04F320FA05F001FA04F22D
:1018F00040EA020001F0004110EBD37041F1000119
:101900005EEA430E08BF20EAD37070BDC4F1200523
:1019100000FA05F24EEA020E20FA04F301FA05F28B
:1019200043EA020321FA04F001F0004121FA04F233
:1019300020EA020000EBD3705EEA430E08BF20EA03
:10194000D37070BD94F0000F0FD101F0004640003D
:1019500041EB010111F4801F08BF013CF7D041EABF
:10196000060195F0000F18BF704703F000465200C3
:1019700043EB030313F4801F08BF013DF7D043EA94
:101980000603704794EA0C0F0CEA135518BF95EA4A
:101990000C0F0CD050EA410618BF52EA4306D1D1D1
:1019A00081EA030101F000414FF0000070BD50EAF0
:1019B000410606BF1046194652EA430619D094EA7A
:1019C0000C0F02D150EA013613D195EA0C0F05D164
:1019D00052EA03361CBF104619460AD181EA0301B8
:1019E00001F0004141F0FE4141F470014FF0000070
:1019F00070BD41F0FE4141F4780170BD70B54FF00B
:101A0000FF0C4CF4E06C1CEA11541DBF1CEA13558A
:101A100094EA0C0F95EA0C0F00F0A7F8A4EB05046C
:101A200081EA030E52EA03354FEA013100F0888063
:101A30004FEA03334FF0805545EA131343EA12632C
:101A40004FEA022245EA111545EA10654FEA0026E1
:101A50000EF000419D4208BF964244F1FD0404F59A
:101A6000407402D25B084FEA3202B61A65EB0305F6
:101A70005B084FEA32024FF480104FF4002CB6EBB3
:101A8000020E75EB030E22BFB61A754640EA0C0033
:101A90005B084FEA3202B6EB020E75EB030E22BF73
:101AA000B61A754640EA5C005B084FEA3202B6EBB4
:101AB000020E75EB030E22BFB61A754640EA9C0073
:101AC0005B084FEA3202B6EB020E75EB030E22BF43
:101AD000B61A754640EADC0055EA060E18D04FEA01
:101AE000051545EA16754FEA06164FEAC30343EAA1
:101AF00052734FEAC2025FEA1C1CC0D111F4801F6E
:101B00000BD141EA00014FF000004FF0004CB6E766
:101B100011F4801F04BF01430020B4F1FD0C88BF05
:101B2000BCF5E06F3FF6AFAEB5EB030C04BFB6EB10
:101B3000020C5FEA500C50F1000041EB045170BD03
:101B40000EF0004E4EEA113114EB5C04C2BFD4EB30
:101B50000C0541EA045170BD41F480114FF0000EB4
:101B6000013C90E645EA060E8DE60CEA135594EA30
:101B70000C0F08BF95EA0C0F3FF43BAF94EA0C0F33
:101B80000AD150EA01347FF434AF95EA0C0F7FF4A8
:101B900025AF104619462CE795EA0C0F06D152EAFC
:101BA00003353FF4FDAE1046194622E750EA4106E0
:101BB00018BF52EA43067FF4C5AE50EA41047FF4F1
:101BC0000DAF52EA43057FF4EBAE12E74FF0FF3C56
:101BD00006E000BF4FF0010C02E000BF4FF0010C27
:101BE0004DF804CD4FEA410C7FEA6C5C4FEA430CA0
:101BF00018BF7FEA6C5C1BD001B050EA410C0CBFEF
:101C000052EA430C91EA030F02BF90EA020F002050
:101C1000704710F1000F91EA030F58BF994208BFB7
:101C200090422CBFD8176FEAE37040F00100704774
:101C30004FEA410C7FEA6C5C02D150EA013C07D1CB
:101C40004FEA430C7FEA6C5CD6D152EA033CD3D016
:101C50005DF8040B704700BF8446104662468C4610
:101C60001946634600E000BF01B5FFF7B7FF002843
:101C700048BF10F1000F01BD4DF808EDFFF7F4FF6C
:101C80000CBF012000205DF808FB00BF4DF808EDF7
:101C9000FFF7EAFF34BF012000205DF808FB00BF1A
:101CA0004DF808EDFFF7E0FF94BF012000205DF83C
:101CB00008FB00BF4DF808EDFFF7CEFF94BF0120F1
:101CC00000205DF808FB00BF4DF808EDFFF7C4FFEA
:101CD00034BF012000205DF808FB00BF4FEA410C33
:101CE0007FEA6C5C02D150EA013C0AD14FEA430C16
:101CF0007FEA6C5C02D152EA033C02D14FF0000053
:101D000070474FF0010070474FEA410212F5001290
:101D100015D211D56FF47873B3EB625212D94FEA32
:101D2000C12343F0004343EA505311F0004F23FA1C
:101D300002F018BF404270474FF00000704750EA71
:101D4000013005D111F0004008BF6FF0004070472E
:101D50004FF00000704700BF4A0011D212F5001288
:101D600011D20DD56FF47873B3EB62520ED44FEAF3
:101D7000C12343F0004343EA505323FA02F0704773
:101D80004FF00000704750EA013002D14FF0FF30B1
:101D900070474FF0000070474FEA4102B2F1E04354
:101DA00024BFB3F5001CDCF1FE5C0DD901F0004C42
:101DB0004FEAC0024CEA5070B2F1004F40EB830092
:101DC00008BF20F00100704711F0804F21D113F1BE
:101DD0003872BCBF01F00040704741F480114FEAF7
:101DE0005252C2F11802C2F1200C10FA0CF320FA80
:101DF00002F018BF40F001004FEAC1234FEAD3239D
:101E000003FA0CFC40EA0C0023FA02F34FEA430306
:101E1000CCE77FEA625307D150EA01331EBF4FF08F
:101E2000FE4040F44000704701F0004040F0FE40AA
:101E300040F40000704700BF80F0004002E000BFA7
:101E400081F0004142001FBF5FEA410392EA030FA5
:101E50007FEA226C7FEA236C6AD04FEA1262D2EBEF
:101E60001363C1BFD218414048404140B8BF5B42F4
:101E7000192B88BF704710F0004F40F4000020F08D
:101E80007F4018BF404211F0004F41F4000121F0A3
:101E90007F4118BF494292EA030F3FD0A2F10102ED
:101EA00041FA03FC10EB0C00C3F1200301FA03F12B
:101EB00000F0004302D5494260EB4000B0F5000F4E
:101EC00013D3B0F1807F06D340084FEA310102F10D
:101ED0000102FE2A51D2B1F1004F40EBC25008BFBF
:101EE00020F0010040EA03007047490040EB000089
:101EF000013A28BFB0F5000FEDD2B0FA80FCACF18A
:101F0000080CB2EB0C0200FA0CF0AABF00EBC250B6
:101F100052421843BCBFD0401843704792F0000FA4
:101F200081F4000106BF80F400000132013BB5E7F7
:101F30004FEA41037FEA226C18BF7FEA236C21D06D
:101F400092EA030F04D092F0000F08BF08467047D2
:101F500090EA010F1CBF0020704712F07F4F04D1A0
:101F6000400028BF40F00040704712F100723CBFB3
:101F700000F50000704700F0004343F0FE4040F4DD
:101F8000000070477FEA226216BF08467FEA23639B
:101F90000146420206BF5FEA412390EA010F40F486
:101FA000800070474FF0000304E000BF10F00043D2
:101FB00048BF40425FEA000C08BF704743F09643B9
:101FC00001464FF000001CE050EA010208BF7047D4
:101FD0004FF000030AE000BF50EA010208BF70475B
:101FE00011F0004302D5404261EB41015FEA010C70
:101FF00002BF84460146002043F0B64308BFA3F168
:102000008053A3F50003BCFA8CF2083AA3EBC25349
:1020100010DB01FA02FC634400FA02FCC2F1200268
:10202000BCF1004F20FA02F243EB020008BF20F09F
:102030000100704702F1200201FA02FCC2F1200205
:1020400050EA4C0021FA02F243EB020008BF20EAFA
:10205000DC7070477BB972B90029BEBF00204FF019
:10206000004106E008BF00281CBF6FF000414FF0A0
:10207000FF3000F095B8ADF1080C6DE904CE0029F1
:1020800009DB002B1ADB00F005F9DDF804E0DDE9DF
:10209000022304B07047404261EB4101002B1BDB7F
:1020A00000F0F8F8DDF804E0DDE9022304B0404276
:1020B00061EB4101524263EB43037047524263EBD1
:1020C000430300F0E7F8DDF804E0DDE9022304B0A3
:1020D000404261EB41017047524263EB430300F021
:1020E000D9F8DDF804E0DDE9022304B0524263EBE5
:1020F0004303704753B94AB9002908BF00281CBFE1
:102100004FF0FF314FF0FF3000F04AB8ADF1080C4E
:102110006DE904CE00F0BEF8DDF804E0DDE902234D
:1021200004B07047D0B5FFF7E7FA0C4B0022064623
:102130000F46FFF739FBFFF70FFE0446FFF7BAFA29
:10214000074B0022FFF730FB02460B46304639466C
:10215000FFF772F9FFF700FE2146D0BD0000F03D09
:102160000000F041D0B50C4B002206460F46FFF7A9
:102170001BFBFFF7F1FD0446FFF79CFA074B00221B
:10218000FFF712FB02460B4630463946FFF754F97B
:10219000FFF7E2FD2146D0BD0000F03D0000F04118
:1021A000704700BF08B5FFF7EFF8BDE80840FFF73C
:1021B0006DB870B5841A04F307040E4660B259B2C4
:1021C0001546FFF753F8002330702844737040B26F
:1021D00070BD0023036070477047002070474FF0C8
:1021E000FF3070474FF0FF30704770474FF0FF30BF
:1021F000704700207047002070470023037070472D
:102200009DF800300022FFF7D4BF002070474FF048
:10221000FF3070474FF0FF3070474FF0FF3070478E
:10222000704700280CBF6FF0150000207047002099
:10223000704707230370002070470020704700207C
:10224000704710F8012B11F8013B012A28BF9A4270
:10225000F7D0D01A7047034613F8012B002AFBD1A0
:10226000181A0138704738B50022002304460D467D
:10227000FFF70CFD28B920462946BDE83840FFF796
:1022800071BF204605F10041FFF76CFF404261EB52
:10229000410138BD2DE9F04786468C460846089E28
:1022A000154674461946002B40F0C2808542B2FAAA
:1022B00082F245D94AB1C2F1200300FA02FC2EFA9B
:1022C00003F3954043EA0C0C94404FEA154EA8B234
:1022D000BCFBFEF8230C0EFB18CC08FB00F943EA0C
:1022E0000C43994528D9EB1808F1FF3704D29945DA
:1022F00002D9A8F102072B44A3EB0903A4B2B3FB54
:10230000FEFC0EFB1C330CFB00F044EA0344A0422D
:1023100014D92C190CF1FF3304D2A04202D9ACF12C
:1023200002032C44241A43EA07401EB1D440002380
:1023300034607360BDE8F0874746DDE76346F1E748
:1023400092BB431B01214FEA154EAFB2B3FBFEFC1B
:10235000200C0EFB1C330CFB07F840EA03439845A6
:1023600062D9EB180CF1FF3004D2984502D9ACF1D8
:1023700002002B44A3EB0803A4B2B3FBFEFC0EFB4C
:102380001C330CFB07F744EA0344A7424ED92C192F
:102390000CF1FF3304D2A74202D9ACF102032C4462
:1023A000E41B43EA0040C0E7C2F1200320FA03F136
:1023B000954090402EFA03F303434FEA154EAFB217
:1023C000B1FBFEFC0EFB1C10190C0CFB07F841EADC
:1023D0000041884504FA02F422D969180CF1FF3053
:1023E00004D2884502D9ACF102002944A1EB0801CE
:1023F0009BB2B1FBFEFC0EFB1C110CFB07F743EA82
:1024000001439F420ED9EB180CF1FF3104D29F42D9
:1024100002D9ACF102012B44DB1B41EA004192E7F7
:102420006046E3E76146F7E76046A3E76346B7E740
:10243000834206D916B9002108467BE7C6E900E0C9
:10244000F9E7B3FA83F78FB9834201D3724508D80D
:10245000BEEB020460EB030301209C461EB9002181
:1024600068E73846FAE7C6E9004CF8E7C7F1200C00
:10247000BB4022FA0CF41C432EFA0CF120FA0CF3A8
:10248000B84001434FEA14490EFA07F5B3FBF9F8D7
:102490001FFA84FE09FB18300B0C08FB0EFA43EA06
:1024A00000439A4502FA07F240D9E31808F1FF30D9
:1024B00004D29A4502D9A8F102002344A3EB0A03EF
:1024C00089B2B3FBF9F809FB183308FB0EFE41EAA9
:1024D00003418E452CD9611808F1FF3304D28E4593
:1024E00002D9A8F10203214443EA0040A0FB02986C
:1024F000A1EB0E014145CE46434602D306D14D45E0
:1025000004D2B9EB020E68EB04030138002EA6D00A
:10251000B5EB0E0261EB030101FA0CFC22FA07F3A2
:102520004CEA0303F940C6E9003198E74046C5E7A5
:102530004346D9E7000000002DE9F04F2DED048B54
:1025400087B00678012E00AF1AD0022E00F0AE80C0
:1025500086B9A84A136801331360A74B1E60A74BC6
:102560001B783BB10BF034FF20B932F0F3FF08B118
:102570000CF0BEFE1C37BD46BDEC048BBDE8F08FF1
:102580009F4C2368013323603EF0C9F8246864221D
:10259000B4FBF2F302FB13439A4A2BB1136841F2E6
:1025A0008831C31A8B421FD9924B10601E68A5193F
:1025B00018BF64234FF00A001CBF6343B3FBF5F55B
:1025C00029F072FB50B1904BC0E90745C0E90536D0
:1025D00005230374002343748374C3748B4900235D
:1025E0004FF4235240F0E7F9DFF86082884D98F805
:1025F0000030B3B13EF093F8864AD2E90064861BFE
:1026000061EB04040BF076FB64380023B04273EBFB
:10261000040406DA804A88F8003013602B6801331E
:102620002B602E68BEB30A23B6FBF3F403FB1464DD
:10263000ACB97A4B1B78F02B11D1082029F034FB70
:1026400038B1774B4474C0E90536032303748474AE
:10265000C4746E4900234FF4C45240F0ACF92C68A6
:10266000B4F5967F17D13EF05AF86E4BC3E90001DE
:10267000082029F019FB40B16B4BC0E90534032356
:102680000374002343748374C374604900234FF4BC
:10269000C45240F090F9594B1B78002B3FF46AAFBD
:1026A0000BF096FE00287FF465AF61E75F4D28468A
:1026B00033F002F810F13D0F04463FF45BAFA8B1D0
:1026C000082029F0F1FA50B1594B4361594BC0E948
:1026D000063404230374002343748374C3740023F7
:1026E0004FF40152494940F066F943E752492B78CB
:1026F0000A78002A43D1082B7FF43CAF4F4C237853
:10270000002B3FF437AF4E4B68795B79984201D08C
:1027100022702FE74FF000084FF00009C7E9048945
:10272000B5F80B30BB82D5F80700BE8A38614FF090
:1027300080537E61D3F8A4C0D3F8A8309BB29E42E8
:1027400008BF604514D1062029F0AEFA38B13D4BE0
:10275000436102230374002343748374C37400230E
:102760002A494FF4845240F026F90023237001E7F0
:10277000D5F805300B60D5F809304B60C8E70D2B54
:1027800068D0112B3FF4F6AE032B40F2EF836B7948
:10279000AA2B40F0EB830BF01BFE002800F0E68331
:1027A0002B78AA792148284CDFF8A4C0023B03EB20
:1027B000D373C3F34703934228BF13460026F2B2F4
:1027C00093427FF6D7AEC279057A45EA0225002208
:1027D00094F800E0D1B27145C0F0BD8322780F2A91
:1027E00000F2C1832278D1B20132D2B222702CF829
:1027F0001150B8E3F8590020005A002074BC0020A2
:10280000F4590020F0590020B16B0400944E0400EC
:102810008C5A0020A8170020905A0020881700200A
:10282000DA6B040090180020FA6B04007EBC0020D4
:102830003F6C04008B79040076BC0020CBBC0020E8
:102840008D0C0020656C0400BA82002073BC00204F
:102850001E8000206B79F12B7FF48CAE0C22691D59
:10286000072026F05DFF6B7C83420DD0062029F007
:102870001BFA28B1A24B4361067444748474C47477
:1028800000234FF484522DE79E4B95F806901E7856
:10289000DFF8C0824E452CD0082029F005FA48B157
:1028A000994BC661C0E905390423037400234374BE
:1028B0008374C374954900234FF4025240F07BF8AF
:1028C000934B002402201C70C8F8004023F0B8FD90
:1028D00001287FF44FAE2146022023F001FD8D4BED
:1028E00000200021C3E900018B4B1C708B4B1C6046
:1028F00040E6DFF864B295F807909BF80060844BDF
:10290000B6EB09064FF0000A4FF0020048BF06F58B
:102910008076C8F800A083F800A023F091FD01287C
:10292000DFF8F88111D1D8F800300133C8F8003051
:102930006BB15146022023F0D3FC9FED6F7B754BAA
:1029400083ED007B744B83F800A0C8F800A0052E2F
:1029500016DD0A209BF8008029F0A6F950B1704BD3
:10296000C0E90786C0E905390523037400234374D1
:102970008374C374654900234FF4225240F01BF85E
:10298000AA68298995F808A0B5F809606B89654897
:1029900090F800C0CC4504D1D0F80480B8F1000F05
:1029A00006D101340A2C00F10800F1D14FF00008E3
:1029B0002C7B0C2C6DD1C9BA07EE901A9FED5A7A78
:1029C000F8EEE77ADBBA87EE878A204607EE903A80
:1029D000B5F80D30F8EEE77ADBBA87EE879A07EEA6
:1029E000903AF8EEE77AC7EE878A29F05DF9064655
:1029F000C8B14E4B436118EE100AFEF77DFEC6E9E2
:102A0000060119EE100AFEF777FEC6E9080118EE76
:102A1000900AFEF771FE0823C6E90A013374002309
:102A20007374B374F37430463849002344F2C0021F
:102A30003FF0C1FF0026B2463D4B1978002940F017
:102A40009F811C703DF06BFE3A4B0A2CC3E90001DC
:102A500040F0A081D5F80D30374A1BBA6D468CB0D6
:102A600013606A463549136240F2DC535161536288
:102A700033494FF400731385324BC2E9061442F810
:102A8000103F00234FF45351204829F0EDFAAD4692
:102A900070E5242C62D1C6B9082029F005F938B1B7
:102AA000294B4674C0E9053A032303748674C6743F
:102AB00000234FF4C65215493FF07DFF9FED238A56
:102AC000B0EE489AF0EE488AB6E776BA0820B6B279
:102AD00029F0EAF848B11E4BC661C0E9053A042363
:102AE0000374002343748374C37400234FF40352AC
:102AF000E1E700BFAFF3008000000000000000002D
:102B0000A16C0400D9B70020B36C0400944E0400FB
:102B100073BC002090180020CCBC0020905A0020EC
:102B2000E16C04003C5A00200000C8420D6D040016
:102B300070BC0020A0170020385A0020DE6D040071
:102B4000246E040006000001366D04000000000041
:102B50006C6D04008C5A002072BC0020B8F1000F8C
:102B600048D0994BDFF8B8E21868984BDEF800605F
:102B7000DFF8B092A0EB080CACFB0313C90B41EAE1
:102B80004341BCF1000F3BD0B44539D8CEF800C06A
:102B90000023C9F80030DEF800308C4E9B00A3FB08
:102BA0000636DB0B43EA4643B3F57A7F38BF4FF472
:102BB0007A7399421ED2864B16BAC3F80080361A31
:102BC0003DF0ADFD834B844AC3E900018349844B4A
:102BD000087810BB1E60834BDFF810C21860012319
:102BE000CCF80060C2F800800B707F4B01221A7095
:102BF00041F0C3F8002C00F09E800026B2465DE74D
:102C0000D9F800300133772BC9F80030C3D9132E1F
:102C1000C1D80136CEF80060BAE71268DFF8089232
:102C20001B68BB60A8EB020BD9F80020FA604FEAE2
:102C3000E27CA2FB0B010BFB0C1161A3D3E9002387
:102C4000FFF708FABB68694A034412687A60F31A0E
:102C500083EAE372A2EBE372B2F5FA4F4FF0000A97
:102C600024DD0A20FB6029F01FF870B1FB68836146
:102C70007B685F4A4261C0E907360523037480F828
:102C800011A080F812A080F813A0002359494FF436
:102C900022523FF090FE554B1E60514B1E604E4B32
:102CA000C3F800800023C9F800309EE7BBF5004F51
:102CB00011D3BB685048F11A5A46534681FB0001B4
:102CC000FFF7C8F9FB68C01AFB6848BF033003EB85
:102CD000A000C9F80000434BD9F800001A6802F1BF
:102CE000010AC3F800A03A4B1B68A8EB030CC117FC
:102CF000ACFB000E32A3D3E900230CFB01E1FFF78C
:102D0000A9F97B6803449946BAF1050FA6EB0303C2
:102D100098BF03EB43039A1C48BF5A1D334BBBF5C6
:102D2000F01F09EBA2021A6081BF2D4B1E602A4BD7
:102D3000C3F8008059E76C7BAE7B95F80F802D7C43
:102D4000FF2C0DD066B1B8F1000F09D00EF0F2F9EA
:102D5000854205D02B464246314620460EF06AF9A0
:102D6000264B1A78002A3FF405AC254900221A7038
:102D7000244B0A7000200021C3E90001FFF7FABBD1
:102D80001E4A12788A427FF4F5AB94427FF459AE22
:102D9000FFF7F0BB0C2C08D11B4B83ED008A83EDB1
:102DA000019AC3ED028A194907E0242C3ED1184B41
:102DB000184983F800A0184B1E80184B59E000BF3B
:102DC00000CA9A3B000000006C7D002040420F00CA
:102DD000245A002098170020185A0020DAB7002043
:102DE0001C5A0020105A0020DBB70020285A00206F
:102DF0009D6D0400944E040000CA9A3B6FBC0020F5
:102E000070BC0020A01700202C5A00200C74040075
:102E10006EBC0020A76B0400408200207B6B040086
:102E2000CC060020145A0020205A0020631E322BAA
:102E300000F28980DFE803F0898C2E313437434675
:102E40004987874F5154575A665D6063696C6F3A82
:102E50003D407275787B87874C8787878787878710
:102E6000878787878787871A7E8184005E49302419
:102E70005E4B6D468AB06A465D48C2E907435D4BCA
:102E800053625D4BC2E9050142F8103F00234FF445
:102E90004351F9E5594903248FE7594904248CE744
:102EA0005849052489E75849062486E757491824D4
:102EB00083E75749192480E756491A247DE7564984
:102EC00007247AE75549082477E75549092474E728
:102ED0005449212471E70C2465E753490D246CE71C
:102EE00052490E2469E752490F2466E751491024DC
:102EF00063E75149122460E7504913245DE75049C4
:102F000014245AE74F49112457E74F49152454E731
:102F10004E49162451E74E4917244EE74D491B24CC
:102F20004BE74D491C2448E74C491D2445E74C49D3
:102F30001E2442E74B4931249AE74B49322497E754
:102F40004A49332494E74A4937E74A49012434E798
:102F50004949022431E73CF8111089B28D4202F14F
:102F600001027FF435AC0136023028E42E78012EC0
:102F700028D96B79203B052B24D8DFF810813F4BF3
:102F800098F800401B78013404F00F049C423FF491
:102F9000F1AA98F800003A4D3A4900EBC00300EB63
:102FA000C3003246284440F04CFF98F800304922D4
:102FB00002FB035585F84860BFF35F8F88F8004037
:102FC000FFF7D8BA082028F06FFE40B12E4BC0E9B9
:102FD000053603230374002343748374C3740023EE
:102FE0004FF4C452FFF77EBB59760400656B0400B2
:102FF000306E040000020204050000025570040057
:103000007C700400A2700400C1700400E57004002C
:10301000077104002871040023720400C5700400C5
:1030200042A1040052A104002F7404008F74040014
:10303000B3740400D7740400FB740400207504000A
:10304000477504006F7504008E750400B5750400A3
:10305000DC7504004A7104006C7104008F71040077
:10306000B171040082760400926B0400566B040078
:103070009F6B04000E70040031700400DCB7002068
:10308000DEB7002083BC0020586E0400DDB70020AE
:1030900070B5234E33781BB33DF041FB214AD2E992
:1030A000004543F69923041B61EB05059C4275F12D
:1030B000000318DB082028F0F7FD48B11A4BC56162
:1030C000C0E9053404230374002343748374C37478
:1030D000002316494FF402523FF06DFC0023337079
:1030E0000020002170BD40F048FE114B1D68114BBF
:1030F000451B04461868C617A5FB000106A3D3E9C3
:10310000002305FB0611FEF7A5FF0B4B1B681C44B3
:103110002044E6E7AFF3008000CA9A3B00000000BD
:10312000DBB700209817002068770400944E040055
:10313000245A0020205A0020285A002000000000B5
:10314000F0B514461A4AA0FB020302FB0131C00B82
:1031500085B040EA414014A3D3E90023C90BFEF730
:10316000C9FF0546194610460023124AFEF7C2FF62
:1031700006461946104600230D4AFEF7BBFF0746D8
:103180001946104600234FF47A72FEF7B3FF0097FA
:10319000CDE90102334608482A4621463EF0F3FEB7
:1031A00005B0F0BDAFF3008000A493D6000000008E
:1031B00040420F0000879303CB850400000000000D
:1031C0002DE9F04F2DED068BCBB023F0A7FD50B1CC
:1031D0004FF0804357220120C3F81C250DF0B0FFAB
:1031E000002022F007FD2BF057F928F073FD04466C
:1031F000002840F0F580914840F0BAFC78B18F4D3E
:103200004594AE683224B36C002B40F0ED8064200E
:103210003DF095FA013CF6D164203DF090FA8848E3
:10322000884D3EF0B0FE13241223CDE901340B2368
:10323000854800930722042340F2EA713EF0A3FE82
:10324000824B834A834984483EF09DFE0DF08AFFFD
:10325000824B18681B798DF84430814B10909A8806
:10326000ADF8B4207F4A186851689B792C9010689B
:103270008DF8B63038AB03C3127A1A707A4B9A883D
:10328000ADF8BC20794A186851689B792E90106877
:103290008DF8BE3034AB03C3754B764A186851685D
:1032A0001B79129010688DF84C303BAB03C3128928
:1032B0001A80714B18681B798DF854306F4B14903D
:1032C00018689B88ADF894306D4B249018689B88E3
:1032D000ADF89C306B4B26909A8818689B798DF8D6
:1032E000C630694B3090CDE90653684BADF8C42029
:1032F00018681B798DF85C30654B664A1690186823
:103300009B882890ADF8A4301068516836AB03C391
:10331000614B41AA03F1080618685968144603C4B2
:103320000833B3422246F7D118681B7923715B4BEF
:10333000206008935A4B5B4A18681B798DF86430FB
:10334000594B189018681B7951681A908DF86C3099
:103350001068564B09933EAB03C312891A80544A36
:10336000544B1068544E1C9018681E9030682A9078
:10337000B088ADF8AC005148147919798DF87440D3
:103380008DF87C100A90A0F54020A0F61970CDE9C8
:103390000B05106820901868494B0D93494B2290FB
:1033A0009A8818689B798DF8CE30474B8DF8844009
:1033B0008DF88C103290ADF8CC200E932BF054F891
:1033C00006460246414800251178C9B9052214A9CC
:1033D000304640F026FD00287AD10DF0C3FEEDE71F
:1033E000012038F085FF00E745AA042128469847C8
:1033F00000287FF40CAF459B002B3FF408AF0BE790
:10340000445C537804F00304012C04D12031117082
:1034100011464A1CD8E72029FAD1002DF8D11570A1
:10342000C15C01F00301012908BF2033DBB2511C4C
:103430005370002B18BF0D46EBE700BFE8480400AF
:10344000ED8904006D616700188A0400768A040023
:10345000A87704007F8A0400B38A04007A33050049
:10346000DF9F0400C4FA04002FA10400C731050047
:103470000E13050077990400E69F0400EB9F0400FB
:10348000F19F0400F79F040073657400FE9F040021
:103490007F920400496B050003A004006466750078
:1034A000E212050010A004000E7A04006E7673008C
:1034B0001AA004001FA00400CD6F04007A726F00F0
:1034C000626174002C150500616C6C002892050087
:1034D000052210A9304640F0A4FC8346002840F0A5
:1034E0001383CC48DFF8B4A33EF04DFD1223132024
:1034F000CDE901300B23C84800930722042340F292
:10350000EA713EF040FDC54BC54AC649C6483EF08B
:103510003AFDC6483EF037FDC5483EF034FDC5488B
:103520003EF031FDC4483EF02EFDDAF80030B3F82D
:10353000923403F07F037F2B00F0B1821EF0C8FCB1
:103540000146BE483EF01FFDDAF8003093F896348D
:10355000FF2B08D013F0800FB94BBA49BA4818BFF7
:1035600019463EF010FDDAF80030B84893F896247A
:10357000B3F892143EF007FDDAF80030B3F8943453
:1035800003F07F037F2B00F08C821EF0B7FC044613
:103590001FF0D8F9AE4BAF4A2146002818BF1A4693
:1035A000AD483EF0F0FCDAF8003093F89724FF2A9B
:1035B0000FD0B3F89414090640F1758293F996245C
:1035C000A649A74B31EA220128BF19469E483EF082
:1035D000DAFCDAF800309D4893F89724B3F8941495
:1035E000DFF898823EF0CFFC9E483EF0CCFC0025F0
:1035F000DAF8004004EB85040135D4F84401FEF705
:103600007BF80646D4F868010F46FEF775F8CDE959
:103610000401D4F85C01FEF76FF8CDE90201D4F89B
:103620005001FEF769F83246CDE900013B464046BD
:103630003EF0A9FC032DDBD18B483EF0A4FCDAF868
:103640000060D6F84401FEF757F80446D6F84C015E
:103650000D46FEF751F8CDE90201D6F84801FEF714
:103660004BF822462B46CDE9000180483EF08BFC0A
:10367000DAF80060D6F85001FEF73EF80446D6F8B6
:1036800070010D46FEF738F8CDE90201D6F8600169
:10369000FEF732F822462B46CDE9000174483EF091
:1036A00072FCDAF80060D6F8FC00FEF725F8044654
:1036B000D6F804010D46FEF71FF8CDE90201D6F851
:1036C0000001FEF719F822462B46CDE900016948B2
:1036D0003EF059FC45A811F049F94598FEF70CF861
:1036E000044646980D46FEF707F8064647980F46EB
:1036F000FEF702F8804689461FF0BEFB10EE100A66
:10370000FDF7FAFFCDE90067CDE9040122465A48EA
:103710005A4F2B46CDE902893EF035FC58483EF021
:1037200032FCDAF8006006EB8B060BF1010BD6F8E1
:103730001401FDF7E1FF0446D6F838010D46FDF708
:10374000DBFFCDE90401D6F82C01FDF7D5FFCDE96B
:103750000201D6F82001FDF7CFFF2246CDE9000196
:103760002B4638463EF00FFCBBF1030FD9D1DAF8F7
:103770000030D3ED457AF5EE407AF1EE10FA4FF0D5
:10378000000240F09781D3ED467AF5EE407AF1EEF3
:1037900010FA40F08F81D3ED477AF5EE407AF1EEE2
:1037A00010FA40F087810FA80F923DF0DDF8044633
:1037B00010F00EFB334D10EE100AFDF79DFF06468C
:1037C0000F980F46FDF798FF32463B46CDE90201C0
:1037D000009429462C483EF0D6FB1EF09FFB014684
:1037E0002A483EF0D0FB14483EF0CDFBDAF800301A
:1037F000274893F8661093F86560264B002E08BFA3
:1038000018463EF0C0FB4FF080522348D2F8A83053
:1038100046E000BFD78A0400188A0400768A0400B4
:10382000A87704007F8A0400B38A0400FA8A04009F
:10383000108B04001F8B0400DF890500428B0400FD
:10384000321C0500538904004B8B04005A8B040082
:10385000015C050092A404006F8B04006A890400D7
:1038600057890400878B0400B48B0400C98B0400C3
:10387000E78B0400048C0400248C04009F8B04005C
:103880005F8C0400D51C0500758C0400B58C040009
:103890007C8904008C890400C28C0400D0060020BE
:1038A000D2F8A4209BB23EF06EFBDAF80020B248BA
:1038B000D2F86930B2F8672042EA03421B0C3EF0AE
:1038C00062FBDAF80030002B00F0FF8093ED5DAA78
:1038D000DFEDAA8AD3ED5F9A93ED5E9AB7EE008A88
:1038E000C8EE0A7A78EE677A67EEA87A17EE900A41
:1038F000FDF702FFC8EE297A04460D4678EE677A96
:1039000067EEA87A17EE900AFDF7F6FEC8EE097A80
:10391000CDE9020138EE678A68EE287A17EE900A40
:10392000FDF7EAFE22462B46CDE900019448052129
:103930003EF029FB1AEE100AFDF7DEFE044619EEF2
:10394000900A0D46FDF7D8FECDE9020119EE100AE6
:10395000FDF7D2FE2246CDE900012B4689483EF014
:1039600012FBDAF800208449D2F869308648B2F8B0
:103970006720002E18BF084642EA03421B0C3EF0A7
:1039800002FBDAF8003093F89814642992BF7F485C
:103990007F4854213EF0F7FA7E483EF0F4FA1FF0DB
:1039A00097FD83461FF0A2FD1FF002FD82461FF027
:1039B000A3FD07460E461FF09FFE054689461FF0F1
:1039C000A1FDBBF1000F0446884640F38E8040F015
:1039D000D8F9714AC01B61EB0603A0FB020102FB90
:1039E0000311C00B40EA414061A3D3E90023C90B96
:1039F000FEF780FB1946064600231046674AFEF78D
:103A000079FB0746504616B9FBB2002B61D0FDF793
:103A100061FE634B0022FDF7F1FFCDE9006702462E
:103A20000B4660483EF0AFFA55EA090364D05A4BA2
:103A3000A5FB030103FB0911C00B40EA41404CA365
:103A4000D3E90023C90BFEF755FB0546194610467E
:103A50000023524AFEF74EFB2946024652483EF0EA
:103A600092FA54EA08034BD04B4BA4FB030103FB2F
:103A70000811C00B40EA41403DA3D3E90023C90B24
:103A8000FEF738FB0446194610460023434AFEF76A
:103A900031FB2146024645483EF075FA8EE4444922
:103AA0004FE5434C74E5434B434912F0800F18BF78
:103AB00019468BE50FA80F923CF056FF044610F014
:103AC00087F93E4D10EE100A77E63D483EF05BFA6E
:103AD00047E7FDF7FFFD324B0022FDF78FFF02465F
:103AE0000B4638483EF04FFA9EE73E430CBF36483F
:103AF00036483EF048FA97E735483EF044FAB0E7DA
:103B000034483EF040FA59E407222CA9304640F0F0
:103B100088F9B0B940F035F92F4A0D460446FFF751
:103B20000FFB2E4B1B68D3E90401D3E90223801A53
:103B300061EB030100192A4A41EB0501FFF700FB85
:103B40003CE4092238A9304640F06BF910B90DF079
:103B500071FD33E407222EA9304640F062F90028B7
:103B600040D102200DF0ECFA002022F043F825E4C9
:103B700000A493D6000000009F8904000000E144E7
:103B8000DB8C04001D8D0400BA8904007D8D0400C7
:103B9000968D0400DF89050040420F0000879303E3
:103BA00000005940B08D04000B8E04004B8E0400C1
:103BB00045890400321C0500538904009E650500F8
:103BC0004A8D0400D68D0400E78D0400D98E0400D0
:103BD000298E04006D8E0400938E0400D006002010
:103BE0009A8E0400082234A9304640F01AF90028C1
:103BF00040F011811FF066FC0146C0483EF0C3F959
:103C00001FF066FC80461FF071FC81461FF0D0FB60
:103C100006461FF071FCB8F1000F04460D4640F354
:103C2000DA803046FDF756FDB54B0022FDF7E6FE83
:103C3000064648460F46CDF80880FDF74BFDB04BD1
:103C40000022FDF7DBFE3246CDE900013B46AD48E0
:103C50003EF099F954EA050300F0C18040F091F874
:103C6000001BA94A61EB0501FFF76AFA1FF04AFC45
:103C7000814688461FF09CFC07460E461FF0EAFC72
:103C800005460C461FF038FD50EA010300F0AB80FA
:103C90009E4AFFF755FA59EA080300F0A8809C4AAB
:103CA00048464146FFF74CFA57EA060300F0A38066
:103CB000984A38463146FFF743FA55EA040300F0C4
:103CC0009E80954A28462146FFF73AFA3DF016FCB9
:103CD00005463DF025FC044628461FF069FB824658
:103CE00020461FF065FB80463DF02CFC45EA0403AE
:103CF0001A0407460E4600F1868050EA010300F0E0
:103D000082804046FDF7E6FC7D4B0022FDF776FE03
:103D1000804628468946FDF7DDFC794B0022FDF7F9
:103D20006DFECDE904012046FDF7D4FC744B002262
:103D3000FDF764FECDE902015046FDF7CBFC704B68
:103D40000022FDF75BFE4246CDE900014B46734879
:103D50003EF019F9724A38463146FFF7F1F91FF083
:103D600035FD06461FF058FD04461FF06DFD44EA80
:103D700000031B0407464AD42046FDF7ABFC604B0A
:103D80000022FDF73BFE06EB86060446F0B20D4628
:103D9000FDF790FCCDE902013846FDF79BFC584B3E
:103DA0000022FDF72BFE2246CDE900012B465D489F
:103DB0003EF0E9F81FF0E6FCFDF77CFC5A4B0022D0
:103DC000FDF71CFE02460B4658483EF0DCF81FF09B
:103DD000B7FDFFF7F3BA56483EF0D5F83AE7554835
:103DE0003EF0D1F842E754483EF0CDF853E753484F
:103DF0003EF0C9F858E752483EF0C5F85DE7514833
:103E00003EF0C1F862E750483EF0BDF8A7E74F48E2
:103E10003EF0B9F8CEE7052212A9304640F001F88D
:103E200020B901201EF0E2FDFFF7C8BA0A223BA923
:103E300030463FF0F6FF18B93CF090FDFFF7BEBAF0
:103E400005221CA930463FF0ECFF0446002840F054
:103E50008F800DB93E4854E63E490422284640F082
:103E600006F8F0B92E7916F0DF061AD13A4928463D
:103E70003AF0C2FF384930463AF0BEFF36490446B0
:103E800030463AF0B9FF3449054630463AF0B4FFBF
:103E900008B1324835E6294620460DF075FBFFF79C
:103EA0008DBA2F492846FEF7CCF918B90DF008FB5A
:103EB000FFF784BA28462B492A4E3AF09DFF45ADBC
:103EC0000746002F00F07786032C04D126483EF0E9
:103ED0005AF8264815E60FA938463AF033FF0F9BEB
:103EE000A5EC010ABB42F1D018780028EED131468A
:103EF0003AF082FF01340746E3E700BFA68E0400D4
:103F000000005940B28E0400E88E04000A8F0400BD
:103F10001D8F0400338F0400638F0400938F04000F
:103F2000D38F040002900400000034404790040046
:103F3000D88E0400F58E0400298E04006D8E0400D6
:103F4000438F0400738F0400E68F04003390040055
:103F50005B900400BA900400E4460500BF900400A2
:103F6000CD6F0400039104000591040062910400E8
:103F700005221EA930463FF054FF002840F016826B
:103F80000DB99448BDE5284693493AF035FF0546FA
:103F90000028F6D09149FEF754F920B9012011F01C
:103FA0004FFC8F48ADE58F492846FEF74AF918B90E
:103FB00011F046FC8C48A4E58C492846FEF741F9EF
:103FC000B8B911F0DBFC11F083FC894D894C002855
:103FD0000CBF2946214688483DF0D5FF10F044FA31
:103FE00000280CBF2946214684483DF0CCFFFFF74E
:103FF000E5B983492846FEF724F918B910F090F87E
:10400000FFF7DCB97F492846FEF71BF9F0B9724982
:104010003AF0F2FE044608B97B4872E56F49FEF7B4
:1040200010F938B9012010F0F1F978483DF0ABFFF4
:10403000774866E56B492046FEF703F918B910F09A
:10404000E5F974485DE574482146CEE77349284692
:10405000FEF7F7F8044600285AD1714F3B68B3F8D1
:10406000481909B96F484CE56F483DF08CFF6F481F
:104070003DF089FF6E483DF086FF6C483DF083FFC0
:1040800000254FF00A0AD7F800B00BEB041606F231
:10409000AC42D2ED007AF5EE407AF1EE10FA24D07F
:1040A00017EE900AFDF728FB04F14B020BEB02130D
:1040B000804698688946FDF71FFBCDE9040106F2AA
:1040C000B44306F596661868FDF716FBCDE90201C4
:1040D0003068FDF711FB4246CDE900014B465548DB
:1040E00021463DF050FF0135ADB2B5FBFAF30AFBB6
:1040F00013539BB21BB915B114203CF020FB0134C3
:10410000462CC0D149483DF03EFF4B4829466CE75C
:104110004A492846FEF795F810BB2F493AF06CFE45
:10412000044608B94648ECE400230A2245A9459311
:104130003AF014FF459B6BB1A3420BD04149459B1C
:104140001A78002A00F044858A5C150705D43E4899
:1041500021464AE73D48214647E701334593EEE7CC
:104160003B492846FEF76DF8064600BB1A493AF06F
:1041700043FE044640B91EF07FFEB4EE400AF1EE65
:1041800010FA10D73348BCE445A945963AF0DAFD59
:10419000459BA34201D01B782BB12F4821463DF00F
:1041A000F2FE2E48ADE411F047FDFFF707B92C49A8
:1041B0002846FEF746F8002840F087801EF05CFE97
:1041C000B4EE400AF1EE10FAB0EE408A4CD7254822
:1041D00097E400BF80910400E4460500EE08050066
:1041E000FB910400179204001B9204004007050095
:1041F00092A40400015C050051920400699204003D
:104200007F920400BA90040085920400B7920400E3
:104210000193040046930400689304009F930400F4
:10422000D0060020A4930400DC9304001294040040
:10423000469404007B940400A6940400CD940400EA
:10424000D494040028920500B29F04000495040051
:10425000399504003E95040094950400CC95040023
:10426000C52A0500E595040045A90FA810F086F8B9
:10427000064618EE100AFDF73FFA02460B46AF4815
:104280003DF081FEDDED0F7AF4EE677AF1EE10FA83
:1042900019D617EE900AFDF72FFA044645980D46F9
:1042A000FDF72AFA2246CDE900012B46A4483DF04D
:1042B0006AFEA44BA44800223DF065FE0EB1A3485F
:1042C0001FE4A3481DE4A3481BE4A3492846FDF7C7
:1042D000B8FF002867D1A1493AF08EFD04460028B6
:1042E0004AD19F4C9F48A04EA04D3DF04CFE236804
:1042F0009F4893F84C1900290CBF314629463DF0E0
:1043000042FE23689B4893F84D1900290CBF3146A3
:1043100029463DF038FE2368974893F84E193DF042
:1043200032FE2368954893F85C1900290CBF31468A
:1043300029463DF028FE266896F85C39CBB106F593
:1043400015631868FDF7D8F906F65813044618687F
:104350000D46FDF7D1F9CDE9020106F65416306895
:10436000FDF7CAF92246CDE900012B4684483DF00D
:104370000AFE8448FFF7C5BB8349FDF762FF28B9F1
:10438000012011F033FA8148FFF7BBBB804920467A
:10439000FDF757FF20B911F029FA7E48FFF7B1BBAE
:1043A0007D48214621E67D4829461EE6072230A9A0
:1043B00030463FF036FD18B93CF0D3FAFEF7FEBFA9
:1043C000042206A930463FF02CFD0446002840F0A8
:1043D0000B81002D75D11EF0B5FA714A7149DFF8D5
:1043E0008081DFF80092002808BF11466E483DF03A
:1043F000CAFD1DF083FD01466C483DF0C4FD6C48CC
:104400003DF0C1FDD8F8005005EB84050134D5F826
:104410001401FDF771F90646D5F838010F46FDF78E
:104420006BF9CDE90401D5F82C01FDF765F9CDE96B
:104430000201D5F82001FDF75FF93246CDE9000110
:104440003B4648463DF09FFD032CDBD1002345A8A9
:1044500045933CF089FAD8F80030D3ED457AF5EE73
:10446000407AF1EE10FA044625D1D3ED467AF5EE06
:10447000407AF1EE10FA1ED1D3ED477AF5EE407A8C
:10448000F1EE10FA17D10FF0A3FC4A4D10EE100A0E
:10449000FDF732F902460B46474829463DF073FDC9
:1044A0004598FDF729F902460B46444821463DF060
:1044B0006AFDFEF783BF0FF08BFC414D10EE100A32
:1044C000E6E7264928463AF097FC2F490446FDF7CF
:1044D000B8FE38B93B483DF056FD01201EF0C2F948
:1044E000FEF76CBF2A492046FDF7ABFE054620B912
:1044F00035483DF048FD2846F0E734492046FDF7B1
:10450000A0FE28B901210FF0ADFA3148FFF7F9BA42
:1045100030492046FDF795FE20B12F492046FDF792
:1045200090FE40B9002001210FF09CFA0FF0B4FB7F
:104530002A48FFF7E6BA2A48FFF7E3BA0E960400C6
:104540002A9604000000E03F5E9604008396040073
:10455000CA96040005970400C3730400E4460500EE
:10456000D006002044970400D6890400D2890400B4
:104570005E9704006D9704007E9704008E970400F8
:10458000A4970400C8970400EE080500E49704000F
:10459000179204001C980400389804006F980400D7
:1045A00092A40400015C0500E6980400F898040059
:1045B0005F8C0400D51C050006990400928C040051
:1045C0009E650500269904003D9904007F92040031
:1045D0005599040020A004007799040081990400F3
:1045E000A39904009F8B040007A9042230463FF0E2
:1045F00018FC0146F0B9102228463AF053FDAD4AA6
:10460000CDE9000106460C4645A811213DF0C8FC45
:1046100056EA04030BD01122294645A83FF001FCBD
:1046200028B9304621460BF0D9F9FEF7C7BEA2489B
:10463000FFF767BA052216A930463FF0F2FB18B91A
:104640000BF0BEF9FEF7BABE062228A930463FF0AD
:10465000E8FB18B90BF01EFAFEF7B0BE082236A927
:1046600030463FF0DEFB00283AD12DB993483DF0AB
:104670008AFC9348FFF745BA0A2245A928463AF032
:104680006DFC459B1B78044613B9431E632B02D96E
:104690008C48FFF736BA8C4D01468C483DF073FCD0
:1046A0002B6883F898440DF045FA2A6802F5936266
:1046B000114601231F2022F08FF82B68844893F8BD
:1046C00098143DF060FC0AF01BFF0A203CF037F81C
:1046D00001200AF045FE2B687E4893F8981484E484
:1046E0000D2241A930463FF09CFBF8B9764C7A4840
:1046F0003DF049FC2368FF2283F898240DF01AFA54
:10470000226802F59362012311461F2022F064F80B
:1047100072483DF038FC0AF0F3FE0A203CF00FF836
:1047200001200AF01DFE6E48FFF7EBB9042208A92C
:1047300030463FF076FB10BBBDB16A4928463AF0DF
:104740005BFB044688B16849FDF77BFDA0B967486B
:104750003DF019FC4FF08043A8226420C3F81C25CB
:104760003BF0EDFF0320FFF7FDB961483DF00BFC86
:104770004FF080435722F0E75E48214635E405229A
:1047800018A930463FF04DFB18B90CF047FFFEF773
:1047900015BE042209A930463FF043FB18B922F0A8
:1047A0001DFAFEF70BBE0A223EA930463FF039FB48
:1047B000002840F00881444C4F483DF0E4FB23685A
:1047C0004E4AD3F88019914205D04D483DF0DBFBAD
:1047D0004C48FFF796B9D3F87459002D40F0B680D5
:1047E00049483DF0D0FB2368484893F878193DF0DC
:1047F000CAFB23684648D3F87C193DF0C4FB236804
:10480000444AD3F8A019914238D1D3F88459424888
:10481000042D96BF414B424E53F825603DF0B3FB4B
:104820002946404832463DF0AEFB2368D3F888194C
:1048300041B13D483DF0A7FB23683C48D3F88C19B3
:104840003DF0A1FB2368D3F8901939B1CBB20093A6
:104850003748C1F307230A0C3DF095FB2368D3F8D2
:10486000941911B133483DF08EFB2368D3F8982991
:1048700022B1D3F89C1930483DF085FB2F483DF01C
:1048800082FB23682E4893F864193DF07CFB236873
:104890002C48D3F86C193DF076FB236893F86549F2
:1048A000204623F0B1F92146024627483DF06BFB34
:1048B0008EE700BFC2990400CA990400DB99040086
:1048C000F39904001F9A0400D0060020559A0400B2
:1048D0006F9A04008C9A0400AF9A0400DE9A0400D8
:1048E000119B0400E44605009B2D0500399B040044
:1048F000549B0400699B0400979B04005453524C42
:10490000B89B04007C3C0500F49B0400739D0400EC
:10491000909D04004C544146AD9D0400BC520400DF
:10492000D9890400C89D0400DB9D0400ED9D0400AE
:10493000FF9D0400329E0400449E0400559E040026
:10494000609E04007E9E04009C9E04002946A248AE
:104950003DF019FBE90702D5A0483DF014FBAA077A
:1049600002D59F483DF00FFB6B0709D5236893F8EC
:104970007929B3F87A399F071BD59A483DF003FB94
:104980002E0702D598483DF0FEFAE80602D5974872
:104990003DF0F9FAE90302D595483DF0F4FA6A03CF
:1049A00002D594483DF0EFFA2B037FF51CAF9248F7
:1049B00017E7122A96BF914B914953F8221091485C
:1049C0003DF0E1FADCE705221AA930463FF029FA6A
:1049D00020BB3FF0D6F94FF4C3620023FDF73AFB4A
:1049E000104619464E220023FDF734FB04461946B3
:1049F000104600230D22FDF72DFB834B8349D2B2D5
:104A0000C0B253F82230824AE4B252F8202051F862
:104A1000241080483DF0B7FAFEF7D0BC062224A946
:104A200030463FF0FEF9A8B97DB10A2245A92846D3
:104A30003AF094FA459BAB4204D01B7813B9431E5D
:104A40003B2B03D974483DF09EFA01201EF04CFA2E
:104A5000FEF7B4BC062226A930463FF0E2F910B9B1
:104A60006E48FFF74EB806222AA930463FF0D9F922
:104A7000002851D1002D4CD004220AA928463FF02D
:104A8000D0F918B93BF06BFEFEF798BC04220BA9D5
:104A900028463FF0C6F918B93BF06BFEFEF78EBC16
:104AA00004220CA928463FF0BCF920B901210EF0E0
:104AB000D9FFFEF783BC052220A928463FF0B1F9B3
:104AC00000283FF4F3A9052222A928463FF0A9F9BE
:104AD00000283FF493AA04220DA928463FF0A1F92B
:104AE00018B91EF0C7FEFEF769BC072232A9284696
:104AF0003FF097F918B90CF081FDFEF75FBC042276
:104B00000EA928463FF08DF918B922F017F8FEF7E4
:104B100055BC4348FEF7F5BF4249042230463FF0FA
:104B200080F9F8B9A5B140492846FDF78AFB28B9B4
:104B300001200CF04BFA3D48FEF7E3BF3C49284604
:104B4000FDF77FFB20B90CF041FA3A48FEF7D9BFD8
:104B50000CF06AFA384A3949002808BF114638482B
:104B6000FFF743BA3749042230463FF05AF9F8B903
:104B7000A5B12D492846FDF764FB28B9012022F094
:104B80005FFB3148FEF7BDBF29492846FDF759FBB9
:104B900020B922F055FB2D48FEF7B3BF22F04AFBA7
:104BA000254A2649002808BF11462948FFF71DBAA3
:104BB0002848FEF7A6BF032C7FF488A99DED471A6D
:104BC000DDED460A9DED450A0CF0FEFBFEF7F6BB57
:104BD0000FF042FBFEF7F2BB139C0400269C04007E
:104BE000459C0400609C0400D59C0400F29C0400D9
:104BF000189D04003A9D0400569D0400D052040004
:104C000069480500A19C04001C530400685304007B
:104C100050530400BF9E0400C79E0400FB9E040086
:104C2000329F0400017C0400EE080500449F04004C
:104C300017920400529F040092A40400015C050036
:104C4000619F0400399504006B9F04007E9F04005F
:104C5000929F0400A19F04002DE9F04F2DED028BDF
:104C6000A84B1A68B2F84889DFB0B0EE408A044613
:104C7000B8F1000F16D1082027F016F858B1A24B52
:104C80004361A24B83610323037480F8118080F891
:104C9000128080F813809E4900234FF4C2523DF0E9
:104CA0008AFE72E09B4FD7F8A03043450BD000231B
:104CB0003B7787F83C3087F85C3087F87C3087F8A2
:104CC0009C30C7F8A08093490023F6EE006A087F65
:104CD00010B3D1ED007A37EEC87AB0EEC77AB4EEF1
:104CE000E67AF1EE10FA17D507EB431378EE677A00
:104CF000043304F10C02B3EC017AD3ED026A07EE3F
:104D0000A67AA4EC017AA242F5D1002528465FB02C
:104D1000BDEC028BBDE8F08F0133052B01F12001C2
:104D2000D5D1B8F1010F33D102F2AC410023D1ED5E
:104D3000007AF5EE407AF1EE10FA21D04B331901EA
:104D400002EB031350585968254603C5986828603C
:104D5000B0EE480A0CF00CFF07EB401383ED000A9D
:104D6000450194E807002E1D3E44103586E80700F3
:104D7000002279197A51C1E9012201221A77C4E788
:104D80000133462B01F11001D1D14FF0FF35BDE7C2
:104D9000DFED617A9FED614A002502F5966602F526
:104DA000116E2B46B0EE676AF1EE094AB7EE005A73
:104DB0004FF0140C56ED016AF5EE406AF1EE10FA70
:104DC0003DD036EEC87A27EE077AC7EE245A75EE44
:104DD000855A85EE257AB4EEC47AF1EE10FA2ED417
:104DE000092D62DC0CFB05F909F5BC71694441ED44
:104DF000326A01ED2E7A09F104092CA93068894440
:104E00007168A9E803000135B068C9F800000A2DEF
:104E100015D1DDED307A2CA90023012591ED097A19
:104E2000B4EEE77AF1EE10FA48BF2B4605F1010522
:104E300048BFF0EE477A0A2D01F11401EED1103689
:104E40007645B7D1002D40F0E08102F2AC4EDFEDA7
:104E5000377A02F60C11734693ED007AB5EE407A7C
:104E6000F1EE10FA06D0B4EE677AF1EE10FA48BF10
:104E7000F0EE477A10338B42EED19FED297AF4EEB3
:104E8000C77AF1EE10FA53DD082026F00DFF002856
:104E90003FF401AF1C4B43611C4B8361032303743C
:104EA000002343748374C374F5E6B4EEE77AF1EE3D
:104EB00010FAC4DD0CFB03F303F5BC71694401ED8A
:104EC0002E7A41ED326A04332CA930680B447168A4
:104ED00003C3B0681860DDED307A2CA800230121EF
:104EE00090ED097AB4EEE77AF1EE10FA48BF0B467E
:104EF00001F1010148BFF0EE477A0A2900F11400E0
:104F0000EED19CE7D006002003A404003AD40400AC
:104F1000544E0400D05A0020000000008FC2F53C1F
:104F200000C079440AD7233C00007AC400007A44C8
:104F3000B4EEE78A0026F1EE10FA5FED065AB146AC
:104F400053D45FED076A704600214FF0FF3390EDB8
:104F5000007AB5EE407AF1EE10FA0FD00DF1700A3A
:104F60004FF0000CB44540F09280B4EEE67AF1EEDA
:104F700010FAC8BF0B46C8BFF0EE476A0131462998
:104F800000F11000E3D1591C16D01CA901EB06104A
:104F900002EB031101F2AC414B33096801601901C6
:104FA00002EB031300F1040C50585968ACE80300FD
:104FB0009868CCF80000013609F10109B9F1040F35
:104FC00054D0C145BDDB51E0D346DBED007A77EE2E
:104FD000C77A0AF1100AF0EEE77AF4EEE57AF1EE1C
:104FE00010FA1ED40CF1010C10E05FED306A70462F
:104FF00000214FF0FF3390ED007AB5EE407AF1EEEC
:1050000010FA0ED00DF1700A4FF0000CB445DBD150
:10501000B4EEE67AF1EE10FA48BF0B4648BFF0EE68
:10502000476A0131462900F11000E4D1581C16D01E
:105030001CA901EB061002EB031101F2AC414B334A
:1050400009680160190102EB031300F1040C5058C8
:105050005968ACE803009868CCF80000013609F103
:105060000109B9F1040F01D0C145BEDB0EBB082018
:1050700026F01AFE00283FF40EAE734B4361734BCB
:1050800083610323037446748674C67403E6D346AF
:10509000DBED007A77EEC77A0AF1100AF0EEE77AD4
:1050A000F4EEE57AF1EE10FA3FF568AF0CF1010C81
:1050B00058E7012E20D11DAB93E80700B0EE480A57
:1050C00084E807000CF054FD07EB401383ED008AE1
:1050D0004FEA401C94E807000CF1040EBE440CF1AA
:1050E000100C8EE80700002207EB0C0147F80C209B
:1050F000C1E901221E7709E61CABDFED557A19469E
:105100000022084690ED007A0132B24277EE877AAB
:1051100001F11001F5D107EE106AF8EEC74A194601
:10512000C7EEA45A0022DFED4A7A084690ED007AD5
:10513000013237EE657AB24247EE077A01F110018B
:10514000F3D10DF158089FED434ADFED413A88ED68
:10515000006AC44604F10C0E224688ED016A88ED0F
:10516000026ADFED3B6A1846002190ED017A0131B9
:10517000B14276EE876A00F11000F6D186EEA47A8D
:1051800019460020A4EB020A9FED316AD1ED016AB5
:1051900001EB0A0999ED005A76EEC76A35EE655AB9
:1051A0000130B04205EE266A01F11001EED1F4EEB5
:1051B000C47AF1EE10FAC8BFC6EE276A03F1040301
:1051C00038EE656AD8BFF0EE636A06EE267AECEC3C
:1051D000016AA2EC017A9645C3D1B0EE480A0CF000
:1051E000C7FC07EB4016430186ED008A1A1D1744E1
:1051F00094E8070087E80700174A134498E8070077
:1052000083E807000123337780E5012D2DAE25D1FA
:1052100096E80700B0EE480A84E807000CF0A8FC06
:1052200007EB401383ED008A460194E8070006F17E
:10523000040CBC4410368CE807000022B919BA519E
:10524000C1E901221D7760E530A404003AD40400CE
:10525000000000006F12833AE05A00200023002271
:1052600043EC172B8DED047B8DED027BCDE91623EE
:10527000CDE91823CDE91A23CDE91C23CDE91E235E
:10528000CDE92023CDE9002300230893F068FCF743
:1052900033FA56ED017A77EEC87ACDE90A0117EEB6
:1052A000900AFCF729FADDE90A2380468946DDE900
:1052B0000001FCF7C3F8DDE90A23CDE9000140460F
:1052C0004946FCF771FA02460B46CDE90601DDE9D5
:1052D0000201FCF7B3F84246CDE902014B46DDE995
:1052E0000601FCF761FA0B460246DDE90401FCF712
:1052F000A5F816AB0D93CDE904011CABDDF834B075
:105300000E939A460F9600270F9B53F8040B0F93AA
:10531000FCF7F2F9DBE9008902460B46CDE91023E0
:10532000DDE90A23FCF740FA42464B46FCF786F8D3
:10533000DAE90089DDE91023EBE80201DDE9060185
:10534000FCF732FA42464B46FCF778F80137032F58
:10535000EAE80201D8D1089B0133AB42089306F179
:10536000140693D1DDE90023DDE90401FCF71CFA02
:10537000DDE9022306460F4610461946FCF714FAEB
:1053800002460B4630463946FCF756F847A3D3E9A8
:1053900000238B4621F000418246FCF777FC00B3E6
:1053A000DDE90023DDE91601FCF728FBFCF7F4FC3E
:1053B000DDE900232060DDE91801FCF71FFBFCF7A5
:1053C000EBFCDDE900236060DDE91A01FCF716FB68
:1053D000FCF7E2FCB0EE480AA0600CF0C9FB324FCB
:1053E000BAE425460DF14C0804F10C090D9BB3EC11
:1053F000027B0D930E9BF3E8026751EC170B0E93A3
:10540000DDE904238DED067BFCF7CEF9DDE902230F
:10541000CDE9080130463946FCF7C6F902460B468D
:10542000DDE90801FCF708F852465B46FCF7E6FAAE
:10543000FCF7B2FCDDE9002345F8040B39463046A1
:10544000FCF7B2F9DDE9022306460F46DDE9060165
:10545000FCF7AAF902460B4630463946FBF7ECFF4B
:1054600052465B46FCF7CAFAFCF796FC4D4548F8F5
:10547000040BBBD1B0EE480A0CF07AFB0A4E06EBE7
:10548000401585ED008A430194E807001F1D37444D
:1054900087E8070013AA07CA1036334483E80700D9
:1054A00001232B7731E400BFD05A0020BBBDD7D9F0
:1054B000DF7CDB3D000000002DE9F04F2DED068B79
:1054C000A3B016ACCDE90D1209900C934FF4004235
:1054D000002320460CF0D4FE68B994E8070019AB0D
:1054E0001CAC83E807004FF40042002320460CF078
:1054F00025FF834638B16FF0010B584623B0BDEC51
:10550000068BBDE8F08F94E8070022AB03E90700A3
:105510001DF0B2FCB4EE400AF1EE10FAB0EE408A93
:1055200080F1CA80FBEE047AB4EEE70AF1EE10FADD
:1055300040F3C280DFEDBE7AB4EEE70AF1EE10FA76
:1055400040F1BA80B0EE409A3BF05BF9CDE9100132
:105550001DF0B6FCF0EE409A1DF09EFCC9EE807A7C
:10556000B6EE007A77EE877A19EE900AFDEEE77ACA
:10557000F0EE408A17EE903A012BB8BF0123089352
:10558000FCF7BAF8CDE90A010C2026F08DFB0546A0
:1055900098B19DED0A7BA74B436180ED067B18EE29
:1055A000900AFCF7A9F8089BAB62C5E9080107233C
:1055B0002B7400236B74AB74EB74002328469E4954
:1055C0009FED9EAADFED9AAA4FF463523DF0F3F9E6
:1055D0009FED957B0C9B8DED047B8DED027B8DED1E
:1055E000007B8DED067B0025DB172E462F46AA4655
:1055F0002C460F933BF005F9109BB0EB0308119B71
:1056000061EB03090C9B98450F9B79EB030358DB77
:10561000082026F049FB50B1894BC0F81C90C0E926
:10562000053804230374002343748374C374002374
:105630004FF4035280493DF0BEF9082026F034FBB8
:1056400040B1804BC0E90537032303740023437442
:105650008374C374784900234FF4C6523DF0ABF90C
:10566000DDED327A9FED787AF8EEE76AC6EE877A5A
:1056700027EEA90AFDEEC07A17EE904AA74280F203
:1056800054810C2026F010FB78B1704BC4619DED65
:105690000A7BC0E90537329B836280ED087B0723D4
:1056A0000374002343748374C374634900234FF469
:1056B00062523DF080F91EE79FED659A9FED658A85
:1056C00042E7FDEEE97A013517EE903A9D4203DBA1
:1056D000072022F099F90025329B329ADB1790457A
:1056E00079EB030313DB94B10A2026F0DDFA50B105
:1056F000594BC0E90797C0E9053805230374002317
:1057000043748374C37400234FF4235292E7089BBD
:10571000B3424FDC40F6CD42002313A80CF0B0FD9D
:10572000064600287FF4E7AE13AB16AA19A98046F7
:10573000B3EC017AF2EC017AB4EEE77AD1ED007ABB
:10574000F1EE10FAB4EE677A48BF02ED017AF1EE9D
:1057500010FAC8BFF0EE477A12ED017AE1EC017A57
:1057600077EEC78AF4EECA8AF1EE10FA1DDD0A2040
:1057700026F09AFA044670B1384BC4E9053818EEA1
:10578000900AFBF7B9FF0623C4E90801237400233C
:105790006374A374E374284900234FF443522046F2
:1057A0003DF009F94FF0FF3BA7E608F10108B8F119
:1057B000030FBDD140F6CD42002313A80CF0BEFD6F
:1057C0000136804600287FF496AE13AB1CAA1FA9B1
:1057D000F7EE086AB3EC017AF2EC017AB4EEE77AFC
:1057E000D1ED007AF1EE10FAB4EE677A48BF02ED1F
:1057F000017AF1EE10FAC8BFF0EE477A12ED017AA5
:10580000E1EC017A77EEC78AF4EEE68AF1EE10FA5F
:1058100028DD0A2026F048FA04460028BBD0104BA9
:10582000ABE700BFAFF30080000000000000000005
:1058300000007042F4A50400544E04008FC2753D70
:1058400044A60400F7A6040000007A440DA7040053
:10585000000080FF0000807F68A60400A4A604006A
:10586000CEA6040008F10108B8F1030FB2D11398D5
:10587000FBF742FF02460B46DDE90001FBF7DEFDC8
:10588000CDE900011498FBF737FF02460B46DDE92E
:105890000201FBF7D3FDCDE902011598FBF72CFFC0
:1058A00002460B46DDE90401FBF7C8FDCDE9040122
:1058B0001DF0E2FAB4EE400AF1EE10FAF0EE408A82
:1058C00031D6FBEE047AB4EEE70AF1EE10FA2ADDE7
:1058D000B4EEEA0AF1EE10FA25D510EE100AFBF745
:1058E0000BFF02460B46DDE90601FBF7A7FDF4EED0
:1058F000488AF1EE10FAF4EE498A48BFB0EE688AA1
:10590000F1EE10FAC8BFB0EE689A39EE487AF7EEB9
:10591000007AB4EE677ACDE90601F1EE10FA0AF1E9
:10592000010AA8BF0124013764E6BAF1000F28D0AC
:105930005046FBF7CFFE02460B46DDE90601FCF7B9
:105940005DF8FCF729FA0D9B054618600A2026F041
:10595000ABF9044670B1324B43612846FBF7CCFEED
:105960000523C4E9060123740023C4F820A063744E
:10597000A374E3742B4900234FF4235220463DF0D7
:105980001AF80E9B79EE488A0C20C3ED008A26F0A7
:105990008BF90446C8B1244B436118EE900AFBF71B
:1059A000ABFEC4E9060118EE100AFBF7A5FEC4E938
:1059B000080119EE100AFBF79FFE0823C4E90A014B
:1059C000237400236374A374E374002344F2C002BD
:1059D000204614493CF0EFFF3846FBF77BFE0246B9
:1059E0000B4604460D46DDE90001FCF707F8FCF71D
:1059F000D3F9099B224618602B46DDE90201FBF72B
:105A0000FDFFFCF7C9F9099B224658602B46DDE9EA
:105A10000401FBF7F3FFFCF7BFF9099B98606CE505
:105A20005CA70400544E04008BA704000000000093
:105A30002DE9F04F2DED068BADF2244D0CF05CFB03
:105A400006463AF0DEFE3F2E04460D4645DDBC4BD1
:105A5000BC48D3E90076D0E900239E4208BF9742B4
:105A60003BD0B949D1E90023012A73F1000C07DBCF
:105A7000A21A65EB0303B2F5706F73F100032CDB20
:105A8000C0E900760023C1E90045B048089306A9A3
:105A9000CDE9063322F020F9B5EE400AF1EE10FA16
:105AA000AB4EF0EE408A1ED00EF092F9DFEDA97AEF
:105AB000B4EEE70AF1EE10FAD6E90023B0EE408A20
:105AC00013D552EA030108D0A21A40F6B83165EBAB
:105AD00003038A4273F1000307DA0DF2244DBDEC93
:105AE000068BBDE8F08FB7EE008AD6E90023012AC5
:105AF00073F1000108DBA21A40F6B93165EB03032C
:105B00008A4273F1000378DAF5EE408AF1EE10FA7A
:105B100073D0DFED917AB4EEE78AF1EE10FA6CD52E
:105B20008E4B1E68022E68DDDFED8D7AB4EEE78ABB
:105B3000F1EE10FA1BD50A2026F0B6F8044670B133
:105B4000884B436118EE100AFBF7D6FD0523C4E924
:105B500006012374002326626374A374E374002394
:105B60004FF42352804920463CF025FFB5E70DF065
:105B70004DF8DFED7E7AB4EEE70AF1EE10FA10EEA2
:105B8000107A21D50E2026F08FF80446C0B1784B4C
:105B9000436118EE100AFBF7AFFD67A3D3E90023BA
:105BA000C4E90601C4E908233846FBF7A5FD09232B
:105BB000C4E90A012374002326636374A374E374A5
:105BC000002344F6C002CDE7082026F06DF8064613
:105BD00060B1684B43613846FBF78EFD0423C6E98C
:105BE0000601337400237374B374F3745E490023A5
:105BF0004FF4035230463CF0DEFE4FF44872002171
:105C000040A83EF02CF94FF0000A4FF0000B4FF087
:105C1000000834A8CDE904ABCDE90988CDF82C8083
:105C20000CF0A6FA34A857EC106B0CF079FACDE919
:105C300018ABDFF850A18DED010A50460CF044FA84
:105C4000002875D108F10108B8F1080F0AF1D00A4F
:105C5000F3D1494B002230463946FCF717F880460D
:105C600000287FF43AAF9DED017AF6EE007AB4EEAB
:105C7000E77AF1EE10FA40F187800C2026F014F854
:105C80000446B8B13D4B43610198FBF735FD3C4BF1
:105C90000022C4E90601C4E9082330463946FCF76E
:105CA00033F80723A062237484F8118084F81280EB
:105CB00084F8138000234FF4635253E759F8040C1F
:105CC000FBF71AFD41EC1A0B59F8080CFBF714FD11
:105CD00041EC190B59F80C0CFBF70EFDB0EE4A2AFB
:105CE000F0EE6A2AB0EE491AF0EE691A41EC100B98
:105CF00018AA04A940A81AF0F5FD59F80C3C1C9309
:105D000059F8083C1D9328AA59F8043C1E931CA975
:105D100034A83AF009FE28A909A83AF04EFD0BF183
:105D2000010B9AF8C1309B4509F10C09C6DB89E7E4
:105D3000D1464FF0000BF4E7000000A09999A93F6D
:105D4000381B0020301B0020281B0020A0600020F2
:105D5000081B00200AD7233DCDCC4C3D0C60002011
:105D6000295C0F3D3BAE0400544E0400CDCCCC3D2D
:105D70006BAE0400B0AE040000005040ECAE040076
:105D80000000E03F401B002032463B46DDE90401B5
:105D9000FBF734FEFCF700F8F5EE408AF1EE10FA5E
:105DA00009EE900A4DD0DFF88093D9F80030002B2F
:105DB00047DDDFF8788398ED00AAB5EEC0AAF1EED2
:105DC00010FA3EDD89EE8A9AF7EE047AB4EEE79A8D
:105DD000F1EE10FA06DCDFEDC87AB4EEE79AF1EEE8
:105DE00010FA2ED50C2025F05FFF0446C8B1C34B36
:105DF00043611AEE100AFBF77FFCC4E9060119EEB5
:105E0000900AFBF779FCC4E9080119EE100AFBF7C8
:105E100073FC0823C4E90A01237400236374A37488
:105E2000E3740023B6494FF4814220463CF0C3FDA1
:105E30000CF054FF0023C9F800300023C8F80030EC
:105E40004BE600224FF0804330463946FBF71EFFF9
:105E5000B7EE009A002864D139463046FBF79CFF24
:105E600007EE900A89EE277ADDED0A7ADDED096A00
:105E70009DED0B6A67EE277A67EE266A27EEA70A82
:105E800006EEA60A27EE067A07EE070A37F036FD79
:105E900010EE100AFBF730FC804689463046394642
:105EA000FBF732FF82460C2025F0FEFE8346A0B1B0
:105EB000944B43610198FBF71FFC0723CBE90601D4
:105EC000CBE908898BF810300023CBF828A08BF899
:105ED00011308BF812308BF81330894900234FF4BE
:105EE000635258463CF067FD47EC116B9DED040B87
:105EF0001CA940A80CF054F80646A8B90A2025F0C1
:105F0000D3FE48B1804B4674C0E90889C0E9053A20
:105F1000062303748674C67400234FF443527849F1
:105F200022E619EE100AB5E7F5EE408AF1EE10FA16
:105F3000764E00F04B82D6E90023012A73F100016E
:105F400009DBA21A41F2707165EB03038A4273F117
:105F50000003FFF6C2AD1CA80CF050F9DFED6C7A1F
:105F6000B4EEE70AF1EE10FA2DDA9FED737ADFED69
:105F7000697AB4EEC70AF1EE10FA09D930EE470A91
:105F80009FED657AC0EE076A9FED647A46EE877AE8
:105F9000634B39EE679A00221CA98F1834A9881820
:105FA00003F10C01B7EC017AF3EC016A27EE877A72
:105FB00009EE267A9942A0EC017AF3D10C32302A0C
:105FC00004D00B46E8E7DFED577AE1E70023CDE99F
:105FD0000C330E93379B0F933B9B10930FA83F9B63
:105FE00011933BF02CFCDDED0F7ADDED108A8DED89
:105FF000120AF0EEE77AF0EEE88AF4EE687AF1EE53
:1060000010FAC8BFF0EE678ADDED117A8DED130A44
:10601000F0EEE77AF4EEE87AF1EE10FAB0EE409A9C
:106020008DED140A0CA9B7EE000A34A858BFF0EEA3
:10603000678A21F06DFE002840F080801F9B159339
:10604000239B169315A8279B17933BF0F8FBDDEDD8
:10605000157ADDED168A8DED180AF0EEE77AF0EE8E
:10606000E88AF4EE687AF1EE10FAC8BFF0EE678ABB
:10607000DDED177A8DED190AF0EEE77AF4EEE87AA5
:10608000F1EE10FAB0EE409A8DED1A0A0CA9B7EEB7
:10609000000A1CA858BFF0EE678A21F039FE0028DC
:1060A00000F05A81DFED227A9FED220A29EE279A2D
:1060B00018A9B4EEC09AF1EE10FAC8BFB0EE490AC2
:1060C00015A821F025FE002800F04681F2EE007AA6
:1060D000F4EEE78AF1EE10FA00F23E810DF1700C59
:1060E000BCE80F0028AF0FC7BCE80F000FC79CE843
:1060F0000F0087E80F004AE0CDCC4C3F3AAF0400D8
:10610000544E040095AF0400D2AF0400181B0020C9
:10611000EC51783F3333333F90C2F53DE17A14BF01
:10612000A06000208FC2F53D0C60002008600020B8
:10613000CDCC4C3ECDCCCC3D9A99593F5FED047A05
:106140001FED040A29EE279A12A9B4EEC09AF1EEC7
:1061500010FAC8BFB0EE490A0FA821F0D9FD0028F7
:106160003FF46CAFF2EE007AF4EEE78AF1EE10FA4B
:106170003FF664AF34AF0FCF0DF1A00CACE80F00C9
:106180000FCFACE80F0097E80F008CE80F001CA8B9
:106190000CF034F85FED187AA14F8DED010AB4EEE2
:1061A000E70AF1EE10FAD7F800B022D510EE100A87
:1061B000FBF7A2FABBF1020FCDE9020100F3DC808C
:1061C0000A2025F071FD70B19DED027B954B436176
:1061D0000BF10103036280ED067B052303740023AA
:1061E00043748374C374904900234FF423523CF0EA
:1061F000E2FB3B6802930E2025F056FD8346E0B19A
:10620000029B8A4A42610133C0E9063AC0E9088923
:1062100018EE100AFBF770FACBE90A010198FBF7B8
:106220006BFA0A23CBE90C018BF8103000238BF8B2
:1062300011308BF812308BF813307B49002345F274
:10624000C00258463CF0B7FB0DF1A00CBCE80F00B3
:10625000DFF8F0E1AEE80F00BCE80F00AEE80F0099
:106260009CE80F000DF1A0088EE80F00B8E80F00C1
:106270000DF1700EAEE80F00B8E80F00AEE80F00A9
:106280009CE80F008EE80F000CF028FD3B68C6E983
:10629000004501333B60664BC3ED009A10F0E0F817
:1062A0001CF076FB634B644A00241C6000231360DF
:1062B000624A1360624B634A19680520302301F576
:1062C0008A7120F089FA1CF049FB062025F0ECFCCD
:1062D00030B15D4B43610223037444748474C4740D
:1062E000514900234FF486523CF065FB1CAC032659
:1062F000002754F804BB0E20D4F808A0D4F814905A
:10630000D4F8208025F0D0FC0546D0B14F4B436136
:106310005846FBF7F1F9C5E906015046FBF7ECF9E1
:10632000C5E908014846FBF7E7F9C5E90A01404617
:10633000FBF7E2F9C5E90C010A232B746F74AF7403
:10634000EF743949002345F2C00228463CF033FB84
:10635000013ECED1FFF7C1BB062025F0A5FC38B128
:106360003B4B436102230374002343748374C3745F
:1063700000234FF48452D2E518EE100AFBF7BCF963
:10638000DFED347AB4EEE78AF1EE10FA04460D46FA
:106390004FF00A0014D525F087FC68B12E4B4361FD
:1063A0009DED027B062380ED067BC0E90845037462
:1063B000002343748374C37400234FF44252AEE548
:1063C00025F072FC0028F7D0244BE8E70A2025F0DE
:1063D0006BFC50B1224BC0E90889C0E9053A06239D
:1063E0000374002343748374C3740F49154F00234F
:1063F0004FF443523CF0DFFA0DF1700CBCE80F0093
:106400000FC7BCE80F000FC79CE80F0087E80F001C
:106410000CF064FC024B0122C6E900451A603AE721
:106420000C6000204BB00400544E040052B1040034
:106430000860002010600020186000201460002018
:10644000D0060020A0600020E7B1040023AD0400C6
:1064500012B00400CDCC4C3D87B00400EEB0040077
:10646000A2B10400000000002DE9F04F2DED048BD7
:106470000021BDB0072021F04BFA0CF04DFD1BF0C0
:1064800037FD04463AF0BDF905460E465CB942F2C6
:106490001077072021F0B8FA0A203AF035FA1BF0FD
:1064A00027FD0446B0B1B44D2B68B3F84849032C1E
:1064B00039D80021012208460CF044FE01210020B9
:1064C0000CF0D4FE1CF044FAF0B1012100200DF0D4
:1064D00007FB19E03AF095F9401B61EB0601B84261
:1064E00071F10001D5DB062025F0DEFB30B1A34BB6
:1064F00043610223037444748474C474A049002368
:106500004FF486523CF057FA00200CF03FF8431E3F
:106510000D90042B01F25E80DFE813F0600077003D
:10652000B2006902AC03462C1DD90A2025F0BCFB41
:1065300060B1944B4361944BC0E906344623036237
:1065400005230374002343748374C37400234FF43E
:1065500021528B493CF02FFA2B680022A3F84829DE
:1065600083F84A29A5E71CF087FCB4EE400AF1EE57
:1065700010FAB0EE408A1ED6082025F095FB04469E
:1065800068B1824B436118EE100AFBF7B5F804239B
:10659000C4E90601237400236374A374E374784987
:1065A00000234FF4035220463CF005FAB0EE480AAF
:1065B0000BF088FB7DE7062025F076FB38B1744BA5
:1065C000436102230374002343748374C3746C49CE
:1065D00000234FF484523CF0EEF96AE701212020B9
:1065E0001FF07EFE0EF070FA4FF0FF300BF0CEFF82
:1065F000002120201FF074FE664B93F87534022BA7
:1066000041F0568401230D9313E0012120201FF057
:1066100067FE0CF097FE4FF0FF300BF0B7FF002144
:1066200020201FF05DFE5B4B93F87534022B41F088
:106630003F84514B574C1B68D4F87024B3F8483949
:106640009A424FF0000501F01584A4F87454082014
:10665000D4F8844425F028FB50B14F4BC0E90534F1
:106660004723C36104230374002343748374C374F6
:10667000434900234FF403523CF09DF901F0E6BB7F
:10668000202001211FF02CFE062025F00DFB38B143
:10669000424B436102230374002343748374C37425
:1066A000374900234FF486523CF085F91CF0E4FB97
:1066B000B4EE400AF1EE10FAB0EE408A0DD6FBEED1
:1066C000047AB4EEE70AF1EE10FA06D4DFED347A7C
:1066D000B4EEE70AF1EE10FA14DD082025F0E4FA32
:1066E00048B1304B4361304B836103230374002373
:1066F00043748374C374224900234FF4C2523CF0A4
:106700005AF988E70BF078FE1B4C0546002851D15A
:10671000062025F0C9FA30B1244B436102230374EB
:1067200045748574C57400234FF4845214493CF0B9
:1067300042F9226892F84E390133DBB2012B82F81C
:106740004E397FF668AF082025F0AEFA48B1184BF5
:10675000436102238361032303740023437483741E
:10676000C37400234FF4C45205493CF024F9236854
:10677000012283F84D294EE7D00600201CBA040000
:10678000544E04005CBA040051D4040092BA0400D0
:10679000DBBA0400745B002054CA04000FBB040081
:1067A0000000704233BB0400DFD3040055BB04007B
:1067B00075BB04004FF4FA703AF0A6F8062025F0F5
:1067C00073FA38B1AE4B4361022303740023437460
:1067D0008374C374AB4900234FF486523CF0EBF84A
:1067E000A94B309340F6B833009330AA41F2883376
:1067F0002AA92DA8FEF760FE834600287BD0B0F1C1
:10680000FF3F50D1062025F04FFA38B19F4B43612E
:1068100002230374002343748374C37400234FF46E
:10682000865298493CF0C7F8226892F84E390133F5
:10683000DBB2012B82F84E397FF6EDAE082025F051
:1068400033FA48B1924B43610223836103230374FB
:10685000002343748374C3748A4900234FF4C452E1
:106860003CF0A9F830A8B0EE480A0EF089F80546C9
:1068700000287FF47CAF062025F016FA30B1854B56
:1068800043610223037445748574C5747D490023F4
:106890004FF486523CF08FF82368012283F84D298B
:1068A0003AF05CF8B7E610F1020F11D1082025F09C
:1068B000FBF948B1784B4361784B83610323037440
:1068C000002343748374C37400234FF4C252A8E7B7
:1068D00010F1030FA8D1062025F0E6F938B1704B6E
:1068E000436102230374002343748374C37400233D
:1068F0004FF4845295E79DED2A8ADDF8B4A0DDF8C7
:10690000B890DDF8BC8018EE100AFAF7F5FE0646DE
:106910001020309D0F4625F0C7F90446F8B1614BB1
:1069200043615046FAF7E8FEC4E906014846FAF723
:10693000E3FEC4E908014046FAF7DEFEC4E90C674D
:10694000C4E90A012846FAF7D7FEC4E90E010C2370
:10695000237484F811B084F812B084F813B0204680
:106960004849514C002346F2C0023CF024F8B0EEF6
:10697000480A2DA80EF0E0FC054688B1082025F055
:1069800093F948B1494B4361494B83610323037435
:10699000002343748374C37400234FF4C252E3E6AC
:1069A0002368012283F84D29424B83ED008A39F098
:1069B00028FF414B8046C3E900010A200C4625F020
:1069C00073F950B13D4B4361C0E90667C0E90884E3
:1069D0000623037445748574C57400234FF4435231
:1069E00028493BF0E8FF00201BF0C2FF13E62020FF
:1069F00001211FF075FC062025F056F938B1304B07
:106A0000436102230374002343748374C3741D49D8
:106A100000234FF486523BF0CEFF1CF02DFAB4EE6B
:106A2000400AF1EE10FA0DD6FBEE047AB4EEE70A56
:106A3000F1EE10FA06D4DFED237AB4EEE70AF1EEB8
:106A400010FA47DD082025F02FF948B11E4B4361AD
:106A50001E4B836103230374002343748374C37444
:106A600000234FF4C25207493BF0A5FF39F0C9FE9D
:106A7000174A114B801861F10001C3E90001CAE512
:106A8000A8BB0400544E04000000C07FDCBB04001F
:106A9000AABC0400D2BC040008BC0400C6D3040095
:106AA00030BC040061BC0400D00600201BBD040003
:106AB000DFD30400D8060020001B002046BD0400E0
:106AC00082BD040000007042C1BD040085D30400F3
:106AD000D08AFFFF082025F0E7F840B1A44B4361BE
