:020000022000DC
:10700000002601207D210500B75F060069210500EB
:1070100069210500692105006921050000000000C3
:10702000000000000000000000000000192305001F
:107030006921050000000000852205006921050086
:10704000ED250500417E0500ED250500ED25050037
:10705000ED250500ED250500ED250500ED250500D4
:10706000ED250500ED25050049BA0500ED250500D3
:10707000ED250500ED250500ED250500ED250500B4
:10708000ED250500ED250500ED250500ED250500A4
:10709000A57E0500ED250500ED250500ED25050083
:1070A000ED250500ED250500ED250500ED25050084
:1070B000ED250500ED250500ED250500ED25050074
:1070C000ED250500ED250500ED250500ED25050064
:1070D000ED250500ED250500ED250500ED25050054
:1070E000ED250500ED250500ED250500ED25050044
:1070F000ED250500ED250500ED250500ED25050034
:1071000001F0FF01102A2BDB10F0070F08D010F858
:10711000013B013A8B422DD010F0070F42B3F6D15C
:10712000F0B441EA012141EA014122F007047FF075
:1071300000070023F0E80256083C85EA010586EACC
:10714000010685FA47F5A3FA87F586FA47F6A5FA08
:1071500087F68EB9EED1F0BC01F0FF0102F0070214
:1071600032B110F8013B013A83EA010313B1F8D1BF
:107170000020704701387047002D06BF35460338A0
:10718000073815F0010F07D1013015F4807F02BFD9
:10719000013015F4C03F0130F0BC0138704700BF2A
:1071A000014B1B685B68184700050020014B1B68FA
:1071B0009B68184700050020014B1B681B69184796
:1071C00000050020014B1B685B6918470005002083
:1071D000014B1B689B69184700050020014B1B6889
:1071E000DB69184700050020014B1B681B6A184724
:1071F00000050020014B1B689B6A18470005002012
:1072000030B4044C9DF8085024680295E468A44604
:1072100030BC60470005002030B50246114890F9A7
:107220001C3093421ADD90F92430934218DAD31AB5
:10723000856A0D4CE85C235693420ED00E3400292B
:107240000CBF0346431CA542D8B206D129B1013A6E
:10725000D2B2012A01D80130C0B230BD0D20FCE706
:107260000020FAE7C80F00200C83060008B5054B84
:1072700093F91C30984203DAFFF7CEFF024B1B56FE
:10728000184608BDC80F00200C83060010B51C4C22
:1072900094F82C3073B9012384F82C3000F09EF858
:1072A00048B1184BA362D823236284F82430082302
:1072B000A361237710BD00F0A7F80028F1D100F0FA
:1072C000ADF80028EDD100F06BF838B10E4BA36299
:1072D000D823236284F824300423E9E700F06AF815
:1072E0000028F3D100F070F80028EFD100F080F80A
:1072F0000028EBD140F2BF11742000F019F800BF54
:10730000C80F0020478306001A830600BFF34F8F83
:107310000549064BCA6802F4E0621343CB60BFF331
:107320004F8F00BFFDE700BF00ED00E00400FA054D
:107330001FB572B6134B5D688DB9FFF7E7FFB2FB5F
:10734000F6F2DCB20133002AF9D104F110036B44E8
:1073500003F80C2C0A2234B901A8A847EDE702462D
:1073600000230A26EDE7631E04AEDCB256FA83F36F
:10737000B0FBF2F602FB1600303003F80C0C30467E
:10738000E9E700BF681400204FF08052034BD2F8A9
:1073900030111960D2F834215A607047A4140020CB
:1073A000034B1868A0F10F0358425841704700BFC3
:1073B000A4140020034B1868A0F10A035842584156
:1073C000704700BFA4140020034B1868A0F10E03FF
:1073D00058425841704700BFA4140020034B18685E
:1073E000A0F1100358425841704700BFA414002078
:1073F000044B1868062803D0431C58425841704774
:1074000001207047A4140020034B1868A0F10D035D
:1074100058425841704700BFA4140020034B18681D
:10742000A0F1080358425841704700BFA41400203F
:1074300081F0004102E000BF83F0004330B54FEA25
:1074400041044FEA430594EA050F08BF90EA020F92
:107450001FBF54EA000C55EA020C7FEA645C7FEA25
:10746000655C00F0E2804FEA5454D4EB5555B8BF48
:107470006D420CDD2C4480EA020281EA030382EAB9
:10748000000083EA010180EA020281EA0303362D4B
:1074900088BF30BD11F0004F4FEA01314FF4801C1E
:1074A0004CEA113102D0404261EB410113F0004F30
:1074B0004FEA03334CEA133302D0524263EB4303E7
:1074C00094EA050F00F0A780A4F10104D5F1200E85
:1074D0000DDB02FA0EFC22FA05F2801841F10001E0
:1074E00003FA0EF2801843FA05F359410EE0A5F1B4
:1074F00020050EF1200E012A03FA0EFC28BF4CF0E5
:10750000020C43FA05F3C01851EBE37101F000459A
:1075100007D54FF0000EDCF1000C7EEB00006EEBA7
:107520000101B1F5801F1BD3B1F5001F0CD3490831
:107530005FEA30004FEA3C0C04F101044FEA445288
:1075400012F5800F80F09A80BCF1004F08BF5FEA0F
:10755000500C50F1000041EB045141EA050130BDEF
:107560005FEA4C0C404141EB0101013C28BFB1F501
:10757000801FE9D291F0000F04BF01460020B1FA4C
:1075800081F308BF2033A3F10B03B3F120020CDA1F
:107590000C3208DD02F1140CC2F10C0201FA0CF0FD
:1075A00021FA02F10CE002F11402D8BFC2F1200C62
:1075B00001FA02F120FA0CFCDCBF41EA0C01904018
:1075C000E41AA2BF01EB0451294330BD6FEA040461
:1075D0001F3C1CDA0C340EDC04F11404C4F120024C
:1075E00020FA04F001FA02F340EA030021FA04F35E
:1075F00045EA030130BDC4F10C04C4F1200220FAB5
:1076000002F001FA04F340EA0300294630BD21FAF2
:1076100004F0294630BD94F0000F83F4801306BFB8
:1076200081F480110134013D4EE77FEA645C18BFAC
:107630007FEA655C29D094EA050F08BF90EA020F43
:1076400005D054EA000C04BF1946104630BD91EA3B
:10765000030F1EBF0021002030BD5FEA545C05D13E
:107660004000494128BF41F0004130BD14F580047D
:107670003CBF01F5801130BD01F0004545F0FE41F1
:1076800041F470014FF0000030BD7FEA645C1ABF26
:10769000194610467FEA655C1CBF0B46024650EA5D
:1076A000013406BF52EA033591EA030F41F4002189
:1076B00030BD00BF90F0000F04BF0021704730B50F
:1076C0004FF4806404F132044FF000054FF00001E4
:1076D00050E700BF90F0000F04BF0021704730B5A5
:1076E0004FF4806404F1320410F0004548BF40427A
:1076F0004FF000013EE700BF42004FEAE2014FEACF
:1077000031014FEA02701FBF12F07F4393F07F4FA9
:1077100081F06051704732F07F4208BF704793F0AC
:107720007F4F04BF41F40021704730B54FF46074BF
:1077300001F0004521F000411CE700BF50EA0102C2
:1077400008BF704730B54FF000050AE050EA01026B
:1077500008BF704730B511F0004502D5404261EBDB
:1077600041014FF4806404F132045FEA915C3FF41C
:10777000D8AE4FF003025FEADC0C18BF03325FEAB9
:10778000DC0C18BF033202EBDC02C2F1200300FA6A
:1077900003FC20FA02F001FA03FE40EA0E0021FA8F
:1077A00002F11444BDE600BF70B54FF0FF0C4CF47D
:1077B000E06C1CEA11541DBF1CEA135594EA0C0F2F
:1077C00095EA0C0F00F0DEF82C4481EA030621EA6A
:1077D0004C5123EA4C5350EA013518BF52EA0335A5
:1077E00041F4801143F4801338D0A0FB02CE4FF057
:1077F0000005E1FB02E506F00042E0FB03E54FF087
:107800000006E1FB03569CF0000F18BF4EF0010E7E
:10781000A4F1FF04B6F5007F64F5407404D25FEA7A
:107820004E0E6D4146EB060642EAC62141EA55512D
:107830004FEAC52040EA5E504FEACE2EB4F1FD0C6F
:1078400088BFBCF5E06F1ED8BEF1004F08BF5FEAED
:10785000500E50F1000041EB045170BD06F000469F
:1078600046EA010140EA020081EA0301B4EB5C044C
:10787000C2BFD4EB0C0541EA045170BD41F4801144
:107880004FF0000E013C00F3AB8014F1360FDEBF69
:10789000002001F0004170BDC4F10004203C35DA45
:1078A0000C341BDC04F11404C4F1200500FA05F3C8
:1078B00020FA04F001FA05F240EA020001F0004269
:1078C00021F0004110EBD37021FA04F642EB0601DF
:1078D0005EEA430E08BF20EAD37070BDC4F10C0409
:1078E000C4F1200500FA04F320FA05F001FA04F2CD
:1078F00040EA020001F0004110EBD37041F10001B9
:107900005EEA430E08BF20EAD37070BDC4F12005C3
:1079100000FA05F24EEA020E20FA04F301FA05F22B
:1079200043EA020321FA04F001F0004121FA04F2D3
:1079300020EA020000EBD3705EEA430E08BF20EAA3
:10794000D37070BD94F0000F0FD101F000464000DD
:1079500041EB010111F4801F08BF013CF7D041EA5F
:10796000060195F0000F18BF704703F00046520063
:1079700043EB030313F4801F08BF013DF7D043EA34
:107980000603704794EA0C0F0CEA135518BF95EAEA
:107990000C0F0CD050EA410618BF52EA4306D1D171
:1079A00081EA030101F000414FF0000070BD50EA90
:1079B000410606BF1046194652EA430619D094EA1A
:1079C0000C0F02D150EA013613D195EA0C0F05D104
:1079D00052EA03361CBF104619460AD181EA030158
:1079E00001F0004141F0FE4141F470014FF0000010
:1079F00070BD41F0FE4141F4780170BD70B54FF0AB
:107A0000FF0C4CF4E06C1CEA11541DBF1CEA13552A
:107A100094EA0C0F95EA0C0F00F0A7F8A4EB05040C
:107A200081EA030E52EA03354FEA013100F0888003
:107A30004FEA03334FF0805545EA131343EA1263CC
:107A40004FEA022245EA111545EA10654FEA002681
:107A50000EF000419D4208BF964244F1FD0404F53A
:107A6000407402D25B084FEA3202B61A65EB030596
:107A70005B084FEA32024FF480104FF4002CB6EB53
:107A8000020E75EB030E22BFB61A754640EA0C00D3
:107A90005B084FEA3202B6EB020E75EB030E22BF13
:107AA000B61A754640EA5C005B084FEA3202B6EB54
:107AB000020E75EB030E22BFB61A754640EA9C0013
:107AC0005B084FEA3202B6EB020E75EB030E22BFE3
:107AD000B61A754640EADC0055EA060E18D04FEAA1
:107AE000051545EA16754FEA06164FEAC30343EA41
:107AF00052734FEAC2025FEA1C1CC0D111F4801F0E
:107B00000BD141EA00014FF000004FF0004CB6E706
:107B100011F4801F04BF01430020B4F1FD0C88BFA5
:107B2000BCF5E06F3FF6AFAEB5EB030C04BFB6EBB0
:107B3000020C5FEA500C50F1000041EB045170BDA3
:107B40000EF0004E4EEA113114EB5C04C2BFD4EBD0
:107B50000C0541EA045170BD41F480114FF0000E54
:107B6000013C90E645EA060E8DE60CEA135594EAD0
:107B70000C0F08BF95EA0C0F3FF43BAF94EA0C0FD3
:107B80000AD150EA01347FF434AF95EA0C0F7FF448
:107B900025AF104619462CE795EA0C0F06D152EA9C
:107BA00003353FF4FDAE1046194622E750EA410680
:107BB00018BF52EA43067FF4C5AE50EA41047FF491
:107BC0000DAF52EA43057FF4EBAE12E74FF0FF3CF6
:107BD00006E000BF4FF0010C02E000BF4FF0010CC7
:107BE0004DF804CD4FEA410C7FEA6C5C4FEA430C40
:107BF00018BF7FEA6C5C1BD001B050EA410C0CBF8F
:107C000052EA430C91EA030F02BF90EA020F0020F0
:107C1000704710F1000F91EA030F58BF994208BF57
:107C200090422CBFD8176FEAE37040F00100704714
:107C30004FEA410C7FEA6C5C02D150EA013C07D16B
:107C40004FEA430C7FEA6C5CD6D152EA033CD3D0B6
:107C50005DF8040B704700BF8446104662468C46B0
:107C60001946634600E000BF01B5FFF7B7FF0028E3
:107C700048BF10F1000F01BD4DF808EDFFF7F4FF0C
:107C80000CBF012000205DF808FB00BF4DF808ED97
:107C9000FFF7EAFF34BF012000205DF808FB00BFBA
:107CA0004DF808EDFFF7E0FF94BF012000205DF8DC
:107CB00008FB00BF4DF808EDFFF7CEFF94BF012091
:107CC00000205DF808FB00BF4DF808EDFFF7C4FF8A
:107CD00034BF012000205DF808FB00BF4FEA410CD3
:107CE0007FEA6C5C02D150EA013C0AD14FEA430CB6
:107CF0007FEA6C5C02D152EA033C02D14FF00000F3
:107D000070474FF0010070474FEA410212F5001230
:107D100015D211D56FF47873B3EB625212D94FEAD2
:107D2000C12343F0004343EA505311F0004F23FABC
:107D300002F018BF404270474FF00000704750EA11
:107D4000013005D111F0004008BF6FF000407047CE
:107D50004FF00000704700BF4A0011D212F5001228
:107D600011D20DD56FF47873B3EB62520ED44FEA93
:107D7000C12343F0004343EA505323FA02F0704713
:107D80004FF00000704750EA013002D14FF0FF3051
:107D900070474FF0000070474FEA4102B2F1E043F4
:107DA00024BFB3F5001CDCF1FE5C0DD901F0004CE2
:107DB0004FEAC0024CEA5070B2F1004F40EB830032
:107DC00008BF20F00100704711F0804F21D113F15E
:107DD0003872BCBF01F00040704741F480114FEA97
:107DE0005252C2F11802C2F1200C10FA0CF320FA20
:107DF00002F018BF40F001004FEAC1234FEAD3233D
:107E000003FA0CFC40EA0C0023FA02F34FEA4303A6
:107E1000CCE77FEA625307D150EA01331EBF4FF02F
:107E2000FE4040F44000704701F0004040F0FE404A
:107E300040F40000704700BF80F0004002E000BF47
:107E400081F0004142001FBF5FEA410392EA030F45
:107E50007FEA226C7FEA236C6AD04FEA1262D2EB8F
:107E60001363C1BFD218414048404140B8BF5B4294
:107E7000192B88BF704710F0004F40F4000020F02D
:107E80007F4018BF404211F0004F41F4000121F043
:107E90007F4118BF494292EA030F3FD0A2F101028D
:107EA00041FA03FC10EB0C00C3F1200301FA03F1CB
:107EB00000F0004302D5494260EB4000B0F5000FEE
:107EC00013D3B0F1807F06D340084FEA310102F1AD
:107ED0000102FE2A51D2B1F1004F40EBC25008BF5F
:107EE00020F0010040EA03007047490040EB000029
:107EF000013A28BFB0F5000FEDD2B0FA80FCACF12A
:107F0000080CB2EB0C0200FA0CF0AABF00EBC25056
:107F100052421843BCBFD0401843704792F0000F44
:107F200081F4000106BF80F400000132013BB5E797
:107F30004FEA41037FEA226C18BF7FEA236C21D00D
:107F400092EA030F04D092F0000F08BF0846704772
:107F500090EA010F1CBF0020704712F07F4F04D140
:107F6000400028BF40F00040704712F100723CBF53
:107F700000F50000704700F0004343F0FE4040F47D
:107F8000000070477FEA226216BF08467FEA23633B
:107F90000146420206BF5FEA412390EA010F40F426
:107FA000800070474FF0000304E000BF10F0004372
:107FB00048BF40425FEA000C08BF704743F0964359
:107FC00001464FF000001CE050EA010208BF704774
:107FD0004FF000030AE000BF50EA010208BF7047FB
:107FE00011F0004302D5404261EB41015FEA010C10
:107FF00002BF84460146002043F0B64308BFA3F108
:108000008053A3F50003BCFA8CF2083AA3EBC253E9
:1080100010DB01FA02FC634400FA02FCC2F1200208
:10802000BCF1004F20FA02F243EB020008BF20F03F
:108030000100704702F1200201FA02FCC2F12002A5
:1080400050EA4C0021FA02F243EB020008BF20EA9A
:10805000DC7070477BB972B90029BEBF00204FF0B9
:10806000004106E008BF00281CBF6FF000414FF040
:10807000FF3000F095B8ADF1080C6DE904CE002991
:1080800009DB002B1ADB00F005F9DDF804E0DDE97F
:10809000022304B07047404261EB4101002B1BDB1F
:1080A00000F0F8F8DDF804E0DDE9022304B0404216
:1080B00061EB4101524263EB43037047524263EB71
:1080C000430300F0E7F8DDF804E0DDE9022304B043
:1080D000404261EB41017047524263EB430300F0C1
:1080E000D9F8DDF804E0DDE9022304B0524263EB85
:1080F0004303704753B94AB9002908BF00281CBF81
:108100004FF0FF314FF0FF3000F04AB8ADF1080CEE
:108110006DE904CE00F0BEF8DDF804E0DDE90223ED
:1081200004B07047D0B5FFF7E7FA0C4B00220646C3
:108130000F46FFF739FBFFF70FFE0446FFF7BAFAC9
:10814000074B0022FFF730FB02460B46304639460C
:10815000FFF772F9FFF700FE2146D0BD0000F03DA9
:108160000000F041D0B50C4B002206460F46FFF749
:108170001BFBFFF7F1FD0446FFF79CFA074B0022BB
:10818000FFF712FB02460B4630463946FFF754F91B
:10819000FFF7E2FD2146D0BD0000F03D0000F041B8
:1081A000704700BF08B5FFF7EFF8BDE80840FFF7DC
:1081B0006DB870B5841A04F307040E4660B259B264
:1081C0001546FFF753F8002330702844737040B20F
:1081D00070BD0023036070477047002070474FF068
:1081E000FF3070474FF0FF30704770474FF0FF305F
:1081F00070470020704700207047002303707047CD
:108200009DF800300022FFF7D4BF002070474FF0E8
:10821000FF3070474FF0FF3070474FF0FF3070472E
:10822000704700280CBF6FF0150000207047002039
:10823000704707230370002070470020704700201C
:10824000704710F8012B11F8013B012A28BF9A4210
:10825000F7D0D01A7047034613F8012B002AFBD140
:10826000181A0138704738B50022002304460D461D
:10827000FFF70CFD28B920462946BDE83840FFF736
:1082800071BF204605F10041FFF76CFF404261EBF2
:10829000410138BD2DE9F04786468C460846089EC8
:1082A000154674461946002B40F0C2808542B2FA4A
:1082B00082F245D94AB1C2F1200300FA02FC2EFA3B
:1082C00003F3954043EA0C0C94404FEA154EA8B2D4
:1082D000BCFBFEF8230C0EFB18CC08FB00F943EAAC
:1082E0000C43994528D9EB1808F1FF3704D299457A
:1082F00002D9A8F102072B44A3EB0903A4B2B3FBF4
:10830000FEFC0EFB1C330CFB00F044EA0344A042CD
:1083100014D92C190CF1FF3304D2A04202D9ACF1CC
:1083200002032C44241A43EA07401EB1D440002320
:1083300034607360BDE8F0874746DDE76346F1E7E8
:1083400092BB431B01214FEA154EAFB2B3FBFEFCBB
:10835000200C0EFB1C330CFB07F840EA0343984546
:1083600062D9EB180CF1FF3004D2984502D9ACF178
:1083700002002B44A3EB0803A4B2B3FBFEFC0EFBEC
:108380001C330CFB07F744EA0344A7424ED92C19CF
:108390000CF1FF3304D2A74202D9ACF102032C4402
:1083A000E41B43EA0040C0E7C2F1200320FA03F1D6
:1083B000954090402EFA03F303434FEA154EAFB2B7
:1083C000B1FBFEFC0EFB1C10190C0CFB07F841EA7C
:1083D0000041884504FA02F422D969180CF1FF30F3
:1083E00004D2884502D9ACF102002944A1EB08016E
:1083F0009BB2B1FBFEFC0EFB1C110CFB07F743EA22
:1084000001439F420ED9EB180CF1FF3104D29F4279
:1084100002D9ACF102012B44DB1B41EA004192E797
:108420006046E3E76146F7E76046A3E76346B7E7E0
:10843000834206D916B9002108467BE7C6E900E069
:10844000F9E7B3FA83F78FB9834201D3724508D8AD
:10845000BEEB020460EB030301209C461EB9002121
:1084600068E73846FAE7C6E9004CF8E7C7F1200CA0
:10847000BB4022FA0CF41C432EFA0CF120FA0CF348
:10848000B84001434FEA14490EFA07F5B3FBF9F877
:108490001FFA84FE09FB18300B0C08FB0EFA43EAA6
:1084A00000439A4502FA07F240D9E31808F1FF3079
:1084B00004D29A4502D9A8F102002344A3EB0A038F
:1084C00089B2B3FBF9F809FB183308FB0EFE41EA49
:1084D00003418E452CD9611808F1FF3304D28E4533
:1084E00002D9A8F10203214443EA0040A0FB02980C
:1084F000A1EB0E014145CE46434602D306D14D4580
:1085000004D2B9EB020E68EB04030138002EA6D0AA
:10851000B5EB0E0261EB030101FA0CFC22FA07F342
:108520004CEA0303F940C6E9003198E74046C5E745
:108530004346D9E7000000002DE9F04F2DED048BF4
:1085400087B00678012E00AF1AD0022E00F0AE8060
:1085500086B9A84A136801331360A74B1E60A74B66
:108560001B783BB10BF07CFE20B930F007F908B165
:108570000CF006FE1C37BD46BDEC048BBDE8F08F49
:108580009F4C2368013323603BF041FA2468642246
:10859000B4FBF2F302FB13439A4A2BB1136841F286
:1085A0008831C31A8B421FD9924B10601E68A519DF
:1085B00018BF64234FF00A001CBF6343B3FBF5F5FB
:1085C00026F042FC50B1904BC0E90745C0E90536A2
:1085D00005230374002343748374C3748B490023FD
:1085E0004FF423523DF0A2FADFF86082884D98F8EC
:1085F0000030B3B13BF00BFA864AD2E90064861B27
:1086000061EB04040BF0BEFA64380023B04273EB54
:10861000040406DA804A88F8003013602B680133BE
:108620002B602E68BEB30A23B6FBF3F403FB14647D
:10863000ACB97A4B1B78F02B11D1082026F004FC42
:1086400038B1774B4474C0E905360323037484744E
:10865000C4746E4900234FF4C4523DF067FA2C688D
:10866000B4F5967F17D13BF0D2F96E4BC3E9000108
:10867000082026F0E9FB40B16B4BC0E90534032329
:108680000374002343748374C374604900234FF45C
:10869000C4523DF04BFA594B1B78002B3FF46AAFA4
:1086A0000BF0DEFD00287FF465AF61E75F4D2846E3
:1086B00030F016F910F13D0F04463FF45BAFA8B15E
:1086C000082026F0C1FB50B1594B4361594BC0E91A
:1086D000063404230374002343748374C374002397
:1086E0004FF4015249493DF021FA43E752492B78B2
:1086F0000A78002A43D1082B7FF43CAF4F4C2378F3
:10870000002B3FF437AF4E4B68795B79984201D02C
:1087100022702FE74FF000084FF00009C7E90489E5
:10872000B5F80B30BB82D5F80700BE8A38614FF030
:1087300080537E61D3F8A4C0D3F8A8309BB29E4288
:1087400008BF604514D1062026F07EFB38B13D4BB2
:10875000436102230374002343748374C3740023AE
:108760002A494FF484523DF0E1F90023237001E7D8
:10877000D5F805300B60D5F809304B60C8E70D2BF4
:1087800068D0112B3FF4F6AE032B40F2EF836B79E8
:10879000AA2B40F0EB830BF063FD002800F0E6838A
:1087A0002B78AA792148284CDFF8A4C0023B03EBC0
:1087B000D373C3F34703934228BF13460026F2B294
:1087C00093427FF6D7AEC279057A45EA02250022A8
:1087D00094F800E0D1B27145C0F0BD8322780F2A31
:1087E00000F2C1832278D1B20132D2B222702CF8C9
:1087F0001150B8E37058002078580020DEBA0020ED
:108800006C58002068580020319D06004C810600FD
:10881000045900204017002008590020201700208C
:108820005A9D0600281800207A9D0600E8BA00200C
:10883000BF9D06000BAB0600E0BA002035BB002050
:10884000210C0020E59D060024810020DDBA0020D7
:108850009A7E00206B79F12B7FF48CAE0C22691D7F
:10886000072024F02DF86B7C83420DD0062026F0E3
:10887000EBFA28B1A24B4361067444748474C47447
:1088800000234FF484522DE79E4B95F806901E78F6
:10889000DFF8C0824E452CD0082026F0D5FA48B12A
:1088A000994BC661C0E9053904230374002343745E
:1088B0008374C374954900234FF402523DF036F996
:1088C000934B002402201C70C8F8004021F0B4F93A
:1088D00001287FF44FAE2146022021F0FDF88D4B98
:1088E00000200021C3E900018B4B1C708B4B1C60E6
:1088F00040E6DFF864B295F807909BF80060844B7F
:10890000B6EB09064FF0000A4FF0020048BF06F52B
:108910008076C8F800A083F800A021F08DF9012826
:10892000DFF8F88111D1D8F800300133C8F80030F1
:108930006BB15146022021F0CFF89FED6F7B754B54
:1089400083ED007B744B83F800A0C8F800A0052ECF
:1089500016DD0A209BF8008026F076FA50B1704BA5
:10896000C0E90786C0E90539052303740023437471
:108970008374C374654900234FF422523DF0D6F846
:10898000AA68298995F808A0B5F809606B89654837
:1089900090F800C0CC4504D1D0F80480B8F1000FA5
:1089A00006D101340A2C00F10800F1D14FF0000883
:1089B0002C7B0C2C6DD1C9BA07EE901A9FED5A7A18
:1089C000F8EEE77ADBBA87EE878A204607EE903A20
:1089D000B5F80D30F8EEE77ADBBA87EE879A07EE46
:1089E000903AF8EEE77AC7EE878A26F02DFA064627
:1089F000C8B14E4B436118EE100AFEF77DFEC6E982
:108A0000060119EE100AFEF777FEC6E9080118EE16
:108A1000900AFEF771FE0823C6E90A0133740023A9
:108A20007374B374F37430463849002344F2C002BF
:108A30003DF07CF80026B2463D4B1978002940F005
:108A40009F811C703AF0E3FF3A4B0A2CC3E9000106
:108A500040F0A081D5F80D30374A1BBA6D468CB076
:108A600013606A463549136240F2DC535161536228
:108A700033494FF400731385324BC2E9061442F8B0
:108A8000103F00234FF45351204826F0BDFBAD4664
:108A900070E5242C62D1C6B9082026F0D5F938B18A
:108AA000294B4674C0E9053A032303748674C674DF
:108AB00000234FF4C65215493DF038F89FED238A44
:108AC000B0EE489AF0EE488AB6E776BA0820B6B219
:108AD00026F0BAF948B11E4BC661C0E9053A042335
:108AE0000374002343748374C37400234FF403524C
:108AF000E1E700BFAFF300800000000000000000CD
:108B0000219E060043B60020339E06004C810600DD
:108B1000DDBA00202818002036BB002008590020AC
:108B2000619E0600B45800200000C8428D9E0600D9
:108B3000DABA002038170020B05800205E9F0600E7
:108B4000A49F060006000001B69E0600000000007B
:108B5000EC9E060004590020DCBA0020B8F1000F9A
:108B600048D0994BDFF8B8E21868984BDEF80060FF
:108B7000DFF8B092A0EB080CACFB0313C90B41EA81
:108B80004341BCF1000F3BD0B44539D8CEF800C00A
:108B90000023C9F80030DEF800308C4E9B00A3FBA8
:108BA0000636DB0B43EA4643B3F57A7F38BF4FF412
:108BB0007A7399421ED2864B16BAC3F80080361AD1
:108BC0003AF025FF834B844AC3E900018349844B73
:108BD000087810BB1E60834BDFF810C218600123B9
:108BE000CCF80060C2F800800B707F4B01221A7035
:108BF0003EF032FA002C00F09E800026B2465DE77F
:108C0000D9F800300133772BC9F80030C3D9132EBF
:108C1000C1D80136CEF80060BAE71268DFF80892D2
:108C20001B68BB60A8EB020BD9F80020FA604FEA82
:108C3000E27CA2FB0B010BFB0C1161A3D3E9002327
:108C4000FFF708FABB68694A034412687A60F31AAE
:108C500083EAE372A2EBE372B2F5FA4F4FF0000A37
:108C600024DD0A20FB6026F0EFF870B1FB68836119
:108C70007B685F4A4261C0E907360523037480F8C8
:108C800011A080F812A080F813A0002359494FF4D6
:108C900022523CF04BFF554B1E60514B1E604E4B19
:108CA000C3F800800023C9F800309EE7BBF5004FF1
:108CB00011D3BB685048F11A5A46534681FB000154
:108CC000FFF7C8F9FB68C01AFB6848BF033003EB25
:108CD000A000C9F80000434BD9F800001A6802F15F
:108CE000010AC3F800A03A4B1B68A8EB030CC1179C
:108CF000ACFB000E32A3D3E900230CFB01E1FFF72C
:108D0000A9F97B6803449946BAF1050FA6EB030362
:108D100098BF03EB43039A1C48BF5A1D334BBBF566
:108D2000F01F09EBA2021A6081BF2D4B1E602A4B77
:108D3000C3F8008059E76C7BAE7B95F80F802D7CE3
:108D4000FF2C0DD066B1B8F1000F09D00EF03AF942
:108D5000854205D02B464246314620460EF0B2F8F9
:108D6000264B1A78002A3FF405AC254900221A70D8
:108D7000244B0A7000200021C3E90001FFF7FABB71
:108D80001E4A12788A427FF4F5AB94427FF459AEC2
:108D9000FFF7F0BB0C2C08D11B4B83ED008A83ED51
:108DA000019AC3ED028A194907E0242C3ED1184BE1
:108DB000184983F800A0184B1E80184B59E000BFDB
:108DC00000CA9A3B00000000FC7B002040420F00DC
:108DD0009C580020301700209058002044B60020F6
:108DE000945800208858002045B60020A058002044
:108DF0001D9F06004C81060000CA9A3BD9BA00208C
:108E0000DABA002038170020A45800208CA50600EC
:108E1000D8BA0020279D0600BC800020FB9C0600DD
:108E2000CC0600208C58002098580020631E322B5E
:108E300000F28980DFE803F0898C2E313437434615
:108E40004987874F5154575A665D6063696C6F3A22
:108E50003D407275787B87874C87878787878787B0
:108E6000878787878787871A7E8184005E493024B9
:108E70005E4B6D468AB06A465D48C2E907435D4B6A
:108E800053625D4BC2E9050142F8103F00234FF4E5
:108E90004351F9E5594903248FE7594904248CE7E4
:108EA0005849052489E75849062486E75749182474
:108EB00083E75749192480E756491A247DE7564924
:108EC00007247AE75549082477E75549092474E7C8
:108ED0005449212471E70C2465E753490D246CE7BC
:108EE00052490E2469E752490F2466E7514910247C
:108EF00063E75149122460E7504913245DE7504964
:108F000014245AE74F49112457E74F49152454E7D1
:108F10004E49162451E74E4917244EE74D491B246C
:108F20004BE74D491C2448E74C491D2445E74C4973
:108F30001E2442E74B4931249AE74B49322497E7F4
:108F40004A49332494E74A4937E74A49012434E738
:108F50004949022431E73CF8111089B28D4202F1EF
:108F600001027FF435AC0136023028E42E78012E60
:108F700028D96B79203B052B24D8DFF810813F4B93
:108F800098F800401B78013404F00F049C423FF431
:108F9000F1AA98F800003A4D3A4900EBC00300EB03
:108FA000C300324628443EF0BBF898F8003049220E
:108FB00002FB035585F84860BFF35F8F88F80040D7
:108FC000FFF7D8BA082025F03FFF40B12E4BC0E98B
:108FD000053603230374002343748374C37400238E
:108FE0004FF4C452FFF77EBBD9A70600E59C0600EC
:108FF000B09F06000002020405000002D5A1060091
:10900000FCA1060022A2060041A2060065A20600FD
:1090100087A20600A8A20600A3A3060045A2060098
:10902000CAD20600DAD20600AFA506000FA60600D7
:1090300033A6060057A606007BA60600A0A60600DB
:10904000C7A60600EFA606000EA7060035A7060075
:109050005CA70600CAA20600ECA206000FA3060049
:1090600031A3060002A80600129D0600D69C060049
:109070001F9D06008EA10600B1A1060046B6002085
:1090800048B60020EDBA0020D89F060047B6002061
:1090900070B5234E33781BB33AF0B9FC214AD2E9BC
:1090A000004543F69923041B61EB05059C4275F1CD
:1090B000000318DB082025F0C7FE48B11A4BC56134
:1090C000C0E9053404230374002343748374C37418
:1090D000002316494FF402523CF028FD0023337060
:1090E0000020002170BD3DF0B7FF114B1D68114BF2
:1090F000451B04461868C617A5FB000106A3D3E963
:10910000002305FB0611FEF7A5FF0B4B1B681C4453
:109110002044E6E7AFF3008000CA9A3B000000005D
:1091200045B6002030170020E8A806004C81060054
:109130009C58002098580020A058002000000000F3
:10914000F0B514461A4AA0FB020302FB0131C00B22
:1091500085B040EA414014A3D3E90023C90BFEF7D0
:10916000C9FF0546194610460023124AFEF7C2FF02
:1091700006461946104600230D4AFEF7BBFF074678
:109180001946104600234FF47A72FEF7B3FF00979A
:10919000CDE90102334608482A4621463BF0AEFF9E
:1091A00005B0F0BDAFF3008000A493D6000000002E
:1091B00040420F00008793034BB7060000000000F9
:1091C0002DE9F04F2DED068BCBB03BF01CFB50B1E1
:1091D0004FF0804357220120C3F81C250DF0F8FE04
:1091E000002020F003F928F027FA25F043FE04467A
:1091F000002840F0F58091483DF029FE78B18F4D70
:109200004594AE683224B36C002B40F0ED806420AE
:109210003AF00DFC013CF6D164203AF008FC884895
:10922000884D3BF06BFF0E241223CDE901340B2354
:10923000854800930722042340F2EA713BF05EFF69
:10924000824B834A834984483BF058FF0DF0D2FE9D
:10925000824B18681B798DF84430814B10909A88A6
:10926000ADF8B4207F4A186851689B792C9010683B
:109270008DF8B63038AB03C3127A1A707A4B9A88DD
:10928000ADF8BC20794A186851689B792E90106817
:109290008DF8BE3034AB03C3754B764A18685168FD
:1092A0001B79129010688DF84C303BAB03C31289C8
:1092B0001A80714B18681B798DF854306F4B1490DD
:1092C00018689B88ADF894306D4B249018689B8883
:1092D000ADF89C306B4B26909A8818689B798DF876
:1092E000C630694B3090CDE90653684BADF8C420C9
:1092F00018681B798DF85C30654B664A16901868C3
:109300009B882890ADF8A4301068516836AB03C331
:10931000614B41AA03F1080618685968144603C452
:109320000833B3422246F7D118681B7923715B4B8F
:10933000206008935A4B5B4A18681B798DF864309B
:10934000594B189018681B7951681A908DF86C3039
:109350001068564B09933EAB03C312891A80544AD6
:10936000544B1068544E1C9018681E9030682A9018
:10937000B088ADF8AC005148147919798DF8744073
:109380008DF87C100A90A0F54020A0F61970CDE968
:109390000B05106820901868494B0D93494B22909B
:1093A0009A8818689B798DF8CE30474B8DF88440A9
:1093B0008DF88C103290ADF8CC200E9328F024F963
:1093C00006460246414800251178C9B9052214A96C
:1093D00030463DF095FE00287AD10DF00BFEEDE70A
:1093E000012036F0FDF800E745AA042128469847F9
:1093F00000287FF40CAF459B002B3FF408AF0BE730
:10940000445C537804F00304012C04D12031117022
:1094100011464A1CD8E72029FAD1002DF8D1157041
:10942000C15C01F00301012908BF2033DBB2511CEC
:109430005370002B18BF0D46EBE700BFB87B06004A
:109440006DBB06006D6167009FBB0600FDBB06009B
:1094500028A9060006BC06003ABC0600DB6007002F
:1094600067D10600BB2A0700B7D20600285F0700B5
:10947000AF3F0700FFCA06006ED1060073D1060099
:1094800079D106007FD106007365740086D106008D
:1094900007C40600359707008BD106006466750087
:1094A000833F070098D106008EAB06006E767300EE
:1094B000A2D10600A7D106004DA106007A726F0066
:1094C000626174006B420700616C6C0014BE07009F
:1094D000052210A930463DF013FE8346002840F0D7
:1094E0001383CC48DFF8B4A33BF008FE12230E2010
:1094F000CDE901300B23C84800930722042340F232
:10950000EA713BF0FBFDC54BC54AC649C6483BF076
:10951000F5FDC6483BF0F2FDC5483BF0EFFDC54800
:109520003BF0ECFDC4483BF0E9FDDAF80030B3F85D
:10953000923403F07F037F2B00F0B1821CF092F88D
:109540000146BE483BF0DAFDDAF8003093F8963475
:10955000FF2B08D013F0800FB94BBA49BA4818BF97
:1095600019463BF0CBFDDAF80030B84893F8962462
:10957000B3F892143BF0C2FDDAF80030B3F894343B
:1095800003F07F037F2B00F08C821CF081F80446EF
:109590001CF0E8FCAE4BAF4A2146002818BF1A4623
:1095A000AD483BF0ABFDDAF8003093F89724FF2A82
:1095B0000FD0B3F89414090640F1758293F99624FC
:1095C000A649A74B31EA220128BF19469E483BF025
:1095D00095FDDAF800309D4893F89724B3F8941479
:1095E000DFF898823BF08AFD9E483BF087FD00251E
:1095F000DAF8004004EB85040135D4F84401FEF7A5
:109600007BF80646D4F868010F46FEF775F8CDE9F9
:109610000401D4F85C01FEF76FF8CDE90201D4F83B
:109620005001FEF769F83246CDE900013B4640465D
:109630003BF064FD032DDBD18B483BF05FFDDAF896
:109640000060D6F84401FEF757F80446D6F84C01FE
:109650000D46FEF751F8CDE90201D6F84801FEF7B4
:109660004BF822462B46CDE9000180483BF046FDF1
:10967000DAF80060D6F85001FEF73EF80446D6F856
:1096800070010D46FEF738F8CDE90201D6F8600109
:10969000FEF732F822462B46CDE9000174483BF034
:1096A0002DFDDAF80060D6F8FC00FEF725F8044638
:1096B000D6F804010D46FEF71FF8CDE90201D6F8F1
:1096C0000001FEF719F822462B46CDE90001694852
:1096D0003BF014FD45A811F051F84598FEF70CF841
:1096E000044646980D46FEF707F8064647980F468B
:1096F000FEF702F8804689461CF0CEFE10EE100AF6
:10970000FDF7FAFFCDE90067CDE9040122465A488A
:109710005A4F2B46CDE902893BF0F0FC58483BF00C
:10972000EDFCDAF8006006EB8B060BF1010BD6F8C6
:109730001401FDF7E1FF0446D6F838010D46FDF7A8
:10974000DBFFCDE90401D6F82C01FDF7D5FFCDE90B
:109750000201D6F82001FDF7CFFF2246CDE9000136
:109760002B4638463BF0CAFCBBF1030FD9D1DAF8DF
:109770000030D3ED457AF5EE407AF1EE10FA4FF075
:10978000000240F09781D3ED467AF5EE407AF1EE93
:1097900010FA40F08F81D3ED477AF5EE407AF1EE82
:1097A00010FA40F087810FA80F923AF055FA04465C
:1097B00010F016FA334D10EE100AFDF79DFF064625
:1097C0000F980F46FDF798FF32463B46CDE9020160
:1097D000009429462C483BF091FC1BF069FF0146A0
:1097E0002A483BF08BFC14483BF088FCDAF8003048
:1097F000274893F8661093F86560264B002E08BF43
:1098000018463BF07BFC4FF080522348D2F8A8303A
:1098100046E000BF5EBC06009FBB0600FDBB060025
:1098200028A9060006BC06003ABC060088BC060053
:109830009ABC0600A9BC0600CBB50700CABC06004E
:1098400071490700D3BA0600D3BC0600E2BC06008B
:10985000E9870700E3D40600F7BC0600EABA060071
:10986000D7BA06000FBD06003CBD060051BD06007C
:109870006FBD06008CBD0600ACBD060027BD06000E
:10988000E7BD0600A8490700FDBD06003DBE060075
:10989000FCBA06000CBB06004ABE0600D00600203B
:1098A000D2F8A4209BB23BF029FCDAF80020B248A1
:1098B000D2F86930B2F8672042EA03421B0C3BF051
:1098C0001DFCDAF80030002B00F0FF8093ED5DAA5C
:1098D000DFEDAA8AD3ED5F9A93ED5E9AB7EE008A28
:1098E000C8EE0A7A78EE677A67EEA87A17EE900AE1
:1098F000FDF702FFC8EE297A04460D4678EE677A36
:1099000067EEA87A17EE900AFDF7F6FEC8EE097A20
:10991000CDE9020138EE678A68EE287A17EE900AE0
:10992000FDF7EAFE22462B46CDE9000194480521C9
:109930003BF0E4FB1AEE100AFDF7DEFE044619EEDA
:10994000900A0D46FDF7D8FECDE9020119EE100A86
:10995000FDF7D2FE2246CDE900012B4689483BF0B7
:10996000CDFBDAF800208449D2F869308648B2F895
:109970006720002E18BF084642EA03421B0C3BF04A
:10998000BDFBDAF8003093F89814642992BF7F4841
:109990007F4854213BF0B2FB7E483BF0AFFB1DF00B
:1099A0001DF983461DF028F91DF088F882461DF048
:1099B00029F907460E461DF025FA054689461DF091
:1099C00027F9BBF1000F0446884640F38E803DF036
:1099D00047FB714AC01B61EB0603A0FB020102FBBF
:1099E0000311C00B40EA414061A3D3E90023C90B36
:1099F000FEF780FB1946064600231046674AFEF72D
:109A000079FB0746504616B9FBB2002B61D0FDF733
:109A100061FE634B0022FDF7F1FFCDE900670246CE
:109A20000B4660483BF06AFB55EA090364D05A4B89
:109A3000A5FB030103FB0911C00B40EA41404CA305
:109A4000D3E90023C90BFEF755FB0546194610461E
:109A50000023524AFEF74EFB2946024652483BF08D
:109A60004DFB54EA08034BD04B4BA4FB030103FB13
:109A70000811C00B40EA41403DA3D3E90023C90BC4
:109A8000FEF738FB0446194610460023434AFEF70A
:109A900031FB2146024645483BF030FB8EE4444909
:109AA0004FE5434C74E5434B434912F0800F18BF18
:109AB00019468BE50FA80F923AF0CEF8044610F045
:109AC0008FF83E4D10EE100A77E63D483BF016FB4E
:109AD00047E7FDF7FFFD324B0022FDF78FFF0246FF
:109AE0000B4638483BF00AFB9EE73E430CBF364826
:109AF00036483BF003FB97E735483BF0FFFAB0E709
:109B000034483BF0FBFA59E407222CA930463DF0DB
:109B1000F7FAB0B93DF0A4FA2F4A0D460446FFF714
:109B20000FFB2E4B1B68D3E90401D3E90223801AF3
:109B300061EB030100192A4A41EB0501FFF700FB25
:109B40003CE4092238A930463DF0DAFA10B90DF0AC
:109B5000B9FC33E407222EA930463DF0D1FA0028A3
:109B600040D102200DF034FA00201FF03FFC25E424
:109B700000A493D6000000001FBB06000000E144D3
:109B800063BE0600A5BE06003ABB060005BF060080
:109B90001EBF0600CBB5070040420F0000879303AD
:109BA0000000594038BF060093BF0600D3BF06002F
:109BB000C5BA060071490700D3BA06003191070003
:109BC000D2BE06005EBF06006FBF060061C0060081
:109BD000B1BF0600F5BF06001BC00600D00600207E
:109BE00022C00600082234A930463DF089FA002838
:109BF00040F011811CF0ECFF0146C0483BF07EFABA
:109C00001CF0ECFF80461CF0F7FF81461CF056FF6D
:109C100006461CF0F7FFB8F1000F04460D4640F36E
:109C2000DA803046FDF756FDB54B0022FDF7E6FE23
:109C3000064648460F46CDF80880FDF74BFDB04B71
:109C40000022FDF7DBFE3246CDE900013B46AD4880
:109C50003BF054FA54EA050300F0C1803DF000FAED
:109C6000001BA94A61EB0501FFF76AFA1CF0D0FF5F
:109C7000814688461DF022F807460E461DF070F812
:109C800005460C461DF0BEF850EA010300F0AB801B
:109C90009E4AFFF755FA59EA080300F0A8809C4A4B
:109CA00048464146FFF74CFA57EA060300F0A38006
:109CB000984A38463146FFF743FA55EA040300F064
:109CC0009E80954A28462146FFF73AFA3AF0EAFC88
:109CD00005463AF0F9FC044628461CF0EFFE8246A1
:109CE00020461CF0EBFE80463AF000FD45EA0403F6
:109CF0001A0407460E4600F1868050EA010300F080
:109D000082804046FDF7E6FC7D4B0022FDF776FEA3
:109D1000804628468946FDF7DDFC794B0022FDF799
:109D20006DFECDE904012046FDF7D4FC744B002202
:109D3000FDF764FECDE902015046FDF7CBFC704B08
:109D40000022FDF75BFE4246CDE900014B46734819
:109D50003BF0D4F9724A38463146FFF7F1F91DF06D
:109D6000BBF806461DF0DEF804461DF0F3F844EAA1
:109D700000031B0407464AD42046FDF7ABFC604BAA
:109D80000022FDF73BFE06EB86060446F0B20D46C8
:109D9000FDF790FCCDE902013846FDF79BFC584BDE
:109DA0000022FDF72BFE2246CDE900012B465D483F
:109DB0003BF0A4F91DF06CF8FDF77CFC5A4B002237
:109DC000FDF71CFE02460B4658483BF097F91DF084
:109DD0003DF9FFF7F3BA56483BF090F93AE755489A
:109DE0003BF08CF942E754483BF088F953E753487D
:109DF0003BF084F958E752483BF080F95DE7514861
:109E00003BF07CF962E750483BF078F9A7E74F4810
:109E10003BF074F9CEE7052212A930463DF070F907
:109E200020B901201CF0F2F8FFF7C8BA0A223BA9BA
:109E300030463DF065F918B939F008FFFFF7BEBAB2
:109E400005221CA930463DF05BF90446002840F08D
:109E50008F800DB93E4854E63E49042228463DF025
:109E600075F9F0B92E7916F0DF061AD13A4928466D
:109E700038F03AF93849304638F036F93649044670
:109E8000304638F031F934490546304638F02CF97F
:109E900008B1324835E6294620460DF0BDFAFFF7F5
:109EA0008DBA2F492846FEF7CCF918B90DF050FAB3
:109EB000FFF784BA28462B492A4E38F015F945ADEC
:109EC0000746002F00F07786032C04D126483BF08C
:109ED00015F9264815E60FA9384638F0ABF80F9B60
:109EE000A5EC010ABB42F1D018780028EED131462A
:109EF00038F0FAF801340746E3E700BF2EC0060049
:109F0000000059403AC0060070C0060092C006002A
:109F1000A5C00600BBC00600EBC006001BC10600C2
:109F20005BC106008AC1060000003440CFC10600B4
:109F300060C006007DC00600B1BF0600F5BF060088
:109F4000CBC00600FBC006006EC10600BBC1060008
:109F5000E3C1060042C20600C772070047C20600FE
:109F60004DA106008BC206008DC20600EAC20600A3
:109F700005221EA930463DF0C3F8002840F01682A5
:109F80000DB99448BDE52846934938F0ADF805462B
:109F90000028F6D09149FEF754F920B9012011F0BC
:109FA00057FB8F48ADE58F492846FEF74AF918B9A7
:109FB00011F04EFB8C48A4E58C492846FEF741F988
:109FC000B8B911F0E3FB11F08BFB894D894C0028E7
:109FD0000CBF2946214688483BF090F810F04CF918
:109FE00000280CBF2946214684483BF087F8FFF73C
:109FF000E5B983492846FEF724F918B90FF098FF10
:10A00000FFF7DCB97F492846FEF71BF9F0B9724922
:10A0100038F06AF8044608B97B4872E56F49FEF7E4
:10A0200010F938B9012010F0F9F878483BF066F8DB
:10A03000774866E56B492046FEF703F918B910F03A
:10A04000EDF874485DE574482146CEE7734928462B
:10A05000FEF7F7F8044600285AD1714F3B68B3F871
:10A06000481909B96F484CE56F483BF047F86F480D
:10A070003BF044F86E483BF041F86C483BF03EF84A
:10A0800000254FF00A0AD7F800B00BEB041606F2D1
:10A09000AC42D2ED007AF5EE407AF1EE10FA24D01F
:10A0A00017EE900AFDF728FB04F14B020BEB0213AD
:10A0B000804698688946FDF71FFBCDE9040106F24A
:10A0C000B44306F596661868FDF716FBCDE9020164
:10A0D0003068FDF711FB4246CDE900014B4655487B
:10A0E00021463BF00BF80135ADB2B5FBFAF30AFBA4
:10A0F00013539BB21BB915B1142039F098FC0134ED
:10A10000462CC0D149483AF0F9FF4B4829466CE744
:10A110004A492846FEF795F810BB2F4937F0E4FF6F
:10A12000044608B94648ECE400230A2245A94593B1
:10A1300038F08CF8459B6BB1A3420BD04149459B4D
:10A140001A78002A00F044858A5C150705D43E4839
:10A1500021464AE73D48214647E701334593EEE76C
:10A160003B492846FEF76DF8064600BB1A4937F012
:10A17000BBFF044640B91CF08FF9B4EE400AF1EE83
:10A1800010FA10D73348BCE445A9459637F052FF82
:10A19000459BA34201D01B782BB12F4821463AF0B2
:10A1A000ADFF2E48ADE411F04FFCFFF707B92C4985
:10A1B0002846FEF746F8002840F087801CF06CF92E
:10A1C000B4EE400AF1EE10FAB0EE408A4CD72548C2
:10A1D00097E400BF08C30600C7720700E538070010
:10A1E00083C306009FC30600A3C3060037370700DA
:10A1F000E3D40600E9870700D9C30600F1C30600CF
:10A2000007C4060042C206000DC406003FC4060093
:10A2100089C40600CEC40600F0C4060027C50600A7
:10A22000D00600202CC5060064C506009AC50600AD
:10A23000CEC5060003C606002EC6060055C606009B
:10A240005CC6060014BE07003AD106008CC60600A4
:10A25000C1C60600C6C606001CC7060054C70600D5
:10A26000CF5707006DC7060045A90FA80FF08EFF56
:10A27000064618EE100AFDF73FFA02460B46AF48B5
:10A280003AF03CFFDDED0F7AF4EE677AF1EE10FA6A
:10A2900019D617EE900AFDF72FFA044645980D4699
:10A2A000FDF72AFA2246CDE900012B46A4483AF0F0
:10A2B00025FFA44BA44800223AF020FF0EB1A3488A
:10A2C0001FE4A3481DE4A3481BE4A3492846FDF767
:10A2D000B8FF002867D1A14937F006FF04460028DF
:10A2E0004AD19F4C9F48A04EA04D3AF007FF2368EB
:10A2F0009F4893F84C1900290CBF314629463AF083
:10A30000FDFE23689B4893F84D1900290CBF314688
:10A3100029463AF0F3FE2368974893F84E193AF02D
:10A32000EDFE2368954893F85C1900290CBF31466F
:10A3300029463AF0E3FE266896F85C39CBB106F57B
:10A3400015631868FDF7D8F906F65813044618681F
:10A350000D46FDF7D1F9CDE9020106F65416306835
:10A36000FDF7CAF92246CDE900012B4684483AF0B0
:10A37000C5FE8448FFF7C5BB8349FDF762FF28B9D6
:10A38000012011F03BF98148FFF7BBBB8049204613
:10A39000FDF757FF20B911F031F97E48FFF7B1BB47
:10A3A0007D48214621E67D4829461EE6072230A940
:10A3B00030463CF0A5FE18B939F04BFCFEF7FEBF65
:10A3C000042206A930463CF09BFE0446002840F0DB
:10A3D0000B81002D75D11BF0C5FD714A7149DFF865
:10A3E0008081DFF80092002808BF11466E483AF0DD
:10A3F00085FE1BF04DF901466C483AF07FFE6C4833
:10A400003AF07CFED8F8005005EB84050134D5F80D
:10A410001401FDF771F90646D5F838010F46FDF72E
:10A420006BF9CDE90401D5F82C01FDF765F9CDE90B
:10A430000201D5F82001FDF75FF93246CDE90001B0
:10A440003B4648463AF05AFE032CDBD1002345A890
:10A45000459339F001FCD8F80030D3ED457AF5EE9C
:10A46000407AF1EE10FA044625D1D3ED467AF5EEA6
:10A47000407AF1EE10FA1ED1D3ED477AF5EE407A2C
:10A48000F1EE10FA17D10FF0ABFB4A4D10EE100AA7
:10A49000FDF732F902460B46474829463AF02EFEB0
:10A4A0004598FDF729F902460B46444821463AF003
:10A4B00025FEFEF783BF0FF093FB414D10EE100A0F
:10A4C000E6E72649284637F00FFE2F490446FDF7F8
:10A4D000B8FE38B93B483AF011FE01201BF0D2FC1F
:10A4E000FEF76CBF2A492046FDF7ABFE054620B9B2
:10A4F00035483AF003FE2846F0E734492046FDF798
:10A50000A0FE28B901210FF0B5F93148FFF7F9BADB
:10A5100030492046FDF795FE20B12F492046FDF732
:10A5200090FE40B9002001210FF0A4F90FF0BCFA11
:10A530002A48FFF7E6BA2A48FFF7E3BA96C70600AB
:10A54000B2C706000000E03FE6C706000BC80600E1
:10A5500052C806008DC8060043A50600C772070052
:10A56000D0060020CCC8060056BB060052BB060031
:10A57000E6C80600F5C8060006C9060016C90600AA
:10A580002CC9060050C90600E53807006CC9060052
:10A590009FC30600A4C90600C0C90600F7C906008B
:10A5A000E3D40600E98707006ECA060080CA0600E9
:10A5B000E7BD0600A84907008ECA06001ABE0600BD
:10A5C00031910700AECA0600C5CA060007C40600DE
:10A5D000DDCA0600A8D10600FFCA060009CB0600A6
:10A5E0002BCB060027BD060007A9042230463CF00D
:10A5F00087FD0146F0B91022284637F0CBFEAD4A60
:10A60000CDE9000106460C4645A811213AF083FD2C
:10A6100056EA04030BD01122294645A83CF070FDF0
:10A6200028B9304621460BF021F9FEF7C7BEA248F3
:10A63000FFF767BA052216A930463CF061FD18B94C
:10A640000BF006F9FEF7BABE062228A930463CF008
:10A6500057FD18B90BF066F9FEF7B0BE082236A90F
:10A6600030463CF04DFD00283AD12DB993483AF0E0
:10A6700045FD9348FFF745BA0A2245A9284637F019
:10A68000E5FD459B1B78044613B9431E632B02D995
:10A690008C48FFF736BA8C4D01468C483AF02EFDB7
:10A6A0002B6883F898440DF04DF92A6802F59362FF
:10A6B000114601231F201FF057FB2B68844893F895
:10A6C00098143AF01BFD0AF063FE0A2039F0AFF946
:10A6D00001200AF08DFD2B687E4893F8981484E4DD
:10A6E0000D2241A930463CF00BFDF8B9764C7A4872
:10A6F0003AF004FD2368FF2283F898240DF022F934
:10A70000226802F59362012311461F201FF02CFBE3
:10A7100072483AF0F3FC0AF03BFE0A2039F087F960
:10A7200001200AF065FD6E48FFF7EBB9042208A985
:10A7300030463CF0E5FC10BBBDB16A49284637F015
:10A74000D3FC044688B16849FDF77BFDA0B9674892
:10A750003AF0D4FC4FF08043A8226420C3F81C25B3
:10A7600039F065F90320FFF7FDB961483AF0C6FCFE
:10A770004FF080435722F0E75E48214635E405223A
:10A7800018A930463CF0BCFC18B90CF08FFEFEF75F
:10A7900015BE042209A930463CF0B2FC18B91FF0DE
:10A7A000E5FCFEF70BBE0A223EA930463CF0A8FCB1
:10A7B000002840F00881444C4F483AF09FFC236841
:10A7C0004E4AD3F88019914205D04D483AF096FC94
:10A7D0004C48FFF796B9D3F87459002D40F0B68075
:10A7E00049483AF08BFC2368484893F878193AF0C6
:10A7F00085FC23684648D3F87C193AF07FFC23682F
:10A80000444AD3F8A019914238D1D3F88459424828
:10A81000042D96BF414B424E53F825603AF06EFC32
:10A820002946404832463AF069FC2368D3F8881933
:10A8300041B13D483AF062FC23683C48D3F88C199A
:10A840003AF05CFC2368D3F8901939B1CBB200938D
:10A850003748C1F307230A0C3AF050FC2368D3F8B9
:10A86000941911B133483AF049FC2368D3F8982978
:10A8700022B1D3F89C1930483AF040FC2F483AF006
:10A880003DFC23682E4893F864193AF037FC23689E
:10A890002C48D3F86C193AF031FC236893F86549D9
:10A8A000204620F081FA2146024627483AF026FC4D
:10A8B0008EE700BF4ACB060052CB060063CB0600F2
:10A8C0007BCB0600A7CB0600D0060020DDCB060020
:10A8D000F7CB060014CC060037CC060066CC060089
:10A8E00099CC0600C7720700A55A0700C1CC060024
:10A8F000DCCC0600F1CC06001FCD06005453524CB0
:10A9000040CD06005F6807007CCD0600FBCE060048
:10A9100018CF06004C54414635CF06007C85060012
:10A9200059BB060050CF060063CF060075CF060066
:10A9300087CF0600BACF0600CCCF0600DDCF0600D9
:10A94000E8CF060006D0060024D006002946A2481B
:10A950003AF0D4FBE90702D5A0483AF0CFFBAA07AA
:10A9600002D59F483AF0CAFB6B0709D5236893F8D4
:10A970007929B3F87A399F071BD59A483AF0BEFB7C
:10A980002E0702D598483AF0B9FBE80602D5974859
:10A990003AF0B4FBE90302D595483AF0AFFB6A03FD
:10A9A00002D594483AF0AAFB2B037FF51CAF9248DE
:10A9B00017E7122A96BF914B914953F822109148FC
:10A9C0003AF09CFBDCE705221AA930463CF098FBE4
:10A9D00020BB3CF045FB4FF4C3620023FDF73AFB7C
:10A9E000104619464E220023FDF734FB0446194653
:10A9F000104600230D22FDF72DFB834B8349D2B275
:10AA0000C0B253F82230824AE4B252F8202051F802
:10AA1000241080483AF072FBFEF7D0BC062224A92D
:10AA200030463CF06DFBA8B97DB10A2245A9284605
:10AA300037F00CFC459BAB4204D01B7813B9431E86
:10AA40003B2B03D974483AF059FB01201BF05CFD05
:10AA5000FEF7B4BC062226A930463CF051FB10B9E3
:10AA60006E48FFF74EB806222AA930463CF048FB54
:10AA7000002851D1002D4CD004220AA928463CF0D0
:10AA80003FFB18B938F0E3FFFEF798BC04220BA98E
:10AA900028463CF035FB18B938F0E3FFFEF78EBCD2
:10AAA00004220CA928463CF02BFB20B901210EF012
:10AAB000E1FEFEF783BC052220A928463CF020FBDE
:10AAC00000283FF4F3A9052222A928463CF018FBF0
:10AAD00000283FF493AA04220DA928463CF010FB5D
:10AAE00018B91CF04DFAFEF769BC072232A92846B6
:10AAF0003CF006FB18B90CF0C9FCFEF75FBC042261
:10AB00000EA928463CF0FCFA18B91FF0DFFAFEF750
:10AB100055BC4348FEF7F5BF4249042230463CF09D
:10AB2000EFFAF8B9A5B140492846FDF78AFB28B9E4
:10AB300001200CF093F93D48FEF7E3BF3C4928465D
:10AB4000FDF77FFB20B90CF089F93A48FEF7D9BF31
:10AB50000CF0B2F9384A3949002808BF1146384884
:10AB6000FFF743BA3749042230463CF0C9FAF8B936
:10AB7000A5B12D492846FDF764FB28B901201FF037
:10AB80002FFC3148FEF7BDBF29492846FDF759FB88
:10AB900020B91FF025FC2D48FEF7B3BF1FF01AFCAB
:10ABA000254A2649002808BF11462948FFF71DBA43
:10ABB0002848FEF7A6BF032C7FF488A99DED471A0D
:10ABC000DDED460A9DED450A0CF046FBFEF7F6BBAF
:10ABD0000FF04AFAFEF7F2BB9BCD0600AECD0600A1
:10ABE000CDCD0600E8CD06005DCE06007ACE06008B
:10ABF000A0CE0600C2CE0600DECE0600908506007E
:10AC00004C74070029CE0600DC8506002886060065
:10AC10001086060047D006004FD0060083D00600FD
:10AC2000BAD0060081AD0600E5380700CCD006009A
:10AC30009FC30600DAD00600E3D40600E9870700C8
:10AC4000E9D00600C1C60600F3D0060006D1060012
:10AC50001AD1060029D106002DE9F04F2DED028B07
:10AC6000A84B1A68B2F84889DFB0B0EE408A0446B3
:10AC7000B8F1000F16D1082024F0E6F858B1A24B25
:10AC80004361A24B83610323037480F8118080F831
:10AC9000128080F813809E4900234FF4C2523AF08C
:10ACA00045FF72E09B4FD7F8A03043450BD00023FF
:10ACB0003B7787F83C3087F85C3087F87C3087F842
:10ACC0009C30C7F8A08093490023F6EE006A087F05
:10ACD00010B3D1ED007A37EEC87AB0EEC77AB4EE91
:10ACE000E67AF1EE10FA17D507EB431378EE677AA0
:10ACF000043304F10C02B3EC017AD3ED026A07EEDF
:10AD0000A67AA4EC017AA242F5D1002528465FB0CC
:10AD1000BDEC028BBDE8F08F0133052B01F1200162
:10AD2000D5D1B8F1010F33D102F2AC410023D1EDFE
:10AD3000007AF5EE407AF1EE10FA21D04B3319018A
:10AD400002EB031350585968254603C598682860DC
:10AD5000B0EE480A0CF014FE07EB401383ED000A36
:10AD6000450194E807002E1D3E44103586E8070093
:10AD7000002279197A51C1E9012201221A77C4E728
:10AD80000133462B01F11001D1D14FF0FF35BDE762
:10AD9000DFED617A9FED614A002502F5966602F5C6
:10ADA000116E2B46B0EE676AF1EE094AB7EE005A13
:10ADB0004FF0140C56ED016AF5EE406AF1EE10FA10
:10ADC0003DD036EEC87A27EE077AC7EE245A75EEE4
:10ADD000855A85EE257AB4EEC47AF1EE10FA2ED4B7
:10ADE000092D62DC0CFB05F909F5BC71694441EDE4
:10ADF000326A01ED2E7A09F104092CA930688944E0
:10AE00007168A9E803000135B068C9F800000A2D8F
:10AE100015D1DDED307A2CA90023012591ED097AB9
:10AE2000B4EEE77AF1EE10FA48BF2B4605F10105C2
:10AE300048BFF0EE477A0A2D01F11401EED1103629
:10AE40007645B7D1002D40F0E08102F2AC4EDFED47
:10AE5000377A02F60C11734693ED007AB5EE407A1C
:10AE6000F1EE10FA06D0B4EE677AF1EE10FA48BFB0
:10AE7000F0EE477A10338B42EED19FED297AF4EE53
:10AE8000C77AF1EE10FA53DD082023F0DDFF002829
:10AE90003FF401AF1C4B43611C4B836103230374DC
:10AEA000002343748374C374F5E6B4EEE77AF1EEDD
:10AEB00010FAC4DD0CFB03F303F5BC71694401ED2A
:10AEC0002E7A41ED326A04332CA930680B44716844
:10AED00003C3B0681860DDED307A2CA8002301218F
:10AEE00090ED097AB4EEE77AF1EE10FA48BF0B461E
:10AEF00001F1010148BFF0EE477A0A2900F1140080
:10AF0000EED19CE7D006002054D406008B04070045
:10AF10001481060048590020000000008FC2F53C53
:10AF200000C079440AD7233C00007AC400007A4468
:10AF3000B4EEE78A0026F1EE10FA5FED065AB1464C
:10AF400053D45FED076A704600214FF0FF3390ED58
:10AF5000007AB5EE407AF1EE10FA0FD00DF1700ADA
:10AF60004FF0000CB44540F09280B4EEE67AF1EE7A
:10AF700010FAC8BF0B46C8BFF0EE476A0131462938
:10AF800000F11000E3D1591C16D01CA901EB0610EA
:10AF900002EB031101F2AC414B3309680160190166
:10AFA00002EB031300F1040C50585968ACE803009D
:10AFB0009868CCF80000013609F10109B9F1040FD5
:10AFC00054D0C145BDDB51E0D346DBED007A77EECE
:10AFD000C77A0AF1100AF0EEE77AF4EEE57AF1EEBC
:10AFE00010FA1ED40CF1010C10E05FED306A7046CF
:10AFF00000214FF0FF3390ED007AB5EE407AF1EE8C
:10B0000010FA0ED00DF1700A4FF0000CB445DBD1F0
:10B01000B4EEE67AF1EE10FA48BF0B4648BFF0EE08
:10B02000476A0131462900F11000E4D1581C16D0BE
:10B030001CA901EB061002EB031101F2AC414B33EA
:10B0400009680160190102EB031300F1040C505868
:10B050005968ACE803009868CCF80000013609F1A3
:10B060000109B9F1040F01D0C145BEDB0EBB0820B8
:10B0700023F0EAFE00283FF40EAE734B4361734B9E
:10B0800083610323037446748674C67403E6D3464F
:10B09000DBED007A77EEC77A0AF1100AF0EEE77A74
:10B0A000F4EEE57AF1EE10FA3FF568AF0CF1010C21
:10B0B00058E7012E20D11DAB93E80700B0EE480AF7
:10B0C00084E807000CF05CFC07EB401383ED008A7A
:10B0D0004FEA401C94E807000CF1040EBE440CF14A
:10B0E000100C8EE80700002207EB0C0147F80C203B
:10B0F000C1E901221E7709E61CABDFED557A19463E
:10B100000022084690ED007A0132B24277EE877A4B
:10B1100001F11001F5D107EE106AF8EEC74A1946A1
:10B12000C7EEA45A0022DFED4A7A084690ED007A75
:10B13000013237EE657AB24247EE077A01F110012B
:10B14000F3D10DF158089FED434ADFED413A88ED08
:10B15000006AC44604F10C0E224688ED016A88EDAF
:10B16000026ADFED3B6A1846002190ED017A013159
:10B17000B14276EE876A00F11000F6D186EEA47A2D
:10B1800019460020A4EB020A9FED316AD1ED016A55
:10B1900001EB0A0999ED005A76EEC76A35EE655A59
:10B1A0000130B04205EE266A01F11001EED1F4EE55
:10B1B000C47AF1EE10FAC8BFC6EE276A03F10403A1
:10B1C00038EE656AD8BFF0EE636A06EE267AECECDC
:10B1D000016AA2EC017A9645C3D1B0EE480A0CF0A0
:10B1E000CFFB07EB4016430186ED008A1A1D17447A
:10B1F00094E8070087E80700174A134498E8070017
:10B2000083E807000123337780E5012D2DAE25D19A
:10B2100096E80700B0EE480A84E807000CF0B0FB9F
:10B2200007EB401383ED008A460194E8070006F11E
:10B23000040CBC4410368CE807000022B919BA513E
:10B24000C1E901221D7760E581D406008B04070067
:10B25000000000006F12833A58590020002300229A
:10B2600043EC172B8DED047B8DED027BCDE916238E
:10B27000CDE91823CDE91A23CDE91C23CDE91E23FE
:10B28000CDE92023CDE9002300230893F068FCF7E3
:10B2900033FA56ED017A77EEC87ACDE90A0117EE56
:10B2A000900AFCF729FADDE90A2380468946DDE9A0
:10B2B0000001FCF7C3F8DDE90A23CDE900014046AF
:10B2C0004946FCF771FA02460B46CDE90601DDE975
:10B2D0000201FCF7B3F84246CDE902014B46DDE935
:10B2E0000601FCF761FA0B460246DDE90401FCF7B2
:10B2F000A5F816AB0D93CDE904011CABDDF834B015
:10B300000E939A460F9600270F9B53F8040B0F934A
:10B31000FCF7F2F9DBE9008902460B46CDE9102380
:10B32000DDE90A23FCF740FA42464B46FCF786F873
:10B33000DAE90089DDE91023EBE80201DDE9060125
:10B34000FCF732FA42464B46FCF778F80137032FF8
:10B35000EAE80201D8D1089B0133AB42089306F119
:10B36000140693D1DDE90023DDE90401FCF71CFAA2
:10B37000DDE9022306460F4610461946FCF714FA8B
:10B3800002460B4630463946FCF756F847A3D3E948
:10B3900000238B4621F000418246FCF777FC00B386
:10B3A000DDE90023DDE91601FCF728FBFCF7F4FCDE
:10B3B000DDE900232060DDE91801FCF71FFBFCF745
:10B3C000EBFCDDE900236060DDE91A01FCF716FB08
:10B3D000FCF7E2FCB0EE480AA0600CF0D1FA324F64
:10B3E000BAE425460DF14C0804F10C090D9BB3ECB1
:10B3F000027B0D930E9BF3E8026751EC170B0E9343
:10B40000DDE904238DED067BFCF7CEF9DDE90223AF
:10B41000CDE9080130463946FCF7C6F902460B462D
:10B42000DDE90801FCF708F852465B46FCF7E6FA4E
:10B43000FCF7B2FCDDE9002345F8040B3946304641
:10B44000FCF7B2F9DDE9022306460F46DDE9060105
:10B45000FCF7AAF902460B4630463946FBF7ECFFEB
:10B4600052465B46FCF7CAFAFCF796FC4D4548F895
:10B47000040BBBD1B0EE480A0CF082FA0A4E06EB80
:10B48000401585ED008A430194E807001F1D3744ED
:10B4900087E8070013AA07CA1036334483E8070079
:10B4A00001232B7731E400BF48590020BBBDD7D919
:10B4B000DF7CDB3D000000002DE9F04F2DED068B19
:10B4C000A3B016ACCDE90D1209900C934FF40042D5
:10B4D000002320460CF0DCFD68B994E8070019ABA6
:10B4E0001CAC83E807004FF40042002320460CF018
:10B4F0002DFE834638B16FF0010B584623B0BDECEA
:10B50000068BBDE8F08F94E8070022AB03E9070043
:10B510001AF0C2FFB4EE400AF1EE10FAB0EE408A23
:10B5200080F1CA80FBEE047AB4EEE70AF1EE10FA7D
:10B5300040F3C280DFEDBE7AB4EEE70AF1EE10FA16
:10B5400040F1BA80B0EE409A38F0D3FACDE910015C
:10B550001AF0C6FFF0EE409A1AF0AEFFC9EE807AFC
:10B56000B6EE007A77EE877A19EE900AFDEEE77A6A
:10B57000F0EE408A17EE903A012BB8BF01230893F2
:10B58000FCF7BAF8CDE90A010C2023F05DFC054672
:10B5900098B19DED0A7BA74B436180ED067B18EEC9
:10B5A000900AFCF7A9F8089BAB62C5E908010723DC
:10B5B0002B7400236B74AB74EB74002328469E49F4
:10B5C0009FED9EAADFED9AAA4FF463523AF0AEFACD
:10B5D0009FED957B0C9B8DED047B8DED027B8DEDBE
:10B5E000007B8DED067B0025DB172E462F46AA46F5
:10B5F0002C460F9338F07DFA109BB0EB0308119B9B
:10B6000061EB03090C9B98450F9B79EB030358DB17
:10B61000082023F019FC50B1894BC0F81C90C0E9F8
:10B62000053804230374002343748374C374002314
:10B630004FF4035280493AF079FA082023F004FCD1
:10B6400040B1804BC0E905370323037400234374E2
:10B650008374C374784900234FF4C6523AF066FAF3
:10B66000DDED327A9FED787AF8EEE76AC6EE877AFA
:10B6700027EEA90AFDEEC07A17EE904AA74280F2A3
:10B6800054810C2023F0E0FB78B1704BC4619DED38
:10B690000A7BC0E90537329B836280ED087B072374
:10B6A0000374002343748374C374634900234FF409
:10B6B00062523AF03BFA1EE79FED659A9FED658A6C
:10B6C00042E7FDEEE97A013517EE903A9D4203DB41
:10B6D00007201FF069FA0025329B329ADB1790454C
:10B6E00079EB030313DB94B10A2023F0ADFB50B1D7
:10B6F000594BC0E90797C0E90538052303740023B7
:10B7000043748374C37400234FF4235292E7089B5D
:10B71000B3424FDC40F6CD42002313A80CF0B8FC36
:10B72000064600287FF4E7AE13AB16AA19A9804697
:10B73000B3EC017AF2EC017AB4EEE77AD1ED007A5B
:10B74000F1EE10FAB4EE677A48BF02ED017AF1EE3D
:10B7500010FAC8BFF0EE477A12ED017AE1EC017AF7
:10B7600077EEC78AF4EECA8AF1EE10FA1DDD0A20E0
:10B7700023F06AFB044670B1384BC4E9053818EE73
:10B78000900AFBF7B9FF0623C4E9080123740023DC
:10B790006374A374E374284900234FF44352204692
:10B7A0003AF0C4F94FF0FF3BA7E608F10108B8F101
:10B7B000030FBDD140F6CD42002313A80CF0C6FC08
:10B7C0000136804600287FF496AE13AB1CAA1FA951
:10B7D000F7EE086AB3EC017AF2EC017AB4EEE77A9C
:10B7E000D1ED007AF1EE10FAB4EE677A48BF02EDBF
:10B7F000017AF1EE10FAC8BFF0EE477A12ED017A45
:10B80000E1EC017A77EEC78AF4EEE68AF1EE10FAFF
:10B8100028DD0A2023F018FB04460028BBD0104B7B
:10B82000ABE700BFAFF300800000000000000000A5
:10B830000000704245D60600148106008FC2753D97
:10B8400095D6060048D7060000007A445ED7060069
:10B85000000080FF0000807FB9D60600F5D6060004
:10B860001FD7060008F10108B8F1030FB2D11398F1
:10B87000FBF742FF02460B46DDE90001FBF7DEFD68
:10B88000CDE900011498FBF737FF02460B46DDE9CE
:10B890000201FBF7D3FDCDE902011598FBF72CFF60
:10B8A00002460B46DDE90401FBF7C8FDCDE90401C2
:10B8B0001AF0F2FDB4EE400AF1EE10FAF0EE408A12
:10B8C00031D6FBEE047AB4EEE70AF1EE10FA2ADD87
:10B8D000B4EEEA0AF1EE10FA25D510EE100AFBF7E5
:10B8E0000BFF02460B46DDE90601FBF7A7FDF4EE70
:10B8F000488AF1EE10FAF4EE498A48BFB0EE688A41
:10B90000F1EE10FAC8BFB0EE689A39EE487AF7EE59
:10B91000007AB4EE677ACDE90601F1EE10FA0AF189
:10B92000010AA8BF0124013764E6BAF1000F28D04C
:10B930005046FBF7CFFE02460B46DDE90601FCF759
:10B940005DF8FCF729FA0D9B054618600A2023F0E4
:10B950007BFA044670B1324B43612846FBF7CCFEBC
:10B960000523C4E9060123740023C4F820A06374EE
:10B97000A374E3742B4900234FF4235220463AF07A
:10B98000D5F80E9B79EE488A0C20C3ED008A23F08F
:10B990005BFA0446C8B1244B436118EE900AFBF7EA
:10B9A000ABFEC4E9060118EE100AFBF7A5FEC4E9D8
:10B9B000080119EE100AFBF79FFE0823C4E90A01EB
:10B9C000237400236374A374E374002344F2C0025D
:10B9D000204614493AF0AAF83846FBF77BFE0246A7
:10B9E0000B4604460D46DDE90001FCF707F8FCF7BD
:10B9F000D3F9099B224618602B46DDE90201FBF7CB
:10BA0000FDFFFCF7C9F9099B224658602B46DDE98A
:10BA10000401FBF7F3FFFCF7BFF9099B98606CE5A5
:10BA2000ADD7060014810600DCD706000000000038
:10BA30002DE9F04F2DED068BADF2244D0CF064FA9C
:10BA4000064638F056F83F2E04460D4645DDBC4B01
:10BA5000BC48D3E90076D0E900239E4208BF974254
:10BA60003BD0B949D1E90023012A73F1000C07DB6F
:10BA7000A21A65EB0303B2F5706F73F100032CDBC0
:10BA8000C0E900760023C1E90045B048089306A943
:10BA9000CDE906331FF0F0F9B5EE400AF1EE10FAE9
:10BAA000AB4EF0EE408A1ED00EF09AF8DFEDA97A88
:10BAB000B4EEE70AF1EE10FAD6E90023B0EE408AC0
:10BAC00013D552EA030108D0A21A40F6B83165EB4B
:10BAD00003038A4273F1000307DA0DF2244DBDEC33
:10BAE000068BBDE8F08FB7EE008AD6E90023012A65
:10BAF00073F1000108DBA21A40F6B93165EB0303CC
:10BB00008A4273F1000378DAF5EE408AF1EE10FA1A
:10BB100073D0DFED917AB4EEE78AF1EE10FA6CD5CE
:10BB20008E4B1E68022E68DDDFED8D7AB4EEE78A5B
:10BB3000F1EE10FA1BD50A2023F086F9044670B105
:10BB4000884B436118EE100AFBF7D6FD0523C4E9C4
:10BB500006012374002326626374A374E374002334
:10BB60004FF423528049204639F0E0FFB5E70CF04E
:10BB700055FFDFED7E7AB4EEE70AF1EE10FA10EE33
:10BB8000107A21D50E2023F05FF90446C0B1784B1E
:10BB9000436118EE100AFBF7AFFD67A3D3E900235A
:10BBA000C4E90601C4E908233846FBF7A5FD0923CB
:10BBB000C4E90A012374002326636374A374E37445
:10BBC000002344F6C002CDE7082023F03DF90646E5
:10BBD00060B1684B43613846FBF78EFD0423C6E92C
:10BBE0000601337400237374B374F3745E49002345
:10BBF0004FF40352304639F099FF4FF44872002158
:10BC000040A83BF09BFA4FF0000A4FF0000B4FF0BA
:10BC1000000834A8CDE904ABCDE90988CDF82C8023
:10BC20000CF0AEF934A857EC106B0CF081F9CDE9AB
:10BC300018ABDFF850A18DED010A50460CF04CF91D
:10BC4000002875D108F10108B8F1080F0AF1D00AEF
:10BC5000F3D1494B002230463946FCF717F88046AD
:10BC600000287FF43AAF9DED017AF6EE007AB4EE4B
:10BC7000E77AF1EE10FA40F187800C2023F0E4F827
:10BC80000446B8B13D4B43610198FBF735FD3C4B91
:10BC90000022C4E90601C4E9082330463946FCF70E
:10BCA00033F80723A062237484F8118084F812808B
:10BCB00084F8138000234FF4635253E759F8040CBF
:10BCC000FBF71AFD41EC1A0B59F8080CFBF714FDB1
:10BCD00041EC190B59F80C0CFBF70EFDB0EE4A2A9B
:10BCE000F0EE6A2AB0EE491AF0EE691A41EC100B38
:10BCF00018AA04A940A818F0D5F959F80C3C1C93CF
:10BD000059F8083C1D9328AA59F8043C1E931CA915
:10BD100034A837F081FF28A909A837F0C6FE0BF137
:10BD2000010B9AF8C1309B4509F10C09C6DB89E784
:10BD3000D1464FF0000BF4E7000000A09999A93F0D
:10BD4000D01A0020C81A0020C01A0020185F002056
:10BD5000A01A00200AD7233DCDCC4C3D845E0020A4
:10BD6000295C0F3D8CDE060014810600CDCCCC3D55
:10BD7000BCDE060001DF0600000050403DDF06008B
:10BD80000000E03FD81A002032463B46DDE90401BE
:10BD9000FBF734FEFCF700F8F5EE408AF1EE10FAFE
:10BDA00009EE900A4DD0DFF88093D9F80030002BCF
:10BDB00047DDDFF8788398ED00AAB5EEC0AAF1EE72
:10BDC00010FA3EDD89EE8A9AF7EE047AB4EEE79A2D
:10BDD000F1EE10FA06DCDFEDC87AB4EEE79AF1EE88
:10BDE00010FA2ED50C2023F02FF80446C8B1C34B0F
:10BDF00043611AEE100AFBF77FFCC4E9060119EE55
:10BE0000900AFBF779FCC4E9080119EE100AFBF768
:10BE100073FC0823C4E90A01237400236374A37428
:10BE2000E3740023B6494FF48142204639F07EFE88
:10BE30000CF05CFE0023C9F800300023C8F8003085
:10BE40004BE600224FF0804330463946FBF71EFF99
:10BE5000B7EE009A002864D139463046FBF79CFFC4
:10BE600007EE900A89EE277ADDED0A7ADDED096AA0
:10BE70009DED0B6A67EE277A67EE266A27EEA70A22
:10BE800006EEA60A27EE067A07EE070A34F0AEFEA3
:10BE900010EE100AFBF730FC8046894630463946E2
:10BEA000FBF732FF82460C2022F0CEFF8346A0B182
:10BEB000944B43610198FBF71FFC0723CBE9060174
:10BEC000CBE908898BF810300023CBF828A08BF839
:10BED00011308BF812308BF81330894900234FF45E
:10BEE0006352584639F022FE47EC116B9DED040B6E
:10BEF0001CA940A80BF05CFF0646A8B90A2022F056
:10BF0000A3FF48B1804B4674C0E90889C0E9053AEF
:10BF1000062303748674C67400234FF44352784991
:10BF200022E619EE100AB5E7F5EE408AF1EE10FAB6
:10BF3000764E00F04B82D6E90023012A73F100010E
:10BF400009DBA21A41F2707165EB03038A4273F1B7
:10BF50000003FFF6C2AD1CA80CF058F8DFED6C7AB8
:10BF6000B4EEE70AF1EE10FA2DDA9FED737ADFED09
:10BF7000697AB4EEC70AF1EE10FA09D930EE470A31
:10BF80009FED657AC0EE076A9FED647A46EE877A88
:10BF9000634B39EE679A00221CA98F1834A98818C0
:10BFA00003F10C01B7EC017AF3EC016A27EE877A12
:10BFB00009EE267A9942A0EC017AF3D10C32302AAC
:10BFC00004D00B46E8E7DFED577AE1E70023CDE93F
:10BFD0000C330E93379B0F933B9B10930FA83F9B03
:10BFE000119338F0E7FCDDED0F7ADDED108A8DED71
:10BFF000120AF0EEE77AF0EEE88AF4EE687AF1EEF3
:10C0000010FAC8BFF0EE678ADDED117A8DED130AE4
:10C01000F0EEE77AF4EEE87AF1EE10FAB0EE409A3C
:10C020008DED140A0CA9B7EE000A34A858BFF0EE43
:10C03000678A1EF03DFF002840F080801F9B15930B
:10C04000239B169315A8279B179338F0B3FCDDEDBF
:10C05000157ADDED168A8DED180AF0EEE77AF0EE2E
:10C06000E88AF4EE687AF1EE10FAC8BFF0EE678A5B
:10C07000DDED177A8DED190AF0EEE77AF4EEE87A45
:10C08000F1EE10FAB0EE409A8DED1A0A0CA9B7EE57
:10C09000000A1CA858BFF0EE678A1EF009FF0028AE
:10C0A00000F05A81DFED227A9FED220A29EE279ACD
:10C0B00018A9B4EEC09AF1EE10FAC8BFB0EE490A62
:10C0C00015A81EF0F5FE002800F04681F2EE007A79
:10C0D000F4EEE78AF1EE10FA00F23E810DF1700CF9
:10C0E000BCE80F0028AF0FC7BCE80F000FC79CE8E3
:10C0F0000F0087E80F004AE0CDCC4C3F8BDF0600F5
:10C1000014810600E6DF060023E00600B01A0020D6
:10C11000EC51783F3333333F90C2F53DE17A14BFA1
:10C12000185F00208FC2F53D845E0020805E0020F5
:10C13000CDCC4C3ECDCCCC3D9A99593F5FED047AA5
:10C140001FED040A29EE279A12A9B4EEC09AF1EE67
:10C1500010FAC8BFB0EE490A0FA81EF0A9FE0028C9
:10C160003FF46CAFF2EE007AF4EEE78AF1EE10FAEB
:10C170003FF664AF34AF0FCF0DF1A00CACE80F0069
:10C180000FCFACE80F0097E80F008CE80F001CA859
:10C190000BF03CFF5FED187AA14F8DED010AB4EE74
:10C1A000E70AF1EE10FAD7F800B022D510EE100A27
:10C1B000FBF7A2FABBF1020FCDE9020100F3DC802C
:10C1C0000A2022F041FE70B19DED027B954B436148
:10C1D0000BF10103036280ED067B0523037400234A
:10C1E00043748374C374904900234FF4235239F08D
:10C1F0009DFC3B6802930E2022F026FE8346E0B1B0
:10C20000029B8A4A42610133C0E9063AC0E90889C3
:10C2100018EE100AFBF770FACBE90A010198FBF758
:10C220006BFA0A23CBE90C018BF8103000238BF852
:10C2300011308BF812308BF813307B49002345F214
:10C24000C002584639F072FC0DF1A00CBCE80F009A
:10C25000DFF8F0E1AEE80F00BCE80F00AEE80F0039
:10C260009CE80F000DF1A0088EE80F00B8E80F0061
:10C270000DF1700EAEE80F00B8E80F00AEE80F0049
:10C280009CE80F008EE80F000CF030FC3B68C6E91C
:10C29000004501333B60664BC3ED009A0FF0E8FFA9
:10C2A00019F086FE634B644A00241C60002313606F
:10C2B000624A1360624B634A19680520302301F516
:10C2C0008A711DF051FD19F059FE062022F0BCFDC7
:10C2D00030B15D4B43610223037444748474C474AD
:10C2E000514900234FF4865239F020FC1CAC032640
:10C2F000002754F804BB0E20D4F808A0D4F81490FA
:10C30000D4F8208022F0A0FD0546D0B14F4B436108
:10C310005846FBF7F1F9C5E906015046FBF7ECF981
:10C32000C5E908014846FBF7E7F9C5E90A014046B7
:10C33000FBF7E2F9C5E90C010A232B746F74AF74A3
:10C34000EF743949002345F2C002284639F0EEFB6C
:10C35000013ECED1FFF7C1BB062022F075FD38B1FA
:10C360003B4B436102230374002343748374C374FF
:10C3700000234FF48452D2E518EE100AFBF7BCF903
:10C38000DFED347AB4EEE78AF1EE10FA04460D469A
:10C390004FF00A0014D522F057FD68B12E4B4361CF
:10C3A0009DED027B062380ED067BC0E90845037402
:10C3B000002343748374C37400234FF44252AEE5E8
:10C3C00022F042FD0028F7D0244BE8E70A2022F0B3
:10C3D0003BFD50B1224BC0E90889C0E9053A06236C
:10C3E0000374002343748374C3740F49154F0023EF
:10C3F0004FF4435239F09AFB0DF1700CBCE80F007A
:10C400000FC7BCE80F000FC79CE80F0087E80F00BC
:10C410000CF06CFB024B0122C6E900451A603AE7BA
:10C42000845E00209CE0060014810600A3E1060063
:10C43000805E0020885E0020905E00208C5E0020E0
:10C44000D0060020185F002038E2060074DD0600E8
:10C4500063E00600CDCC4C3DD8E006003FE106008D
:10C46000F3E10600000000002DE9F04F2DED048BF4
:10C470000021BDB007201EF01BFB0CF055FC19F08D
:10C4800001F9044637F035FB05460E465CB942F229
:10C49000107707201EF088FB0A2037F0ADFB19F05B
:10C4A000F1F80446B0B1B44D2B68B3F84849032CF9
:10C4B00039D80021012208460CF04CFD0121002052
:10C4C0000CF0DCFD19F054FDF0B1012100200DF05D
:10C4D0000FFA19E037F00DFB401B61EB0601B84283
:10C4E00071F10001D5DB062022F0AEFC30B1A34B88
:10C4F00043610223037444748474C474A049002308
:10C500004FF4865239F012FB00200BF047FF431E18
:10C510000D90042B01F25E80DFE813F060007700DD
:10C52000B2006902AC03462C1DD90A2022F08CFC13
:10C5300060B1944B4361944BC0E9063446230362D7
:10C5400005230374002343748374C37400234FF4DE
:10C5500021528B4939F0EAFA2B680022A3F84829C6
:10C5600083F84A29A5E719F097FFB4EE400AF1EEE7
:10C5700010FAB0EE408A1ED6082022F065FC044670
:10C5800068B1824B436118EE100AFBF7B5F804233B
:10C59000C4E90601237400236374A374E374784927
:10C5A00000234FF40352204639F0C0FAB0EE480A97
:10C5B0000BF090FA7DE7062022F046FC38B1744B70
:10C5C000436102230374002343748374C3746C496E
:10C5D00000234FF4845239F0A9FA6AE701212020A0
:10C5E0001DF07AFA0EF078F94FF0FF300BF0D6FE1E
:10C5F000002120201DF070FA664B93F87534022B51
:10C6000041F0568401230D9313E0012120201DF0F9
:10C6100063FA0CF09FFD4FF0FF300BF0BFFE0021DE
:10C6200020201DF059FA5B4B93F87534022B41F032
:10C630003F84514B574C1B68D4F87024B3F84839E9
:10C640009A424FF0000501F01584A4F874540820B4
:10C65000D4F8844422F0F8FB50B14F4BC0E90534C4
:10C660004723C36104230374002343748374C37496
:10C67000434900234FF4035239F058FA01F0E6BB66
:10C68000202001211DF028FA062022F0DDFB38B120
:10C69000424B436102230374002343748374C374C5
:10C6A000374900234FF4865239F040FA19F0F4FE6E
:10C6B000B4EE400AF1EE10FAB0EE408A0DD6FBEE71
:10C6C000047AB4EEE70AF1EE10FA06D4DFED347A1C
:10C6D000B4EEE70AF1EE10FA14DD082022F0B4FB04
:10C6E00048B1304B4361304B836103230374002313
:10C6F00043748374C374224900234FF4C25239F047
:10C7000015FA88E70BF080FD1B4C0546002851D137
:10C71000062022F099FB30B1244B436102230374BD
:10C7200045748574C57400234FF48452144939F05C
:10C73000FDF9226892F84E390133DBB2012B82F801
:10C740004E397FF668AF082022F07EFB48B1184BC7
:10C7500043610223836103230374002343748374BE
:10C76000C37400234FF4C452054939F0DFF923683C
:10C77000012283F84D294EE7D00600206DEA06001D
:10C7800014810600ADEA0600A2040700E3EA0600F1
:10C790002CEB0600EC590020A5FA060060EB060021
:10C7A0000000704284EB060030040700A6EB060090
:10C7B000C6EB06004FF4FA7037F01EFA062022F09E
:10C7C00043FB38B1AE4B436102230374002343742F
:10C7D0008374C374AB4900234FF4865239F0A6F931
:10C7E000A94B309340F6B833009330AA41F2883316
:10C7F0002AA92DA8FEF760FE834600287BD0B0F161
:10C80000FF3F50D1062022F01FFB38B19F4B436100
:10C8100002230374002343748374C37400234FF40E
:10C820008652984939F082F9226892F84E390133DC
:10C83000DBB2012B82F84E397FF6EDAE082022F0F4
:10C8400003FB48B1924B43610223836103230374CA
:10C85000002343748374C3748A4900234FF4C45281
:10C8600039F064F930A8B0EE480A0DF091FF0546A2
:10C8700000287FF47CAF062022F0E6FA30B1854B29
:10C8800043610223037445748574C5747D49002394
:10C890004FF4865239F04AF92368012283F84D2972
:10C8A00037F0D4F9B7E610F1020F11D1082022F0C9
:10C8B000CBFA48B1784B4361784B8361032303740F
:10C8C000002343748374C37400234FF4C252A8E757
:10C8D00010F1030FA8D1062022F0B6FA38B1704B40
:10C8E000436102230374002343748374C3740023DD
:10C8F0004FF4845295E79DED2A8ADDF8B4A0DDF867
:10C90000B890DDF8BC8018EE100AFAF7F5FE06467E
:10C910001020309D0F4622F097FA0446F8B1614B83
:10C9200043615046FAF7E8FEC4E906014846FAF7C3
:10C93000E3FEC4E908014046FAF7DEFEC4E90C67ED
:10C94000C4E90A012846FAF7D7FEC4E90E010C2310
:10C95000237484F811B084F812B084F813B0204620
:10C960004849514C002346F2C00239F0DFF8B0EEDE
:10C97000480A2DA80EF0E8FB054688B1082022F0F1
:10C9800063FA48B1494B4361494B83610323037404
:10C99000002343748374C37400234FF4C252E3E64C
:10C9A0002368012283F84D29424B83ED008A37F03A
:10C9B000A0F8414B8046C3E900010A200C4622F052
:10C9C00043FA50B13D4B4361C0E90667C0E90884B2
:10C9D0000623037445748574C57400234FF44352D1
:10C9E000284939F0A3F8002019F0D2FA13E62020E4
:10C9F00001211DF071F8062022F026FA38B1304BE3
:10CA0000436102230374002343748374C3741D4978
:10CA100000234FF4865239F089F819F03DFDB4EE49
:10CA2000400AF1EE10FA0DD6FBEE047AB4EEE70AF6
:10CA3000F1EE10FA06D4DFED237AB4EEE70AF1EE58
:10CA400010FA47DD082022F0FFF948B11E4B436180
:10CA50001E4B836103230374002343748374C374E4
:10CA600000234FF4C252074939F060F837F041F81B
:10CA7000174A114B801861F10001C3E90001CAE5B2
:10CA8000F9EB0600148106000000C07F2DEC0600C3
:10CA9000FBEC060023ED060059EC06001704070026
:10CAA00081EC0600B2EC0600D00600206CED06001A
:10CAB00030040700D8060020981A002097ED0600E1
:10CAC000D3ED06000000704212EE0600D603070008
:10CAD000D08AFFFF082022F0B7F940B1A44B436190
