:101000000059012051FF0200873E04003DFF02000D
:101010003DFF02003DFF02003DFF02000000000016
:10102000000000000000000000000000ED000300D0
:101030003DFF020000000000590003003DFF0200D8
:10104000C1030300495F0300C1030300C1030300A0
:10105000C1030300C1030300C1030300C103030074
:10106000C1030300C1030300ADA00300C1030300DB
:10107000C1030300C1030300C1030300C103030054
:10108000C1030300C1030300C1030300C103030044
:10109000AD5F0300C1030300C1030300C1030300EC
:1010A000C1030300C1030300C1030300C103030024
:1010B000C1030300C1030300C1030300C103030014
:1010C000C1030300C1030300C1030300C103030004
:1010D000C1030300C1030300C1030300C1030300F4
:1010E000C1030300C1030300C1030300C1030300E4
:1010F000C1030300C1030300C1030300C1030300D4
:1011000001F0FF01102A2BDB10F0070F08D010F8B8
:10111000013B013A8B422DD010F0070F42B3F6D1BC
:10112000F0B441EA012141EA014122F007047FF0D5
:1011300000070023F0E80256083C85EA010586EA2C
:10114000010685FA47F5A3FA87F586FA47F6A5FA68
:1011500087F68EB9EED1F0BC01F0FF0102F0070274
:1011600032B110F8013B013A83EA010313B1F8D11F
:101170000020704701387047002D06BF3546033800
:10118000073815F0010F07D1013015F4807F02BF39
:10119000013015F4C03F0130F0BC0138704700BF8A
:1011A000014B1B685B68184700050020014B1B685A
:1011B0009B68184700050020014B1B681B691847F6
:1011C00000050020014B1B685B69184700050020E3
:1011D000014B1B689B69184700050020014B1B68E9
:1011E000DB69184700050020014B1B681B6A184784
:1011F00000050020014B1B689B6A18470005002072
:1012000030B4044C9DF8085024680295E468A44664
:1012100030BC60470005002030B50246114890F907
:101220001C3093421ADD90F92430934218DAD31A15
:10123000856A0D4CE85C235693420ED00E3400298B
:101240000CBF0346431CA542D8B206D129B1013ACE
:10125000D2B2012A01D80130C0B230BD0D20FCE766
:101260000020FAE7981000203C61040008B5054B07
:1012700093F91C30984203DAFFF7CEFF024B1B565E
:10128000184608BD981000203C61040010B51C4CA5
:1012900094F82C3073B9012384F82C3000F09EF8B8
:1012A00048B1184BA362D823236284F82430082362
:1012B000A361237710BD00F0A7F80028F1D100F05A
:1012C000ADF80028EDD100F06BF838B10E4BA362F9
:1012D000D823236284F824300423E9E700F06AF875
:1012E0000028F3D100F070F80028EFD100F080F86A
:1012F0000028EBD140F2BF11742000F019F800BFB4
:1013000098100020776104004A610400BFF34F8FFA
:101310000549064BCA6802F4E0621343CB60BFF391
:101320004F8F00BFFDE700BF00ED00E00400FA05AD
:101330001FB572B6134B5D688DB9FFF7E7FFB2FBBF
:10134000F6F2DCB20133002AF9D104F110036B4448
:1013500003F80C2C0A2234B901A8A847EDE702468D
:1013600000230A26EDE7631E04AEDCB256FA83F3CF
:10137000B0FBF2F602FB1600303003F80C0C3046DE
:10138000E9E700BF381500204FF08052034BD2F838
:1013900030111960D2F834215A607047741500205A
:1013A000034B1868A0F10F0358425841704700BF23
:1013B00074150020034B1868A0F10A0358425841E5
:1013C000704700BF74150020034B1868A0F10E038E
:1013D00058425841704700BF74150020034B1868ED
:1013E000A0F1100358425841704700BF7415002007
:1013F000044B1868062803D0431C584258417047D4
:101400000120704774150020034B1868A0F10D03EC
:1014100058425841704700BF74150020034B1868AC
:10142000A0F1080358425841704700BF74150020CE
:1014300081F0004102E000BF83F0004330B54FEA85
:1014400041044FEA430594EA050F08BF90EA020FF2
:101450001FBF54EA000C55EA020C7FEA645C7FEA85
:10146000655C00F0E2804FEA5454D4EB5555B8BFA8
:101470006D420CDD2C4480EA020281EA030382EA19
:10148000000083EA010180EA020281EA0303362DAB
:1014900088BF30BD11F0004F4FEA01314FF4801C7E
:1014A0004CEA113102D0404261EB410113F0004F90
:1014B0004FEA03334CEA133302D0524263EB430347
:1014C00094EA050F00F0A780A4F10104D5F1200EE5
:1014D0000DDB02FA0EFC22FA05F2801841F1000140
:1014E00003FA0EF2801843FA05F359410EE0A5F114
:1014F00020050EF1200E012A03FA0EFC28BF4CF045
:10150000020C43FA05F3C01851EBE37101F00045FA
:1015100007D54FF0000EDCF1000C7EEB00006EEB07
:101520000101B1F5801F1BD3B1F5001F0CD3490891
:101530005FEA30004FEA3C0C04F101044FEA4452E8
:1015400012F5800F80F09A80BCF1004F08BF5FEA6F
:10155000500C50F1000041EB045141EA050130BD4F
:101560005FEA4C0C404141EB0101013C28BFB1F561
:10157000801FE9D291F0000F04BF01460020B1FAAC
:1015800081F308BF2033A3F10B03B3F120020CDA7F
:101590000C3208DD02F1140CC2F10C0201FA0CF05D
:1015A00021FA02F10CE002F11402D8BFC2F1200CC2
:1015B00001FA02F120FA0CFCDCBF41EA0C01904078
:1015C000E41AA2BF01EB0451294330BD6FEA0404C1
:1015D0001F3C1CDA0C340EDC04F11404C4F12002AC
:1015E00020FA04F001FA02F340EA030021FA04F3BE
:1015F00045EA030130BDC4F10C04C4F1200220FA15
:1016000002F001FA04F340EA0300294630BD21FA52
:1016100004F0294630BD94F0000F83F4801306BF18
:1016200081F480110134013D4EE77FEA645C18BF0C
:101630007FEA655C29D094EA050F08BF90EA020FA3
:1016400005D054EA000C04BF1946104630BD91EA9B
:10165000030F1EBF0021002030BD5FEA545C05D19E
:101660004000494128BF41F0004130BD14F58004DD
:101670003CBF01F5801130BD01F0004545F0FE4151
:1016800041F470014FF0000030BD7FEA645C1ABF86
:10169000194610467FEA655C1CBF0B46024650EABD
:1016A000013406BF52EA033591EA030F41F40021E9
:1016B00030BD00BF90F0000F04BF0021704730B56F
:1016C0004FF4806404F132044FF000054FF0000144
:1016D00050E700BF90F0000F04BF0021704730B505
:1016E0004FF4806404F1320410F0004548BF4042DA
:1016F0004FF000013EE700BF42004FEAE2014FEA2F
:1017000031014FEA02701FBF12F07F4393F07F4F09
:1017100081F06051704732F07F4208BF704793F00C
:101720007F4F04BF41F40021704730B54FF460741F
:1017300001F0004521F000411CE700BF50EA010222
:1017400008BF704730B54FF000050AE050EA0102CB
:1017500008BF704730B511F0004502D5404261EB3B
:1017600041014FF4806404F132045FEA915C3FF47C
:10177000D8AE4FF003025FEADC0C18BF03325FEA19
:10178000DC0C18BF033202EBDC02C2F1200300FACA
:1017900003FC20FA02F001FA03FE40EA0E0021FAEF
:1017A00002F11444BDE600BF70B54FF0FF0C4CF4DD
:1017B000E06C1CEA11541DBF1CEA135594EA0C0F8F
:1017C00095EA0C0F00F0DEF82C4481EA030621EACA
:1017D0004C5123EA4C5350EA013518BF52EA033505
:1017E00041F4801143F4801338D0A0FB02CE4FF0B7
:1017F0000005E1FB02E506F00042E0FB03E54FF0E7
:101800000006E1FB03569CF0000F18BF4EF0010EDE
:10181000A4F1FF04B6F5007F64F5407404D25FEADA
:101820004E0E6D4146EB060642EAC62141EA55518D
:101830004FEAC52040EA5E504FEACE2EB4F1FD0CCF
:1018400088BFBCF5E06F1ED8BEF1004F08BF5FEA4D
:10185000500E50F1000041EB045170BD06F00046FF
:1018600046EA010140EA020081EA0301B4EB5C04AC
:10187000C2BFD4EB0C0541EA045170BD41F48011A4
:101880004FF0000E013C00F3AB8014F1360FDEBFC9
:10189000002001F0004170BDC4F10004203C35DAA5
:1018A0000C341BDC04F11404C4F1200500FA05F328
:1018B00020FA04F001FA05F240EA020001F00042C9
:1018C00021F0004110EBD37021FA04F642EB06013F
:1018D0005EEA430E08BF20EAD37070BDC4F10C0469
:1018E000C4F1200500FA04F320FA05F001FA04F22D
:1018F00040EA020001F0004110EBD37041F1000119
:101900005EEA430E08BF20EAD37070BDC4F1200523
:1019100000FA05F24EEA020E20FA04F301FA05F28B
:1019200043EA020321FA04F001F0004121FA04F233
:1019300020EA020000EBD3705EEA430E08BF20EA03
:10194000D37070BD94F0000F0FD101F0004640003D
:1019500041EB010111F4801F08BF013CF7D041EABF
:10196000060195F0000F18BF704703F000465200C3
:1019700043EB030313F4801F08BF013DF7D043EA94
:101980000603704794EA0C0F0CEA135518BF95EA4A
:101990000C0F0CD050EA410618BF52EA4306D1D1D1
:1019A00081EA030101F000414FF0000070BD50EAF0
:1019B000410606BF1046194652EA430619D094EA7A
:1019C0000C0F02D150EA013613D195EA0C0F05D164
:1019D00052EA03361CBF104619460AD181EA0301B8
:1019E00001F0004141F0FE4141F470014FF0000070
:1019F00070BD41F0FE4141F4780170BD70B54FF00B
:101A0000FF0C4CF4E06C1CEA11541DBF1CEA13558A
:101A100094EA0C0F95EA0C0F00F0A7F8A4EB05046C
:101A200081EA030E52EA03354FEA013100F0888063
:101A30004FEA03334FF0805545EA131343EA12632C
:101A40004FEA022245EA111545EA10654FEA0026E1
:101A50000EF000419D4208BF964244F1FD0404F59A
:101A6000407402D25B084FEA3202B61A65EB0305F6
:101A70005B084FEA32024FF480104FF4002CB6EBB3
:101A8000020E75EB030E22BFB61A754640EA0C0033
:101A90005B084FEA3202B6EB020E75EB030E22BF73
:101AA000B61A754640EA5C005B084FEA3202B6EBB4
:101AB000020E75EB030E22BFB61A754640EA9C0073
:101AC0005B084FEA3202B6EB020E75EB030E22BF43
:101AD000B61A754640EADC0055EA060E18D04FEA01
:101AE000051545EA16754FEA06164FEAC30343EAA1
:101AF00052734FEAC2025FEA1C1CC0D111F4801F6E
:101B00000BD141EA00014FF000004FF0004CB6E766
:101B100011F4801F04BF01430020B4F1FD0C88BF05
:101B2000BCF5E06F3FF6AFAEB5EB030C04BFB6EB10
:101B3000020C5FEA500C50F1000041EB045170BD03
:101B40000EF0004E4EEA113114EB5C04C2BFD4EB30
:101B50000C0541EA045170BD41F480114FF0000EB4
:101B6000013C90E645EA060E8DE60CEA135594EA30
:101B70000C0F08BF95EA0C0F3FF43BAF94EA0C0F33
:101B80000AD150EA01347FF434AF95EA0C0F7FF4A8
:101B900025AF104619462CE795EA0C0F06D152EAFC
:101BA00003353FF4FDAE1046194622E750EA4106E0
:101BB00018BF52EA43067FF4C5AE50EA41047FF4F1
:101BC0000DAF52EA43057FF4EBAE12E74FF0FF3C56
:101BD00006E000BF4FF0010C02E000BF4FF0010C27
:101BE0004DF804CD4FEA410C7FEA6C5C4FEA430CA0
:101BF00018BF7FEA6C5C1BD001B050EA410C0CBFEF
:101C000052EA430C91EA030F02BF90EA020F002050
:101C1000704710F1000F91EA030F58BF994208BFB7
:101C200090422CBFD8176FEAE37040F00100704774
:101C30004FEA410C7FEA6C5C02D150EA013C07D1CB
:101C40004FEA430C7FEA6C5CD6D152EA033CD3D016
:101C50005DF8040B704700BF8446104662468C4610
:101C60001946634600E000BF01B5FFF7B7FF002843
:101C700048BF10F1000F01BD4DF808EDFFF7F4FF6C
:101C80000CBF012000205DF808FB00BF4DF808EDF7
:101C9000FFF7EAFF34BF012000205DF808FB00BF1A
:101CA0004DF808EDFFF7E0FF94BF012000205DF83C
:101CB00008FB00BF4DF808EDFFF7CEFF94BF0120F1
:101CC00000205DF808FB00BF4DF808EDFFF7C4FFEA
:101CD00034BF012000205DF808FB00BF4FEA410C33
:101CE0007FEA6C5C02D150EA013C0AD14FEA430C16
:101CF0007FEA6C5C02D152EA033C02D14FF0000053
:101D000070474FF0010070474FEA410212F5001290
:101D100015D211D56FF47873B3EB625212D94FEA32
:101D2000C12343F0004343EA505311F0004F23FA1C
:101D300002F018BF404270474FF00000704750EA71
:101D4000013005D111F0004008BF6FF0004070472E
:101D50004FF00000704700BF4A0011D212F5001288
:101D600011D20DD56FF47873B3EB62520ED44FEAF3
:101D7000C12343F0004343EA505323FA02F0704773
:101D80004FF00000704750EA013002D14FF0FF30B1
:101D900070474FF0000070474FEA4102B2F1E04354
:101DA00024BFB3F5001CDCF1FE5C0DD901F0004C42
:101DB0004FEAC0024CEA5070B2F1004F40EB830092
:101DC00008BF20F00100704711F0804F21D113F1BE
:101DD0003872BCBF01F00040704741F480114FEAF7
:101DE0005252C2F11802C2F1200C10FA0CF320FA80
:101DF00002F018BF40F001004FEAC1234FEAD3239D
:101E000003FA0CFC40EA0C0023FA02F34FEA430306
:101E1000CCE77FEA625307D150EA01331EBF4FF08F
:101E2000FE4040F44000704701F0004040F0FE40AA
:101E300040F40000704700BF80F0004002E000BFA7
:101E400081F0004142001FBF5FEA410392EA030FA5
:101E50007FEA226C7FEA236C6AD04FEA1262D2EBEF
:101E60001363C1BFD218414048404140B8BF5B42F4
:101E7000192B88BF704710F0004F40F4000020F08D
:101E80007F4018BF404211F0004F41F4000121F0A3
:101E90007F4118BF494292EA030F3FD0A2F10102ED
:101EA00041FA03FC10EB0C00C3F1200301FA03F12B
:101EB00000F0004302D5494260EB4000B0F5000F4E
:101EC00013D3B0F1807F06D340084FEA310102F10D
:101ED0000102FE2A51D2B1F1004F40EBC25008BFBF
:101EE00020F0010040EA03007047490040EB000089
:101EF000013A28BFB0F5000FEDD2B0FA80FCACF18A
:101F0000080CB2EB0C0200FA0CF0AABF00EBC250B6
:101F100052421843BCBFD0401843704792F0000FA4
:101F200081F4000106BF80F400000132013BB5E7F7
:101F30004FEA41037FEA226C18BF7FEA236C21D06D
:101F400092EA030F04D092F0000F08BF08467047D2
:101F500090EA010F1CBF0020704712F07F4F04D1A0
:101F6000400028BF40F00040704712F100723CBFB3
:101F700000F50000704700F0004343F0FE4040F4DD
:101F8000000070477FEA226216BF08467FEA23639B
:101F90000146420206BF5FEA412390EA010F40F486
:101FA000800070474FF0000304E000BF10F00043D2
:101FB00048BF40425FEA000C08BF704743F09643B9
:101FC00001464FF000001CE050EA010208BF7047D4
:101FD0004FF000030AE000BF50EA010208BF70475B
:101FE00011F0004302D5404261EB41015FEA010C70
:101FF00002BF84460146002043F0B64308BFA3F168
:102000008053A3F50003BCFA8CF2083AA3EBC25349
:1020100010DB01FA02FC634400FA02FCC2F1200268
:10202000BCF1004F20FA02F243EB020008BF20F09F
:102030000100704702F1200201FA02FCC2F1200205
:1020400050EA4C0021FA02F243EB020008BF20EAFA
:10205000DC7070477BB972B90029BEBF00204FF019
:10206000004106E008BF00281CBF6FF000414FF0A0
:10207000FF3000F095B8ADF1080C6DE904CE0029F1
:1020800009DB002B1ADB00F005F9DDF804E0DDE9DF
:10209000022304B07047404261EB4101002B1BDB7F
:1020A00000F0F8F8DDF804E0DDE9022304B0404276
:1020B00061EB4101524263EB43037047524263EBD1
:1020C000430300F0E7F8DDF804E0DDE9022304B0A3
:1020D000404261EB41017047524263EB430300F021
:1020E000D9F8DDF804E0DDE9022304B0524263EBE5
:1020F0004303704753B94AB9002908BF00281CBFE1
:102100004FF0FF314FF0FF3000F04AB8ADF1080C4E
:102110006DE904CE00F0BEF8DDF804E0DDE902234D
:1021200004B07047D0B5FFF7E7FA0C4B0022064623
:102130000F46FFF739FBFFF70FFE0446FFF7BAFA29
:10214000074B0022FFF730FB02460B46304639466C
:10215000FFF772F9FFF700FE2146D0BD0000F03D09
:102160000000F041D0B50C4B002206460F46FFF7A9
:102170001BFBFFF7F1FD0446FFF79CFA074B00221B
:10218000FFF712FB02460B4630463946FFF754F97B
:10219000FFF7E2FD2146D0BD0000F03D0000F04118
:1021A000704700BF08B5FFF7EFF8BDE80840FFF73C
:1021B0006DB870B5841A04F307040E4660B259B2C4
:1021C0001546FFF753F8002330702844737040B26F
:1021D00070BD0023036070477047002070474FF0C8
:1021E000FF3070474FF0FF30704770474FF0FF30BF
:1021F000704700207047002070470023037070472D
:102200009DF800300022FFF7D4BF002070474FF048
:10221000FF3070474FF0FF3070474FF0FF3070478E
:10222000704700280CBF6FF0150000207047002099
:10223000704707230370002070470020704700207C
:10224000704710F8012B11F8013B012A28BF9A4270
:10225000F7D0D01A7047034613F8012B002AFBD1A0
:10226000181A0138704738B50022002304460D467D
:10227000FFF70CFD28B920462946BDE83840FFF796
:1022800071BF204605F10041FFF76CFF404261EB52
:10229000410138BD2DE9F04786468C460846089E28
:1022A000154674461946002B40F0C2808542B2FAAA
:1022B00082F245D94AB1C2F1200300FA02FC2EFA9B
:1022C00003F3954043EA0C0C94404FEA154EA8B234
:1022D000BCFBFEF8230C0EFB18CC08FB00F943EA0C
:1022E0000C43994528D9EB1808F1FF3704D29945DA
:1022F00002D9A8F102072B44A3EB0903A4B2B3FB54
:10230000FEFC0EFB1C330CFB00F044EA0344A0422D
:1023100014D92C190CF1FF3304D2A04202D9ACF12C
:1023200002032C44241A43EA07401EB1D440002380
:1023300034607360BDE8F0874746DDE76346F1E748
:1023400092BB431B01214FEA154EAFB2B3FBFEFC1B
:10235000200C0EFB1C330CFB07F840EA03439845A6
:1023600062D9EB180CF1FF3004D2984502D9ACF1D8
:1023700002002B44A3EB0803A4B2B3FBFEFC0EFB4C
:102380001C330CFB07F744EA0344A7424ED92C192F
:102390000CF1FF3304D2A74202D9ACF102032C4462
:1023A000E41B43EA0040C0E7C2F1200320FA03F136
:1023B000954090402EFA03F303434FEA154EAFB217
:1023C000B1FBFEFC0EFB1C10190C0CFB07F841EADC
:1023D0000041884504FA02F422D969180CF1FF3053
:1023E00004D2884502D9ACF102002944A1EB0801CE
:1023F0009BB2B1FBFEFC0EFB1C110CFB07F743EA82
:1024000001439F420ED9EB180CF1FF3104D29F42D9
:1024100002D9ACF102012B44DB1B41EA004192E7F7
:102420006046E3E76146F7E76046A3E76346B7E740
:10243000834206D916B9002108467BE7C6E900E0C9
:10244000F9E7B3FA83F78FB9834201D3724508D80D
:10245000BEEB020460EB030301209C461EB9002181
:1024600068E73846FAE7C6E9004CF8E7C7F1200C00
:10247000BB4022FA0CF41C432EFA0CF120FA0CF3A8
:10248000B84001434FEA14490EFA07F5B3FBF9F8D7
:102490001FFA84FE09FB18300B0C08FB0EFA43EA06
:1024A00000439A4502FA07F240D9E31808F1FF30D9
:1024B00004D29A4502D9A8F102002344A3EB0A03EF
:1024C00089B2B3FBF9F809FB183308FB0EFE41EAA9
:1024D00003418E452CD9611808F1FF3304D28E4593
:1024E00002D9A8F10203214443EA0040A0FB02986C
:1024F000A1EB0E014145CE46434602D306D14D45E0
:1025000004D2B9EB020E68EB04030138002EA6D00A
:10251000B5EB0E0261EB030101FA0CFC22FA07F3A2
:102520004CEA0303F940C6E9003198E74046C5E7A5
:102530004346D9E7000000002DE9F04F2DED048B54
:1025400087B00678012E00AF1AD0022E00F0AE80C0
:1025500086B9A84A136801331360A74B1E60A74BC6
:102560001B783BB10CF02CF820B934F015F908B108
:102570000CF0B6FF1C37BD46BDEC048BBDE8F08FF8
:102580009F4C2368013323603FF015F924686422CF
:10259000B4FBF2F302FB13439A4A2BB1136841F2E6
:1025A0008831C31A8B421FD9924B10601E68A5193F
:1025B00018BF64234FF00A001CBF6343B3FBF5F55B
:1025C0002AF02CFB50B1904BC0E90745C0E9053615
:1025D00005230374002343748374C3748B4900235D
:1025E0004FF4235241F00AFADFF86082884D98F8E0
:1025F0000030B3B13FF0DFF8864AD2E90064861BB1
:1026000061EB04040BF06EFC64380023B04273EB02
:10261000040406DA804A88F8003013602B6801331E
:102620002B602E68BEB30A23B6FBF3F403FB1464DD
:10263000ACB97A4B1B78F02B11D108202AF0EEFAB6
:1026400038B1774B4474C0E90536032303748474AE
:10265000C4746E4900234FF4C45241F0CFF92C6882
:10266000B4F5967F17D13FF0A6F86E4BC3E9000191
:1026700008202AF0D3FA40B16B4BC0E9053403239C
:102680000374002343748374C374604900234FF4BC
:10269000C45241F0B3F9594B1B78002B3FF46AAF99
:1026A0000BF08EFF00287FF465AF61E75F4D284691
:1026B00034F024F910F13D0F04463FF45BAFA8B1AC
:1026C00008202AF0ABFA50B1594B4361594BC0E98D
:1026D000063404230374002343748374C3740023F7
:1026E0004FF40152494941F089F943E752492B78A7
:1026F0000A78002A43D1082B7FF43CAF4F4C237853
:10270000002B3FF437AF4E4B68795B79984201D08C
:1027100022702FE74FF000084FF00009C7E9048945
:10272000B5F80B30BB82D5F80700BE8A38614FF090
:1027300080537E61D3F8A4C0D3F8A8309BB29E42E8
:1027400008BF604514D106202AF068FA38B13D4B25
:10275000436102230374002343748374C37400230E
:102760002A494FF4845241F049F90023237001E7CC
:10277000D5F805300B60D5F809304B60C8E70D2B54
:1027800068D0112B3FF4F6AE032B40F2EF836B7948
:10279000AA2B40F0EB830BF013FF002800F0E68338
:1027A0002B78AA792148284CDFF8A4C0023B03EB20
:1027B000D373C3F34703934228BF13460026F2B2F4
:1027C00093427FF6D7AEC279057A45EA0225002208
:1027D00094F800E0D1B27145C0F0BD8322780F2A91
:1027E00000F2C1832278D1B20132D2B222702CF829
:1027F0001150B8E3605A0020685A002014ED002000
:102800005C5A0020585A0020C17C04008C5F0400F0
:10281000F45A002010180020F85A0020F017002069
:10282000EA7C0400F81800200A7D04001EED002058
:102830004F7D04009B8A040016ED00206BED002004
:10284000FD0C0020757D04005AB3002013ED00201C
:10285000BEB000206B79F12B7FF48CAE0C22691D89
:10286000072027F017FF6B7C83420DD006202AF04B
:10287000D5F928B1A24B4361067444748474C474BE
:1028800000234FF484522DE79E4B95F806901E7856
:10289000DFF8C0824E452CD008202AF0BFF948B19D
:1028A000994BC661C0E905390423037400234374BE
:1028B0008374C374954900234FF4025241F09EF88B
:1028C000934B002402201C70C8F8004024F048FEFE
:1028D00001287FF44FAE2146022024F091FD8D4B5C
:1028E00000200021C3E900018B4B1C708B4B1C6046
:1028F00040E6DFF864B295F807909BF80060844BDF
:10290000B6EB09064FF0000A4FF0020048BF06F58B
:102910008076C8F800A083F800A024F021FE0128EA
:10292000DFF8F88111D1D8F800300133C8F8003051
:102930006BB15146022024F063FD9FED6F7B754B18
:1029400083ED007B744B83F800A0C8F800A0052E2F
:1029500016DD0A209BF800802AF060F950B1704B18
:10296000C0E90786C0E905390523037400234374D1
:102970008374C374654900234FF4225241F03EF83A
:10298000AA68298995F808A0B5F809606B89654897
:1029900090F800C0CC4504D1D0F80480B8F1000F05
:1029A00006D101340A2C00F10800F1D14FF00008E3
:1029B0002C7B0C2C6DD1C9BA07EE901A9FED5A7A78
:1029C000F8EEE77ADBBA87EE878A204607EE903A80
:1029D000B5F80D30F8EEE77ADBBA87EE879A07EEA6
:1029E000903AF8EEE77AC7EE878A2AF017F906469A
:1029F000C8B14E4B436118EE100AFEF77DFEC6E9E2
:102A0000060119EE100AFEF777FEC6E9080118EE76
:102A1000900AFEF771FE0823C6E90A013374002309
:102A20007374B374F37430463849002344F2C0021F
:102A300040F0E4FF0026B2463D4B1978002940F0F3
:102A40009F811C703EF0B7FE3A4B0A2CC3E900018F
:102A500040F0A081D5F80D30374A1BBA6D468CB0D6
:102A600013606A463549136240F2DC535161536288
:102A700033494FF400731385324BC2E9061442F810
:102A8000103F00234FF4535120482AF0A7FAAD46D7
:102A900070E5242C62D1C6B908202AF0BFF838B1FD
:102AA000294B4674C0E9053A032303748674C6743F
:102AB00000234FF4C652154940F0A0FF9FED238A32
:102AC000B0EE489AF0EE488AB6E776BA0820B6B279
:102AD0002AF0A4F848B11E4BC661C0E9053A0423A8
:102AE0000374002343748374C37400234FF40352AC
:102AF000E1E700BFAFF3008000000000000000002D
:102B0000B17D040079E80020C37D04008C5F0400DF
:102B100013ED0020F81800206CED0020F85A00207A
:102B2000F17D0400A45A00200000C8421D7E04006C
:102B300010ED002008180020A05A0020EE7E0400AE
:102B4000347F040006000001467E040000000000FF
:102B50007C7E0400F45A002012ED0020B8F1000F32
:102B600048D0994BDFF8B8E21868984BDEF800605F
:102B7000DFF8B092A0EB080CACFB0313C90B41EAE1
:102B80004341BCF1000F3BD0B44539D8CEF800C06A
:102B90000023C9F80030DEF800308C4E9B00A3FB08
:102BA0000636DB0B43EA4643B3F57A7F38BF4FF472
:102BB0007A7399421ED2864B16BAC3F80080361A31
:102BC0003EF0F9FD834B844AC3E900018349844BFD
:102BD000087810BB1E60834BDFF810C21860012319
:102BE000CCF80060C2F800800B707F4B01221A7095
:102BF00042F04BF9002C00F09E800026B2465DE7C3
:102C0000D9F800300133772BC9F80030C3D9132E1F
:102C1000C1D80136CEF80060BAE71268DFF8089232
:102C20001B68BB60A8EB020BD9F80020FA604FEAE2
:102C3000E27CA2FB0B010BFB0C1161A3D3E9002387
:102C4000FFF708FABB68694A034412687A60F31A0E
:102C500083EAE372A2EBE372B2F5FA4F4FF0000A97
:102C600024DD0A20FB6029F0D9FF70B1FB68836185
:102C70007B685F4A4261C0E907360523037480F828
:102C800011A080F812A080F813A0002359494FF436
:102C9000225240F0B3FE554B1E60514B1E604E4B0E
:102CA000C3F800800023C9F800309EE7BBF5004F51
:102CB00011D3BB685048F11A5A46534681FB0001B4
:102CC000FFF7C8F9FB68C01AFB6848BF033003EB85
:102CD000A000C9F80000434BD9F800001A6802F1BF
:102CE000010AC3F800A03A4B1B68A8EB030CC117FC
:102CF000ACFB000E32A3D3E900230CFB01E1FFF78C
:102D0000A9F97B6803449946BAF1050FA6EB0303C2
:102D100098BF03EB43039A1C48BF5A1D334BBBF5C6
:102D2000F01F09EBA2021A6081BF2D4B1E602A4BD7
:102D3000C3F8008059E76C7BAE7B95F80F802D7C43
:102D4000FF2C0DD066B1B8F1000F09D00EF0EAFAF1
:102D5000854205D02B464246314620460EF062FAA7
:102D6000264B1A78002A3FF405AC254900221A7038
:102D7000244B0A7000200021C3E90001FFF7FABBD1
:102D80001E4A12788A427FF4F5AB94427FF459AE22
:102D9000FFF7F0BB0C2C08D11B4B83ED008A83EDB1
:102DA000019AC3ED028A194907E0242C3ED1184B41
:102DB000184983F800A0184B1E80184B59E000BF3B
:102DC00000CA9A3B000000001CAE002040420F00E9
:102DD0008C5A002000180020805A00207AE8002039
:102DE000845A0020785A00207BE80020905A002066
:102DF000AD7E04008C5F040000CA9A3B0FED0020FA
:102E000010ED002008180020945A00201C850400B2
:102E10000EED0020B77C0400E0B200208B7C0400A3
:102E2000CC0600207C5A0020885A0020631E322BDA
:102E300000F28980DFE803F0898C2E313437434675
:102E40004987874F5154575A665D6063696C6F3A82
:102E50003D407275787B87874C8787878787878710
:102E6000878787878787871A7E8184005E49302419
:102E70005E4B6D468AB06A465D48C2E907435D4BCA
:102E800053625D4BC2E9050142F8103F00234FF445
:102E90004351F9E5594903248FE7594904248CE744
:102EA0005849052489E75849062486E757491824D4
:102EB00083E75749192480E756491A247DE7564984
:102EC00007247AE75549082477E75549092474E728
:102ED0005449212471E70C2465E753490D246CE71C
:102EE00052490E2469E752490F2466E751491024DC
:102EF00063E75149122460E7504913245DE75049C4
:102F000014245AE74F49112457E74F49152454E731
:102F10004E49162451E74E4917244EE74D491B24CC
:102F20004BE74D491C2448E74C491D2445E74C49D3
:102F30001E2442E74B4931249AE74B49322497E754
:102F40004A49332494E74A4937E74A49012434E798
:102F50004949022431E73CF8111089B28D4202F14F
:102F600001027FF435AC0136023028E42E78012EC0
:102F700028D96B79203B052B24D8DFF810813F4BF3
:102F800098F800401B78013404F00F049C423FF491
:102F9000F1AA98F800003A4D3A4900EBC00300EB63
:102FA000C3003246284441F0D4FF98F8003049224B
:102FB00002FB035585F84860BFF35F8F88F8004037
:102FC000FFF7D8BA082029F029FE40B12E4BC0E9FE
:102FD000053603230374002343748374C3740023EE
:102FE0004FF4C452FFF77EBB69870400757C040070
:102FF000407F040000020204050000026581040015
:103000008C810400B2810400D1810400F5810400A8
:10301000178204003882040033830400D581040041
:103020005DB204006DB204003F8504009F8504007A
:10303000C3850400E78504000B8604003086040085
:10304000578604007F8604009E860400C58604001F
:10305000EC8604005A8204007C8204009F820400F3
:10306000C182040092870400A27C0400667C0400F4
:10307000AF7C04001E810400418104007CE8002034
:103080007EE8002023ED0020687F04007DE800201A
:1030900070B5234E33781BB33EF08DFB214AD2E945
:1030A000004543F69923041B61EB05059C4275F12D
:1030B000000318DB082029F0B1FD48B11A4BC561A7
:1030C000C0E9053404230374002343748374C37478
:1030D000002316494FF4025240F090FC0023337055
:1030E0000020002170BD41F0D0FE114B1D68114B36
:1030F000451B04461868C617A5FB000106A3D3E9C3
:10310000002305FB0611FEF7A5FF0B4B1B681C44B3
:103110002044E6E7AFF3008000CA9A3B00000000BD
:103120007BE8002000180020788804008C5F0400F1
:103130008C5A0020885A0020905A0020000000007D
:10314000F0B514461A4AA0FB020302FB0131C00B82
:1031500085B040EA414014A3D3E90023C90BFEF730
:10316000C9FF0546194610460023124AFEF7C2FF62
:1031700006461946104600230D4AFEF7BBFF0746D8
:103180001946104600234FF47A72FEF7B3FF0097FA
:10319000CDE90102334608482A4621463FF016FF92
:1031A00005B0F0BDAFF3008000A493D6000000008E
:1031B00040420F0000879303DB96040000000000EC
:1031C0002DE9F04F2DED068BCBB024F061FD50B111
:1031D0004FF0804357220120C3F81C250EF0A8F8B9
:1031E000002023F0B5FB2CF011F929F02DFD044649
:1031F000002840F0F580914841F042FD78B18F4DB4
:103200004594AE683224B36C002B40F0ED8064200E
:103210003EF0E1FA013CF6D164203EF0DCFA884849
:10322000884D3FF0D3FE0F241223CDE901340B2348
:10323000854800930722042340F2EA713FF0C6FE5E
:10324000824B834A834984483FF0C0FE0EF082F8E7
:10325000824B18681B798DF84430814B10909A8806
:10326000ADF8B4207F4A186851689B792C9010689B
:103270008DF8B63038AB03C3127A1A707A4B9A883D
:10328000ADF8BC20794A186851689B792E90106877
:103290008DF8BE3034AB03C3754B764A186851685D
:1032A0001B79129010688DF84C303BAB03C3128928
:1032B0001A80714B18681B798DF854306F4B14903D
:1032C00018689B88ADF894306D4B249018689B88E3
:1032D000ADF89C306B4B26909A8818689B798DF8D6
:1032E000C630694B3090CDE90653684BADF8C42029
:1032F00018681B798DF85C30654B664A1690186823
:103300009B882890ADF8A4301068516836AB03C391
:10331000614B41AA03F1080618685968144603C4B2
:103320000833B3422246F7D118681B7923715B4BEF
:10333000206008935A4B5B4A18681B798DF86430FB
:10334000594B189018681B7951681A908DF86C3099
:103350001068564B09933EAB03C312891A80544A36
:10336000544B1068544E1C9018681E9030682A9078
:10337000B088ADF8AC005148147919798DF87440D3
:103380008DF87C100A90A0F54020A0F61970CDE9C8
:103390000B05106820901868494B0D93494B2290FB
:1033A0009A8818689B798DF8CE30474B8DF8844009
:1033B0008DF88C103290ADF8CC200E932CF00EF8D6
:1033C00006460246414800251178C9B9052214A9CC
:1033D000304641F0AEFD00287AD10DF0BBFFEDE79D
:1033E000012039F0D1FF00E745AA0421284698477B
:1033F00000287FF40CAF459B002B3FF408AF0BE790
:10340000445C537804F00304012C04D12031117082
:1034100011464A1CD8E72029FAD1002DF8D11570A1
:10342000C15C01F00301012908BF2033DBB2511C4C
:103430005370002B18BF0D46EBE700BFF059040096
:10344000009B04006D616700289B0400869B0400BC
:10345000B88804008F9B0400C39B040075470500D7
:10346000FAB00400A30A05004AB20400C2450500F0
:103470006522050092AA040001B1040006B104000F
:103480000CB1040012B104007365740019B104009A
:103490009AA304001B7F05001EB10400646675003A
:1034A0008A2605002BB104001E8B04006E76730083
:1034B00035B104003AB10400DD8004007A726F0077
:1034C00062617400F5280500616C6C00729E050055
:1034D000052210A9304641F02CFD8346002840F01B
:1034E0001383CC48DFF8B4A33FF070FD12230F2004
:1034F000CDE901300B23C84800930722042340F292
:10350000EA713FF063FDC54BC54AC649C6483FF066
:103510005DFDC6483FF05AFDC5483FF057FDC54820
:103520003FF054FDC4483FF051FDDAF80030B3F8E5
:10353000923403F07F037F2B00F0B1821EF0BAFFBC
:103540000146BE483FF042FDDAF8003093F8963469
:10355000FF2B08D013F0800FB94BBA49BA4818BFF7
:1035600019463FF033FDDAF80030B84893F8962456
:10357000B3F892143FF02AFDDAF80030B3F894342F
:1035800003F07F037F2B00F08C821EF0A9FF04461E
:103590001FF0DCFCAE4BAF4A2146002818BF1A468C
:1035A000AD483FF013FDDAF8003093F89724FF2A76
:1035B0000FD0B3F89414090640F1758293F996245C
:1035C000A649A74B31EA220128BF19469E483FF081
:1035D000FDFCDAF800309D4893F89724B3F8941472
:1035E000DFF898823FF0F2FC9E483FF0EFFC0025A8
:1035F000DAF8004004EB85040135D4F84401FEF705
:103600007BF80646D4F868010F46FEF775F8CDE959
:103610000401D4F85C01FEF76FF8CDE90201D4F89B
:103620005001FEF769F83246CDE900013B464046BD
:103630003FF0CCFC032DDBD18B483FF0C7FCDAF820
:103640000060D6F84401FEF757F80446D6F84C015E
:103650000D46FEF751F8CDE90201D6F84801FEF714
:103660004BF822462B46CDE9000180483FF0AEFCE6
:10367000DAF80060D6F85001FEF73EF80446D6F8B6
:1036800070010D46FEF738F8CDE90201D6F8600169
:10369000FEF732F822462B46CDE9000174483FF090
:1036A00095FCDAF80060D6F8FC00FEF725F8044631
:1036B000D6F804010D46FEF71FF8CDE90201D6F851
:1036C0000001FEF719F822462B46CDE900016948B2
:1036D0003FF07CFC45A811F041FA4598FEF70CF844
:1036E000044646980D46FEF707F8064647980F46EB
:1036F000FEF702F8804689461FF0C2FE10EE100A5F
:10370000FDF7FAFFCDE90067CDE9040122465A48EA
:103710005A4F2B46CDE902893FF058FC58483FF0FC
:1037200055FCDAF8006006EB8B060BF1010BD6F8BE
:103730001401FDF7E1FF0446D6F838010D46FDF708
:10374000DBFFCDE90401D6F82C01FDF7D5FFCDE96B
:103750000201D6F82001FDF7CFFF2246CDE9000196
:103760002B4638463FF032FCBBF1030FD9D1DAF8D3
:103770000030D3ED457AF5EE407AF1EE10FA4FF0D5
:10378000000240F09781D3ED467AF5EE407AF1EEF3
:1037900010FA40F08F81D3ED477AF5EE407AF1EEE2
:1037A00010FA40F087810FA80F923EF029F90446E5
:1037B00010F006FC334D10EE100AFDF79DFF064693
:1037C0000F980F46FDF798FF32463B46CDE90201C0
:1037D000009429462C483FF0F9FB1EF091FE01466B
:1037E0002A483FF0F3FB14483FF0F0FBDAF80030D2
:1037F000274893F8661093F86560264B002E08BFA3
:1038000018463FF0E3FB4FF080522348D2F8A8302F
:1038100046E000BFE79B0400289B0400869B040051
:10382000B88804008F9B0400C39B0400079C04001D
:10383000269C0400359C0400299605005D9C04002C
:10384000FB2F0500C01C0500669C0400759C04004D
:10385000676F0500ADB504008A9C0400769A0400E9
:10386000639A0400A29C0400CF9C0400E49C040022
:10387000029D04001F9D04003F9D0400BA9C0400AB
:103880007A9D040098300500909D0400D09D0400AE
:103890008F9A04009F9A0400DD9D0400D00600204A
:1038A000D2F8A4209BB23FF091FBDAF80020B24896
:1038B000D2F86930B2F8672042EA03421B0C3FF0AD
:1038C00085FBDAF80030002B00F0FF8093ED5DAA55
:1038D000DFEDAA8AD3ED5F9A93ED5E9AB7EE008A88
:1038E000C8EE0A7A78EE677A67EEA87A17EE900A41
:1038F000FDF702FFC8EE297A04460D4678EE677A96
:1039000067EEA87A17EE900AFDF7F6FEC8EE097A80
:10391000CDE9020138EE678A68EE287A17EE900A40
:10392000FDF7EAFE22462B46CDE900019448052129
:103930003FF04CFB1AEE100AFDF7DEFE044619EECE
:10394000900A0D46FDF7D8FECDE9020119EE100AE6
:10395000FDF7D2FE2246CDE900012B4689483FF013
:1039600035FBDAF800208449D2F869308648B2F88D
:103970006720002E18BF084642EA03421B0C3FF0A6
:1039800025FBDAF8003093F89814642992BF7F4839
:103990007F4854213FF01AFB7E483FF017FB20F090
:1039A0009BF8834620F0A6F820F006F8824620F027
:1039B000A7F807460E4620F0A3F90546894620F0F1
:1039C000A5F8BBF1000F0446884640F38E8041F015
:1039D00060FA714AC01B61EB0603A0FB020102FB07
:1039E0000311C00B40EA414061A3D3E90023C90B96
:1039F000FEF780FB1946064600231046674AFEF78D
:103A000079FB0746504616B9FBB2002B61D0FDF793
:103A100061FE634B0022FDF7F1FFCDE9006702462E
:103A20000B4660483FF0D2FA55EA090364D05A4B7E
:103A3000A5FB030103FB0911C00B40EA41404CA365
:103A4000D3E90023C90BFEF755FB0546194610467E
:103A50000023524AFEF74EFB2946024652483FF0E9
:103A6000B5FA54EA08034BD04B4BA4FB030103FB0C
:103A70000811C00B40EA41403DA3D3E90023C90B24
:103A8000FEF738FB0446194610460023434AFEF76A
:103A900031FB2146024645483FF098FA8EE44449FE
:103AA0004FE5434C74E5434B434912F0800F18BF78
:103AB00019468BE50FA80F923DF0A2FF044610F0C7
:103AC0007FFA3E4D10EE100A77E63D483FF07EFA51
:103AD00047E7FDF7FFFD324B0022FDF78FFF02465F
:103AE0000B4638483FF072FA9EE73E430CBF36481B
:103AF00036483FF06BFA97E735483FF067FAB0E792
:103B000034483FF063FA59E407222CA9304641F0CB
:103B100010FAB0B941F0BDF92F4A0D460446FFF73F
:103B20000FFB2E4B1B68D3E90401D3E90223801A53
:103B300061EB030100192A4A41EB0501FFF700FB85
:103B40003CE4092238A9304641F0F3F910B90DF0F0
:103B500069FE33E407222EA9304641F0EAF9002835
:103B600040D102200DF0E4FB002022F0F1FE25E41C
:103B700000A493D600000000B29A04000000E144C3
:103B8000F69D0400389E0400CD9A0400989E04001F
:103B9000B19E04002996050040420F000087930360
:103BA00000005940CB9E0400269F0400669F04003D
:103BB000559A0400FB2F0500C01C0500889A0400DC
:103BC000659E0400F19E0400029F0400F49F04001F
:103BD000449F0400889F0400AE9F0400D00600208C
:103BE000B59F0400082234A9304641F0A2F900280C
:103BF00040F011811FF06AFF0146C0483FF0E6F92E
:103C00001FF06AFF80461FF075FF81461FF0D4FE4B
:103C100006461FF075FFB8F1000F04460D4640F34D
:103C2000DA803046FDF756FDB54B0022FDF7E6FE83
:103C3000064648460F46CDF80880FDF74BFDB04BD1
:103C40000022FDF7DBFE3246CDE900013B46AD48E0
:103C50003FF0BCF954EA050300F0C18041F019F9C6
:103C6000001BA94A61EB0501FFF76AFA1FF04EFF3E
:103C7000814688461FF0A0FF07460E461FF0EEFF64
:103C800005460C4620F03CF850EA010300F0AB80FA
:103C90009E4AFFF755FA59EA080300F0A8809C4AAB
:103CA00048464146FFF74CFA57EA060300F0A38066
:103CB000984A38463146FFF743FA55EA040300F0C4
:103CC0009E80954A28462146FFF73AFA3EF037FC97
:103CD00005463EF046FC044628461FF06DFE82462F
:103CE00020461FF069FE80463EF04DFC45EA040385
:103CF0001A0407460E4600F1868050EA010300F0E0
:103D000082804046FDF7E6FC7D4B0022FDF776FE03
:103D1000804628468946FDF7DDFC794B0022FDF7F9
:103D20006DFECDE904012046FDF7D4FC744B002262
:103D3000FDF764FECDE902015046FDF7CBFC704B68
:103D40000022FDF75BFE4246CDE900014B46734879
:103D50003FF03CF9724A38463146FFF7F1F920F05E
:103D600039F8064620F05CF8044620F071F844EA81
:103D700000031B0407464AD42046FDF7ABFC604B0A
:103D80000022FDF73BFE06EB86060446F0B20D4628
:103D9000FDF790FCCDE902013846FDF79BFC584B3E
:103DA0000022FDF72BFE2246CDE900012B465D489F
:103DB0003FF00CF91FF0EAFFFDF77CFC5A4B0022A4
:103DC000FDF71CFE02460B4658483FF0FFF820F076
:103DD000BBF8FFF7F3BA56483FF0F8F83AE7554812
:103DE0003FF0F4F842E754483FF0F0F853E7534807
:103DF0003FF0ECF858E752483FF0E8F85DE75148EB
:103E00003FF0E4F862E750483FF0E0F8A7E74F489A
:103E10003FF0DCF8CEE7052212A9304641F089F8E0
:103E200020B901201FF0E6F8FFF7C8BA0A223BA923
:103E3000304641F07EF818B93DF0DCFDFFF7BEBA20
:103E400005221CA9304641F074F80446002840F0D1
:103E50008F800DB93E4854E63E490422284641F081
:103E60008EF8F0B92E7916F0DF061AD13A492846B5
:103E70003CF00EF8384930463CF00AF83649044622
:103E800030463CF005F83449054630463CF000F831
:103E900008B1324835E6294620460DF06DFCFFF7A3
:103EA0008DBA2F492846FEF7CCF918B90DF000FC61
:103EB000FFF784BA28462B492A4E3BF0E9FF45AD6F
:103EC0000746002F00F07786032C04D126483FF0E8
:103ED0007DF8264815E60FA938463BF07FFF0F9B7B
:103EE000A5EC010ABB42F1D018780028EED131468A
:103EF0003BF0CEFF01340746E3E700BFC19F04005B
:103F000000005940CD9F040003A0040025A0040038
:103F100038A004004EA004007EA00400AEA004005F
:103F2000EEA004001DA104000000344062A10400C2
:103F3000F39F040010A00400449F0400889F040025
:103F40005EA004008EA0040001A104004EA10400A4
:103F500076A10400D5A10400505A0500DAA104009E
:103F6000DD8004001EA2040020A204007DA2040043
:103F700005221EA9304640F0DCFF002840F01682E2
:103F80000DB99448BDE5284693493BF081FF0546AD
:103F90000028F6D09149FEF754F920B9012011F01C
:103FA00047FD8F48ADE58F492846FEF74AF918B915
:103FB00011F03EFD8C48A4E58C492846FEF741F9F6
:103FC000B8B911F0D3FD11F07BFD894D894C002863
:103FD0000CBF2946214688483EF0F8FF10F03CFB14
:103FE00000280CBF2946214684483EF0EFFFFFF72A
:103FF000E5B983492846FEF724F918B910F088F985
:10400000FFF7DCB97F492846FEF71BF9F0B9724982
:104010003BF03EFF044608B97B4872E56F49FEF766
:1040200010F938B9012010F0E9FA78483EF0CEFFD7
:10403000774866E56B492046FEF703F918B910F09A
:10404000DDFA74485DE574482146CEE77349284699
:10405000FEF7F7F8044600285AD1714F3B68B3F8D1
:10406000481909B96F484CE56F483EF0AFFF6F48FB
:104070003EF0ACFF6E483EF0A9FF6C483EF0A6FF54
:1040800000254FF00A0AD7F800B00BEB041606F231
:10409000AC42D2ED007AF5EE407AF1EE10FA24D07F
:1040A00017EE900AFDF728FB04F14B020BEB02130D
:1040B000804698688946FDF71FFBCDE9040106F2AA
:1040C000B44306F596661868FDF716FBCDE90201C4
:1040D0003068FDF711FB4246CDE900014B465548DB
:1040E00021463EF073FF0135ADB2B5FBFAF30AFB92
:1040F00013539BB21BB915B114203DF06CFB013476
:10410000462CC0D149483EF061FF4B4829466CE738
:104110004A492846FEF795F810BB2F493BF0B8FEF8
:10412000044608B94648ECE400230A2245A9459311
:104130003BF060FF459B6BB1A3420BD04149459BCF
:104140001A78002A00F044858A5C150705D43E4899
:1041500021464AE73D48214647E701334593EEE7CC
:104160003B492846FEF76DF8064600BB1A493BF06E
:104170008FFE044640B91FF083F9B4EE400AF1EE19
:1041800010FA10D73348BCE445A945963BF026FE0B
:10419000459BA34201D01B782BB12F4821463EF00E
:1041A00015FF2E48ADE411F03FFEFFF707B92C498B
:1041B0002846FEF746F8002840F087801FF060F997
:1041C000B4EE400AF1EE10FAB0EE408A4CD7254822
:1041D00097E400BF9BA20400505A05009E190500F9
:1041E00016A3040032A3040036A30400F017050050
:1041F000ADB50400676F05006CA3040084A3040040
:104200009AA30400D5A10400A0A30400D2A3040033
:104210001CA4040061A4040083A40400BAA4040044
:10422000D0060020BFA40400F7A404002DA50400BC
:1042300061A5040096A50400C1A50400E8A504003A
:10424000EFA50400729E0500CDB004001FA6040077
:1042500054A6040059A60400AFA60400E7A6040073
:10426000813E050000A7040045A90FA810F07EF9C3
:10427000064618EE100AFDF73FFA02460B46AF4815
:104280003EF0A4FEDDED0F7AF4EE677AF1EE10FA5F
:1042900019D617EE900AFDF72FFA044645980D46F9
:1042A000FDF72AFA2246CDE900012B46A4483EF04C
:1042B0008DFEA44BA44800223EF088FE0EB1A34818
:1042C0001FE4A3481DE4A3481BE4A3492846FDF7C7
:1042D000B8FF002867D1A1493BF0DAFD0446002869
:1042E0004AD19F4C9F48A04EA04D3EF06FFE2368E0
:1042F0009F4893F84C1900290CBF314629463EF0DF
:1043000065FE23689B4893F84D1900290CBF314680
:1043100029463EF05BFE2368974893F84E193EF01D
:1043200055FE2368954893F85C1900290CBF314667
:1043300029463EF04BFE266896F85C39CBB106F56F
:1043400015631868FDF7D8F906F65813044618687F
:104350000D46FDF7D1F9CDE9020106F65416306895
:10436000FDF7CAF92246CDE900012B4684483EF00C
:104370002DFE8448FFF7C5BB8349FDF762FF28B9CE
:10438000012011F02BFB8148FFF7BBBB8049204681
:10439000FDF757FF20B911F021FB7E48FFF7B1BBB5
:1043A0007D48214621E67D4829461EE6072230A9A0
:1043B000304640F0BEFD18B93DF01FFBFEF7FEBFD2
:1043C000042206A9304640F0B4FD0446002840F01F
:1043D0000B81002D75D11EF0B9FD714A7149DFF8CE
:1043E0008081DFF80092002808BF11466E483EF039
:1043F000EDFD1EF075F801466C483EF0E7FD6C4897
:104400003EF0E4FDD8F8005005EB84050134D5F802
:104410001401FDF771F90646D5F838010F46FDF78E
:104420006BF9CDE90401D5F82C01FDF765F9CDE96B
:104430000201D5F82001FDF75FF93246CDE9000110
:104440003B4648463EF0C2FD032CDBD1002345A885
:1044500045933DF0D5FAD8F80030D3ED457AF5EE26
:10446000407AF1EE10FA044625D1D3ED467AF5EE06
:10447000407AF1EE10FA1ED1D3ED477AF5EE407A8C
:10448000F1EE10FA17D10FF09BFD4A4D10EE100A15
:10449000FDF732F902460B46474829463EF096FDA5
:1044A0004598FDF729F902460B46444821463EF05F
:1044B0008DFDFEF783BF0FF083FD414D10EE100A16
:1044C000E6E7264928463BF0E3FC2F490446FDF782
:1044D000B8FE38B93B483EF079FD01201EF0C6FC1D
:1044E000FEF76CBF2A492046FDF7ABFE054620B912
:1044F00035483EF06BFD2846F0E734492046FDF78D
:10450000A0FE28B901210FF0A5FB3148FFF7F9BA49
:1045100030492046FDF795FE20B12F492046FDF792
:1045200090FE40B9002001210FF094FB0FF0ACFC8D
:104530002A48FFF7E6BA2A48FFF7E3BA29A704009A
:1045400045A704000000E03F79A704009EA70400EF
:10455000E5A7040020A80400D3840400505A0500F5
:10456000D00600205FA80400E99A0400E59A040040
:1045700079A8040088A8040099A80400A9A8040048
:10458000BFA80400E3A804009E190500FFA80400CA
:1045900032A3040037A9040053A904008AA9040027
:1045A000ADB50400676F050001AA040013AA04005A
:1045B0007A9D04009830050021AA0400AD9D0400F6
:1045C000889A040041AA040058AA04009AA304008F
:1045D00070AA04003BB1040092AA04009CAA040043
:1045E000BEAA0400BA9C040007A90422304640F089
:1045F000A0FC0146F0B9102228463BF09FFDAD4AD1
:10460000CDE9000106460C4645A811213EF0EBFC21
:1046100056EA04030BD01122294645A840F089FC34
:1046200028B9304621460BF0D1FAFEF7C7BEA248A2
:10463000FFF767BA052216A9304640F07AFC18B990
:104640000BF0B6FAFEF7BABE062228A9304640F0B3
:1046500070FC18B90BF016FBFEF7B0BE082236A9A5
:10466000304640F066FC00283AD12DB993483EF020
:10467000ADFC9348FFF745BA0A2245A928463BF00E
:10468000B9FC459B1B78044613B9431E632B02D922
:104690008C48FFF736BA8C4D01468C483EF096FCAC
:1046A0002B6883F898440DF03DFB2A6802F593626D
:1046B000114601231F2023F0BBF82B68844893F890
:1046C00098143EF083FC0BF013F80A203DF083F8B9
:1046D00001200AF03DFF2B687E4893F8981484E48B
:1046E0000D2241A9304640F024FCF8B9764C7A48B6
:1046F0003EF06CFC2368FF2283F898240DF012FB37
:10470000226802F59362012311461F2023F090F8DE
:1047100072483EF05BFC0AF0EBFF0A203DF05BF8CC
:1047200001200AF015FF6E48FFF7EBB9042208A933
:10473000304640F0FEFB10BBBDB16A4928463BF055
:10474000A7FB044688B16849FDF77BFDA0B967481F
:104750003EF03CFC4FF08043A8226420C3F81C25A7
:104760003DF039F80320FFF7FDB961483EF02EFC1B
:104770004FF080435722F0E75E48214635E405229A
:1047800018A9304640F0D5FB18B90DF03FF8FEF7F8
:1047900015BE042209A9304640F0CBFB18B923F01E
:1047A00049FAFEF70BBE0A223EA9304640F0C1FB93
:1047B000002840F00881444C4F483EF007FC236835
:1047C0004E4AD3F88019914205D04D483EF0FEFB89
:1047D0004C48FFF796B9D3F87459002D40F0B680D5
:1047E00049483EF0F3FB2368484893F878193EF0B7
:1047F000EDFB23684648D3F87C193EF0E7FB2368BD
:10480000444AD3F8A019914238D1D3F88459424888
:10481000042D96BF414B424E53F825603EF0D6FB27
:104820002946404832463EF0D1FB2368D3F8881928
:1048300041B13D483EF0CAFB23683C48D3F88C198F
:104840003EF0C4FB2368D3F8901939B1CBB2009382
:104850003748C1F307230A0C3EF0B8FB2368D3F8AE
:10486000941911B133483EF0B1FB2368D3F898296D
:1048700022B1D3F89C1930483EF0A8FB2F483EF0F7
:10488000A5FB23682E4893F864193EF09FFB23682C
:104890002C48D3F86C193EF099FB236893F86549CE
:1048A000204624F06BF92146024627483EF08EFB55
:1048B0008EE700BFDDAA0400E5AA0400F6AA040002
:1048C0000EAB04003AAB0400D006002070AB04002D
:1048D0008AAB0400A7AB0400CAAB0400F9AB040028
:1048E0002CAC0400505A05005741050054AC04009C
:1048F0006FAC040084AC0400B2AC04005453524CBE
:10490000D3AC0400E84F05000FAD04008EAE0400E8
:10491000ABAE04004C544146C8AE0400AC63040086
:10492000EC9A0400E3AE0400F6AE040008AF040005
:104930001AAF04004DAF04005FAF040070AF040075
:104940007BAF040099AF0400B7AF04002946A2482A
:104950003EF03CFBE90702D5A0483EF037FBAA0732
:1049600002D59F483EF032FB6B0709D5236893F8C8
:104970007929B3F87A399F071BD59A483EF026FB70
:104980002E0702D598483EF021FBE80602D597484D
:104990003EF01CFBE90302D595483EF017FB6A0385
:1049A00002D594483EF012FB2B037FF51CAF9248D2
:1049B00017E7122A96BF914B914953F8221091485C
:1049C0003EF004FBDCE705221AA9304640F0B1FABC
:1049D00020BB40F05EFA4FF4C3620023FDF73AFBC0
:1049E000104619464E220023FDF734FB04461946B3
:1049F000104600230D22FDF72DFB834B8349D2B2D5
:104A0000C0B253F82230824AE4B252F8202051F862
:104A1000241080483EF0DAFAFEF7D0BC062224A922
:104A2000304640F086FAA8B97DB10A2245A9284649
:104A30003BF0E0FA459BAB4204D01B7813B9431E10
:104A40003B2B03D974483EF0C1FA01201EF050FD03
:104A5000FEF7B4BC062226A9304640F06AFA10B927
:104A60006E48FFF74EB806222AA9304640F061FA98
:104A7000002851D1002D4CD004220AA9284640F02C
:104A800058FA18B93CF0B7FEFEF798BC04220BA9FF
:104A9000284640F04EFA18B93CF0B7FEFEF78EBC3F
:104AA00004220CA9284640F044FA20B901210FF055
:104AB000D1F8FEF783BC052220A9284640F039FA38
:104AC00000283FF4F3A9052222A9284640F031FA34
:104AD00000283FF493AA04220DA9284640F029FAA1
:104AE00018B91FF0CBF9FEF769BC072232A9284696
:104AF00040F01FFA18B90CF079FEFEF75FBC0422F3
:104B00000EA9284640F015FA18B923F043F8FEF72D
:104B100055BC4348FEF7F5BF42490422304640F0F9
:104B200008FAF8B9A5B140492846FDF78AFB28B92B
:104B300001200CF043FB3D48FEF7E3BF3C4928460B
:104B4000FDF77FFB20B90CF039FB3A48FEF7D9BFDF
:104B50000CF062FB384A3949002808BF1146384832
:104B6000FFF743BA37490422304640F0E2F9F8B97A
:104B7000A5B12D492846FDF764FB28B9012023F093
:104B800019FB3148FEF7BDBF29492846FDF759FBFF
:104B900020B923F00FFB2D48FEF7B3BF23F004FB31
:104BA000254A2649002808BF11462948FFF71DBAA3
:104BB0002848FEF7A6BF032C7FF488A99DED471A6D
:104BC000DDED460A9DED450A0CF0F6FCFEF7F6BB5E
:104BD0000FF03AFCFEF7F2BB2EAD040041AD04002D
:104BE00060AD04007BAD0400F0AD04000DAE040028
:104BF00033AE040055AE040071AE0400C06304007F
:104C0000D55B0500BCAD04000C64040058640400CE
:104C100040640400DAAF0400E2AF040016B0040000
:104C20004DB00400118D04009E1905005FB0040012
:104C300032A304006DB00400ADB50400676F050039
:104C40007CB0040054A6040086B0040099B00400AF
:104C5000ADB00400BCB004002DE9F04F2DED028B87
:104C6000A84B1A68B2F84889DFB0B0EE408A044613
:104C7000B8F1000F16D1082027F0D0FF58B1A24B91
:104C80004361A24B83610323037480F8118080F891
:104C9000128080F813809E4900234FF4C2523EF0E8
:104CA000ADFE72E09B4FD7F8A03043450BD00023F8
:104CB0003B7787F83C3087F85C3087F87C3087F8A2
:104CC0009C30C7F8A08093490023F6EE006A087F65
:104CD00010B3D1ED007A37EEC87AB0EEC77AB4EEF1
:104CE000E67AF1EE10FA17D507EB431378EE677A00
:104CF000043304F10C02B3EC017AD3ED026A07EE3F
:104D0000A67AA4EC017AA242F5D1002528465FB02C
:104D1000BDEC028BBDE8F08F0133052B01F12001C2
:104D2000D5D1B8F1010F33D102F2AC410023D1ED5E
:104D3000007AF5EE407AF1EE10FA21D04B331901EA
:104D400002EB031350585968254603C5986828603C
:104D5000B0EE480A0DF004F807EB401383ED000AAB
:104D6000450194E807002E1D3E44103586E80700F3
:104D7000002279197A51C1E9012201221A77C4E788
:104D80000133462B01F11001D1D14FF0FF35BDE7C2
:104D9000DFED617A9FED614A002502F5966602F526
:104DA000116E2B46B0EE676AF1EE094AB7EE005A73
:104DB0004FF0140C56ED016AF5EE406AF1EE10FA70
:104DC0003DD036EEC87A27EE077AC7EE245A75EE44
:104DD000855A85EE257AB4EEC47AF1EE10FA2ED417
:104DE000092D62DC0CFB05F909F5BC71694441ED44
:104DF000326A01ED2E7A09F104092CA93068894440
:104E00007168A9E803000135B068C9F800000A2DEF
:104E100015D1DDED307A2CA90023012591ED097A19
:104E2000B4EEE77AF1EE10FA48BF2B4605F1010522
:104E300048BFF0EE477A0A2D01F11401EED1103689
:104E40007645B7D1002D40F0E08102F2AC4EDFEDA7
:104E5000377A02F60C11734693ED007AB5EE407A7C
:104E6000F1EE10FA06D0B4EE677AF1EE10FA48BF10
:104E7000F0EE477A10338B42EED19FED297AF4EEB3
:104E8000C77AF1EE10FA53DD082027F0C7FE00289C
:104E90003FF401AF1C4B43611C4B8361032303743C
:104EA000002343748374C374F5E6B4EEE77AF1EE3D
:104EB00010FAC4DD0CFB03F303F5BC71694401ED8A
:104EC0002E7A41ED326A04332CA930680B447168A4
:104ED00003C3B0681860DDED307A2CA800230121EF
:104EE00090ED097AB4EEE77AF1EE10FA48BF0B467E
:104EF00001F1010148BFF0EE477A0A2900F11400E0
:104F0000EED19CE7D00600201EB5040055E5040054
:104F10004C5F0400385B0020000000008FC2F53CAD
:104F200000C079440AD7233C00007AC400007A44C8
:104F3000B4EEE78A0026F1EE10FA5FED065AB146AC
:104F400053D45FED076A704600214FF0FF3390EDB8
:104F5000007AB5EE407AF1EE10FA0FD00DF1700A3A
:104F60004FF0000CB44540F09280B4EEE67AF1EEDA
:104F700010FAC8BF0B46C8BFF0EE476A0131462998
:104F800000F11000E3D1591C16D01CA901EB06104A
:104F900002EB031101F2AC414B33096801601901C6
:104FA00002EB031300F1040C50585968ACE80300FD
:104FB0009868CCF80000013609F10109B9F1040F35
:104FC00054D0C145BDDB51E0D346DBED007A77EE2E
:104FD000C77A0AF1100AF0EEE77AF4EEE57AF1EE1C
:104FE00010FA1ED40CF1010C10E05FED306A70462F
:104FF00000214FF0FF3390ED007AB5EE407AF1EEEC
:1050000010FA0ED00DF1700A4FF0000CB445DBD150
:10501000B4EEE67AF1EE10FA48BF0B4648BFF0EE68
:10502000476A0131462900F11000E4D1581C16D01E
:105030001CA901EB061002EB031101F2AC414B334A
:1050400009680160190102EB031300F1040C5058C8
:105050005968ACE803009868CCF80000013609F103
:105060000109B9F1040F01D0C145BEDB0EBB082018
:1050700027F0D4FD00283FF40EAE734B4361734B11
:1050800083610323037446748674C67403E6D346AF
:10509000DBED007A77EEC77A0AF1100AF0EEE77AD4
:1050A000F4EEE57AF1EE10FA3FF568AF0CF1010C81
:1050B00058E7012E20D11DAB93E80700B0EE480A57
:1050C00084E807000CF04CFE07EB401383ED008AE8
:1050D0004FEA401C94E807000CF1040EBE440CF1AA
:1050E000100C8EE80700002207EB0C0147F80C209B
:1050F000C1E901221E7709E61CABDFED557A19469E
:105100000022084690ED007A0132B24277EE877AAB
:1051100001F11001F5D107EE106AF8EEC74A194601
:10512000C7EEA45A0022DFED4A7A084690ED007AD5
:10513000013237EE657AB24247EE077A01F110018B
:10514000F3D10DF158089FED434ADFED413A88ED68
:10515000006AC44604F10C0E224688ED016A88ED0F
:10516000026ADFED3B6A1846002190ED017A0131B9
:10517000B14276EE876A00F11000F6D186EEA47A8D
:1051800019460020A4EB020A9FED316AD1ED016AB5
:1051900001EB0A0999ED005A76EEC76A35EE655AB9
:1051A0000130B04205EE266A01F11001EED1F4EEB5
:1051B000C47AF1EE10FAC8BFC6EE276A03F1040301
:1051C00038EE656AD8BFF0EE636A06EE267AECEC3C
:1051D000016AA2EC017A9645C3D1B0EE480A0CF000
:1051E000BFFD07EB4016430186ED008A1A1D1744E8
:1051F00094E8070087E80700174A134498E8070077
:1052000083E807000123337780E5012D2DAE25D1FA
:1052100096E80700B0EE480A84E807000CF0A0FD0D
:1052200007EB401383ED008A460194E8070006F17E
:10523000040CBC4410368CE807000022B919BA519E
:10524000C1E901221D7760E54BB5040055E5040076
:10525000000000006F12833A485B00200023002208
:1052600043EC172B8DED047B8DED027BCDE91623EE
:10527000CDE91823CDE91A23CDE91C23CDE91E235E
:10528000CDE92023CDE9002300230893F068FCF743
:1052900033FA56ED017A77EEC87ACDE90A0117EEB6
:1052A000900AFCF729FADDE90A2380468946DDE900
:1052B0000001FCF7C3F8DDE90A23CDE9000140460F
:1052C0004946FCF771FA02460B46CDE90601DDE9D5
:1052D0000201FCF7B3F84246CDE902014B46DDE995
:1052E0000601FCF761FA0B460246DDE90401FCF712
:1052F000A5F816AB0D93CDE904011CABDDF834B075
:105300000E939A460F9600270F9B53F8040B0F93AA
:10531000FCF7F2F9DBE9008902460B46CDE91023E0
:10532000DDE90A23FCF740FA42464B46FCF786F8D3
:10533000DAE90089DDE91023EBE80201DDE9060185
:10534000FCF732FA42464B46FCF778F80137032F58
:10535000EAE80201D8D1089B0133AB42089306F179
:10536000140693D1DDE90023DDE90401FCF71CFA02
:10537000DDE9022306460F4610461946FCF714FAEB
:1053800002460B4630463946FCF756F847A3D3E9A8
:1053900000238B4621F000418246FCF777FC00B3E6
:1053A000DDE90023DDE91601FCF728FBFCF7F4FC3E
:1053B000DDE900232060DDE91801FCF71FFBFCF7A5
:1053C000EBFCDDE900236060DDE91A01FCF716FB68
:1053D000FCF7E2FCB0EE480AA0600CF0C1FC324FD2
:1053E000BAE425460DF14C0804F10C090D9BB3EC11
:1053F000027B0D930E9BF3E8026751EC170B0E93A3
:10540000DDE904238DED067BFCF7CEF9DDE902230F
:10541000CDE9080130463946FCF7C6F902460B468D
:10542000DDE90801FCF708F852465B46FCF7E6FAAE
:10543000FCF7B2FCDDE9002345F8040B39463046A1
:10544000FCF7B2F9DDE9022306460F46DDE9060165
:10545000FCF7AAF902460B4630463946FBF7ECFF4B
:1054600052465B46FCF7CAFAFCF796FC4D4548F8F5
:10547000040BBBD1B0EE480A0CF072FC0A4E06EBEE
:10548000401585ED008A430194E807001F1D37444D
:1054900087E8070013AA07CA1036334483E80700D9
:1054A00001232B7731E400BF385B0020BBBDD7D987
:1054B000DF7CDB3D000000002DE9F04F2DED068B79
:1054C000A3B016ACCDE90D1209900C934FF4004235
:1054D000002320460CF0CCFF68B994E8070019AB14
:1054E0001CAC83E807004FF40042002320460DF077
:1054F0001DF8834638B16FF0010B584623B0BDEC60
:10550000068BBDE8F08F94E8070022AB03E90700A3
:105510001DF0B6FFB4EE400AF1EE10FAB0EE408A8C
:1055200080F1CA80FBEE047AB4EEE70AF1EE10FADD
:1055300040F3C280DFEDBE7AB4EEE70AF1EE10FA76
:1055400040F1BA80B0EE409A3CF0A7F9CDE91001E5
:105550001DF0BAFFF0EE409A1DF0A2FFC9EE807A6E
:10556000B6EE007A77EE877A19EE900AFDEEE77ACA
:10557000F0EE408A17EE903A012BB8BF0123089352
:10558000FCF7BAF8CDE90A010C2027F047FB0546E5
:1055900098B19DED0A7BA74B436180ED067B18EE29
:1055A000900AFCF7A9F8089BAB62C5E9080107233C
:1055B0002B7400236B74AB74EB74002328469E4954
:1055C0009FED9EAADFED9AAA4FF463523EF016FAC1
:1055D0009FED957B0C9B8DED047B8DED027B8DED1E
:1055E000007B8DED067B0025DB172E462F46AA4655
:1055F0002C460F933CF051F9109BB0EB0308119B24
:1056000061EB03090C9B98450F9B79EB030358DB77
:10561000082027F003FB50B1894BC0F81C90C0E96B
:10562000053804230374002343748374C374002374
:105630004FF4035280493EF0E1F9082027F0EEFADA
:1056400040B1804BC0E90537032303740023437442
:105650008374C374784900234FF4C6523EF0CEF9E8
:10566000DDED327A9FED787AF8EEE76AC6EE877A5A
:1056700027EEA90AFDEEC07A17EE904AA74280F203
:1056800054810C2027F0CAFA78B1704BC4619DEDAB
:105690000A7BC0E90537329B836280ED087B0723D4
:1056A0000374002343748374C374634900234FF469
:1056B00062523EF0A3F91EE79FED659A9FED658A61
:1056C00042E7FDEEE97A013517EE903A9D4203DBA1
:1056D000072023F053F90025329B329ADB179045BF
:1056E00079EB030313DB94B10A2027F097FA50B14A
:1056F000594BC0E90797C0E9053805230374002317
:1057000043748374C37400234FF4235292E7089BBD
:10571000B3424FDC40F6CD42002313A80CF0A8FEA4
:10572000064600287FF4E7AE13AB16AA19A98046F7
:10573000B3EC017AF2EC017AB4EEE77AD1ED007ABB
:10574000F1EE10FAB4EE677A48BF02ED017AF1EE9D
:1057500010FAC8BFF0EE477A12ED017AE1EC017A57
:1057600077EEC78AF4EECA8AF1EE10FA1DDD0A2040
:1057700027F054FA044670B1384BC4E9053818EEE6
:10578000900AFBF7B9FF0623C4E90801237400233C
:105790006374A374E374284900234FF443522046F2
:1057A0003EF02CF94FF0FF3BA7E608F10108B8F1F5
:1057B000030FBDD140F6CD42002313A80CF0B6FE76
:1057C0000136804600287FF496AE13AB1CAA1FA9B1
:1057D000F7EE086AB3EC017AF2EC017AB4EEE77AFC
:1057E000D1ED007AF1EE10FAB4EE677A48BF02ED1F
:1057F000017AF1EE10FAC8BFF0EE477A12ED017AA5
:10580000E1EC017A77EEC78AF4EEE68AF1EE10FA5F
:1058100028DD0A2027F002FA04460028BBD0104BEE
:10582000ABE700BFAFF30080000000000000000005
:10583000000070420FB704004C5F04008FC2753D3A
:105840005FB7040012B8040000007A4428B80400CE
:10585000000080FF0000807F83B70400BFB7040012
:10586000E9B7040008F10108B8F1030FB2D11398A9
:10587000FBF742FF02460B46DDE90001FBF7DEFDC8
:10588000CDE900011498FBF737FF02460B46DDE92E
:105890000201FBF7D3FDCDE902011598FBF72CFFC0
:1058A00002460B46DDE90401FBF7C8FDCDE9040122
:1058B0001DF0E6FDB4EE400AF1EE10FAF0EE408A7B
:1058C00031D6FBEE047AB4EEE70AF1EE10FA2ADDE7
:1058D000B4EEEA0AF1EE10FA25D510EE100AFBF745
:1058E0000BFF02460B46DDE90601FBF7A7FDF4EED0
:1058F000488AF1EE10FAF4EE498A48BFB0EE688AA1
:10590000F1EE10FAC8BFB0EE689A39EE487AF7EEB9
:10591000007AB4EE677ACDE90601F1EE10FA0AF1E9
:10592000010AA8BF0124013764E6BAF1000F28D0AC
:105930005046FBF7CFFE02460B46DDE90601FCF7B9
:105940005DF8FCF729FA0D9B054618600A2027F040
:1059500065F9044670B1324B43612846FBF7CCFE33
:105960000523C4E9060123740023C4F820A063744E
:10597000A374E3742B4900234FF4235220463EF0D6
:105980003DF80E9B79EE488A0C20C3ED008A27F083
:1059900045F90446C8B1244B436118EE900AFBF761
:1059A000ABFEC4E9060118EE100AFBF7A5FEC4E938
:1059B000080119EE100AFBF79FFE0823C4E90A014B
:1059C000237400236374A374E374002344F2C002BD
:1059D000204614493EF012F83846FBF77BFE02469B
:1059E0000B4604460D46DDE90001FCF707F8FCF71D
:1059F000D3F9099B224618602B46DDE90201FBF72B
:105A0000FDFFFCF7C9F9099B224658602B46DDE9EA
:105A10000401FBF7F3FFFCF7BFF9099B98606CE505
:105A200077B804004C5F0400A6B804000000000032
:105A30002DE9F04F2DED068BADF2244D0CF054FC0A
:105A400006463BF02AFF3F2E04460D4645DDBC4B83
:105A5000BC48D3E90076D0E900239E4208BF9742B4
:105A60003BD0B949D1E90023012A73F1000C07DBCF
:105A7000A21A65EB0303B2F5706F73F100032CDB20
:105A8000C0E900760023C1E90045B048089306A9A3
:105A9000CDE9063323F0DAF8B5EE400AF1EE10FA5C
:105AA000AB4EF0EE408A1ED00EF08AFADFEDA97AF6
:105AB000B4EEE70AF1EE10FAD6E90023B0EE408A20
:105AC00013D552EA030108D0A21A40F6B83165EBAB
:105AD00003038A4273F1000307DA0DF2244DBDEC93
:105AE000068BBDE8F08FB7EE008AD6E90023012AC5
:105AF00073F1000108DBA21A40F6B93165EB03032C
:105B00008A4273F1000378DAF5EE408AF1EE10FA7A
:105B100073D0DFED917AB4EEE78AF1EE10FA6CD52E
:105B20008E4B1E68022E68DDDFED8D7AB4EEE78ABB
:105B3000F1EE10FA1BD50A2027F070F8044670B178
:105B4000884B436118EE100AFBF7D6FD0523C4E924
:105B500006012374002326626374A374E374002394
:105B60004FF42352804920463DF048FFB5E70DF041
:105B700045F9DFED7E7AB4EEE70AF1EE10FA10EEA9
:105B8000107A21D50E2027F049F80446C0B1784B91
:105B9000436118EE100AFBF7AFFD67A3D3E90023BA
:105BA000C4E90601C4E908233846FBF7A5FD09232B
:105BB000C4E90A012374002326636374A374E374A5
:105BC000002344F6C002CDE7082027F027F8064658
:105BD00060B1684B43613846FBF78EFD0423C6E98C
:105BE0000601337400237374B374F3745E490023A5
:105BF0004FF4035230463DF001FF4FF4487200214C
:105C000040A83FF0B4F94FF0000A4FF0000B4FF0FE
:105C1000000834A8CDE904ABCDE90988CDF82C8083
:105C20000CF09EFB34A857EC106B0CF071FBCDE927
:105C300018ABDFF850A18DED010A50460CF03CFB8B
:105C4000002875D108F10108B8F1080F0AF1D00A4F
:105C5000F3D1494B002230463946FCF717F880460D
:105C600000287FF43AAF9DED017AF6EE007AB4EEAB
:105C7000E77AF1EE10FA40F187800C2026F0CEFF93
:105C80000446B8B13D4B43610198FBF735FD3C4BF1
:105C90000022C4E90601C4E9082330463946FCF76E
:105CA00033F80723A062237484F8118084F81280EB
:105CB00084F8138000234FF4635253E759F8040C1F
:105CC000FBF71AFD41EC1A0B59F8080CFBF714FD11
:105CD00041EC190B59F80C0CFBF70EFDB0EE4A2AFB
:105CE000F0EE6A2AB0EE491AF0EE691A41EC100B98
:105CF00018AA04A940A81AF00BFF59F80C3C1C93F1
:105D000059F8083C1D9328AA59F8043C1E931CA975
:105D100034A83BF055FE28A909A83BF09AFD0BF1E9
:105D2000010B9AF8C1309B4509F10C09C6DB89E7E4
:105D3000D1464FF0000BF4E7000000A09999A93F6D
:105D4000A01B0020981B0020901B00200861002051
:105D5000701B00200AD7233DCDCC4C3D7460002041
:105D6000295C0F3D56BF04004C5F0400CDCCCC3DF8
:105D700086BF0400CBBF04000000504007C00400F1
:105D80000000E03FA81B002032463B46DDE904014D
:105D9000FBF734FEFCF700F8F5EE408AF1EE10FA5E
:105DA00009EE900A4DD0DFF88093D9F80030002B2F
:105DB00047DDDFF8788398ED00AAB5EEC0AAF1EED2
:105DC00010FA3EDD89EE8A9AF7EE047AB4EEE79A8D
:105DD000F1EE10FA06DCDFEDC87AB4EEE79AF1EEE8
:105DE00010FA2ED50C2026F019FF0446C8B1C34B7B
:105DF00043611AEE100AFBF77FFCC4E9060119EEB5
:105E0000900AFBF779FCC4E9080119EE100AFBF7C8
:105E100073FC0823C4E90A01237400236374A37488
:105E2000E3740023B6494FF4814220463DF0E6FD7D
:105E30000DF04CF80023C9F800300023C8F80030FA
:105E40004BE600224FF0804330463946FBF71EFFF9
:105E5000B7EE009A002864D139463046FBF79CFF24
:105E600007EE900A89EE277ADDED0A7ADDED096A00
:105E70009DED0B6A67EE277A67EE266A27EEA70A82
:105E800006EEA60A27EE067A07EE070A38F082FD2C
:105E900010EE100AFBF730FC804689463046394642
:105EA000FBF732FF82460C2026F0B8FE8346A0B1F5
:105EB000944B43610198FBF71FFC0723CBE90601D4
:105EC000CBE908898BF810300023CBF828A08BF899
:105ED00011308BF812308BF81330894900234FF4BE
:105EE000635258463DF08AFD47EC116B9DED040B63
:105EF0001CA940A80CF04CF90646A8B90A2026F0C7
:105F00008DFE48B1804B4674C0E90889C0E9053A66
:105F1000062303748674C67400234FF443527849F1
:105F200022E619EE100AB5E7F5EE408AF1EE10FA16
:105F3000764E00F04B82D6E90023012A73F100016E
:105F400009DBA21A41F2707165EB03038A4273F117
:105F50000003FFF6C2AD1CA80CF048FADFED6C7A26
:105F6000B4EEE70AF1EE10FA2DDA9FED737ADFED69
:105F7000697AB4EEC70AF1EE10FA09D930EE470A91
:105F80009FED657AC0EE076A9FED647A46EE877AE8
:105F9000634B39EE679A00221CA98F1834A9881820
:105FA00003F10C01B7EC017AF3EC016A27EE877A72
:105FB00009EE267A9942A0EC017AF3D10C32302A0C
:105FC00004D00B46E8E7DFED577AE1E70023CDE99F
:105FD0000C330E93379B0F933B9B10930FA83F9B63
:105FE00011933CF04FFCDDED0F7ADDED108A8DED65
:105FF000120AF0EEE77AF0EEE88AF4EE687AF1EE53
:1060000010FAC8BFF0EE678ADDED117A8DED130A44
:10601000F0EEE77AF4EEE87AF1EE10FAB0EE409A9C
:106020008DED140A0CA9B7EE000A34A858BFF0EEA3
:10603000678A22F027FE002840F080801F9B15937E
:10604000239B169315A8279B17933CF01BFCDDEDB3
:10605000157ADDED168A8DED180AF0EEE77AF0EE8E
:10606000E88AF4EE687AF1EE10FAC8BFF0EE678ABB
:10607000DDED177A8DED190AF0EEE77AF4EEE87AA5
:10608000F1EE10FAB0EE409A8DED1A0A0CA9B7EEB7
:10609000000A1CA858BFF0EE678A22F0F3FD002822
:1060A00000F05A81DFED227A9FED220A29EE279A2D
:1060B00018A9B4EEC09AF1EE10FAC8BFB0EE490AC2
:1060C00015A822F0DFFD002800F04681F2EE007AEC
:1060D000F4EEE78AF1EE10FA00F23E810DF1700C59
:1060E000BCE80F0028AF0FC7BCE80F000FC79CE843
:1060F0000F0087E80F004AE0CDCC4C3F55C00400AC
:106100004C5F0400B0C00400EDC00400801B002000
:10611000EC51783F3333333F90C2F53DE17A14BF01
:10612000086100208FC2F53D74600020706000207F
:10613000CDCC4C3ECDCCCC3D9A99593F5FED047A05
:106140001FED040A29EE279A12A9B4EEC09AF1EEC7
:1061500010FAC8BFB0EE490A0FA822F093FD00283C
:106160003FF46CAFF2EE007AF4EEE78AF1EE10FA4B
:106170003FF664AF34AF0FCF0DF1A00CACE80F00C9
:106180000FCFACE80F0097E80F008CE80F001CA8B9
:106190000CF02CF95FED187AA14F8DED010AB4EEE9
:1061A000E70AF1EE10FAD7F800B022D510EE100A87
:1061B000FBF7A2FABBF1020FCDE9020100F3DC808C
:1061C0000A2026F02BFD70B19DED027B954B4361BB
:1061D0000BF10103036280ED067B052303740023AA
:1061E00043748374C374904900234FF423523DF0E9
:1061F00005FC3B6802930E2026F010FD8346E0B1BB
:10620000029B8A4A42610133C0E9063AC0E9088923
:1062100018EE100AFBF770FACBE90A010198FBF7B8
:106220006BFA0A23CBE90C018BF8103000238BF8B2
:1062300011308BF812308BF813307B49002345F274
:10624000C00258463DF0DAFB0DF1A00CBCE80F008F
:10625000DFF8F0E1AEE80F00BCE80F00AEE80F0099
:106260009CE80F000DF1A0088EE80F00B8E80F00C1
:106270000DF1700EAEE80F00B8E80F00AEE80F00A9
:106280009CE80F008EE80F000CF020FE3B68C6E98A
:10629000004501333B60664BC3ED009A10F0D8F91E
:1062A0001CF07AFE634B644A00241C6000231360D8
:1062B000624A1360624B634A19680520302301F576
:1062C0008A7121F0B5FA1CF04DFE062026F0A6FCDE
:1062D00030B15D4B43610223037444748474C4740D
:1062E000514900234FF486523DF088FB1CAC032635
:1062F000002754F804BB0E20D4F808A0D4F814905A
:10630000D4F8208026F08AFC0546D0B14F4B43617B
:106310005846FBF7F1F9C5E906015046FBF7ECF9E1
:10632000C5E908014846FBF7E7F9C5E90A01404617
:10633000FBF7E2F9C5E90C010A232B746F74AF7403
:10634000EF743949002345F2C00228463DF056FB60
:10635000013ECED1FFF7C1BB062026F05FFC38B16D
:106360003B4B436102230374002343748374C3745F
:1063700000234FF48452D2E518EE100AFBF7BCF963
:10638000DFED347AB4EEE78AF1EE10FA04460D46FA
:106390004FF00A0014D526F041FC68B12E4B436142
:1063A0009DED027B062380ED067BC0E90845037462
:1063B000002343748374C37400234FF44252AEE548
:1063C00026F02CFC0028F7D0244BE8E70A2026F022
:1063D00025FC50B1224BC0E90889C0E9053A0623E3
:1063E0000374002343748374C3740F49154F00234F
:1063F0004FF443523DF002FB0DF1700CBCE80F006E
:106400000FC7BCE80F000FC79CE80F0087E80F001C
:106410000CF05CFD024B0122C6E900451A603AE728
:106420007460002066C104004C5F04006DC204006B
:106430007060002078600020806000207C60002078
:10644000D00600200861002002C304003EBE040004
:106450002DC10400CDCC4C3DA2C1040009C20400F2
:10646000BDC20400000000002DE9F04F2DED048BAB
:106470000021BDB0072022F005FA0CF045FE1CF00B
:1064800029F804463BF009FA05460E465CB942F28B
:106490001077072022F072FA0A203BF081FA1CF0F4
:1064A00019F80446B0B1B44D2B68B3F84849032C31
:1064B00039D80021012208460CF03CFF01210020C0
:1064C0000CF0CCFF1CF048FDF0B1012100200DF0D4
:1064D000FFFB19E03BF0E1F9401B61EB0601B8421C
:1064E00071F10001D5DB062026F098FB30B1A34BFB
:1064F00043610223037444748474C474A049002368
:106500004FF486523DF07AFA00200CF037F9431E22
:106510000D90042B01F25E80DFE813F0600077003D
:10652000B2006902AC03462C1DD90A2026F076FB86
:1065300060B1944B4361944BC0E906344623036237
:1065400005230374002343748374C37400234FF43E
:1065500021528B493DF052FA2B680022A3F84829BA
:1065600083F84A29A5E71CF08BFFB4EE400AF1EE50
:1065700010FAB0EE408A1ED6082026F04FFB0446E3
:1065800068B1824B436118EE100AFBF7B5F804239B
:10659000C4E90601237400236374A374E374784987
:1065A00000234FF4035220463DF028FAB0EE480A8B
:1065B0000BF080FC7DE7062026F030FB38B1744BF1
:1065C000436102230374002343748374C3746C49CE
:1065D00000234FF484523DF011FA6AE70121202094
:1065E00020F00EFF0EF068FB4FF0FF300CF0C6F805
:1065F0000021202020F004FF664B93F87534022B15
:1066000041F0568401230D9313E00121202020F056
:10661000F7FE0CF08FFF4FF0FF300CF0AFF80021C9
:10662000202020F0EDFE5B4B93F87534022B41F0F7
:106630003F84514B574C1B68D4F87024B3F8483949
:106640009A424FF0000501F01584A4F87454082014
:10665000D4F8844426F0E2FA50B14F4BC0E9053437
:106660004723C36104230374002343748374C374F6
:10667000434900234FF403523DF0C0F901F0E6BB5B
:106680002020012120F0BCFE062026F0C7FA38B1F8
:10669000424B436102230374002343748374C37425
:1066A000374900234FF486523DF0A8F91CF0E8FE6C
:1066B000B4EE400AF1EE10FAB0EE408A0DD6FBEED1
:1066C000047AB4EEE70AF1EE10FA06D4DFED347A7C
:1066D000B4EEE70AF1EE10FA14DD082026F09EFA77
:1066E00048B1304B4361304B836103230374002373
:1066F00043748374C374224900234FF4C2523DF0A3
:106700007DF988E70BF070FF1B4C0546002851D13E
:10671000062026F083FA30B1244B43610223037430
:1067200045748574C57400234FF4845214493DF0B8
:1067300065F9226892F84E390133DBB2012B82F8F9
:106740004E397FF668AF082026F068FA48B1184B3A
:10675000436102238361032303740023437483741E
:10676000C37400234FF4C45205493DF047F9236830
:10677000012283F84D294EE7D006002037CB0400D4
:106780004C5F040077CB04006CE50400ADCB040043
:10679000F6CB0400DC5B00206FDB04002ACC040095
:1067A000000070424ECC0400FAE4040070CC0400F7
:1067B00090CC04004FF4FA703BF0F2F8062026F07B
:1067C0002DFA38B1AE4B43610223037400234374A6
:1067D0008374C374AB4900234FF486523DF00EF925
:1067E000A94B309340F6B833009330AA41F2883376
:1067F0002AA92DA8FEF760FE834600287BD0B0F1C1
:10680000FF3F50D1062026F009FA38B19F4B436173
:1068100002230374002343748374C37400234FF46E
:10682000865298493DF0EAF8226892F84E390133D1
:10683000DBB2012B82F84E397FF6EDAE082026F050
:10684000EDF948B1924B4361022383610323037442
:10685000002343748374C3748A4900234FF4C452E1
:106860003DF0CCF830A8B0EE480A0EF081F90546AC
:1068700000287FF47CAF062026F0D0F930B1854B9C
:1068800043610223037445748574C5747D490023F4
:106890004FF486523DF0B2F82368012283F84D2967
:1068A0003BF0A8F8B7E610F1020F11D1082026F04E
:1068B000B5F948B1784B4361784B83610323037486
:1068C000002343748374C37400234FF4C252A8E7B7
:1068D00010F1030FA8D1062026F0A0F938B1704BB3
:1068E000436102230374002343748374C37400233D
:1068F0004FF4845295E79DED2A8ADDF8B4A0DDF8C7
:10690000B890DDF8BC8018EE100AFAF7F5FE0646DE
:106910001020309D0F4626F081F90446F8B1614BF6
:1069200043615046FAF7E8FEC4E906014846FAF723
:10693000E3FEC4E908014046FAF7DEFEC4E90C674D
:10694000C4E90A012846FAF7D7FEC4E90E010C2370
:10695000237484F811B084F812B084F813B0204680
:106960004849514C002346F2C0023DF047F8B0EED2
:10697000480A2DA80EF0D8FD054688B1082026F05B
:106980004DF948B1494B4361494B8361032303747B
:10699000002343748374C37400234FF4C252E3E6AC
:1069A0002368012283F84D29424B83ED008A3AF097
:1069B00074FF414B8046C3E900010A200C4626F0D3
:1069C0002DF950B13D4B4361C0E90667C0E9088429
:1069D0000623037445748574C57400234FF4435231
:1069E00028493DF00BF800201CF0C6FA13E62020E1
:1069F000012120F005FD062026F010F938B1304BBA
:106A0000436102230374002343748374C3741D49D8
:106A100000234FF486523CF0F1FF1CF031FDB4EE40
:106A2000400AF1EE10FA0DD6FBEE047AB4EEE70A56
:106A3000F1EE10FA06D4DFED237AB4EEE70AF1EEB8
:106A400010FA47DD082026F0E9F848B11E4B4361F3
:106A50001E4B836103230374002343748374C37444
:106A600000234FF4C25207493CF0C8FF3AF015FF2B
:106A7000174A114B801861F10001C3E90001CAE512
:106A8000C3CC04004C5F04000000C07FF7CC0400BE
:106A9000C5CD0400EDCD040023CD0400E1E40400E5
:106AA0004BCD04007CCD0400D006002036CE04007F
:106AB000FAE40400D8060020681B002061CE040020
:106AC0009DCE040000007042DCCE0400A0E404006F
:106AD000D08AFFFF082026F0A1F840B1A44B436103
